:020000040800F2
:1000000000000320ED3000083D2D00084B2D0008B6
:10001000512D0008572D00085D2D0008000000003C
:10002000000000000000000000000000632D000838
:10003000712D0008000000007F2D00088D2D0008A4
:100040003D3100083D3100083D3100083D310008D8
:100050003D3100083D3100083D3100083D310008C8
:100060003D3100083D3100083D3100083D310008B8
:100070003D3100083D3100083D3100083D310008A8
:100080003D3100083D3100083D3100083D31000898
:100090003D3100083D3100083D3100083D31000888
:1000A0003D3100083D3100083D3100083D31000878
:1000B0003D3100083D3100083D3100083D31000868
:1000C0003D3100083D3100083D3100083D31000858
:1000D0003D310008992D00083D3100083D310008F0
:1000E0003D3100083D3100083D3100083D31000838
:1000F0003D3100083D3100083D3100083D31000828
:100100003D3100083D3100083D3100083D31000817
:100110003D3100083D3100083D3100083D31000807
:100120003D3100083D310008AD2D00083D3100088B
:100130003D3100083D3100083D3100083D310008E7
:100140003D3100083D3100083D3100083D310008D7
:100150003D3100083D310008C12D00083D31000847
:100160003D3100083D3100083D3100083D310008B7
:100170003D3100083D3100083D310008000000001D
:100180003D3100083D3100083D3100083D31000897
:100190003D3100083D3100083D3100083D31000887
:0C01A0003D3100083D3100083D310008F1
:1001B00010B5054C237833B9044B13B10448AFF3A1
:1001C00000800123237010BD70000020000000009B
:1001D0003440000808B5034B1BB103490348AFF393
:1001E000008008BD000000007400002034400008BA
:1001F00001F0FF01102A2BDB10F0070F08D010F8D8
:10020000013B013A8B422DD010F0070F42B3F6D1DB
:10021000F0B441EA012141EA014122F007047FF0F4
:1002200000070023F0E80256083C85EA010586EA4B
:10023000010685FA47F5A3FA87F586FA47F6A5FA87
:1002400087F68EB9EED1F0BC01F0FF0102F0070293
:1002500032B110F8013B013A83EA010313B1F8D13E
:100260000020704701387047002D06BF354603381F
:10027000073815F0010F07D1013015F4807F02BF58
:10028000013015F4C03F0130F0BC0138704700BFA9
:1002900053B94AB9002908BF00281CBF4FF0FF31ED
:1002A0004FF0FF3000F072B9ADF1080C6DE904CEEB
:1002B00000F006F8DDF804E0DDE9022304B0704741
:1002C0002DE9F047089E04468846002B4BD18A4210
:1002D000154667D9B2FA82F24AB1C2F1200701FA93
:1002E00002F320FA07F7954047EA030894404FEAE3
:1002F000154E230CB8FBFEF71FFA85FC0EFB178882
:1003000043EA084307FB0CF1994209D9EB1807F1BE
:10031000FF3080F01B81994240F21881023F2B444C
:100320005B1AA4B2B3FBFEF00EFB103344EA0344A5
:1003300000FB0CFCA44509D92C1900F1FF3380F017
:100340000781A44540F2048102382C4440EA07406A
:10035000A4EB0C0400271EB1D4400023C6E90043DF
:100360003946BDE8F0878B4209D9002E00F0EB80BA
:100370000027C6E9000138463946BDE8F087B3FAE0
:1003800083F7002F47D18B4202D3824200F2FA80DA
:10039000841A61EB030301209846002EE0D0C6E9E1
:1003A0000048DDE702B9FFDEB2FA82F2002A40F02F
:1003B0008F80491B4FEA154E1FFA85F80127B1FBC4
:1003C000FEFC230C0EFB1C1143EA014308FB0CF15D
:1003D000994207D9EB180CF1FF3002D2994200F292
:1003E000CD808446591AA3B2B1FBFEF00EFB101467
:1003F00043EA044408FB00F8A04507D92C1900F192
:10040000FF3302D2A04500F2B6801846A4EB0804E0
:1004100040EA0C409FE7C7F1200CBB4022FA0CFEDB
:100420004EEA030E01FA07F420FA0CF521FA0CF358
:100430004FEA1E482543B3FBF8F92C0C08FB19338F
:100440001FFA8EFA44EA034309FB0AF49C4202FABB
:1004500007F200FA07F10BD91EEB030309F1FF3095
:1004600080F087809C4240F28480A9F102097344A5
:100470001B1BADB2B3FBF8F008FB103345EA034495
:1004800000FB0AFAA24508D91EEB040400F1FF3371
:100490006BD2A24569D90238744440EA0940A0FBF6
:1004A0000289A4EB0A044C45C2464B4654D351D0B2
:1004B000002E69D0B1EB0A0564EB030404FA0CFCCE
:1004C000FD40FC404CEA0505C6E90054002747E71B
:1004D000C2F1200320FA03F7954001FA02F021FA55
:1004E00003F34FEA154E3843010CB3FBFEF71FFA36
:1004F00085F80EFB173341EA034107FB08F38B42F3
:1005000004FA02F407D9691807F1FF3C2FD28B4295
:100510002DD9023F2944CB1A81B2B3FBFEF00EFB6A
:10052000103341EA034100FB08F38B4207D96918F5
:1005300000F1FF3C17D28B4215D902382944C91A61
:1005400040EA07473BE73746304609E70746E7E614
:100550001846FBE64145ABD2B8EB020A69EB0E0246
:1005600001381346A4E76046E9E7184695E7674671
:10057000D1E781467CE702382C4447E7ACF1020C16
:100580002B442FE7384608E73746E9E6704700BFB7
:1005900080B500AF0E4B1B680D4A43F40073136027
:1005A0000B4B1B680A4A43F480631360084B1B68BB
:1005B000074A43F480731360032000F04DF90020D4
:1005C00000F008F802F092FB0023184680BD00BF3F
:1005D000003C024080B582B000AF7860124B1A68D0
:1005E000124B1B7819464FF47A73B3FBF1F3B2FB4D
:1005F000F3F3184600F065F90346002B01D0012300
:100600000EE07B680F2B0AD8002279684FF0FF308C
:1006100000F02DF9064A7B681360002300E00123F7
:1006200018460837BD4680BD0800002004000020A1
:100630000000002080B400AF064B1B781A46064B22
:100640001B681344044A136000BFBD465DF8047B79
:10065000704700BF04000020A400002080B400AF59
:10066000034B1B681846BD465DF8047B704700BF0E
:10067000A400002080B584B000AF7860FFF7EEFFE3
:10068000B8607B68FB60FB68B3F1FF3F05D0094BA6
:100690001B781A46FB681344FB6000BFFFF7DEFFC0
:1006A0000246BB68D31AFA689A42F7D800BF1037DF
:1006B000BD4680BD0400002080B485B000AF7860E6
:1006C0007B6803F00703FB600C4BDB68BB60BA6818
:1006D0004FF6FF031340BB60FB681A02BB6813436D
:1006E00043F0BF6343F40033BB60044ABB68D3608C
:1006F00000BF1437BD465DF8047B704700ED00E095
:1007000080B400AF044BDB681B0A03F007031846F4
:10071000BD465DF8047B704700ED00E080B483B017
:1007200000AF0346FB7197F90730002B0BDBFB7919
:1007300003F01F02074997F907305B09012000FA0F
:1007400002F241F8232000BF0C37BD465DF8047B60
:10075000704700BF00E100E080B483B000AF034603
:100760003960FB7197F90730002B0ADB3B68DAB27E
:100770000C4997F907301201D2B20B4483F80023D9
:100780000AE03B68DAB20849FB7903F00F03043B47
:100790001201D2B20B441A7600BF0C37BD465DF889
:1007A000047B704700E100E000ED00E080B489B018
:1007B00000AFF860B9607A60FB6803F00703FB6183
:1007C000FB69C3F10703042B28BF0423BB61FB694A
:1007D0000433062B02D9FB69033B00E000237B6155
:1007E0004FF0FF32BB6902FA03F3DA43BB681A40E9
:1007F0007B699A404FF0FF317B6901FA03F3D943DB
:100800007B680B40134318462437BD465DF8047BD4
:100810007047000080B582B000AF78607B68013B14
:10082000B3F1807F01D301230FE00A4A7B68013BCB
:1008300053600F214FF0FF30FFF78EFF054B002272
:100840009A60044B07221A60002318460837BD46F9
:1008500080BD00BF10E000E080B582B000AF7860DE
:100860007868FFF729FF00BF0837BD4680BD80B517
:1008700086B000AF0346B9607A60FB7300237B61EA
:10088000FFF73EFF78617A68B9687869FFF78EFFF5
:10089000024697F90F3011461846FFF75DFF00BF7B
:1008A0001837BD4680BD80B582B000AF0346FB71EE
:1008B00097F907301846FFF731FF00BF0837BD46EC
:1008C00080BD80B582B000AF78607868FFF7A2FF86
:1008D000034618460837BD4680BD000080B586B087
:1008E00000AF786000237B61FFF7B8FE38617B685A
:1008F000002B01D1012399E07B68002283F834208A
:100900007B68022283F835207B681B681A687B6845
:100910001B6822F001021A600FE0FFF79FFE0246FB
:100920003B69D31A052B08D97B6820225A657B685E
:10093000032283F83520032378E07B681B681B685B
:1009400003F00103002BE8D17B681B681B687B6107
:100950007A69384B13407B617B685A687B689B6877
:100960001A437B68DB681A437B681B691A437B6800
:100970005B691A437B689B691A437B68DB691A438E
:100980007B681B6A13437A6913437B617B685B6AEC
:10099000042B07D17B68DA6A7B681B6B13437A6987
:1009A00013437B617B681B687A691A607B681B68EC
:1009B0005B697B617B6923F007037B617B685B6A12
:1009C0007A6913437B617B685B6A042B17D17B6870
:1009D0009B6A7A6913437B617B68DB6A002B0ED0CC
:1009E000786800F099FA0346002B08D07B68402213
:1009F0005A657B68012283F83520012316E07B6865
:100A00001B687A695A61786800F050FA0346FB6007
:100A10007B68DB6D3F229A40FB689A607B6800220E
:100A20005A657B68012283F8352000231846183761
:100A3000BD4680BD3F8010F080B586B000AFF86045
:100A4000B9607A603B600023FB75FB689B6D3B617E
:100A5000FB6893F83430012B01D1022348E0FB6896
:100A6000012283F83420FB6893F83530DBB2012B88
:100A700037D1FB68022283F83520FB6800225A65D3
:100A80003B687A68B968F86800F0E2F9FB68DB6DEA
:100A90003F229A403B699A60FB681B681A68FB68B2
:100AA0001B6842F016021A60FB681B685A69FB68F3
:100AB0001B6842F080025A61FB681B6C002B07D058
:100AC000FB681B681A68FB681B6842F008021A6022
:100AD000FB681B681A68FB681B6842F001021A6019
:100AE00005E0FB68002283F834200223FB75FB7DC0
:100AF00018461837BD4680BD80B483B000AF78601B
:100B00007B6893F83530DBB2022B04D07B688022FF
:100B10005A6501230CE07B68052283F835207B6849
:100B20001B681A687B681B6822F001021A600023A8
:100B300018460C37BD465DF8047B704780B586B01B
:100B400000AF78600023BB60924B1B68924AA2FB07
:100B500003239B0A7B617B689B6D3B613B691B6840
:100B6000FB607B68DB6D08229A40FB681340002B1A
:100B70001AD07B681B681B6803F00403002B13D09A
:100B80007B681B681A687B681B6822F004021A6085
:100B90007B68DB6D08229A403B699A607B685B6DDD
:100BA00043F001027B685A657B68DB6D01229A4045
:100BB000FB681340002B12D07B681B685B6903F055
:100BC0008003002B0BD07B68DB6D01229A403B69D0
:100BD0009A607B685B6D43F002027B685A657B68B4
:100BE000DB6D04229A40FB681340002B12D07B6817
:100BF0001B681B6803F00203002B0BD07B68DB6DC6
:100C000004229A403B699A607B685B6D43F0040262
:100C10007B685A657B68DB6D10229A40FB68134045
:100C2000002B43D07B681B681B6803F00803002B74
:100C30003CD07B68DB6D10229A403B699A607B68F0
:100C40001B681B6803F48023002B18D07B681B688B
:100C50001B6803F40023002B08D17B681B6C002B5E
:100C600024D07B681B6C786898471FE07B689B6C7E
:100C7000002B1BD07B689B6C7868984716E07B68DC
:100C80001B681B6803F48073002B07D17B681B680B
:100C90001A687B681B6822F008021A607B681B6C6C
:100CA000002B03D07B681B6C786898477B68DB6DF2
:100CB00020229A40FB681340002B00F08E807B6856
:100CC0001B681B6803F01003002B00F086807B6814
:100CD000DB6D20229A403B699A607B6893F835303F
:100CE000DBB2052B36D17B681B681A687B681B68F2
:100CF00022F016021A607B681B685A697B681B68C1
:100D000022F080025A617B681B6C002B03D17B6848
:100D10009B6C002B07D07B681B681A687B681B687C
:100D200022F008021A607B68DB6D3F229A403B6923
:100D30009A607B68002283F834207B68012283F864
:100D400035207B681B6D002B7DD07B681B6D786820
:100D5000984778E07B681B681B6803F48023002BAE
:100D60001CD07B681B681B6803F40023002B08D190
:100D70007B685B6C002B30D07B685B6C7868984735
:100D80002BE07B68DB6B002B27D07B68DB6B786804
:100D9000984722E008000020B5814E1B7B681B6845
:100DA0001B6803F48073002B0FD17B681B681A68E3
:100DB0007B681B6822F010021A607B68002283F8AF
:100DC00034207B68012283F835207B68DB6B002BA5
:100DD00003D07B68DB6B786898477B685B6D002B82
:100DE00032D07B685B6D03F00103002B22D07B685F
:100DF000052283F835207B681B681A687B681B68AE
:100E000022F001021A60BB680133BB607A699A4222
:100E100007D37B681B681B6803F00103002BF2D12A
:100E200000E000BF7B68002283F834207B68012249
:100E300083F835207B68DB6C002B05D07B68DB6C8E
:100E40007868984700E000BF1837BD4680BD00BFF6
:100E500080B485B000AFF860B9607A603B60FB6831
:100E60001B681A68FB681B6822F480221A60FB6802
:100E70001B683A685A60FB689B68402B08D1FB6886
:100E80001B687A689A60FB681B68BA68DA6007E0DA
:100E9000FB681B68BA689A60FB681B687A68DA604E
:100EA00000BF1437BD465DF8047B704780B485B041
:100EB00000AF78607B681B68DBB2103B144AA2FB72
:100EC00003231B09FB60134AFB6813441B781A4673
:100ED0007B68DA65FB68032B09D97B681B6823F400
:100EE0007F7323F003031A1D7B689A6507E07B6814
:100EF0001B6823F47F7323F003037A6893657B6890
:100F00009B6D18461437BD465DF8047B704700BFE3
:100F1000ABAAAAAA8040000880B485B000AF786070
:100F20000023FB737B689B6ABB607B689B69002B1B
:100F30001FD1BB68032B55D801A252F823F000BF84
:100F4000510F0008630F0008510F0008E50F00085B
:100F50007B68DB6A03F08073002B45D00123FB73B1
:100F600042E07B68DB6AB3F1C07F3FD10123FB73B2
:100F70003CE07B689B69B3F5005F21D1BB68032B24
:100F800036D801A252F823F0990F00089F0F0008ED
:100F9000990F0008B10F00080123FB732FE07B6855
:100FA000DB6A03F08073002B24D00123FB7321E064
:100FB0007B68DB6AB3F1C07F1ED10123FB731BE0AA
:100FC000BB68022B02D9032B03D018E00123FB736B
:100FD00015E07B68DB6A03F08073002B0ED00123E1
:100FE000FB730BE000BF0AE000BF08E000BF06E0B3
:100FF00000BF04E000BF02E000BF00E000BFFB7BD9
:1010000018461437BD465DF8047B704780B489B03C
:1010100000AF7860396000237B6100233B610023CF
:10102000BB610023FB6177E10122FB6902FA03F354
:101030007B613B681B687A6913403B613A697B6955
:101040009A4240F066813B685B68022B03D03B68A4
:101050005B68122B23D1FB69DA087B68083253F8EE
:101060002230BB61FB6903F007039B000F2202FAE9
:1010700003F3DB43BA691340BB613B681A69FB6940
:1010800003F007039B0002FA03F3BA691343BB6141
:10109000FB69DA087B680832B96943F822107B687B
:1010A0001B68BB61FB695B00032202FA03F3DB43AD
:1010B000BA691340BB613B685B6803F00302FB69DC
:1010C0005B0002FA03F3BA691343BB617B68BA6938
:1010D0001A603B685B68012B0BD03B685B68022B96
:1010E00007D03B685B68112B03D03B685B68122B11
:1010F00030D17B689B68BB61FB695B00032202FA0D
:1011000003F3DB43BA691340BB613B68DA68FB69F0
:101110005B0002FA03F3BA691343BB617B68BA69E7
:101120009A607B685B68BB610122FB6902FA03F38A
:10113000DB43BA691340BB613B685B681B0903F082
:101140000102FB6902FA03F3BA691343BB617B68CE
:10115000BA695A607B68DB68BB61FB695B0003228C
:1011600002FA03F3DB43BA691340BB613B689A6838
:10117000FB695B0002FA03F3BA691343BB617B6846
:10118000BA69DA603B685B6803F08053002B00F0BB
:10119000C0800023FB60654B5B6C644A43F4804372
:1011A0005364624B5B6C03F48043FB60FB68604AF2
:1011B000FB699B08023352F82330BB61FB6903F0E3
:1011C00003039B000F2202FA03F3DB43BA691340C7
:1011D000BB617B68574A934237D07B68564A93423B
:1011E00031D07B68554A93422BD07B68544A934256
:1011F00025D07B68534A93421FD07B68524A934262
:1012000019D07B68514A934213D07B68504A93426D
:101210000DD07B684F4A934207D07B684E4A934279
:1012200001D1092312E00A2310E008230EE007236E
:101230000CE006230AE0052308E0042306E003236C
:1012400004E0022302E0012300E00023FA6902F037
:10125000030292009340BA691343BB613449FB69AE
:101260009B080233BA6941F823203C4B1B68BB61E1
:101270003B69DB43BA691340BB613B685B6803F4BD
:101280008033002B03D0BA693B691343BB61334AF7
:10129000BB691360314B5B68BB613B69DB43BA6977
:1012A0001340BB613B685B6803F40033002B03D041
:1012B000BA693B691343BB61284ABB695360274B3A
:1012C0009B68BB613B69DB43BA691340BB613B6808
:1012D0005B6803F48013002B03D0BA693B691343A6
:1012E000BB611E4ABB6993601C4BDB68BB613B69F9
:1012F000DB43BA691340BB613B685B6803F40013CE
:10130000002B03D0BA693B691343BB61134ABB6925
:10131000D360FB690133FB61FB690F2B7FF684AE61
:1013200000BF2437BD465DF8047B7047003802409B
:101330000038014000000240000402400008024062
:10134000000C02400010024000140240001802404D
:10135000001C02400020024000240240003C0140EA
:1013600080B483B000AF78600B467B8013467B70FF
:101370007B78002B03D07A887B689A6103E07B88B6
:101380001A047B689A6100BF0C37BD465DF8047B88
:10139000704780B483B000AF78600B467B807B6879
:1013A0005A697B881A407B889A4204D17B881A0448
:1013B0007B689A6102E07A887B689A6100BF0C378B
:1013C000BD465DF8047B704780B582B000AF002356
:1013D0007B6000233B60204B1B6C1F4A43F0805313
:1013E00013641D4B1B6C03F080533B603B681B4B2D
:1013F00001221A60FFF732F9786009E0FFF72EF951
:1014000002467B68D31AB3F57A7F01D903231FE024
:10141000134B5B6803F48033B3F5803FEED1114B7F
:1014200001221A60FFF71AF9786009E0FFF716F950
:1014300002467B68D31AB3F57A7F01D9032307E00C
:10144000074B5B6803F40033B3F5003FEED1002394
:1014500018460837BD4680BD0038024040000E42A5
:101460000070004044000E4280B586B000AF786046
:101470007B68002B01D101232DE27B681B6803F000
:101480000103002B75D0A34B9B6803F00C03042BC6
:101490000CD0A04B9B6803F00C03082B12D19D4B82
:1014A0005B6803F48003B3F5800F0BD1994B1B6885
:1014B00003F40033002B5BD07B685B68002B57D1B3
:1014C000012308E27B685B68B3F5803F06D1914B4E
:1014D0001B68904A43F4803313601DE07B685B68AF
:1014E000B3F5A02F0CD18B4B1B688A4A43F48023A1
:1014F0001360884B1B68874A43F4803313600BE00A
:10150000844B1B68834A23F480331360814B1B6830
:10151000804A23F4802313607B685B68002B13D020
:10152000FFF79CF8386108E0FFF798F802463B693E
:10153000D31A642B01D90323CDE1764B1B6803F446
:101540000033002BF0D014E0FFF788F8386108E092
:10155000FFF784F802463B69D31A642B01D90323B1
:10156000B9E16C4B1B6803F40033002BF0D100E0B1
:1015700000BF7B681B6803F00203002B63D0654B40
:101580009B6803F00C03002B0BD0624B9B6803F0AD
:101590000C03082B1CD15F4B5B6803F48003002B0A
:1015A00016D15C4B1B6803F00203002B05D07B684F
:1015B000DB68012B01D001238DE1564B1B6823F022
:1015C000F8027B681B69DB00524913430B603AE069
:1015D0007B68DB68002B20D04F4B01221A60FFF79D
:1015E0003DF8386108E0FFF739F802463B69D31A45
:1015F000022B01D903236EE1464B1B6803F0020363
:10160000002BF0D0434B1B6823F0F8027B681B696A
:10161000DB00404913430B6015E03F4B00221A608A
:10162000FFF71CF8386108E0FFF718F802463B693D
:10163000D31A022B01D903234DE1364B1B6803F06B
:101640000203002BF0D17B681B6803F00803002B1A
:1016500030D07B685B69002B16D0304B01221A60BA
:10166000FEF7FCFF386108E0FEF7F8FF02463B6931
:10167000D31A022B01D903232DE1264B5B6F03F014
:101680000203002BF0D015E0244B00221A60FEF775
:10169000E5FF386108E0FEF7E1FF02463B69D31A37
:1016A000022B01D9032316E11A4B5B6F03F00203EF
:1016B000002BF0D17B681B6803F00403002B00F0C3
:1016C000A0800023FB75134B1B6C03F08053002B91
:1016D0000FD10023FB600F4B1B6C0E4A43F080536D
:1016E00013640C4B1B6C03F08053FB60FB680123FD
:1016F000FB750B4B1B6803F48073002B21D1084B47
:101700001B68074A43F480731360FEF7A7FF386134
:1017100011E000BF0038024000004742800E4742FF
:1017200000700040FEF79AFF02463B69D31A022B75
:1017300001D90323CFE06A4B1B6803F48073002BAD
:10174000F0D07B689B68012B06D1664B1B6F654A06
:1017500043F0010313671CE07B689B68052B0CD1E9
:10176000604B1B6F5F4A43F0040313675D4B1B6FB5
:101770005C4A43F0010313670BE05A4B1B6F594A55
:1017800023F001031367574B1B6F564A23F00403E2
:1017900013677B689B68002B15D0FEF75FFF3861ED
:1017A0000AE0FEF75BFF02463B69D31A41F288323A
:1017B000934201D903238EE04A4B1B6F03F00203CF
:1017C000002BEED014E0FEF749FF38610AE0FEF787
:1017D00045FF02463B69D31A41F28832934201D950
:1017E000032378E03F4B1B6F03F00203002BEED185
:1017F000FB7D012B05D13B4B1B6C3A4A23F08053F8
:1018000013647B689B69002B64D0364B9B6803F0A4
:101810000C03082B5CD07B689B69022B41D1324BB7
:1018200000221A60FEF71AFF386108E0FEF716FF83
:1018300002463B69D31A022B01D903234BE0294B03
:101840001B6803F00073002BF0D17B68DA697B68BA
:101850001B6A1A437B685B6A9B011A437B689B6A1D
:101860005B08013B1B041A437B68DB6A1B061D49AE
:1018700013434B601C4B01221A60FEF7EFFE3861E8
:1018800008E0FEF7EBFE02463B69D31A022B01D9B2
:10189000032320E0134B1B6803F00073002BF0D0F0
:1018A00018E0114B00221A60FEF7D8FE386108E0FC
:1018B000FEF7D4FE02463B69D31A022B01D903235B
:1018C00009E0084B1B6803F00073002BF0D101E026
:1018D000012300E0002318461837BD4680BD00BF35
:1018E00000700040003802406000474280B584B07C
:1018F00000AF786039607B68002B01D10123CAE01A
:10190000674B1B6803F00F033A689A420CD9644B8B
:101910003A68D2B21A70624B1B6803F00F033A6840
:101920009A4201D00123B6E07B681B6803F00203F2
:10193000002B20D07B681B6803F00403002B05D02C
:10194000584B9B68574A43F4E05393607B681B688D
:1019500003F00803002B05D0524B9B68514A43F417
:10196000604393604F4B9B6823F0F0027B689B6859
:101970004C4913438B607B681B6803F00103002B09
:1019800044D07B685B68012B07D1464B1B6803F48E
:101990000033002B19D101237DE07B685B68022BAB
:1019A00003D07B685B68032B07D13E4B1B6803F0B9
:1019B0000073002B09D101236DE03A4B1B6803F043
:1019C0000203002B01D1012365E0364B9B6823F015
:1019D00003027B685B68334913438B60FEF73EFE6E
:1019E000F8600AE0FEF73AFE0246FB68D31A41F2BD
:1019F0008832934201D903234DE02A4B9B6803F0C0
:101A00000C027B685B689B009A42EBD1244B1B68FD
:101A100003F00F033A689A420CD2214B3A68D2B2D3
:101A20001A701F4B1B6803F00F033A689A4201D0EB
:101A3000012330E07B681B6803F00403002B08D00F
:101A4000184B9B6823F4E0527B68DB68154913430D
:101A50008B607B681B6803F00803002B09D0114BD7
:101A60009B6823F460427B681B69DB000D491343CC
:101A70008B6000F01DF801460A4B9B681B0903F0C0
:101A80000F03094AD35C21FA03F3084A13600020CC
:101A9000FEF7A0FD002318461037BD4680BD00BFED
:101AA000003C024000380240884000080800002046
:101AB000F0B585B000AF00237B600023FB600023FE
:101AC0003B600023BB60504B9B6803F00C03042B6E
:101AD00007D0082B08D0002B40F08D804B4BBB600B
:101AE0008CE04B4BBB6089E0474B5B6803F03F03E6
:101AF0007B60454B5B6803F48003002B23D0424B93
:101B00005B689B094FF0000440F2FF114FF00002A8
:101B100003EA010504EA02063D4A02FB06F100223F
:101B200002FB05F20A443A49A5FB01015318194684
:101B30007B684FF000041A462346FEF7A9FB0346D4
:101B40000C46FB6049E0304B5B689B094FF000049A
:101B500040F2FF114FF0000203EA010504EA020619
:101B6000294632464FF000034FF00004540144EA86
:101B7000D1644B0119462246491B62EB06024FF025
:101B800000034FF00004940144EA91648B015B1A56
:101B900064EB02044FF000014FF00002E20042EA61
:101BA0005372D9000B4614465B1944EB06044FF000
:101BB00000014FF00002A20242EA935299020B4642
:101BC0001446184621467B684FF000041A46234607
:101BD000FEF75EFB03460C46FB600B4B5B681B0C81
:101BE00003F0030301335B003B60FA683B68B2FB20
:101BF000F3F3BB6002E0054BBB6000BFBB68184657
:101C00001437BD46F0BD00BF003802400024F40088
:101C100040787D0180B400AF034B1B681846BD4679
:101C20005DF8047B704700BF0800002080B500AF5E
:101C3000FFF7F0FF0146054B9B689B0A03F0070383
:101C4000034AD35C21FA03F3184680BD00380240F2
:101C50009840000880B500AFFFF7DCFF0146054B58
:101C60009B685B0B03F00703034AD35C21FA03F381
:101C7000184680BD003802409840000880B582B008
:101C800000AF78607B68002B01D101233FE07B68C7
:101C900093F83930DBB2002B06D17B68002283F841
:101CA0003820786801F074F97B68242283F83920A1
:101CB0007B681B68DA687B681B6822F40052DA6074
:101CC000786800F015FC7B681B681A697B681B68E4
:101CD00022F490421A617B681B685A697B681B6812
:101CE00022F02A025A617B681B68DA687B681B68ED
:101CF00042F40052DA607B680022DA637B682022BB
:101D000083F839207B68202283F83A200023184684
:101D10000837BD4680BD000080B586B000AFF860D2
:101D2000B9601346FB80FB6893F83930DBB2202B97
:101D300053D1BB68002B02D0FB88002B01D10123BB
:101D40004CE0FB6893F83830012B01D1022345E0C9
:101D5000FB68012283F83820BA68FB681A62FB68C6
:101D6000FA889A84FB68FA88DA84FB680022DA63CE
:101D7000FB68212283F83920FB681B6B194ADA6360
:101D8000FB681B6B184A1A64FB681B6B174ADA6402
:101D9000FB681B6B00221A6507F108037B61FB6877
:101DA000186B7B691968FB681B6804331A46FB884B
:101DB000FEF742FEFB681B686FF040021A60FB688A
:101DC000002283F83820FB681B685A69FB681B688F
:101DD00042F080025A61002300E0022318461837BF
:101DE000BD4680BDFD2000084F210008EF210008FE
:101DF00080B586B000AFF860B9601346FB80FB6821
:101E000093F83A30DBB2202B66D1BB68002B02D0AE
:101E1000FB88002B01D101235FE0FB6893F8383089
:101E2000012B01D1022358E0FB68012283F83820FE
:101E3000BA68FB689A62FB68FA889A85FB68002298
:101E4000DA63FB68222283F83A20FB685B6B254A41
:101E5000DA63FB685B6B244A1A64FB685B6B234A9A
:101E6000DA64FB685B6B00221A6507F108037B618B
:101E7000FB68586BFB681B68043319467B691A685A
:101E8000FB88FEF7D9FD00233B61FB681B681B68DC
:101E90003B61FB681B685B683B613B69FB68002238
:101EA00083F83820FB681B68DA68FB681B6842F41B
:101EB0008072DA60FB681B685A69FB681B6842F035
:101EC00001025A61FB681B685A69FB681B6842F093
:101ED00040025A61002300E0022318461837BD462D
:101EE00080BD00BF6B210008D3210008EF2100084E
:101EF00080B588B000AF78607B681B681B68FB61A9
:101F00007B681B68DB68BB617B681B685B697B6106
:101F100000233B610023FB60FB6903F00F033B617F
:101F20003B69002B0DD1FB6903F02003002B08D087
:101F3000BB6903F02003002B03D0786800F057FA48
:101F4000CCE03B69002B00F0AB807B6903F0010320
:101F5000002B05D1BB6903F49073002B00F0A08027
:101F6000FB6903F00103002B0AD0BB6903F4807303
:101F7000002B05D07B68DB6B43F001027B68DA63E2
:101F8000FB6903F00403002B0AD07B6903F0010313
:101F9000002B05D07B68DB6B43F002027B68DA63C1
:101FA000FB6903F00203002B0AD07B6903F00103F5
:101FB000002B05D07B68DB6B43F004027B68DA639F
:101FC000FB6903F00803002B0AD07B6903F00103CF
:101FD000002B05D07B68DB6B43F008027B68DA637B
:101FE0007B68DB6B002B78D0FB6903F02003002BB0
:101FF00007D0BB6903F02003002B02D0786800F003
:10200000F6F97B681B685B6903F04003402B0CBF4B
:1020100001230023DBB2FB607B68DB6B03F008036A
:10202000002B02D1FB68002B31D0786800F03FF91B
:102030007B681B685B6903F04003402B23D17B68FE
:102040001B685A697B681B6822F040025A617B68F2
:102050005B6B002B13D07B685B6B224A1A657B6835
:102060005B6B1846FEF748FD0346002B16D07B68D5
:102070005B6B1B6D7A68526B104698470EE0786870
:1020800000F032F80AE0786800F02EF806E0786890
:1020900000F02AF87B680022DA631EE000BF1CE033
:1020A000FB6903F08003002B08D0BB6903F08003B9
:1020B000002B03D0786800F02CF90FE0FB6903F0E7
:1020C0004003002B0AD0BB6903F04003002B05D06E
:1020D000786800F074F900BF00E000BF2037BD460B
:1020E00080BD00BFEB22000880B483B000AF7860F1
:1020F00000BF0C37BD465DF8047B704780B584B0E7
:1021000000AF78607B689B6BFB607B681B681B681B
:1021100003F48073002B13D1FB680022DA84FB6880
:102120001B685A69FB681B6822F080025A61FB68D1
:102130001B68DA68FB681B6842F04002DA6002E064
:10214000F86800F099FD00BF1037BD4680BD80B52E
:1021500084B000AF78607B689B6BFB60F86800F030
:10216000A1FD00BF1037BD4680BD80B584B000AF73
:1021700078607B689B6BFB607B681B681B6803F463
:102180008073002B1ED1FB680022DA85FB681B6878
:10219000DA68FB681B6822F48072DA60FB681B68EF
:1021A0005A69FB681B6822F001025A61FB681B68D0
:1021B0005A69FB681B6822F040025A61FB682022C2
:1021C00083F83A20F86800F03FFD00BF1037BD46A5
:1021D00080BD80B584B000AF78607B689B6BFB608E
:1021E000F86800F06DFD00BF1037BD4680BD80B5BA
:1021F00084B000AF78600023FB607B689B6BBB60A2
:10220000BB681B685B6903F08003802B0CBF012354
:102210000023DBB2FB60BB6893F83930DBB2212BC3
:1022200008D1FB68002B05D0BB680022DA84B868AF
:1022300000F027F8BB681B685B6903F04003402B84
:102240000CBF01230023DBB2FB60BB6893F83A307C
:10225000DBB2222B08D1FB68002B05D0BB68002223
:10226000DA85B86800F023F8BB68DB6B43F0100236
:10227000BB68DA63B868FFF737FF00BF1037BD46A9
:1022800080BD80B483B000AF78607B681B68DA687B
:102290007B681B6822F0C002DA607B68202283F82A
:1022A000392000BF0C37BD465DF8047B704780B411
:1022B00083B000AF78607B681B68DA687B681B6856
:1022C00022F49072DA607B681B685A697B681B682D
:1022D00022F001025A617B68202283F83A2000BF75
:1022E0000C37BD465DF8047B704780B584B000AF05
:1022F00078607B689B6BFB60FB680022DA85FB687B
:102300000022DA84F868FFF7EFFE00BF1037BD4601
:1023100080BD80B485B000AF78607B6893F83930B9
:10232000DBB2212B44D17B689B68B3F5805F1AD167
:102330007B681B6AFB60FB681B881A467B681B680E
:10234000C2F308025A607B681B69002B05D17B68C9
:102350001B6A9A1C7B681A620EE07B681B6A5A1C17
:102360007B681A6208E07B681B6A591C7A681162F4
:102370001A787B681B685A607B68DB8C9BB2013BD8
:102380009BB27A681946D184002B0FD17B681B68F9
:10239000DA687B681B6822F08002DA607B681B6861
:1023A000DA687B681B6842F04002DA60002300E0D4
:1023B000022318461437BD465DF8047B704780B58C
:1023C00082B000AF78607B681B68DA687B681B6846
:1023D00022F04002DA607B68202283F83920786896
:1023E00000F04AFC002318460837BD4680BD80B582
:1023F00084B000AF78607B6893F83A30DBB2222B70
:1024000071D17B689B68B3F5805F23D17B689B6A41
:10241000FB607B681B69002B0ED17B681B685B68C7
:102420009BB2C3F308039AB2FB681A807B689B6A6D
:102430009A1C7B689A6229E07B681B685B689BB288
:10244000DBB29AB2FB681A807B689B6A5A1C7B6875
:102450009A621BE07B681B69002B0AD17B681B68B2
:1024600058687B689B6A591C7A689162C2B21A707C
:102470000CE07B681B685B68DAB27B689B6A581C5F
:102480007968886202F07F02D2B21A707B68DB8DB5
:102490009BB2013B9BB27A681946D185002B20D1B3
:1024A0007B681B68DA687B681B6822F02002DA60B0
:1024B0007B681B68DA687B681B6822F48072DA60CC
:1024C0007B681B685A697B681B6822F001025A61AD
:1024D0007B68202283F83A20786800F0B5FB00235F
:1024E00002E0002300E0022318461037BD4680BDFD
:1024F000B0B584B000AF78607B681B681B6923F4BB
:1025000040517B68DA687B681B680A431A617B6804
:102510009A687B681B691A437B685B691A437B680E
:10252000DB691343FB607B681B68DB6823F416439D
:1025300023F00C037A681268F9680B43D3607B6858
:102540001B685B6923F440717B689A697B681B6830
:102550000A435A617B68DB69B3F5004F40F0E480C1
:102560007B681B68AB4A934204D07B681B68AA4A0D
:1025700093426CD1FFF76EFB024613469B00134457
:102580009A001A447B685B685B00B2FBF3F3A34AD2
:10259000A2FB03235B091C01FFF75CFB0246134609
:1025A0009B0013449A001A447B685B685B00B2FB93
:1025B000F3F5FFF74FFB024613469B0013449A00C6
:1025C0001A447B685B685B00B2FBF3F3934AA2FB9F
:1025D00003235B09642202FB03F3EB1ADB003233B3
:1025E0008E4AA2FB03235B095B0003F4F8731C44CF
:1025F000FFF730FB024613469B0013449A001A442F
:102600007B685B685B00B2FBF3F5FFF723FB0246D8
:1026100013469B0013449A001A447B685B685B0076
:10262000B2FBF3F37D4AA2FB03235B09642202FBA6
:1026300003F3EB1ADB003233784AA2FB03235B0976
:1026400003F007027B681B6822449A6054E1FFF79D
:10265000EDFA024613469B0013449A001A447B6825
:102660005B685B00B2FBF3F36C4AA2FB03235B09DC
:102670001C01FFF7DBFA024613469B0013449A0045
:102680001A447B685B685B00B2FBF3F5FFF7CEFA98
:10269000024613469B0013449A001A447B685B6809
:1026A0005B00B2FBF3F35D4AA2FB03235B096422E8
:1026B00002FB03F3EB1ADB003233584AA2FB03237D
:1026C0005B095B0003F4F8731C44FFF7AFFA0246A2
:1026D00013469B0013449A001A447B685B685B00B6
:1026E000B2FBF3F5FFF7A2FA024613469B00134430
:1026F0009A001A447B685B685B00B2FBF3F3474ABD
:10270000A2FB03235B09642202FB03F3EB1ADB0049
:102710003233424AA2FB03235B0903F007027B68C2
:102720001B6822449A60E7E07B681B68394A934241
:1027300004D07B681B68384A934271D1FFF78AFA4C
:10274000024613469B0013449A001A447B685B6858
:102750009B00B2FBF3F3314AA2FB03235B091C018C
:10276000FFF778FA024613469B0013449A001A4476
:102770007B685B689B00B2FBF3F5FFF76BFA0246E0
:1027800013469B0013449A001A447B685B689B00C5
:10279000B2FBF3F3214AA2FB03235B09642202FB91
:1027A00003F3EB1A1B0132331C4AA2FB03235B0920
:1027B00003F0F0031C44FFF74DFA024613469B005A
:1027C00013449A001A447B685B689B00B2FBF3F5E4
:1027D000FFF740FA024613469B0013449A001A443E
:1027E0007B685B689B00B2FBF3F30C4AA2FB0323FC
:1027F0005B09642202FB03F3EB1A1B013233074A25
:10280000A2FB03235B0903F00F027B681B682244D1
:102810009A6071E000100140001401401F85EB51E7
:10282000FFF704FA024613469B0013449A001A4429
:102830007B685B689B00B2FBF3F3314AA2FB032386
:102840005B091C01FFF7F2F9024613469B00134493
:102850009A001A447B685B689B00B2FBF3F5FFF7B4
:10286000E5F9024613469B0013449A001A447B681C
:102870005B689B00B2FBF3F3214AA2FB03235B09D5
:10288000642202FB03F3EB1A1B0132331C4AA2FB46
:1028900003235B0903F0F0031C44FFF7C7F902466A
:1028A00013469B0013449A001A447B685B689B00A4
:1028B000B2FBF3F5FFF7BAF9024613469B00134447
:1028C0009A001A447B685B689B00B2FBF3F30C4AE6
:1028D000A2FB03235B09642202FB03F3EB1A1B0137
:1028E0003233074AA2FB03235B0903F00F027B6824
:1028F0001B6822449A60FFE700BF1037BD46B0BD99
:102900001F85EB5180B483B000AF00237B60094B7F
:102910001B6B084A43F480031363064B1B6B03F4E1
:1029200080037B607B6800BF0C37BD465DF8047B8D
:10293000704700BF0038024080B58AB000AF07F191
:10294000140300221A605A609A60DA601A61002348
:102950003B61394B1B6B384A43F004031363364B1E
:102960001B6B03F004033B613B690023FB60324BAC
:102970001B6B314A43F0800313632F4B1B6B03F037
:102980008003FB60FB680023BB602B4B1B6B2A4A58
:1029900043F001031363284B1B6B03F00103BB607F
:1029A000BB6800237B60244B1B6B234A43F002036C
:1029B0001363214B1B6B03F002037B607B680022D7
:1029C00003211E48FEF7CCFC4FF400537B6100232B
:1029D000BB610123FB6107F1140319461848FEF798
:1029E00015FB01237B610023BB610223FB6107F11F
:1029F000140319461348FEF709FB0C237B610023DF
:102A0000BB610123FB6107F1140319460E48FEF771
:102A1000FDFA03237B610123BB610023FB610023DB
:102A20003B6207F1140319460448FEF7EFFA00BFB2
:102A30002837BD4680BD00BF003802400004024078
:102A40000008024000000240001C024080B483B035
:102A500000AF78604FF06043D3F8803E03F001038D
:102A6000002B13D04FF06043D3F8003E03F0010376
:102A7000002B0BD000E000BF4FF060431B68002B21
:102A8000F9D04FF060437A68D2B21A707B6818466A
:102A90000C37BD465DF8047B7047000080B584B0FC
:102AA00000AFFDF775FD00F027F8FFF745FF00F0D8
:102AB00045FAFFF727FF00F08FF80B4800F0E6FB20
:102AC0000A220A490A48FFF793F90A4A3B1D07CA36
:102AD00003C31A803B1D0A2219460548FFF71CF95B
:102AE0006420FDF7C7FDF5E74C4000088C0000208E
:102AF000680100205440000880B594B000AF07F191
:102B0000200330220021184600F044FB07F10C039B
:102B100000221A605A609A60DA601A610023BB6072
:102B20002B4B1B6C2A4A43F080531364284B1B6CBD
:102B300003F08053BB60BB6800237B60254B1B68A0
:102B4000244A43F440431360224B1B6803F4404380
:102B50007B607B6801233B624FF480337B620223FE
:102B6000BB634FF48003FB630F233B64D8237B6478
:102B70000223BB640423FB6407F120031846FEF71D
:102B800073FC0346002B01D000F0A8F8FEF71CFCF4
:102B90000346002B01D000F0A1F80F23FB600223B5
:102BA0003B6100237B614FF4A053BB614FF4805322
:102BB000FB6107F10C0305211846FEF797FE03465B
:102BC000002B01D000F08AF800BF5037BD4680BD11
:102BD000003802400070004080B500AF00220121A3
:102BE0002520FDF744FE2520FDF75DFE0022002193
:102BF0003A20FDF73CFE3A20FDF755FE0022002169
:102C00004620FDF734FE4620FDF74DFE00BF80BD97
:102C100080B586B000AFF860B9607A6000237B6150
:102C200009E0BB685A1CBA601B781846FFF70EFF14
:102C30007B6901337B617A697B689A42F1DB7B684F
:102C400018461837BD4680BD80B582B000AF7860A9
:102C50007B681B68054A934203D10549054800F08B
:102C6000A1FA00BF0837BD4680BD00BF001001407B
:102C70008C0000206040000880B582B000AF786012
:102C80007B681B68054A934203D102210448FEF782
:102C900080FB00BF0837BD4680BD00BF001001406B
:102CA0000004024080B582B000AF7860034800F0B5
:102CB000EDFA00BF0837BD4680BD00BF6840000880
:102CC00080B582B000AF7860034800F0DFFA00BF43
:102CD0000837BD4680BD00BF7440000880B400AF17
:102CE00000BFBD465DF8047B7047000080B483B030
:102CF00000AF00237B60104B5B6C0F4A43F48043B2
:102D000053640D4B5B6C03F480437B607B68002352
:102D10003B60094B1B6C084A43F080531364064B1D
:102D20001B6C03F080533B603B6800BF0C37BD4613
:102D30005DF8047B704700BF0038024080B400AFEC
:102D400000BFBD465DF8047B704780B400AFFEE76E
:102D500080B400AFFEE780B400AFFEE780B400AF00
:102D6000FEE780B400AF00BFBD465DF8047B70474E
:102D700080B400AF00BFBD465DF8047B704780B4EF
:102D800000AF00BFBD465DF8047B704780B500AF63
:102D9000FDF750FC00BF80BD80B500AF0248FFF7D3
:102DA000A7F800BF80BD00BF6801002080B500AF5C
:102DB0000248FDF7C3FE00BF80BD00BF0801002030
:102DC00080B500AF0248FDF7B9FE00BF80BD00BF6F
:102DD000A800002080B586B000AFF860B9607A60C6
:102DE00000237B610AE0AFF300800146BB685A1CF8
:102DF000BA60CAB21A707B6901337B617A697B68F9
:102E00009A42F0DB7B6818461837BD4680BD80B417
:102E100083B000AF78604FF0FF3318460C37BD46E3
:102E20005DF8047B704780B483B000AF7860396090
:102E30003B684FF400525A60002318460C37BD46D9
:102E40005DF8047B704780B483B000AF78600123E5
:102E500018460C37BD465DF8047B704780B485B0DA
:102E600000AFF860B9607A60002318461437BD4699
:102E70005DF8047B7047000080B584B000AF7860D7
:102E8000114B1B68002B02D10F4B104A1A600E4BDE
:102E90001B68FB600C4B1A687B6813446A469342BC
:102EA00007D900F04DF902460C2313604FF0FF33B1
:102EB00006E0054B1A687B681344034A1360FB68FD
:102EC00018461037BD4680BD98000020B001002094
:102ED00080B400AF164BD3F88830154A43F4700322
:102EE000C2F88830134B1B68124A43F00103136089
:102EF000104B00229A600F4B1B680E4A23F084731C
:102F000023F4803313600B4B0B4A5A60094B1B6848
:102F1000084A23F480231360064B0022DA60044B36
:102F20004FF000629A6000BFBD465DF8047B7047B9
:102F300000ED00E0003802401030002480B500AF02
:102F4000114B124A1A60104B4FF4E1325A600E4B8B
:102F500000229A600C4B0022DA600B4B00221A61AF
:102F6000094B0C225A61084B00229A61064B002241
:102F7000DA610548FEF782FE0346002B01D0FFF719
:102F8000ADFE00BF80BD00BF680100200010014001
:102F900080B58AB000AF786007F1140300221A6090
:102FA0005A609A60DA601A617B681B68484A9342EB
:102FB00040F08A8000233B61464B5B6C454A43F0FE
:102FC00010035364434B5B6C03F010033B613B699C
:102FD0000023FB603F4B1B6B3E4A43F0010313632E
:102FE0003C4B1B6B03F00103FB60FB684FF4C063B9
:102FF0007B610223BB610123FB6103233B62072347
:103000007B6207F1140319463348FDF7FFFF334B8A
:10301000334A1A60314B4FF000625A602F4B002246
:103020009A602E4B0022DA602C4B4FF480621A61BA
:103030002A4B00225A61294B00229A61274B4FF4F8
:103040008072DA61254B00221A62244B00225A62F8
:103050002248FDF743FC0346002B01D0FFF73EFE5C
:103060007B681E4A5A631D4A7B6893631D4B1E4A48
:103070001A601C4B4FF000625A601A4B40229A6053
:10308000184B0022DA60174B4FF480621A61154B1F
:1030900000225A61134B00229A61124B0022DA611E
:1030A000104B00221A620F4B00225A620D48FDF7A6
:1030B00015FC0346002B01D0FFF710FE7B68094A80
:1030C0001A63084A7B68936300BF2837BD4680BDFA
:1030D00000100140003802400000024008010020BA
:1030E00040640240A8000020B8640240DFF834D0F9
:1030F000002103E00C4B5B58435004310B480C4B50
:1031000042189A42F6D30B4A02E0002342F8043BED
:10311000094B9A42F9D3FFF7DBFE00F017F8FFF7EF
:10312000BDFC70470000032048410008000000205B
:103130007000002070000020AC010020FEE70000BD
:10314000014B1868704700BF0C00002070B50D4E91
:103150000D4CA41BA4100025A54209D10B4E0C4C0C
:1031600000F068FFA41BA4100025A54205D170BD86
:1031700056F8253098470135EEE756F82530984740
:103180000135F2E740410008404100084041000895
:103190004441000802440346934200D1704703F8BB
:1031A000011BF9E70FB40A4B13B51C6824B1A369DE
:1031B00013B9204600F022FA05AB049AA1680193E6
:1031C000204600F0DBFB02B0BDE8104004B07047C1
:1031D0000C00002070B50E46054618B183690BB986
:1031E00000F00CFAAB69AC6813B9284600F006FA97
:1031F000234B9C4217D16C68A3891B071DD52369FB
:10320000DBB1013EA36816F8011F013BA360E9B9D9
:10321000002B2EDA22460A21284600F03FF8013022
:1032200011D00A2011E0174B9C4201D1AC68E3E7B2
:10323000154B9C4208BFEC68DEE72146284600F0AB
:103240007FF80028DDD04FF0FF3070BD002B04DA8E
:10325000A2699A4206DC0A2904D023685A1C22601B
:103260001970CFE72246284600F018F80130C9D17E
:10327000E9E723680A205A1C22601870E5E700BFBE
:10328000C4400008E4400008A4400008024B014686
:103290001868FFF79FBF00BF0C000020F8B50E466E
:1032A0001446054618B183690BB900F0A7F9214B04
:1032B0009C422AD16C68A369A360A3891A072ED502
:1032C000236963B323692068C01A6369F6B2834235
:1032D000374604DC2146284600F026F928BBA368BF
:1032E000013BA36023685A1C22601E706369013091
:1032F000834204D0A389DB0719D50A2E17D12146B2
:10330000284600F011F990B10FE00B4B9C4201D11F
:10331000AC68D0E7094B9C4208BFEC68CBE721467C
:10332000284600F00DF80028CCD04FF0FF37384683
:10333000F8BD00BFC4400008E4400008A4400008F5
:10334000324B70B51D6806460C4625B1AB6913B902
:10335000284600F053F92E4B9C420FD16C68B4F90B
:103360000C309AB215072CD4D00611D40922326041
:1033700043F04003A3814FF0FF303EE0254B9C42D9
:1033800001D1AC68EBE7244B9C4208BFEC68E6E750
:10339000510712D5616B41B104F14403994202D047
:1033A000304600F019FA00236363A38923F0240355
:1033B000A3810023636023692360A38943F008038A
:1033C000A38123694BB9A38903F42073B3F5007F6C
:1033D00003D02146304600F0BFF9A28912F0010364
:1033E0000CD00023A36063695B42A361236953B9D6
:1033F000B4F90C3013F08000BAD170BD920758BFF9
:103400006369A360F2E70020F7E700BF0C0000202B
:10341000C4400008E4400008A44000088A892DE95F
:10342000F041054610070C4658D44B68002B05DCCC
:103430000B6C002B02DC0020BDE8F081E66A002E58
:10344000F9D0002312F480522F68216A2B6032D009
:10345000606DA3895A0705D56368C01A636B0BB109
:10346000236CC01A00230246E66A216A2846B04748
:10347000431CA38906D129681D2948D8294ACA4076
:10348000D60744D500226260D9042269226004D59F
:10349000421C01D12B6803B96065616B2F60002964
:1034A000C9D004F14403994202D0284600F094F9AF
:1034B00000206063C0E701232846B047411CC8D103
:1034C0002B68002BC5D01D2B01D0162B01D12F60EE
:1034D000B1E7A38943F04003A381ADE70F69002F53
:1034E000A9D093070E6808BF4B690F6018BF00236F
:1034F000A6EB07088B60B8F1000F9CDD43463A4607
:10350000216AA66A2846B047002806DCA38943F052
:103510004003A3814FF0FF308EE70744A8EB00087B
:10352000E9E700BF0100402038B50B6905460C46AD
:10353000DBB118B183690BB900F060F80C4B9C4209
:1035400009D16C68B4F90C307BB121462846BDE83E
:103550003840FFF763BF074B9C4201D1AC68F1E7ED
:10356000054B9C4208BFEC68ECE7002038BD00BF6B
:10357000C4400008E4400008A4400008002310B53F
:103580000446C0E90033836081814366C281C0E99B
:1035900004338361194608225C30FFF7FBFD054BBD
:1035A0006362054BA362054BE362054B2462236310
:1035B00010BD00BFD93E0008FB3E0008333F0008A5
:1035C000573F0008014900F085B800BF29350008C1
:1035D00070B54A1E682555430E4605F1740100F08A
:1035E00049F9044640B10021C0E900160C30A06042
:1035F00005F16802FFF7CEFD204670BD836910B566
:10360000044633BBC0E912330365124B124A1B68F0
:103610008262984204BF0123836100F01FF860605A
:10362000204600F01BF8A060204600F017F80022AA
:10363000E06004216068FFF7A1FF01220921A06872
:10364000FFF79CFF02221221E068FFF797FF01239A
:10365000A36110BDA0400008C5350008F8B51B4B9C
:103660001E68B369074613B93046FFF7C7FF4836EF
:10367000D6E90134013B03D5336833B13668F7E747
:10368000B4F90C506DB16834F4E704213846FFF703
:103690009FFF30600028F1D10C233B600446204698
:1036A000F8BD0B4B6566C4E90055A560C4E9033558
:1036B000C4E905550822294604F15C00FFF76AFDBC
:1036C000C4E90D55C4E91255E9E700BFA040000860
:1036D0000100FFFF2DE9F8438046894600F14804C8
:1036E000002614B93046BDE8F883D4E90175013FDE
:1036F00001D52468F5E7AB89012B07D9B5F90E3060
:10370000013303D029464046C84706436835EEE7F3
:1037100070B50E46B1F90E10002996B014461D463C
:1037200007DA00232B60B3891A0610D44FF48063A4
:103730000EE06A4600F036FC0028F2DB019A02F443
:103740007042A2F500535A425A412A60EEE74023E4
:103750000020236016B070BD8B8973B59D070646A7
:103760000C4607D504F147032360236101236361FD
:1037700002B070BD01AB6A46FFF7CAFF009905466B
:10378000304600F077F848B9B4F90C309A05EFD418
:1037900023F0030343F00203A381E3E70D4BB3627D
:1037A000A389206043F08003A381009B6361019B98
:1037B00020615BB1B4F90E10304600F005FC28B171
:1037C000A38923F0030343F00103A381A3891D43CD
:1037D000A581CDE7C535000838B50546002945D097
:1037E00051F8043C0C1F002BB8BFE41800F00EFC8D
:1037F0001F4A1368104633B9636014602846BDE859
:10380000384000F004BCA3420CD9216862189342EE
:1038100004BF1A685B68636004BF521822600460CA
:10382000ECE713465A680AB1A242FAD91968581847
:10383000A0420BD120680144581882421960DDD1A2
:10384000106852685A6001441960D7E702D90C2306
:103850002B60D3E7206821188A4204BF11685268A0
:10386000626004BF091821605C60C7E738BD00BF13
:103870009C00002070B5CD1C25F0030508350C2DEB
:1038800038BF0C25002D064601DBA94203D90C23C5
:103890003360002070BD00F0B9FB214A1468214656
:1038A00091B9204C23681BB9304600F005FB20601D
:1038B0002946304600F000FB431C24D10C23336022
:1038C000304600F0A4FBE4E70B685B1B18D40B2B1D
:1038D0000FD90B60CD50CC18304600F098FB04F1A6
:1038E0000B00231D20F00700C31AD3D05A42E25028
:1038F000D0E78C424B6816BF636013600C46EBE761
:103900000C464968CCE7C41C24F00304A04205D04F
:10391000211A304600F0D0FA0130CFD02560DBE725
:103920009C000020A00000209368013B002B10B4F5
:10393000936008DA9469A34201DB0A2903D15DF898
:10394000044BFFF7ABBC1368581C10601970084695
:103950005DF8044B7047F8B506460F461446D51877
:10396000AC4201D1002007E03A4614F8011B304672
:10397000FFF7DAFF431CF3D1F8BD00002DE9F04F4B
:103980000C469DB017461D46064618B183690BB913
:10399000FFF734FE7C4B9C4258D17468A38918070A
:1039A0005ED52369002B5BD00023099320238DF87B
:1039B000293030238DF82A3003954FF0010BB8469B
:1039C000454615F8013B0BB1252B54D1B8EB070A3E
:1039D0000BD053463A4621463046FFF7BCFF013034
:1039E00000F0C280099B5344099398F80030002BE3
:1039F00000F0BA8000234FF0FF32CDE90523049395
:103A000007938DF853301A93A846052218F8011B26
:103A10005E48FCF7EDFB049B78BBD90644BF20222F
:103A20008DF853201A0744BF2B228DF853202A7893
:103A30002A2A2AD0079AA84600200A25414611F8CA
:103A4000013B303B092B69D960B324E0504B9C42C9
:103A500001D1B468A2E74F4B9C4208BFF4689DE7D0
:103A600021463046FFF76CFC00289DD04FF0FF3018
:103A70001DB0BDE8F08FA846A2E7444A801A0BFAB1
:103A800000F0184304904546BEE7039A111D1268E2
:103A90000391002A01DB079204E0524243F0020343
:103AA0000792049398F800302E2B0ED198F801302D
:103AB0002A2B38D1039B1A1D1B680392002BB8BF19
:103AC0004FF0FF3308F102080593334D98F80010CA
:103AD00003222846FCF78CFB40B14023401B03FA2D
:103AE00000F0049B034308F10108049398F80010C8
:103AF0002A488DF82810062208F10107FCF778FB08
:103B0000002837D0264B1BBB039B073323F007034A
:103B100008330393099B4B44099350E705FB02329A
:103B2000012088468AE7002308F101080593194619
:103B30000A25404610F8012B303A092A03D9002BF8
:103B4000C3D00591C1E705FB012101238046F0E7C1
:103B500003AB00932246134B04A93046AFF3008019
:103B6000B0F1FF3F8146D5D1A3895B063FF57EAF1B
:103B700009987DE703AB009322460A4B04A930461F
:103B800000F088F8ECE700BFC440000804410008DA
:103B9000E4400008A44000080A4100080E41000863
:103BA00000000000573900082DE9F04791461F46F4
:103BB0008A680B69DDF820809342B8BF1346C9F8C4
:103BC000003091F8432006460C4612B10133C9F883
:103BD00000302368990642BFD9F800300233C9F893
:103BE0000030256815F0060507D104F1190AE368CD
:103BF000D9F800209B1AAB4228DC94F843302268A5
:103C0000003318BF012392062DD404F14302394634
:103C10003046C047013020D02368E568D9F800203D
:103C200003F00603042B08BFAD1AA36822690CBF7A
:103C300025EAE57500259342C4BF9B1AED184FF0A5
:103C400000091A344D451AD1002008E001235246DC
:103C500039463046C047013003D14FF0FF30BDE850
:103C6000F0870135C3E7E1185A1C302081F8430082
:103C7000224494F8451082F843100233C5E701232B
:103C8000224639463046C0470130E6D009F10109E5
:103C9000D8E700002DE9F04301F1430C0C46097E02
:103CA00085B06E291746064698460C9A00F0B380F8
:103CB00022D8632936D00AD8002900F0B9805829C3
:103CC00000F0838004F1420584F8421032E0642958
:103CD00001D06929F6D120681368050603F10401B3
:103CE0002AD51B681160002B03DA2D225B4284F871
:103CF00043206F480A2239E0732900F09D8008D8DC
:103D00006F2920D07029DDD1236843F02003236080
:103D100003E0752917D07829D4D1782384F8453069
:103D2000644855E01368191D1B68116004F14205D1
:103D300084F8423001238CE01B68116010F0400FC2
:103D400018BF1BB2CFE713682568181D106028063E
:103D500001D51B6802E06806FBD51B8854486F2913
:103D600014BF0A220822002184F843106568A56068
:103D7000002DC0F29580216821F004012160002B04
:103D80003DD1002D40F08E806546082A0BD1236876
:103D9000DB0708D5236962689A42DEBF302305F845
:103DA000013C05F1FF35ACEB05032361CDF8008044
:103DB0003B4603AA21463046FFF7F6FE01304DD1BF
:103DC0004FF0FF3005B0BDE8F083394884F8451066
:103DD000136821681D1D1B6815600A060BD5CA07EC
:103DE00044BF41F0200121601BB9226822F020026B
:103DF00022601022B7E74D0648BF9BB2EFE7654649
:103E0000B3FBF2F102FB1133C35C05F8013D0B4635
:103E10000029F5D1B9E7136825686169181D10609C
:103E200028061B6801D5196002E06A06FBD51980D7
:103E3000002323616546B9E71368191D11601D68E9
:103E4000626800212846FCF7D3F908B1401B606086
:103E500063682361002384F84330A7E723692A4677
:103E600039463046C0470130AAD023689B0713D497
:103E7000E068039B9842B8BF1846A3E701234A466F
:103E800039463046C04701309AD00135E368039A7D
:103E90009B1AAB42F2DCEBE7002504F11909F5E7C8
:103EA000002BACD1037884F8423004F142056CE772
:103EB000154100082641000838B5064C0023054688
:103EC00008462360FEF7D8FF431C02D1236803B1E4
:103ED0002B6038BDA801002010B50C46B1F90E10BA
:103EE00000F096F80028ABBF636DA3891B1823F47C
:103EF0008053ACBF6365A38110BD2DE9F0411F461F
:103F00008B89DB0505460C46164605D502230022A3
:103F1000B1F90E1000F068F8A389B4F90E1023F47B
:103F20008053A38132463B462846BDE8F04100F06D
:103F300017B810B50C46B1F90E1000F055F8431C37
:103F4000A38915BF606523F4805343F48053A38194
:103F500018BFA38110BDB1F90E1000F013B8000016
:103F600038B5074C054608461146002222601A461D
:103F7000FEF74EFE431C02D1236803B12B6038BD0F
:103F8000A801002038B5064C0023054608462360EA
:103F9000FEF73DFF431C02D1236803B12B6038BDFF
:103FA000A801002038B5074C0023054608461146F5
:103FB0002360FEF738FF431C02D1236803B12B6056
:103FC00038BD00BFA801002038B5064C00230546C7
:103FD00008462360FEF737FF431C02D1236803B174
:103FE0002B6038BDA801002038B5074C05460846AF
:103FF0001146002222601A46FEF730FF431C02D110
:10400000236803B12B6038BDA801002070477047BA
:1040100038B5074C054608461146002222601A466C
:10402000FEF7D8FE431C02D1236803B12B6038BDD4
:10403000A8010020F8B500BFF8BC08BC9E46704738
:0C404000F8B500BFF8BC08BC9E467047F5
:10404C0053746172740D0000746573743132330DE6
:10405C000A00000025730D0A000000004865726517
:10406C0031313131310D00004865726532323232F6
:10407C00320D00000006101600061016000000009D
:10408C0000000000010203040607080900000000FC
:10409C0001020304100000200000000000000000DA
:1040AC000000000000000000000000000000000004
:1040BC0000000000000000000000000000000000F4
:1040CC0000000000000000000000000000000000E4
:1040DC0000000000000000000000000000000000D4
:1040EC0000000000000000000000000000000000C4
:1040FC000000000000000000232D302B2000686C15
:10410C004C006566674546470030313233343536EE
:10411C003738394142434445460030313233343527
:0C412C0036373839616263646566000054
:0841380088C1FF7F01000000B7
:04414000D50100089D
:04414400B1010008BD
:1041480010000000010000000024F400100000200E
:1041580000000000C4400008E4400008A440000833
:104168000000000000000000000000000000000047
:104178000000000000000000000000000000000037
:104188000000000000000000000000000000000027
:104198000000000000000000000000000000000017
:1041A8000000000000000000000000000000000007
:04000005080030EDD2
:00000001FF
