:020000040800F2
:1000000000000320651A00088518000893180008EE
:10001000991800089F180008A518000800000000A3
:10002000000000000000000000000000AB18000805
:10003000B918000800000000C7180008D51800080B
:10004000B51A0008B51A0008B51A0008B51A000854
:10005000B51A0008B51A0008B51A0008B51A000844
:10006000E1180008EF180008B51A0008B51A0008D2
:10007000B51A0008B51A0008B51A0008B51A000824
:10008000B51A0008B51A0008B51A0008B51A000814
:10009000B51A0008B51A0008B51A0008B51A000804
:1000A000B51A0008B51A0008B51A0008B51A0008F4
:1000B000B51A0008B51A0008B51A0008B51A0008E4
:1000C000B51A0008B51A0008B51A0008B51A0008D4
:1000D000B51A0008B51A0008B51A0008B51A0008C4
:1000E000B51A0008B51A0008B51A0008B51A0008B4
:1000F000B51A0008B51A0008B51A0008B51A0008A4
:10010000B51A0008B51A0008B51A0008B51A000893
:10011000B51A0008B51A0008B51A0008B51A000883
:10012000B51A0008B51A0008B51A0008B51A000873
:10013000B51A0008B51A0008B51A0008B51A000863
:10014000B51A0008B51A0008B51A0008B51A000853
:10015000B51A0008B51A0008B51A0008B51A000843
:10016000B51A0008B51A0008B51A0008B51A000833
:10017000B51A0008B51A0008B51A000800000000FA
:10018000B51A0008B51A0008B51A0008B51A000813
:10019000B51A0008B51A0008B51A0008B51A000803
:0C01A000B51A0008B51A0008B51A0008CE
:1001B00010B5054C237833B9044B13B10448AFF3A1
:1001C00000800123237010BD70000020000000009B
:1001D000AC29000808B5034B1BB103490348AFF332
:1001E000008008BD0000000074000020AC29000859
:1001F00001F0FF01102A2BDB10F0070F08D010F8D8
:10020000013B013A8B422DD010F0070F42B3F6D1DB
:10021000F0B441EA012141EA014122F007047FF0F4
:1002200000070023F0E80256083C85EA010586EA4B
:10023000010685FA47F5A3FA87F586FA47F6A5FA87
:1002400087F68EB9EED1F0BC01F0FF0102F0070293
:1002500032B110F8013B013A83EA010313B1F8D13E
:100260000020704701387047002D06BF354603381F
:10027000073815F0010F07D1013015F4807F02BF58
:10028000013015F4C03F0130F0BC0138704700BFA9
:1002900053B94AB9002908BF00281CBF4FF0FF31ED
:1002A0004FF0FF3000F072B9ADF1080C6DE904CEEB
:1002B00000F006F8DDF804E0DDE9022304B0704741
:1002C0002DE9F047089E04468846002B4BD18A4210
:1002D000154667D9B2FA82F24AB1C2F1200701FA93
:1002E00002F320FA07F7954047EA030894404FEAE3
:1002F000154E230CB8FBFEF71FFA85FC0EFB178882
:1003000043EA084307FB0CF1994209D9EB1807F1BE
:10031000FF3080F01B81994240F21881023F2B444C
:100320005B1AA4B2B3FBFEF00EFB103344EA0344A5
:1003300000FB0CFCA44509D92C1900F1FF3380F017
:100340000781A44540F2048102382C4440EA07406A
:10035000A4EB0C0400271EB1D4400023C6E90043DF
:100360003946BDE8F0878B4209D9002E00F0EB80BA
:100370000027C6E9000138463946BDE8F087B3FAE0
:1003800083F7002F47D18B4202D3824200F2FA80DA
:10039000841A61EB030301209846002EE0D0C6E9E1
:1003A0000048DDE702B9FFDEB2FA82F2002A40F02F
:1003B0008F80491B4FEA154E1FFA85F80127B1FBC4
:1003C000FEFC230C0EFB1C1143EA014308FB0CF15D
:1003D000994207D9EB180CF1FF3002D2994200F292
:1003E000CD808446591AA3B2B1FBFEF00EFB101467
:1003F00043EA044408FB00F8A04507D92C1900F192
:10040000FF3302D2A04500F2B6801846A4EB0804E0
:1004100040EA0C409FE7C7F1200CBB4022FA0CFEDB
:100420004EEA030E01FA07F420FA0CF521FA0CF358
:100430004FEA1E482543B3FBF8F92C0C08FB19338F
:100440001FFA8EFA44EA034309FB0AF49C4202FABB
:1004500007F200FA07F10BD91EEB030309F1FF3095
:1004600080F087809C4240F28480A9F102097344A5
:100470001B1BADB2B3FBF8F008FB103345EA034495
:1004800000FB0AFAA24508D91EEB040400F1FF3371
:100490006BD2A24569D90238744440EA0940A0FBF6
:1004A0000289A4EB0A044C45C2464B4654D351D0B2
:1004B000002E69D0B1EB0A0564EB030404FA0CFCCE
:1004C000FD40FC404CEA0505C6E90054002747E71B
:1004D000C2F1200320FA03F7954001FA02F021FA55
:1004E00003F34FEA154E3843010CB3FBFEF71FFA36
:1004F00085F80EFB173341EA034107FB08F38B42F3
:1005000004FA02F407D9691807F1FF3C2FD28B4295
:100510002DD9023F2944CB1A81B2B3FBFEF00EFB6A
:10052000103341EA034100FB08F38B4207D96918F5
:1005300000F1FF3C17D28B4215D902382944C91A61
:1005400040EA07473BE73746304609E70746E7E614
:100550001846FBE64145ABD2B8EB020A69EB0E0246
:1005600001381346A4E76046E9E7184695E7674671
:10057000D1E781467CE702382C4447E7ACF1020C16
:100580002B442FE7384608E73746E9E6704700BFB7
:1005900080B500AF0E4B1B680D4A43F40073136027
:1005A0000B4B1B680A4A43F480631360084B1B68BB
:1005B000074A43F480731360032000F04DF90020D4
:1005C00000F008F801F036F90023184680BD00BF9E
:1005D000003C024080B582B000AF7860124B1A68D0
:1005E000124B1B7819464FF47A73B3FBF1F3B2FB4D
:1005F000F3F3184600F065F90346002B01D0012300
:100600000EE07B680F2B0AD8002279684FF0FF308C
:1006100000F02DF9064A7B681360002300E00123F7
:1006200018460837BD4680BD0800002004000020A1
:100630000000002080B400AF064B1B781A46064B22
:100640001B681344044A136000BFBD465DF8047B79
:10065000704700BF040000209800002080B400AF65
:10066000034B1B681846BD465DF8047B704700BF0E
:100670009800002080B584B000AF7860FFF7EEFFEF
:10068000B8607B68FB60FB68B3F1FF3F05D0094BA6
:100690001B781A46FB681344FB6000BFFFF7DEFFC0
:1006A0000246BB68D31AFA689A42F7D800BF1037DF
:1006B000BD4680BD0400002080B485B000AF7860E6
:1006C0007B6803F00703FB600C4BDB68BB60BA6818
:1006D0004FF6FF031340BB60FB681A02BB6813436D
:1006E00043F0BF6343F40033BB60044ABB68D3608C
:1006F00000BF1437BD465DF8047B704700ED00E095
:1007000080B400AF044BDB681B0A03F007031846F4
:10071000BD465DF8047B704700ED00E080B483B017
:1007200000AF0346FB7197F90730002B0BDBFB7919
:1007300003F01F02074997F907305B09012000FA0F
:1007400002F241F8232000BF0C37BD465DF8047B60
:10075000704700BF00E100E080B483B000AF034603
:100760003960FB7197F90730002B0ADB3B68DAB27E
:100770000C4997F907301201D2B20B4483F80023D9
:100780000AE03B68DAB20849FB7903F00F03043B47
:100790001201D2B20B441A7600BF0C37BD465DF889
:1007A000047B704700E100E000ED00E080B489B018
:1007B00000AFF860B9607A60FB6803F00703FB6183
:1007C000FB69C3F10703042B28BF0423BB61FB694A
:1007D0000433062B02D9FB69033B00E000237B6155
:1007E0004FF0FF32BB6902FA03F3DA43BB681A40E9
:1007F0007B699A404FF0FF317B6901FA03F3D943DB
:100800007B680B40134318462437BD465DF8047BD4
:100810007047000080B582B000AF78607B68013B14
:10082000B3F1807F01D301230FE00A4A7B68013BCB
:1008300053600F214FF0FF30FFF78EFF054B002272
:100840009A60044B07221A60002318460837BD46F9
:1008500080BD00BF10E000E080B582B000AF7860DE
:100860007868FFF729FF00BF0837BD4680BD80B517
:1008700086B000AF0346B9607A60FB7300237B61EA
:10088000FFF73EFF78617A68B9687869FFF78EFFF5
:10089000024697F90F3011461846FFF75DFF00BF7B
:1008A0001837BD4680BD80B582B000AF0346FB71EE
:1008B00097F907301846FFF731FF00BF0837BD46EC
:1008C00080BD80B582B000AF78607868FFF7A2FF86
:1008D000034618460837BD4680BD000080B489B085
:1008E00000AF7860396000237B6100233B61002307
:1008F000BB610023FB6177E10122FB6902FA03F38C
:100900007B613B681B687A6913403B613A697B698C
:100910009A4240F066813B685B68022B03D03B68DB
:100920005B68122B23D1FB69DA087B68083253F825
:100930002230BB61FB6903F007039B000F2202FA20
:1009400003F3DB43BA691340BB613B681A69FB6977
:1009500003F007039B0002FA03F3BA691343BB6178
:10096000FB69DA087B680832B96943F822107B68B2
:100970001B68BB61FB695B00032202FA03F3DB43E4
:10098000BA691340BB613B685B6803F00302FB6913
:100990005B0002FA03F3BA691343BB617B68BA696F
:1009A0001A603B685B68012B0BD03B685B68022BCD
:1009B00007D03B685B68112B03D03B685B68122B48
:1009C00030D17B689B68BB61FB695B00032202FA44
:1009D00003F3DB43BA691340BB613B68DA68FB6928
:1009E0005B0002FA03F3BA691343BB617B68BA691F
:1009F0009A607B685B68BB610122FB6902FA03F3C2
:100A0000DB43BA691340BB613B685B681B0903F0B9
:100A10000102FB6902FA03F3BA691343BB617B6805
:100A2000BA695A607B68DB68BB61FB695B000322C3
:100A300002FA03F3DB43BA691340BB613B689A686F
:100A4000FB695B0002FA03F3BA691343BB617B687D
:100A5000BA69DA603B685B6803F08053002B00F0F2
:100A6000C0800023FB60654B5B6C644A43F48043A9
:100A70005364624B5B6C03F48043FB60FB68604A29
:100A8000FB699B08023352F82330BB61FB6903F01A
:100A900003039B000F2202FA03F3DB43BA691340FE
:100AA000BB617B68574A934237D07B68564A934272
:100AB00031D07B68554A93422BD07B68544A93428D
:100AC00025D07B68534A93421FD07B68524A934299
:100AD00019D07B68514A934213D07B68504A9342A5
:100AE0000DD07B684F4A934207D07B684E4A9342B1
:100AF00001D1092312E00A2310E008230EE00723A6
:100B00000CE006230AE0052308E0042306E00323A3
:100B100004E0022302E0012300E00023FA6902F06E
:100B2000030292009340BA691343BB613449FB69E5
:100B30009B080233BA6941F823203C4B1B68BB6118
:100B40003B69DB43BA691340BB613B685B6803F4F4
:100B50008033002B03D0BA693B691343BB61334A2E
:100B6000BB691360314B5B68BB613B69DB43BA69AE
:100B70001340BB613B685B6803F40033002B03D078
:100B8000BA693B691343BB61284ABB695360274B71
:100B90009B68BB613B69DB43BA691340BB613B683F
:100BA0005B6803F48013002B03D0BA693B691343DD
:100BB000BB611E4ABB6993601C4BDB68BB613B6930
:100BC000DB43BA691340BB613B685B6803F4001305
:100BD000002B03D0BA693B691343BB61134ABB695D
:100BE000D360FB690133FB61FB690F2B7FF684AE99
:100BF00000BF2437BD465DF8047B704700380240D3
:100C00000038014000000240000402400008024099
:100C1000000C024000100240001402400018024084
:100C2000001C02400020024000240240003C014021
:100C300080B582B000AF0346FB80084B5A69FB8841
:100C40001340002B06D0054AFB885361FB881846E9
:100C500000F0DAFD00BF0837BD4680BD003C014012
:100C600080B584B000AF78607B68002B01D1012390
:100C70002BE07B681B684CF6CC421A607B681B68D3
:100C800045F255521A607B681B687A6852685A6050
:100C90007B681B687A6892689A60FFF7DFFCF860EF
:100CA00008E0FFF7DBFC0246FB68D31A302B01D9C2
:100CB00003230AE07B681B68DB68002BF1D17B68AB
:100CC0001B684AF6AA221A60002318461037BD4650
:100CD00080BD80B483B000AF78607B681B684AF643
:100CE000AA221A60002318460C37BD465DF8047B23
:100CF0007047000080B582B000AF00237B60002306
:100D00003B60204B1B6C1F4A43F0805313641D4B08
:100D10001B6C03F080533B603B681B4B01221A6045
:100D2000FFF79CFC786009E0FFF798FC02467B68BF
:100D3000D31AB3F57A7F01D903231FE0134B5B6805
:100D400003F48033B3F5803FEED1114B01221A60DA
:100D5000FFF784FC786009E0FFF780FC02467B68BF
:100D6000D31AB3F57A7F01D9032307E0074B5B68F9
:100D700003F40033B3F5003FEED1002318460837E3
:100D8000BD4680BD0038024040000E420070004069
:100D900044000E4280B586B000AF78607B68002BBF
:100DA00001D101232DE27B681B6803F00103002BB6
:100DB00075D0A34B9B6803F00C03042B0CD0A04B05
:100DC0009B6803F00C03082B12D19D4B5B6803F466
:100DD0008003B3F5800F0BD1994B1B6803F40033EC
:100DE000002B5BD07B685B68002B57D1012308E2A6
:100DF0007B685B68B3F5803F06D1914B1B68904AD6
:100E000043F4803313601DE07B685B68B3F5A02F6B
:100E10000CD18B4B1B688A4A43F480231360884BA8
:100E20001B68874A43F4803313600BE0844B1B68D4
:100E3000834A23F480331360814B1B68804A23F478
:100E4000802313607B685B68002B13D0FFF706FCE0
:100E5000386108E0FFF702FC02463B69D31A642BB5
:100E600001D90323CDE1764B1B6803F40033002B3B
:100E7000F0D014E0FFF7F2FB386108E0FFF7EEFB7B
:100E800002463B69D31A642B01D90323B9E16C4BA9
:100E90001B6803F40033002BF0D100E000BF7B6837
:100EA0001B6803F00203002B63D0654B9B6803F0C3
:100EB0000C03002B0BD0624B9B6803F00C03082B38
:100EC0001CD15F4B5B6803F48003002B16D15C4B95
:100ED0001B6803F00203002B05D07B68DB68012B45
:100EE00001D001238DE1564B1B6823F0F8027B688B
:100EF0001B69DB00524913430B603AE07B68DB68F7
:100F0000002B20D04F4B01221A60FFF7A7FB38615E
:100F100008E0FFF7A3FB02463B69D31A022B01D975
:100F200003236EE1464B1B6803F00203002BF0D055
:100F3000434B1B6823F0F8027B681B69DB004049C8
:100F400013430B6015E03F4B00221A60FFF786FB4E
:100F5000386108E0FFF782FB02463B69D31A022B97
:100F600001D903234DE1364B1B6803F00203002B2C
:100F7000F0D17B681B6803F00803002B30D07B683E
:100F80005B69002B16D0304B01221A60FFF766FB1D
:100F9000386108E0FFF762FB02463B69D31A022B77
:100FA00001D903232DE1264B5B6F03F00203002BD5
:100FB000F0D015E0244B00221A60FFF74FFB386198
:100FC00008E0FFF74BFB02463B69D31A022B01D91D
:100FD000032316E11A4B5B6F03F00203002BF0D1E1
:100FE0007B681B6803F00403002B00F0A080002343
:100FF000FB75134B1B6C03F08053002B0FD10023A8
:10100000FB600F4B1B6C0E4A43F0805313640C4B78
:101010001B6C03F08053FB60FB680123FB750B4BDB
:101020001B6803F48073002B21D1084B1B68074A0F
:1010300043F480731360FFF711FB386111E000BFC8
:101040000038024000004742800E474200700040D6
:10105000FFF704FB02463B69D31A022B01D9032395
:10106000CFE06A4B1B6803F48073002BF0D07B68E1
:101070009B68012B06D1664B1B6F654A43F0010349
:1010800013671CE07B689B68052B0CD1604B1B6FC2
:101090005F4A43F0040313675D4B1B6F5C4A43F0E8
:1010A000010313670BE05A4B1B6F594A23F00103EE
:1010B0001367574B1B6F564A23F0040313677B6873
:1010C0009B68002B15D0FFF7C9FA38610AE0FFF7DB
:1010D000C5FA02463B69D31A41F28832934201D9DC
:1010E00003238EE04A4B1B6F03F00203002BEED06C
:1010F00014E0FFF7B3FA38610AE0FFF7AFFA0246EF
:101100003B69D31A41F28832934201D9032378E034
:101110003F4B1B6F03F00203002BEED1FB7D012B35
:1011200005D13B4B1B6C3A4A23F0805313647B6818
:101130009B69002B64D0364B9B6803F00C03082B93
:101140005CD07B689B69022B41D1324B00221A6034
:10115000FFF784FA386108E0FFF780FA02463B693E
:10116000D31A022B01D903234BE0294B1B6803F050
:101170000073002BF0D17B68DA697B681B6A1A4325
:101180007B685B6A9B011A437B689B6A5B08013B37
:101190001B041A437B68DB6A1B061D4913434B6023
:1011A0001C4B01221A60FFF759FA386108E0FFF77B
:1011B00055FA02463B69D31A022B01D9032320E0DA
:1011C000134B1B6803F00073002BF0D018E0114B99
:1011D00000221A60FFF742FA386108E0FFF73EFA92
:1011E00002463B69D31A022B01D9032309E0084BBD
:1011F0001B6803F00073002BF0D101E0012300E035
:10120000002318461837BD4680BD00BF007000405F
:10121000003802406000474280B584B000AF78607B
:1012200039607B68002B01D10123CAE0674B1B6842
:1012300003F00F033A689A420CD9644B3A68D2B271
:101240001A70624B1B6803F00F033A689A4201D090
:101250000123B6E07B681B6803F00203002B20D05B
:101260007B681B6803F00403002B05D0584B9B6878
:10127000574A43F4E05393607B681B6803F008030C
:10128000002B05D0524B9B68514A43F46043936056
:101290004F4B9B6823F0F0027B689B684C491343DB
:1012A0008B607B681B6803F00103002B44D07B68D4
:1012B0005B68012B07D1464B1B6803F40033002BFE
:1012C00019D101237DE07B685B68022B03D07B682A
:1012D0005B68032B07D13E4B1B6803F00073002BA8
:1012E00009D101236DE03A4B1B6803F00203002B88
:1012F00001D1012365E0364B9B6823F003027B6834
:101300005B68334913438B60FFF7A8F9F8600AE084
:10131000FFF7A4F90246FB68D31A41F288329342E0
:1013200001D903234DE02A4B9B6803F00C027B6834
:101330005B689B009A42EBD1244B1B6803F00F03C0
:101340003A689A420CD2214B3A68D2B21A701F4BBB
:101350001B6803F00F033A689A4201D0012330E082
:101360007B681B6803F00403002B08D0184B9B68B4
:1013700023F4E0527B68DB68154913438B607B687C
:101380001B6803F00803002B09D0114B9B6823F462
:1013900060427B681B69DB000D4913438B6000F0E2
:1013A0001DF801460A4B9B681B0903F00F03094A0D
:1013B000D35C21FA03F3084A13600020FFF70AF90F
:1013C000002318461037BD4680BD00BF003C0240D8
:1013D00000380240DC29000808000020F0B585B084
:1013E00000AF00237B600023FB6000233B600023F1
:1013F000BB60504B9B6803F00C03042B07D0082BF9
:1014000008D0002B40F08D804B4BBB608CE04B4BE9
:10141000BB6089E0474B5B6803F03F037B60454B53
:101420005B6803F48003002B23D0424B5B689B096D
:101430004FF0000440F2FF114FF0000203EA0105F3
:1014400004EA02063D4A02FB06F1002202FB05F215
:101450000A443A49A5FB0101531819467B684FF02D
:1014600000041A462346FEF713FF03460C46FB60B2
:1014700049E0304B5B689B094FF0000440F2FF11DC
:101480004FF0000203EA010504EA0206294632464B
:101490004FF000034FF00004540144EAD1644B01C3
:1014A00019462246491B62EB06024FF000034FF03B
:1014B0000004940144EA91648B015B1A64EB02041A
:1014C0004FF000014FF00002E20042EA5372D900EF
:1014D0000B4614465B1944EB06044FF000014FF035
:1014E0000002A20242EA935299020B4614461846A1
:1014F00021467B684FF000041A462346FEF7C8FEDB
:1015000003460C46FB600B4B5B681B0C03F00303AC
:1015100001335B003B60FA683B68B2FBF3F3BB60EE
:1015200002E0054BBB6000BFBB6818461437BD46E0
:10153000F0BD00BF003802400024F40040787D0177
:1015400080B58AB000AF07F1140300221A605A6018
:101550009A60DA601A6100233B61234B1B6B224ABD
:1015600043F004031363204B1B6B03F004033B6144
:101570003B690023FB601C4B1B6B1B4A43F0800341
:101580001363194B1B6B03F08003FB60FB680023A4
:10159000BB60154B1B6B144A43F001031363124BE2
:1015A0001B6B03F00103BB60BB6800237B600E4B29
:1015B0001B6B0D4A43F0020313630B4B1B6B03F0D1
:1015C00002037B607B680C237B61084BBB610123BA
:1015D000FB6107F1140319460548FFF77FF900BFC7
:1015E0002837BD4680BD00BF0038024000002110F2
:1015F000001C024080B500AF094B0A4A1A60084B34
:1016000001225A60064B40F6FF729A600448FFF7C9
:1016100027FB0346002B01D000F004F900BF80BD7A
:101620009C0000200030004080B483B000AF7860A0
:101630004FF06043D3F8803E03F00103002B13D03A
:101640004FF06043D3F8003E03F00103002B0BD0B2
:1016500000E000BF4FF060431B68002BF9D04FF053
:1016600060437A68D2B21A707B6818460C37BD4660
:101670005DF8047B7047000080B582B000AFFEF7D4
:1016800087FF00F01FF8FFF75BFFFFF7B3FF00F0E5
:101690008BF80A4800F0B6FA4FF47A70FEF7EAFFCA
:1016A00000237B607B685A1C7A601946044800F06E
:1016B00035FA0A20FEF7DEFFF4E700BFC429000870
:1016C000CC29000880B594B000AF07F12003302288
:1016D0000021184600F01AFA07F10C0300221A60E4
:1016E0005A609A60DA601A610023BB602C4B1B6C55
:1016F0002B4A43F080531364294B1B6C03F0805337
:10170000BB60BB6800237B60264B1B68254A43F403
:1017100040431360234B1B6803F440437B607B68AA
:1017200009233B624FF480337B6201237B630223F6
:10173000BB634FF48003FB630F233B64D8237B64BC
:101740000223BB640423FB6407F120031846FFF760
:1017500021FB0346002B01D000F064F8FFF7CAFA22
:101760000346002B01D000F05DF80F23FB6002233D
:101770003B6100237B614FF4A053BB614FF4805366
:10178000FB6107F10C0305211846FFF745FD0346F1
:10179000002B01D000F046F800BF5037BD4680BD99
:1017A000003802400070004080B500AF00220121E7
:1017B0000820FFF75CF80820FFF775F800220121E8
:1017C0000920FFF754F80920FFF76DF800BF80BD2E
:1017D00080B586B000AFF860B9607A6000237B61A5
:1017E00009E0BB685A1CBA601B781846FFF71CFF5B
:1017F0007B6901337B617A697B689A42F1DB7B68A4
:1018000018461837BD4680BD80B582B000AF03468C
:10181000FB800348FFF75DFA00BF0837BD4680BD77
:101820009C00002080B400AF00BFBD465DF8047B83
:101830007047000080B483B000AF00237B60104B82
:101840005B6C0F4A43F4804353640D4B5B6C03F4B1
:1018500080437B607B6800233B60094B1B6C084A1C
:1018600043F080531364064B1B6C03F080533B60C2
:101870003B6800BF0C37BD465DF8047B704700BF76
:101880000038024080B400AF00BFBD465DF8047B65
:10189000704780B400AFFEE780B400AFFEE780B4CD
:1018A00000AFFEE780B400AFFEE780B400AF00BF3A
:1018B000BD465DF8047B704780B400AF00BFBD46F5
:1018C0005DF8047B704780B400AF00BFBD465DF893
:1018D000047B704780B500AFFEF7ACFE00BF80BD53
:1018E00080B500AF0420FFF7A3F900BF80BD80B52D
:1018F00000AF0820FFF79CF900BF80BD80B586B01F
:1019000000AFF860B9607A6000237B610AE0AFF352
:1019100000800146BB685A1CBA60CAB21A707B6963
:1019200001337B617A697B689A42F0DB7B681846F9
:101930001837BD4680BD80B483B000AF78604FF0EB
:10194000FF3318460C37BD465DF8047B704780B402
:1019500083B000AF786039603B684FF400525A6042
:10196000002318460C37BD465DF8047B704780B4F1
:1019700083B000AF7860012318460C37BD465DF890
:10198000047B704780B485B000AFF860B9607A60BE
:10199000002318461437BD465DF8047B70470000ED
:1019A00080B584B000AF7860114B1B68002B02D16A
:1019B0000F4B104A1A600E4B1B68FB600C4B1A68E9
:1019C0007B6813446A46934207D900F075F80246D3
:1019D0000C2313604FF0FF3306E0054B1A687B6859
:1019E0001344034A1360FB6818461037BD4680BD98
:1019F0008C000020B000002080B400AF164BD3F85C
:101A00008830154A43F47003C2F88830134B1B68C2
:101A1000124A43F001031360104B00229A600F4BEF
:101A20001B680E4A23F0847323F4803313600B4B3E
:101A30000B4A5A60094B1B68084A23F48023136041
:101A4000064B0022DA60044B4FF000629A6000BF40
:101A5000BD465DF8047B704700ED00E000380240B1
:101A600010300024DFF834D0002103E00C4B5B5829
:101A7000435004310B480C4B42189A42F6D30B4AA0
:101A800002E0002342F8043B094B9A42F9D3FFF7E6
:101A9000B3FF00F017F8FFF7EFFD704700000320D9
:101AA000942A000800000020700000207000002030
:101AB000AC000020FEE70000014B1868704700BF33
:101AC0000C00002070B50D4E0D4CA41BA410002579
:101AD000A54209D10B4E0C4C00F068FFA41BA410CA
:101AE0000025A54205D170BD56F82530984701352F
:101AF000EEE756F8253098470135F2E78C2A0008C2
:101B00008C2A00088C2A0008902A00080244034608
:101B1000934200D1704703F8011BF9E70FB40A4B59
:101B200013B51C6824B1A36913B9204600F022FA4A
:101B300005AB049AA1680193204600F0DBFB02B0DC
:101B4000BDE8104004B070470C00002070B50E4690
:101B5000054618B183690BB900F00CFAAB69AC68A3
:101B600013B9284600F006FA234B9C4217D16C6843
:101B7000A3891B071DD52369DBB1013EA36816F8B5
:101B8000011F013BA360E9B9002B2EDA22460A218E
:101B9000284600F03FF8013011D00A2011E0174B21
:101BA0009C4201D1AC68E3E7154B9C4208BFEC684E
:101BB000DEE72146284600F07FF80028DDD04FF010
:101BC000FF3070BD002B04DAA2699A4206DC0A29B4
:101BD00004D023685A1C22601970CFE72246284699
:101BE00000F018F80130C9D1E9E723680A205A1C2F
:101BF00022601870E5E700BF102A0008302A0008AC
:101C0000F0290008024B01461868FFF79FBF00BF8C
:101C10000C000020F8B50E461446054618B183693D
:101C20000BB900F0A7F9214B9C422AD16C68A3693B
:101C3000A360A3891A072ED5236963B3236920689B
:101C4000C01A6369F6B28342374604DC214628464F
:101C500000F026F928BBA368013BA36023685A1C47
:101C600022601E7063690130834204D0A389DB07C0
:101C700019D50A2E17D12146284600F011F990B146
:101C80000FE00B4B9C4201D1AC68D0E7094B9C4262
:101C900008BFEC68CBE72146284600F00DF8002885
:101CA000CCD04FF0FF373846F8BD00BF102A0008EF
:101CB000302A0008F0290008324B70B51D6806462E
:101CC0000C4625B1AB6913B9284600F053F92E4BE9
:101CD0009C420FD16C68B4F90C309AB215072CD421
:101CE000D00611D40922326043F04003A3814FF0A3
:101CF000FF303EE0254B9C4201D1AC68EBE7244B22
:101D00009C4208BFEC68E6E7510712D5616B41B110
:101D100004F14403994202D0304600F019FA00233E
:101D20006363A38923F02403A381002363602369F1
:101D30002360A38943F00803A38123694BB9A389D6
:101D400003F42073B3F5007F03D02146304600F042
:101D5000BFF9A28912F001030CD00023A3606369CC
:101D60005B42A361236953B9B4F90C3013F08000CE
:101D7000BAD170BD920758BF6369A360F2E7002033
:101D8000F7E700BF0C000020102A0008302A0008E6
:101D9000F02900088A892DE9F041054610070C4614
:101DA00058D44B68002B05DC0B6C002B02DC0020A8
:101DB000BDE8F081E66A002EF9D0002312F48052CB
:101DC0002F68216A2B6032D0606DA3895A0705D530
:101DD0006368C01A636B0BB1236CC01A0023024600
:101DE000E66A216A2846B047431CA38906D12968C0
:101DF0001D2948D8294ACA40D60744D50022626026
:101E0000D9042269226004D5421C01D12B6803B990
:101E10006065616B2F600029C9D004F144039942C9
:101E200002D0284600F094F900206063C0E7012347
:101E30002846B047411CC8D12B68002BC5D01D2BAC
:101E400001D0162B01D12F60B1E7A38943F04003E5
:101E5000A381ADE70F69002FA9D093070E6808BFD3
:101E60004B690F6018BF0023A6EB07088B60B8F121
:101E7000000F9CDD43463A46216AA66A2846B047D1
:101E8000002806DCA38943F04003A3814FF0FF3014
:101E90008EE70744A8EB0008E9E700BF01004020F7
:101EA00038B50B6905460C46DBB118B183690BB92F
:101EB00000F060F80C4B9C4209D16C68B4F90C300E
:101EC0007BB121462846BDE83840FFF763BF074B8A
:101ED0009C4201D1AC68F1E7054B9C4208BFEC681D
:101EE000ECE7002038BD00BF102A0008302A0008A7
:101EF000F0290008002310B50446C0E900338360D0
:101F000081814366C281C0E9043383611946082296
:101F10005C30FFF7FBFD054B6362054BA362054B8D
:101F2000E362054B2462236310BD00BF5128000803
:101F300073280008AB280008CF280008014900F0EA
:101F400085B800BFA11E000870B54A1E682555431C
:101F50000E4605F1740100F049F9044640B1002134
:101F6000C0E900160C30A06005F16802FFF7CEFD55
:101F7000204670BD836910B5044633BBC0E91233F7
:101F80000365124B124A1B688262984204BF012308
:101F9000836100F01FF86060204600F01BF8A0602D
:101FA000204600F017F80022E06004216068FFF787
:101FB000A1FF01220921A068FFF79CFF0222122144
:101FC000E068FFF797FF0123A36110BDEC2900082B
:101FD0003D1F0008F8B51B4B1E68B369074613B9CF
:101FE0003046FFF7C7FF4836D6E90134013B03D539
:101FF000336833B13668F7E7B4F90C506DB1683423
:10200000F4E704213846FFF79FFF30600028F1D144
:102010000C233B6004462046F8BD0B4B6566C4E9C3
:102020000055A560C4E90335C4E9055508222946D1
:1020300004F15C00FFF76AFDC4E90D55C4E91255CF
:10204000E9E700BFEC2900080100FFFF2DE9F84394
:102050008046894600F14804002614B93046BDE8A0
:10206000F883D4E90175013F01D52468F5E7AB8910
:10207000012B07D9B5F90E30013303D0294640466C
:10208000C84706436835EEE770B50E46B1F90E1045
:10209000002996B014461D4607DA00232B60B38949
:1020A0001A0610D44FF480630EE06A4600F036FC46
:1020B0000028F2DB019A02F47042A2F500535A4262
:1020C0005A412A60EEE740230020236016B070BD1D
:1020D0008B8973B59D0706460C4607D504F1470367
:1020E000236023610123636102B070BD01AB6A46C6
:1020F000FFF7CAFF00990546304600F077F848B967
:10210000B4F90C309A05EFD423F0030343F0020333
:10211000A381E3E70D4BB362A389206043F0800302
:10212000A381009B6361019B20615BB1B4F90E1038
:10213000304600F005FC28B1A38923F0030343F0E7
:102140000103A381A3891D43A581CDE73D1F00089D
:1021500038B50546002945D051F8043C0C1F002B2A
:10216000B8BFE41800F00EFC1F4A1368104633B9DC
:10217000636014602846BDE8384000F004BCA34208
:102180000CD921686218934204BF1A685B686360C7
:1021900004BF521822600460ECE713465A680AB183
:1021A000A242FAD919685818A0420BD120680144FC
:1021B000581882421960DDD1106852685A60014493
:1021C0001960D7E702D90C232B60D3E720682118C8
:1021D0008A4204BF11685268626004BF0918216016
:1021E0005C60C7E738BD00BF9000002070B5CD1C13
:1021F00025F0030508350C2D38BF0C25002D0646AB
:1022000001DBA94203D90C233360002070BD00F02C
:10221000B9FB214A1468214691B9204C23681BB9A7
:10222000304600F005FB20602946304600F000FBF8
:10223000431C24D10C233360304600F0A4FBE4E7B8
:102240000B685B1B18D40B2B0FD90B60CD50CC182F
:10225000304600F098FB04F10B00231D20F007002E
:10226000C31AD3D05A42E250D0E78C424B6816BF13
:10227000636013600C46EBE70C464968CCE7C41C6E
:1022800024F00304A04205D0211A304600F0D0FA11
:102290000130CFD02560DBE79000002094000020C3
:1022A0009368013B002B10B4936008DA9469A34251
:1022B00001DB0A2903D15DF8044BFFF7ABBC1368BF
:1022C000581C1060197008465DF8044B7047F8B54B
:1022D00006460F461446D518AC4201D1002007E04F
:1022E0003A4614F8011B3046FFF7DAFF431CF3D1DE
:1022F000F8BD00002DE9F04F0C469DB017461D4675
:10230000064618B183690BB9FFF734FE7C4B9C423B
:1023100058D17468A38918075ED52369002B5BD058
:102320000023099320238DF8293030238DF82A309B
:1023300003954FF0010BB846454615F8013B0BB12C
:10234000252B54D1B8EB070A0BD053463A46214609
:102350003046FFF7BCFF013000F0C280099B5344B8
:10236000099398F80030002B00F0BA8000234FF05A
:10237000FF32CDE90523049307938DF853301A9368
:10238000A846052218F8011B5E48FDF731FF049BA3
:1023900078BBD90644BF20228DF853201A0744BFCA
:1023A0002B228DF853202A782A2A2AD0079AA84669
:1023B00000200A25414611F8013B303B092B69D921
:1023C00060B324E0504B9C4201D1B468A2E74F4B6C
:1023D0009C4208BFF4689DE721463046FFF76CFC3D
:1023E00000289DD04FF0FF301DB0BDE8F08FA8460B
:1023F000A2E7444A801A0BFA00F0184304904546BD
:10240000BEE7039A111D12680391002A01DB0792AF
:1024100004E0524243F002030792049398F800301C
:102420002E2B0ED198F801302A2B38D1039B1A1D80
:102430001B680392002BB8BF4FF0FF3308F102086E
:102440000593334D98F8001003222846FDF7D0FE7F
:1024500040B14023401B03FA00F0049B034308F102
:102460000108049398F800102A488DF828100622D5
:1024700008F10107FDF7BCFE002837D0264B1BBB37
:10248000039B073323F0070308330393099B4B4453
:10249000099350E705FB0232012088468AE70023B2
:1024A00008F10108059319460A25404610F8012B4A
:1024B000303A092A03D9002BC3D00591C1E705FBA7
:1024C000012101238046F0E703AB00932246134B22
:1024D00004A93046AFF30080B0F1FF3F8146D5D16B
:1024E000A3895B063FF57EAF09987DE703AB0093B8
:1024F00022460A4B04A9304600F088F8ECE700BFFA
:10250000102A0008502A0008302A0008F029000884
:10251000562A00085A2A000800000000CF220008AE
:102520002DE9F04791461F468A680B69DDF8208047
:102530009342B8BF1346C9F8003091F843200646CD
:102540000C4612B10133C9F800302368990642BF26
:10255000D9F800300233C9F80030256815F00605B7
:1025600007D104F1190AE368D9F800209B1AAB429D
:1025700028DC94F843302268003318BF0123920608
:102580002DD404F1430239463046C047013020D0F3
:102590002368E568D9F8002003F00603042B08BF80
:1025A000AD1AA36822690CBF25EAE57500259342A0
:1025B000C4BF9B1AED184FF000091A344D451AD1CB
:1025C000002008E00123524639463046C04701301A
:1025D00003D14FF0FF30BDE8F0870135C3E7E118C4
:1025E0005A1C302081F84300224494F8451082F8A8
:1025F00043100233C5E70123224639463046C0471F
:102600000130E6D009F10109D8E700002DE9F043D7
:1026100001F1430C0C46097E85B06E29174606462B
:1026200098460C9A00F0B38022D8632936D00AD895
:10263000002900F0B980582900F0838004F1420598
:1026400084F8421032E0642901D06929F6D120686B
:102650001368050603F104012AD51B681160002BDD
:1026600003DA2D225B4284F843206F480A2239E0C6
:10267000732900F09D8008D86F2920D07029DDD102
:10268000236843F02003236003E0752917D07829DD
:10269000D4D1782384F84530644855E01368191D77
:1026A0001B68116004F1420584F8423001238CE07C
:1026B0001B68116010F0400F18BF1BB2CFE7136802
:1026C0002568181D1060280601D51B6802E0680601
:1026D000FBD51B8854486F2914BF0A220822002109
:1026E00084F843106568A560002DC0F295802168CC
:1026F00021F004012160002B3DD1002D40F08E809F
:102700006546082A0BD12368DB0708D52369626870
:102710009A42DEBF302305F8013C05F1FF35ACEBF2
:1027200005032361CDF800803B4603AA21463046CD
:10273000FFF7F6FE01304DD14FF0FF3005B0BDE898
:10274000F083394884F84510136821681D1D1B6803
:1027500015600A060BD5CA0744BF41F0200121606D
:102760001BB9226822F0200222601022B7E74D0632
:1027700048BF9BB2EFE76546B3FBF2F102FB1133B2
:10278000C35C05F8013D0B460029F5D1B9E7136894
:1027900025686169181D106028061B6801D519603D
:1027A00002E06A06FBD51980002323616546B9E77C
:1027B0001368191D11601D68626800212846FDF725
:1027C00017FD08B1401B606063682361002384F833
:1027D0004330A7E723692A4639463046C0470130CF
:1027E000AAD023689B0713D4E068039B9842B8BF24
:1027F0001846A3E701234A4639463046C047013010
:102800009AD00135E368039A9B1AAB42F2DCEBE7FE
:10281000002504F11909F5E7002BACD1037884F801
:10282000423004F142056CE7612A0008722A000870
:1028300038B5064C0023054608462360FFF7B0F87C
:10284000431C02D1236803B12B6038BDA8000020CF
:1028500010B50C46B1F90E1000F096F80028ABBF89
:10286000636DA3891B1823F48053ACBF6365A381F8
:1028700010BD2DE9F0411F468B89DB0505460C464E
:10288000164605D502230022B1F90E1000F068F8B3
:10289000A389B4F90E1023F48053A38132463B463A
:1028A0002846BDE8F04100F017B810B50C46B1F964
:1028B0000E1000F055F8431CA38915BF606523F482
:1028C000805343F48053A38118BFA38110BDB1F995
:1028D0000E1000F013B8000038B5074C0546084646
:1028E0001146002222601A46FEF772FF431C02D1F5
:1028F000236803B12B6038BDA800002038B5064C12
:102900000023054608462360FFF715F8431C02D153
:10291000236803B12B6038BDA800002038B5074CF0
:1029200000230546084611462360FFF710F8431CB4
:1029300002D1236803B12B6038BD00BFA80000207E
:1029400038B5064C0023054608462360FFF70FF80C
:10295000431C02D1236803B12B6038BDA8000020BE
:1029600038B5074C054608461146002222601A4633
:10297000FFF708F8431C02D1236803B12B6038BD70
:10298000A80000207047704738B5074C0546084638
:102990001146002222601A46FEF7B0FF431C02D106
:1029A000236803B12B6038BDA8000020F8B500BF34
:1029B000F8BC08BC9E467047F8B500BFF8BC08BC20
:0429C0009E46704778
:1029C40053746172740D000052756E6E696E673ACD
:1029D4002025640D0A000000000000000000000033
:1029E400010203040607080910000020000000008B
:1029F40000000000000000000000000000000000D3
:102A040000000000000000000000000000000000C2
:102A140000000000000000000000000000000000B2
:102A240000000000000000000000000000000000A2
:102A34000000000000000000000000000000000092
:102A4400000000000000000000000000232D302BD7
:102A54002000686C4C00656667454647003031329B
:102A640033343536373839414243444546003031F2
:102A74003233343536373839616263646566000051
:082A84003CD8FF7F01000000B7
:042A8C00D501000868
:042A9000B101000888
:102A940010000000010000000024F40010000020D9
:102AA40000000000102A0008302A0008F02900085D
:102AB4000000000000000000000000000000000012
:102AC4000000000000000000000000000000000002
:102AD40000000000000000000000000000000000F2
:102AE40000000000000000000000000000000000E2
:102AF40000000000000000000000000000000000D2
:0400000508001A6570
:00000001FF
