:020000040800F2
:1000000000000320692F0008792E0008872E0008C1
:100010008D2E0008932E0008992E00080000000085
:100020000000000000000000000000009F2E0008FB
:10003000AD2E000800000000BB2E0008C92E0008ED
:10004000B92F0008B92F0008B92F0008B92F0008F0
:10005000B92F0008B92F0008B92F0008B92F0008E0
:10006000B92F0008B92F0008B92F0008B92F0008D0
:10007000B92F0008B92F0008B92F0008B92F0008C0
:10008000B92F0008B92F0008B92F0008B92F0008B0
:10009000B92F0008B92F0008B92F0008B92F0008A0
:1000A000B92F0008B92F0008B92F0008B92F000890
:1000B000B92F0008B92F0008B92F0008B92F000880
:1000C000B92F0008B92F0008B92F0008B92F000870
:1000D000B92F0008B92F0008B92F0008B92F000860
:1000E000B92F0008B92F0008B92F0008B92F000850
:1000F000B92F0008B92F0008B92F0008B92F000840
:10010000B92F0008B92F0008B92F0008B92F00082F
:10011000B92F0008B92F0008B92F0008B92F00081F
:10012000B92F0008B92F0008B92F0008B92F00080F
:10013000B92F0008B92F0008B92F0008B92F0008FF
:10014000B92F0008B92F0008B92F0008B92F0008EF
:10015000B92F0008B92F0008B92F0008B92F0008DF
:10016000B92F0008B92F0008B92F0008B92F0008CF
:10017000B92F0008B92F0008B92F000800000000AF
:10018000B92F0008B92F0008B92F0008B92F0008AF
:10019000B92F0008B92F0008B92F0008B92F00089F
:0C01A000B92F0008B92F0008D52E000868
:1001AC0010B5054C237833B9044B13B10448AFF3A5
:1001BC0000800123237010BD0C0000200000000003
:1001CC001430000808B5034B1BB103490348AFF3C7
:1001DC00008008BD00000000100000201430000852
:1001EC0053B94AB9002908BF00281CBF4FF0FF3192
:1001FC004FF0FF3000F072B9ADF1080C6DE904CE90
:10020C0000F006F8DDF804E0DDE9022304B07047E5
:10021C002DE9F047089E04468846002B4BD18A42B4
:10022C00154667D9B2FA82F24AB1C2F1200701FA37
:10023C0002F320FA07F7954047EA030894404FEA87
:10024C00154E230CB8FBFEF71FFA85FC0EFB178826
:10025C0043EA084307FB0CF1994209D9EB1807F163
:10026C00FF3080F01B81994240F21881023F2B44F1
:10027C005B1AA4B2B3FBFEF00EFB103344EA03444A
:10028C0000FB0CFCA44509D92C1900F1FF3380F0BC
:10029C000781A44540F2048102382C4440EA07400F
:1002AC00A4EB0C0400271EB1D4400023C6E9004384
:1002BC003946BDE8F0878B4209D9002E00F0EB805F
:1002CC000027C6E9000138463946BDE8F087B3FA85
:1002DC0083F7002F47D18B4202D3824200F2FA807F
:1002EC00841A61EB030301209846002EE0D0C6E986
:1002FC000048DDE702B9FFDEB2FA82F2002A40F0D4
:10030C008F80491B4FEA154E1FFA85F80127B1FB68
:10031C00FEFC230C0EFB1C1143EA014308FB0CF101
:10032C00994207D9EB180CF1FF3002D2994200F236
:10033C00CD808446591AA3B2B1FBFEF00EFB10140B
:10034C0043EA044408FB00F8A04507D92C1900F136
:10035C00FF3302D2A04500F2B6801846A4EB080485
:10036C0040EA0C409FE7C7F1200CBB4022FA0CFE80
:10037C004EEA030E01FA07F420FA0CF521FA0CF3FD
:10038C004FEA1E482543B3FBF8F92C0C08FB193334
:10039C001FFA8EFA44EA034309FB0AF49C4202FA60
:1003AC0007F200FA07F10BD91EEB030309F1FF303A
:1003BC0080F087809C4240F28480A9F1020973444A
:1003CC001B1BADB2B3FBF8F008FB103345EA03443A
:1003DC0000FB0AFAA24508D91EEB040400F1FF3316
:1003EC006BD2A24569D90238744440EA0940A0FB9B
:1003FC000289A4EB0A044C45C2464B4654D351D057
:10040C00002E69D0B1EB0A0564EB030404FA0CFC72
:10041C00FD40FC404CEA0505C6E90054002747E7BF
:10042C00C2F1200320FA03F7954001FA02F021FAF9
:10043C0003F34FEA154E3843010CB3FBFEF71FFADA
:10044C0085F80EFB173341EA034107FB08F38B4297
:10045C0004FA02F407D9691807F1FF3C2FD28B423A
:10046C002DD9023F2944CB1A81B2B3FBFEF00EFB0F
:10047C00103341EA034100FB08F38B4207D969189A
:10048C0000F1FF3C17D28B4215D902382944C91A06
:10049C0040EA07473BE73746304609E70746E7E6B9
:1004AC001846FBE64145ABD2B8EB020A69EB0E02EB
:1004BC0001381346A4E76046E9E7184695E7674616
:1004CC00D1E781467CE702382C4447E7ACF1020CBB
:1004DC002B442FE7384608E73746E9E6704700BF5C
:1004EC0080B500AF0E4B1B680D4A43F400731360CC
:1004FC000B4B1B680A4A43F480631360084B1B6860
:10050C00074A43F480731360032000F04DF9002078
:10051C0000F008F802F082FC0023184680BD00BFF2
:10052C00003C024080B582B000AF7860124B1A6874
:10053C00124B1B7819464FF47A73B3FBF1F3B2FBF1
:10054C00F3F3184600F065F90346002B01D00123A4
:10055C000EE07B680F2B0AD8002279684FF0FF3031
:10056C0000F02DF9064A7B681360002300E001239C
:10057C0018460837BD4680BD080000200400002046
:10058C000000002080B400AF064B1B781A46064BC7
:10059C001B681344044A136000BFBD465DF8047B1E
:1005AC00704700BF040000203000002080B400AF72
:1005BC00034B1B681846BD465DF8047B704700BFB3
:1005CC003000002080B584B000AF7860FFF7EEFFFC
:1005DC00B8607B68FB60FB68B3F1FF3F05D0094B4B
:1005EC001B781A46FB681344FB6000BFFFF7DEFF65
:1005FC000246BB68D31AFA689A42F7D800BF103784
:10060C00BD4680BD0400002080B485B000AF78608A
:10061C007B6803F00703FB600C4BDB68BB60BA68BC
:10062C004FF6FF031340BB60FB681A02BB68134311
:10063C0043F0BF6343F40033BB60044ABB68D36030
:10064C0000BF1437BD465DF8047B704700ED00E039
:10065C0080B400AF044BDB681B0A03F00703184699
:10066C00BD465DF8047B704700ED00E080B483B0BC
:10067C0000AF0346FB7197F90730002B0BDBFB79BE
:10068C0003F01F02074997F907305B09012000FAB4
:10069C0002F241F8232000BF0C37BD465DF8047B05
:1006AC00704700BF00E100E080B483B000AF0346A8
:1006BC003960FB7197F90730002B0ADB3B68DAB223
:1006CC000C4997F907301201D2B20B4483F800237E
:1006DC000AE03B68DAB20849FB7903F00F03043BEC
:1006EC001201D2B20B441A7600BF0C37BD465DF82E
:1006FC00047B704700E100E000ED00E080B489B0BD
:10070C0000AFF860B9607A60FB6803F00703FB6127
:10071C00FB69C3F10703042B28BF0423BB61FB69EE
:10072C000433062B02D9FB69033B00E000237B61F9
:10073C004FF0FF32BB6902FA03F3DA43BB681A408D
:10074C007B699A404FF0FF317B6901FA03F3D9437F
:10075C007B680B40134318462437BD465DF8047B79
:10076C007047000080B582B000AF78607B68013BB9
:10077C00B3F1807F01D301230FE00A4A7B68013B70
:10078C0053600F214FF0FF30FFF78EFF054B002217
:10079C009A60044B07221A60002318460837BD469E
:1007AC0080BD00BF10E000E080B582B000AF786083
:1007BC007868FFF729FF00BF0837BD4680BD80B5BC
:1007CC0086B000AF0346B9607A60FB7300237B618F
:1007DC00FFF73EFF78617A68B9687869FFF78EFF9A
:1007EC00024697F90F3011461846FFF75DFF00BF20
:1007FC001837BD4680BD80B582B000AF0346FB7193
:10080C0097F907301846FFF731FF00BF0837BD4690
:10081C0080BD80B582B000AF78607868FFF7A2FF2A
:10082C00034618460837BD4680BD80B582B000AF80
:10083C0078607B68002B01D101233BE07B6893F847
:10084C003930DBB2002B06D17B68002283F83820CC
:10085C00786801F0B7FE7B68022283F839207B6848
:10086C001B681B6823F440317B685A687B681B68E3
:10087C000A431A607B681B685B6B23F007017B687B
:10088C009A687B681B680A435A637B681B681B6CFD
:10089C0023F47F5323F03F037A68D1687A68126897
:1008AC000B4313647B680022DA637B68012283F8B4
:1008BC003920002318460837BD4680BD80B586B068
:1008CC0002AFF860B9607A603B60FB6893F838302F
:1008DC00012B01D1022320E0FB68012283F8382090
:1008EC00FB68022283F83920BB6900933B687A6865
:1008FC00B968F86800F025F9FB681B681A68FB6892
:10090C001B6842F40C521A60FB681B681A68FB687F
:10091C001B6842F001021A60002318461037BD46CE
:10092C0080BD80B584B000AF78607B681B685B6865
:10093C00FB607B681B681B68BB60FB6803F00103F2
:10094C00002B26D0BB6803F48073002B21D07B686E
:10095C001B681A687B681B6822F480721A607B68BB
:10096C00DB6B43F001027B68DA637B681B68012256
:10097C009A607B68042283F839207B68002283F814
:10098C0038207B685B69002B03D07B685B697868D7
:10099C009847FB6803F02003002B26D0BB6803F4B8
:1009AC000053002B21D07B681B681A687B681B687E
:1009BC0022F400521A607B681B6820229A607B68C4
:1009CC00DB6B43F002027B68DA637B68042283F8FA
:1009DC0039207B68002283F838207B685B69002B08
:1009EC0003D07B685B6978689847FB6803F0080361
:1009FC00002B26D0BB6803F40063002B21D07B684E
:100A0C001B681A687B681B6822F400621A607B689A
:100A1C001B6808229A607B68DB6B43F004027B68DE
:100A2C00DA637B68042283F839207B68002283F820
:100A3C0038207B685B69002B03D07B685B69786826
:100A4C009847FB6803F00403002B13D0BB6803F436
:100A5C008063002B0ED07B681B681A687B681B6850
:100A6C0022F480621A607B681B6804229A607868A2
:100A7C0000F053F8FB6803F00203002B24D0BB6892
:100A8C0003F40073002B1FD07B681B681A687B680B
:100A9C001B6822F400721A607B681B6802229A6041
:100AAC007B68DA6B7B68DA637B68012283F8392018
:100ABC007B68002283F838207B681B69002B03D0ED
:100ACC007B681B6978689847FB6803F01003002B60
:100ADC001FD0BB6803F48053002B1AD07B681B68B3
:100AEC001A687B681B6822F480521A607B681B684A
:100AFC0010229A607B68DA6B7B68DA637B68012270
:100B0C0083F839207B68002283F83820786800F05D
:100B1C000EF800BF1037BD4680BD80B483B000AF67
:100B2C00786000BF0C37BD465DF8047B704780B41D
:100B3C0083B000AF786000BF0C37BD465DF8047B16
:100B4C00704780B48BB000AFF860B9607A603B60DE
:100B5C00FB681B685B6C03F040413B681A043B6B01
:100B6C001A43FB681B680A435A64FB681B687A6863
:100B7C00DA63FB685B68B3F5403F74D1BB6803F084
:100B8C007F433B62BB6803F47F03FB61BB6803F4E8
:100B9C007F43BB61BB68DBB27B61FB689B68002B4E
:100BAC0008D1BA69FB691A433B6A13437A69134348
:100BBC007B6253E0FB689B68012B06D1BA69FB6929
:100BCC0013437A6913437B6248E0FB689B68022BF2
:100BDC0011D1FB69DB0CFB61BB699B0ABB617B69B7
:100BEC00DB087B61BB695A01FB69DB0213437A6941
:100BFC0013437B6232E0FB689B68032B17D13B6A83
:100C0C00DB0F3B62FB69DB0CFB61BB69DB0ABB6185
:100C1C007B69DB087B61BB695A01FB699B021A4348
:100C2C003B6ADB0313437A6913437B6216E03B6A2E
:100C3C001B0F3B62FB691B0DFB61BB691B0BBB6193
:100C4C007B691B097B61BB691A01FB691B021A4397
:100C5C003B6A1B0313437A6913437B62FB681B6873
:100C6C007A6A9A6303E0FB681B68BA68DA6000BFB3
:100C7C002C37BD465DF8047B7047000080B489B00A
:100C8C0000AF7860396000237B6100233B61002357
:100C9C00BB610023FB6177E10122FB6902FA03F3DC
:100CAC007B613B681B687A6913403B613A697B69DD
:100CBC009A4240F066813B685B68012B0BD03B6825
:100CCC005B68022B07D03B685B68112B03D03B6839
:100CDC005B68122B30D17B689B68BB61FB695B0046
:100CEC00032202FA03F3DB43BA691340BB613B688E
:100CFC00DA68FB695B0002FA03F3BA691343BB6160
:100D0C007B68BA699A607B685B68BB610122FB698E
:100D1C0002FA03F3DB43BA691340BB613B685B68BF
:100D2C001B0903F00102FB6902FA03F3BA691343CE
:100D3C00BB617B68BA695A607B68DB68BB61FB6925
:100D4C005B00032202FA03F3DB43BA691340BB6175
:100D5C003B689A68FB695B0002FA03F3BA691343B8
:100D6C00BB617B68BA69DA603B685B68022B03D0B5
:100D7C003B685B68122B23D1FB69DA087B6808326D
:100D8C0053F82230BB61FB6903F007039B000F2271
:100D9C0002FA03F3DB43BA691340BB613B681A697F
:100DAC00FB6903F007039B0002FA03F3BA691343D0
:100DBC00BB61FB69DA087B680832B96943F8221019
:100DCC007B681B68BB61FB695B00032202FA03F3BF
:100DDC00DB43BA691340BB613B685B6803F00302F9
:100DEC00FB695B0002FA03F3BA691343BB617B68CE
:100DFC00BA691A603B685B6803F08053002B00F003
:100E0C00C0800023FB60654B5B6C644A43F48043F9
:100E1C005364624B5B6C03F48043FB60FB68604A79
:100E2C00FB699B08023352F82330BB61FB6903F06A
:100E3C0003039B000F2202FA03F3DB43BA6913404E
:100E4C00BB617B68574A934237D07B68564A9342C2
:100E5C0031D07B68554A93422BD07B68544A9342DD
:100E6C0025D07B68534A93421FD07B68524A9342E9
:100E7C0019D07B68514A934213D07B68504A9342F5
:100E8C000DD07B684F4A934207D07B684E4A934201
:100E9C0001D1092312E00A2310E008230EE00723F6
:100EAC000CE006230AE0052308E0042306E00323F4
:100EBC0004E0022302E0012300E00023FA6902F0BF
:100ECC00030292009340BA691343BB613449FB6936
:100EDC009B080233BA6941F823203C4B1B68BB6169
:100EEC003B69DB43BA691340BB613B685B6803F445
:100EFC008033002B03D0BA693B691343BB61334A7F
:100F0C00BB691360314B5B68BB613B69DB43BA69FE
:100F1C001340BB613B685B6803F40033002B03D0C8
:100F2C00BA693B691343BB61284ABB695360274BC1
:100F3C009B68BB613B69DB43BA691340BB613B688F
:100F4C005B6803F48013002B03D0BA693B6913432D
:100F5C00BB611E4ABB6993601C4BDB68BB613B6980
:100F6C00DB43BA691340BB613B685B6803F4001355
:100F7C00002B03D0BA693B691343BB61134ABB69AD
:100F8C00D360FB690133FB61FB690F2B7FF684AEE9
:100F9C0000BF2437BD465DF8047B70470038024023
:100FAC0000380140000002400004024000080240EA
:100FBC00000C0240001002400014024000180240D5
:100FCC00001C02400020024000240240003C014072
:100FDC0080B483B000AF78600B467B8013467B7087
:100FEC007B78002B03D07A887B689A6103E07B883E
:100FFC001A047B689A6100BF0C37BD465DF8047B10
:10100C007047000080B584B000AF78607B68002B1F
:10101C0001D10123BFE07B6893F8A130DBB2002B38
:10102C0006D17B68002283F8A020786801F072FD5D
:10103C007B68022283F8A1207B681B689A697B6815
:10104C001B6822F070429A617B681B6899697B6807
:10105C005A687B689B681A437B68DB681A437B6819
:10106C001B691A437B681B680A439A617B681B687F
:10107C0099687B681A684A4B0B4093607B685B6984
:10108C001B04FB607B681B6899687B689A69FB682A
:10109C001A437B681B680A439A607B681B68D96893
:1010AC007B681A683E4B0B40D3607B68DB691B0482
:1010BC00FB607B681B68D9687B681A6AFB681A43FB
:1010CC007B681B680A43DA607B681B6819697B685C
:1010DC001A68334B0B4013617B685B6A1B04FB6023
:1010EC007B681B6819697B689A6AFB681A437B6882
:1010FC001B680A431A617B681B6859697B681A680C
:10110C00274B0B4053617B68DB6A1B04FB607B68DD
:10111C001B6859697B681A6BFB681A437B681B68F0
:10112C000A435A617B6893F835301B02FB607B687D
:10113C0093F836301B04BB607B681B68DA6A7B68EB
:10114C001B6802F07F42DA627B681B68D96ABA6856
:10115C00FB6813437A6892F834201A437B681B6847
:10116C000A43DA627B681B685A6B7B681B6842F027
:10117C0006025A637B681B689A697B681B6842F09D
:10118C0001029A617B680022C3F8A4207B680122CB
:10119C0083F8A120002318461037BD4680BD00BF40
:1011AC0000F800F0B0B584B000AFF860B9607A60B8
:1011BC00FB6893F8A030012B01D102232CE0FB68D3
:1011CC00012283F8A020FB68022283F8A120FA6890
:1011DC007B68342101FB03F3134403F13802BB6831
:1011EC0014461D460FCD0FC40FCD0FC40FCD0FC429
:1011FC002B6823607A68B968F86800F057F8FB68C8
:10120C001B6801225A62FB68012283F8A120FB684B
:10121C00002283F8A020002318461037BD46B0BD2D
:10122C0080B586B000AFF860B9607A603B60FB684F
:10123C0093F8A030012B01D1022333E0FB6801228B
:10124C0083F8A020FB68022283F8A1203B6834229B
:10125C0002FB03F33833FA6813447B617B691A6829
:10126C00BB681A447B695A607B699A687B681A442C
:10127C007B69DA607B69BA689A627B697A68DA6240
:10128C003A687969F86800F011F8FB681B6801226C
:10129C005A62FB68012283F8A120FB68002283F8C4
:1012AC00A020002318461837BD4680BD80B489B0F5
:1012BC0000AFF860B9607A60BB685A68FB681B685D
:1012CC00DB681B0CC3F30B0313441B04FB61FB68AF
:1012DC001B681A467B68DB01134484335B68FA682D
:1012EC00126811467A68D2010A44843203F47043BE
:1012FC005360BB681A68FB681B68DB681B0CC3F384
:10130C000B0313445A1CFB681B6819467B68DB01F2
:10131C000B4484331946FB6913434B60BB68DA6892
:10132C00FB681B68DB68C3F30A0313441B04FB61F3
:10133C00FB681B681A467B68DB01134484339B688B
:10134C00FA68126811467A68D2010A44843203F4AE
:10135C0070439360BB689A68FB681B68DB68C3F3D7
:10136C000A0313445A1CFB681B6819467B68DB0193
:10137C000B4484331946FB6913438B60FB681B6871
:10138C001A467B68DB01134484331B69FA681268C4
:10139C0011467A68D2010A44843223F007031361A0
:1013AC00FB681B681A467B68DB01134484331A46BE
:1013BC00BB681B691361BB6893F831301B02FB617E
:1013CC00BB6893F832301B04BB61BB689B691B067E
:1013DC007B61FB681B681A467B68DB011344843312
:1013EC009B69FB681B681A467B68DB0113448433DA
:1013FC001A4600239361BB6893F830301A46FB6998
:10140C001A43BB691A43FB681B6819467B68DB01EE
:10141C000B44843319467B6913438B61FB681B684F
:10142C001A467B68DB01134484335B69FA681268E3
:10143C0011467A68D2010A44843223F0FF035361C7
:10144C00FB681B681A467B68DB01134484331A461D
:10145C00BB685B695361FB681B681A467B68DB01E0
:10146C0013448433DB69FA68126811467A68D20136
:10147C000A44843223F4E06323F00703D361BB688E
:10148C00DA69BB681B6AF968096808467968C9019A
:10149C00014484311343CB61FB681B681A467B689B
:1014AC00DB01134484339B6AFB681B681A467B6818
:1014BC00DB01134484331A4600239362FB681B68D8
:1014CC001A467B68DB01134484331A46BB685B6A9B
:1014DC009362BB681B69002B02D10423FB611BE0E8
:1014EC00BB681B69012B02D10323FB6114E0BB68B1
:1014FC001B69042B0BD0BB681B69022B07D0BB6884
:10150C001B69032B03D0BB681B69072B02D1022379
:10151C00FB6101E00123FB61FB681B681A467B68D9
:10152C00DB0113448433DB6AFA68126811467A686B
:10153C00D2010A44843203F0E023D362BB689B6A75
:10154C00FA6902FB03F31A04BB685968BB681B6891
:10155C00CB1AF96901FB03F30333F96809680846F0
:10156C007968C901014484311343CB62FB681B6861
:10157C001A467B68DB01134484331B6BFA681268D0
:10158C0011467A68D2010A44843223F4FF6323F0B3
:10159C0007031363FB681B681A467B68DB01134463
:1015AC0084331A46BB68DB6A1363FB681B681A46F4
:1015BC007B68DB01134484331B68FA68126811469C
:1015CC007A68D2010A44843243F00103136000BFED
:1015DC002437BD465DF8047B7047000080B582B0AF
:1015EC0000AF00237B6000233B60204B1B6C1F4A29
:1015FC0043F0805313641D4B1B6C03F080533B6012
:10160C003B681B4B01221A60FEF7D0FF786009E0A3
:10161C00FEF7CCFF02467B68D31AB3F57A7F01D96B
:10162C0003231FE0134B5B6803F48033B3F5803F57
:10163C00EED1114B01221A60FEF7B8FF786009E079
:10164C00FEF7B4FF02467B68D31AB3F57A7F01D953
:10165C00032307E0074B5B6803F40033B3F5003F4B
:10166C00EED1002318460837BD4680BD0038024035
:10167C0040000E420070004044000E4280B586B01F
:10168C0000AF78607B68002B01D101235BE27B68A3
:10169C001B6803F00103002B75D0A34B9B6803F070
:1016AC000C03042B0CD0A04B9B6803F00C03082BF1
:1016BC0012D19D4B5B6803F48003B3F5800F0BD103
:1016CC00994B1B6803F40033002B5BD07B685B6881
:1016DC00002B57D1012336E27B685B68B3F5803F62
:1016EC0006D1914B1B68904A43F4803313601DE084
:1016FC007B685B68B3F5A02F0CD18B4B1B688A4AB7
:10170C0043F480231360884B1B68874A43F480336F
:10171C0013600BE0844B1B68834A23F48033136003
:10172C00814B1B68804A23F4802313607B685B68C1
:10173C00002B13D0FEF73AFF386108E0FEF736FFB6
:10174C0002463B69D31A642B01D90323FBE1764B88
:10175C001B6803F40033002BF0D014E0FEF726FFD7
:10176C00386108E0FEF722FF02463B69D31A642B6E
:10177C0001D90323E7E16C4B1B6803F40033002B06
:10178C00F0D100E000BF7B681B6803F00203002B64
:10179C0063D0654B9B6803F00C03002B0BD0624BA2
:1017AC009B6803F00C03082B1CD15F4B5B6803F4A4
:1017BC008003002B16D15C4B1B6803F00203002B3B
:1017CC0005D07B68DB68012B01D00123BBE1564BB4
:1017DC001B6823F0F8027B681B69DB00524913433A
:1017EC000B603AE07B68DB68002B20D04F4B01226A
:1017FC001A60FEF7DBFE386108E0FEF7D7FE024602
:10180C003B69D31A022B01D903239CE1464B1B687D
:10181C0003F00203002BF0D0434B1B6823F0F802BB
:10182C007B681B69DB00404913430B6015E03F4BA1
:10183C0000221A60FEF7BAFE386108E0FEF7B6FE29
:10184C0002463B69D31A022B01D903237BE1364BA9
:10185C001B6803F00203002BF0D17B681B6803F0BC
:10186C000803002B30D07B685B69002B16D0304B03
:10187C0001221A60FEF79AFE386108E0FEF796FE28
:10188C0002463B69D31A022B01D903235BE1264B99
:10189C005B6F03F00203002BF0D015E0244B002209
:1018AC001A60FEF783FE386108E0FEF77FFE024601
:1018BC003B69D31A022B01D9032344E11A4B5B6F0A
:1018CC0003F00203002BF0D17B681B6803F00403C8
:1018DC00002B00F0A0800023FB75134B1B6C03F056
:1018EC008053002B0FD10023BB600F4B1B6C0E4A97
:1018FC0043F0805313640C4B1B6C03F08053BB60A0
:10190C00BB680123FB750B4B1B6803F48073002B26
:10191C0021D1084B1B68074A43F480731360FEF710
:10192C0045FE386111E000BF00380240000047421C
:10193C00800E474200700040FEF738FE02463B69BD
:10194C00D31A022B01D90323FDE0814B1B6803F44E
:10195C008073002BF0D07B689B68012B06D17D4BEC
:10196C001B6F7C4A43F0010313671CE07B689B6888
:10197C00052B0CD1774B1B6F764A43F0040313678E
:10198C00744B1B6F734A43F0010313670BE0714BED
:10199C001B6F704A23F0010313676E4B1B6F6D4A6C
:1019AC0023F0040313677B689B68002B15D0FEF7AC
:1019BC00FDFD38610AE0FEF7F9FD02463B69D31ADA
:1019CC0041F28832934201D90323BCE0614B1B6F77
:1019DC0003F00203002BEED014E0FEF7E7FD3861B4
:1019EC000AE0FEF7E3FD02463B69D31A41F2883266
:1019FC00934201D90323A6E0564B1B6F03F002035D
:101A0C00002BEED1FB7D012B05D1524B1B6C514AA7
:101A1C0023F0805313647B689B69002B00F0928049
:101A2C004C4B9B6803F00C03082B5CD07B689B69C8
:101A3C00022B41D1484B00221A60FEF7B7FD3861EA
:101A4C0008E0FEF7B3FD02463B69D31A022B01D91D
:101A5C00032378E03F4B1B6803F00073002BF0D19D
:101A6C007B68DA697B681B6A1A437B685B6A9B013B
:101A7C001A437B689B6A5B08013B1B041A437B6817
:101A8C00DB6A1B06334913434B60334B01221A604C
:101A9C00FEF78CFD386108E0FEF788FD02463B69D5
:101AAC00D31A022B01D903234DE02A4B1B6803F0F8
:101ABC000073002BF0D045E0274B00221A60FEF794
:101ACC0075FD386108E0FEF771FD02463B69D31ADB
:101ADC00022B01D9032336E01E4B1B6803F0007365
:101AEC00002BF0D12EE07B689B69012B01D10123E7
:101AFC0029E0184B9B68FB60FB6803F480027B6851
:101B0C00DB699A421CD1FB6803F03F027B681B6ABD
:101B1C009A4215D1FA6847F6C07313407A68526A34
:101B2C0093420DD1FB6803F440327B689B6A9A4266
:101B3C0006D1FB6803F070627B68DB6A9A4201D0C5
:101B4C00012300E0002318461837BD4680BD00BFB6
:101B5C0000700040003802406000474280B584B0FD
:101B6C0000AF786039607B68002B01D10123CCE099
:101B7C00684B1B6803F00F033A689A420CD9654B0B
:101B8C003A68D2B21A70634B1B6803F00F033A68C1
:101B9C009A4201D00123B8E07B681B6803F0020372
:101BAC00002B20D07B681B6803F00403002B05D0AE
:101BBC00594B9B68584A43F4E05393607B681B680D
:101BCC0003F00803002B05D0534B9B68524A43F497
:101BDC0060439360504B9B6823F0F0027B689B68DA
:101BEC004D4913438B607B681B6803F00103002B8A
:101BFC0044D07B685B68012B07D1474B1B6803F40F
:101C0C000033002B19D101237FE07B685B68022B2A
:101C1C0003D07B685B68032B07D13F4B1B6803F039
:101C2C000073002B09D101236FE03B4B1B6803F0C1
:101C3C000203002B01D1012367E0374B9B6823F093
:101C4C0003027B685B68344913438B60FEF7AEFC80
:101C5C00F8600AE0FEF7AAFC0246FB68D31A41F2D0
:101C6C008832934201D903234FE02B4B9B6803F03E
:101C7C000C027B685B689B009A42EBD1254B1B687E
:101C8C0003F00F033A689A420CD2224B3A68D2B254
:101C9C001A70204B1B6803F00F033A689A4201D06C
:101CAC00012332E07B681B6803F00403002B08D08F
:101CBC00194B9B6823F4E0527B68DB68164913438D
:101CCC008B607B681B6803F00803002B09D0124B58
:101CDC009B6823F460427B681B69DB000E4913434D
:101CEC008B6000F021F801460B4B9B681B0903F03D
:101CFC000F030A4AD35C21FA03F3094A1360094B18
:101D0C001B681846FEF70EFC002318461037BD461C
:101D1C0080BD00BF003C0240003802402C3000085F
:101D2C000800002000000020F0B585B000AF0023B3
:101D3C007B600023FB6000233B600023BB60504BA7
:101D4C009B6803F00C03042B07D0082B08D0002B46
:101D5C0040F08D804B4BBB608CE04B4BBB6089E003
:101D6C00474B5B6803F03F037B60454B5B6803F4B8
:101D7C008003002B23D0424B5B689B094FF000047F
:101D8C0040F2FF114FF0000203EA010504EA0206DB
:101D9C003D4A02FB06F1002202FB05F20A443A49D5
:101DAC00A5FB0101531819467B684FF000041A4635
:101DBC002346FEF715FA03460C46FB6049E0304B10
:101DCC005B689B094FF0000440F2FF114FF00002DA
:101DDC0003EA010504EA0206294632464FF00003E5
:101DEC004FF00004540144EAD1644B0119462246D9
:101DFC00491B62EB06024FF000034FF00004940104
:101E0C0044EA91648B015B1A64EB02044FF000010D
:101E1C004FF00002E20042EA5372D9000B4614461E
:101E2C005B1944EB06044FF000014FF00002A202D4
:101E3C0042EA935299020B461446184621467B6897
:101E4C004FF000041A462346FEF7CAF903460C4627
:101E5C00FB600B4B5B681B0C03F0030301335B0053
:101E6C003B60FA683B68B2FBF3F3BB6002E0054BE6
:101E7C00BB6000BFBB6818461437BD46F0BD00BF41
:101E8C00003802400024F40040787D0180B586B013
:101E9C0000AF786000237B6100233B617B681B688B
:101EAC0003F00103002B0BD17B681B6803F00203CA
:101EBC00002B05D17B681B6803F04003002B75D009
:101ECC00AD4B00221A60FEF771FB786108E0FEF75B
:101EDC006DFB02467B69D31A022B01D903238BE1DC
:101EEC00A64B1B6803F00063002BF0D17B681B68CA
:101EFC0003F00103002B09D07B685B689A017B68B7
:101F0C009B681B079D491343C1F884307B681B6891
:101F1C0003F00203002B1FD0984BD3F884301B0F17
:101F2C0003F007033B617B685B689A017B68DB68A5
:101F3C001B061A433B691B0790491343C1F88430B5
:101F4C008E4BD3F88C3023F01F027B68DB69013B8E
:101F5C008A491343C1F88C307B681B6803F040033B
:101F6C00002B0DD07B685B689A017B68DB681B06D5
:101F7C001A437B689B681B0780491343C1F8843064
:101F8C007D4B01221A60FEF711FB786108E0FEF729
:101F9C000DFB02467B69D31A022B01D903232BE1DB
:101FAC00764B1B6803F00063002BF0D07B681B683A
:101FBC0003F00403002B05D17B681B6803F00803B6
:101FCC00002B79D06E4B00221A60FEF7EFFA786185
:101FDC0008E0FEF7EBFA02467B69D31A022B01D913
:101FEC00032309E1654B1B6803F00053B3F1005F59
:101FFC00EFD07B681B6803F00403002B20D05F4BF1
:10200C00D3F888301B0F03F007033B617B681B6917
:10201C009A017B685B691B061A433B691B0757498E
:10202C001343C1F88830554BD3F88C3023F4F85255
:10203C007B681B6A013B1B0250491343C1F88C306F
:10204C007B681B6803F00803002B1ED04B4BD3F8A6
:10205C0088301B0E03F00F033B617B681B699A01F0
:10206C003B691B061A437B689B691B074349134357
:10207C00C1F88830414BD3F88C3023F440327B6864
:10208C005B6A3E491343C1F88C303D4B01221A6008
:10209C00FEF78CFA786108E0FEF788FA02467B6955
:1020AC00D31A022B01D90323A6E0344B1B6803F08F
:1020BC000053B3F1005FEFD17B681B6803F0200382
:1020CC00002B00F08D800023FB602C4B1B6C2B4AEB
:1020DC0043F080531364294B1B6C03F08053FB605B
:1020EC00FB68284B1B68274A43F480731360FEF788
:1020FC005DFA786108E0FEF759FA02467B69D31A5B
:10210C00022B01D9032377E01E4B1B6803F4807369
:10211C00002BF0D0194B1B6F03F440733B613B69F0
:10212C00002B39D07B689B6A03F440733A699A425E
:10213C0032D0124B1B6F23F440733B61124B0122C4
:10214C001A60114B00221A600C4A3B6913670B4B47
:10215C001B6F03F00103012B1ED1FEF727FA7861E8
:10216C0014E0FEF723FA02467B69D31A41F2883257
:10217C0093420BD903233FE06800474200380240EA
:10218C007000474200700040400E47421C4B1B6FD2
:10219C0003F00203002BE4D07B689B6A03F44073CA
:1021AC00B3F5407F0DD1164B9B6823F4F8127B6876
:1021BC009B6A23F0704323F44073114913438B60E3
:1021CC0005E00F4B9B680E4A23F4F81393600C4BFD
:1021DC001A6F7B689B6AC3F30B03094913430B67A4
:1021EC007B681B6803F01003002B04D07B6893F80A
:1021FC002C20044B1A60002318461837BD4680BDAE
:10220C0000380240E011474280B582B000AF7860E0
:10221C0039607B68002B01D1012325E07B6893F8A2
:10222C002C30DBB2002B06D17B68002283F82D20EA
:10223C00786800F033FB7B68022283F82C207B68E3
:10224C001A687B6804331946104600F05CF87B680A
:10225C0018687B685B681A46396800F0C7F87B68B9
:10226C00012283F82C20002318460837BD4680BD78
:10227C0080B584B000AFF860B9607A60FB6893F801
:10228C002C30DBB2022B01D1022318E0FB680222B6
:10229C0083F82C20FB681B687A68B968184600F034
:1022AC0024F9BB681B68022B04D1FB68052283F858
:1022BC002C2003E0FB68012283F82C200023184615
:1022CC001037BD4680BD80B582B000AF78603960F4
:1022DC007B6893F82C30DBB2022B01D102230EE089
:1022EC007B68022283F82C207B681B6839681846AF
:1022FC0000F037F97B68012283F82C200023184664
:10230C000837BD4680BD80B485B000AF78603960B9
:10231C000023FB600023BB603B681B68012B29D0AA
:10232C007B681B68FB60FB6823F4FF4323F07F038F
:10233C00FB603B685A683B689B681A433B68DB68E8
:10234C001A433B681B691A433B685B691A433B6839
:10235C009B691A433B68DB691A433B681B6A1A4347
:10236C003B685B6A1343FA681343FB607B68FA684B
:10237C001A6034E07B681B68FB60FB6823F4F8434D
:10238C00FB603B68DA693B681B6A1A433B685B6A13
:10239C001343FA681343FB607B685B68BB60BB68E4
:1023AC0023F4FF4323F07F03BB603B685A683B6810
:1023BC009B681A433B68DB681A433B681B691A43EA
:1023CC003B685B691A433B689B691343BA681343C8
:1023DC00BB607B68FA681A607B68BA685A60002335
:1023EC0018461437BD465DF8047B704780B487B03F
:1023FC0000AFF860B9607A6000237B6100233B6119
:10240C007B68012B2ED0FB689B687B617B6903F09A
:10241C0070437B61BB681B685A1EBB685B68013BE1
:10242C001B011A43BB689B68013B1B021A43BB6828
:10243C00DB68013B1B031A43BB681B69013B1B0494
:10244C001A43BB685B69013B1B051A43BB689B695C
:10245C00013B1B0613437A6913437B61FB687A6962
:10246C009A603BE0FB689B687B617B6923F470039B
:10247C0023F470437B61BB68DB68013B1A03BB68C8
:10248C005B69013B1B0513437A6913437B61FB6852
:10249C00DB683B613B6903F070433B61BB681B68C5
:1024AC005A1EBB685B68013B1B011A43BB689B68E7
:1024BC00013B1B021A43BB681B69013B1B041A43FB
:1024CC00BB689B69013B1B0613433A6913433B6191
:1024DC00FB687A699A60FB683A69DA6000231846EF
:1024EC001C37BD465DF8047B704780B586B000AFE5
:1024FC00F860B9607A6000233B6100237B61BB68A4
:10250C001A68BB685B681A43BB689B68013B5B013C
:10251C001A43BB68DB685B0213433B613A69FB6897
:10252C001A61FEF743F8786110E07B68B3F1FF3F66
:10253C000CD07B68002B07D0FEF738F802467B697D
:10254C00D31A7A689A4201D2032306E0FB689B698E
:10255C0003F02003202BE8D0002318461837BD4683
:10256C0080BD80B483B000AF786039607B685A69F5
:10257C003B685B001A437B685A61002318460C3792
:10258C00BD465DF8047B704780B500AF0B4B0C4A21
:10259C001A600A4B4FF440325A60084B02229A6080
:1025AC00064B0022DA600548FEF73FF90346002B84
:1025BC0001D000F02BFC00BF80BD00BF3400002018
:1025CC0000B0024080B584B000AF78607B681B68B7
:1025DC000E4A934215D10023FB600D4B1B6B0C4A2A
:1025EC0043F4000313630A4B1B6B03F40003FB60FF
:1025FC00FB68002200215A20FEF7E1F85A20FEF772
:10260C00FAF800BF1037BD4680BD00BF00B00240D5
:10261C000038024090B589B000AF04460846114618
:10262C001A462346FB710346BB710B467B7113465E
:10263C007B800023FB61FB79002B02D11023FB6113
:10264C0004E0FB79012B01D10823FB61BB79FB6012
:10265C00FB693B617B797B617B88BB6107F10C0378
:10266C004FF4805219460648FFF702FE0346002B32
:10267C0001D1002300E0012318462437BD4690BD4C
:10268C007400002080B584B000AF78600023FB603C
:10269C000023012201210020FFF7BCFF0120FDF7E0
:1026AC0091FF0023012202210020FFF7B3FF00233A
:1026BC00082203210020FFF7ADFF4FF40C73FB60E1
:1026CC00FB689BB2012204210020FFF7A3FF00BF8F
:1026DC001037BD4680BD000080B500AF0448FFF741
:1026EC00D1FF40F2AB210248FFF7EDFD00BF80BDEA
:1026FC007400002080B588B000AF3B1D00221A602A
:10270C005A609A60DA601A615A619A61204B214AC8
:10271C001A601F4B00225A601D4B01229A601C4B01
:10272C000822DA601A4B10221A61194B40225A61A6
:10273C00174B4FF4C0729A61154B0022DA61144B9F
:10274C004FF400621A62124B4FF480525A62104BD3
:10275C004FF400529A6202237B600823BB6006236D
:10276C00FB6006233B6104237B610223BB610223D4
:10277C00FB613B1D19460648FFF746FD0346002B3F
:10278C0001D000F043FB00BF2037BD4680BD00BF29
:10279C0074000020400100A080B586B000AF3B1D46
:1027AC0000221A605A609A60DA601A61344B1B6816
:1027BC00002B60D1324B01221A6000233B60314B5D
:1027CC009B6B304A43F0010393632E4B9B6B03F0DE
:1027DC0001033B603B684FF63F037B600223BB6009
:1027EC000123FB6003233B610C237B613B1D1946DA
:1027FC002548FEF743FA0D237B600223BB600123BF
:10280C00FB6003233B610C237B613B1D19461F4876
:10281C00FEF734FA48F237137B600223BB600123C6
:10282C00FB6003233B610C237B613B1D194618485D
:10283C00FEF724FA4FF683737B600223BB600123FF
:10284C00FB6003233B610C237B613B1D1946114844
:10285C00FEF714FA4CF203737B600223BB60012376
:10286C00FB6003233B610C237B613B1D19460A482B
:10287C00FEF704FA00E000BF1837BD4680BD00BF6C
:10288C0028000020003802400014024000080240DA
:10289C000018024000100240000C024080B582B0CB
:1028AC0000AF7860FFF778FF00BF0837BD4680BDEA
:1028BC0080B58EB000AF07F1240300221A605A6075
:1028CC009A60DA601A6100233B62494B1B6B484AE1
:1028DC0043F004031363464B1B6B03F004033B628E
:1028EC003B6A0023FB61424B1B6B414A43F48073F0
:1028FC0013633F4B1B6B03F48073FB61FB69002379
:10290C00BB613B4B1B6B3A4A43F020031363384BC0
:10291C001B6B03F02003BB61BB6900237B61344B51
:10292C001B6B334A43F080031363314B1B6B03F077
:10293C0080037B617B6900233B612D4B1B6B2C4A15
:10294C0043F0400313632A4B1B6B03F040033B61C2
:10295C003B690023FB60264B1B6B254A43F010039D
:10296C001363234B1B6B03F01003FB60FB6800230A
:10297C00BB601F4B1B6B1E4A43F0080313631C4BBD
:10298C001B6B03F00803BB60BB6800237B60184B18
:10299C001B6B174A43F001031363154B1B6B03F0BE
:1029AC0001037B607B6800233B60114B1B6B104A5F
:1029BC0043F0020313630E4B1B6B03F002033B60EB
:1029CC003B68002220210B48FEF702FB20237B6290
:1029DC000123BB620023FB6200233B6307F124034A
:1029EC0019460448FEF74AF900BF3837BD4680BD8A
:1029FC00003802400004024080B500AF00234FF4C1
:102A0C0016724FF480610248FEF70AFC00BF80BDCD
:102A1C00A800002080B58EB000AF3B1D34220021F1
:102A2C00184600F0E9FA394B394A1A60374B002244
:102A3C005A60364B00229A60344B0022DA60334BDA
:102A4C0000221A61314B13225A61304B02229A61D7
:102A5C002E4B9F22DA612D4B16221A622B4B40F221
:102A6C009F425A62294B40F26E229A62274B40F2E7
:102A7C003F52DA62254B40F27A221A63234B002232
:102A8C0083F83420214B002283F835201F4B002281
:102A9C0083F836201D48FEF7B5FA0346002B01D00B
:102AAC0000F0B4F900237B600023BB600023FB60C3
:102ABC0000233B6102237B61FF23BB610023FB618D
:102ACC004FF480633B6205237B624FF04043BB6253
:102ADC004FF48063FB624FF416733B63002387F85B
:102AEC003430002387F83530002387F836303B1D0F
:102AFC00002219460548FEF755FB0346002B01D072
:102B0C0000F084F900BF3837BD4680BDA800002016
:102B1C000068014080B58CB000AF786007F11C03F1
:102B2C0000221A605A609A60DA601A617B681B682E
:102B3C004B4A934240F08F800023BB61494B5B6C46
:102B4C00484A43F080635364464B5B6C03F08063EC
:102B5C00BB61BB6900237B61424B1B6B414A43F455
:102B6C00807313633F4B1B6B03F480737B617B6936
:102B7C0000233B613B4B1B6B3A4A43F0200313632E
:102B8C00384B1B6B03F020033B613B690023FB605C
:102B9C00344B1B6B334A43F080031363314B1B6B79
:102BAC0003F08003FB60FB680023BB602D4B1B6BA9
:102BBC002C4A43F0400313632A4B1B6B03F0400376
:102BCC00BB60BB6840F2F763FB6102233B620023EE
:102BDC007B620323BB620E23FB6207F11C031946C5
:102BEC002148FEF74BF84FF48063FB6102233B62F4
:102BFC0000237B620323BB620E23FB6207F11C03E1
:102C0C0019461A48FEF73AF84FF47E43FB6102234B
:102C1C003B6200237B620323BB620E23FB6207F142
:102C2C001C0319461248FEF729F84FF40C63FB619C
:102C3C0002233B6200237B620323BB620E23FB62F5
:102C4C0007F11C0319460B48FEF718F80122202146
:102C5C000948FEF7BDF900BF3037BD4680BD00BF47
:102C6C00006801400038024000200240001402407D
:102C7C00001C0240001802400004024080B584B0E1
:102C8C0002AFFDF72DFC00F037F8FFF711FEFFF750
:102C9C0031FDFFF7BFFEFFF777FCFFF71DFDFFF7D8
:102CAC00ABFE114B7B6000233B604FF4167300931B
:102CBC004FF480634FF040420C490D48FDF7FEFD88
:102CCC004FF47A70FDF77EFC4FF4167300934FF4BB
:102CDC0080634FF0404207490548FDF7EFFD4FF484
:102CEC007A70FDF76FFCE0E7000000C080CD430078
:102CFC0034000020B469FF0080B5A0B000AF07F12C
:102D0C00500330220021184600F076F907F13C03FD
:102D1C0000221A605A609A60DA601A6107F10C039B
:102D2C0030220021184600F067F90023BB60354BB8
:102D3C001B6C344A43F080531364324B1B6C03F00E
:102D4C008053BB60BB6800237B602F4B1B682E4AF3
:102D5C0043F4404313602C4B1B6803F440437B60EB
:102D6C007B6801233B654FF480337B650223BB6694
:102D7C004FF48003FB660F233B67D8237B6702234A
:102D8C00BB670423FB6707F150031846FEF776FC7C
:102D9C000346002B01D000F039F8FEF71FFC034668
:102DAC00002B01D000F032F80F23FB6302233B64AD
:102DBC0000237B644FF4A053BB644FF48053FB643B
:102DCC0007F13C0305211846FEF7C8FE0346002B0D
:102DDC0001D000F01BF80823FB60C623FB61052320
:102DEC007B6200233B6307F10C031846FFF74EF898
:102DFC000346002B01D000F009F800BF8037BD4618
:102E0C0080BD00BF003802400070004080B400AFAD
:102E1C0000BFBD465DF8047B7047000080B483B0F2
:102E2C0000AF00237B60104B5B6C0F4A43F4804374
:102E3C0053640D4B5B6C03F480437B607B68002315
:102E4C003B60094B1B6C084A43F080531364064BE0
:102E5C001B6C03F080533B603B6800BF0C37BD46D6
:102E6C005DF8047B704700BF0038024080B400AFAF
:102E7C0000BFBD465DF8047B704780B400AFFEE731
:102E8C0080B400AFFEE780B400AFFEE780B400AFC3
:102E9C00FEE780B400AF00BFBD465DF8047B704711
:102EAC0080B400AF00BFBD465DF8047B704780B4B2
:102EBC0000AF00BFBD465DF8047B704780B500AF26
:102ECC00FDF760FB00BF80BD80B500AF054B5B68B4
:102EDC00022B02D1044B01221A700448FDF721FD8C
:102EEC0000BF80BD00B002402C0000203400002048
:102EFC0080B400AF164BD3F88830154A43F47003F6
:102F0C00C2F88830134B1B68124A43F0010313605C
:102F1C00104B00229A600F4B1B680E4A23F08473EF
:102F2C0023F4803313600B4B0B4A5A60094B1B681C
:102F3C00084A23F480231360064B0022DA60044B0A
:102F4C004FF000629A6000BFBD465DF8047B70478D
:102F5C0000ED00E00038024010300024DFF834D0DF
:102F6C00002103E00C4B5B58435004310B480C4BD5
:102F7C0042189A42F6D30B4A02E0002342F8043B73
:102F8C00094B9A42F9D3FFF7B3FF00F011F8FFF7A2
:102F9C0075FE7047000003204C3000080000002034
:102FAC000C0000200C00002050010020FEE7000067
:102FBC0070B50D4E0D4CA41BA4100025A54209D1D3
:102FCC000B4E0C4C00F020F8A41BA4100025A542BD
:102FDC0005D170BD56F8253098470135EEE756F807
:102FEC00253098470135F2E744300008443000089A
:102FFC00443000084830000802440346934200D194
:10300C00704703F8011BF9E7F8B500BFF8BC08BC22
:10301C009E467047F8B500BFF8BC08BC9E4670478A
:10302C00000000000000000001020304060708096C
:08303C00E0D1FF7F010000005C
:04304400D1010008AE
:04304800AD010008CE
:0C304C0010000000010000000024F4004F
:0400000508002F6957
:00000001FF
