:020000040800F2
:1000000000000320CD2F0008DD2E0008EB2E000895
:10001000F12E0008F72E0008FD2E00080000000059
:10002000000000000000000000000000032F000896
:10003000112F0008000000001F2F00082D2F0008BE
:100040001D3000081D3000081D3000081D3000085C
:100050001D3000081D3000081D3000081D3000084C
:100060001D3000081D3000081D3000081D3000083C
:100070001D3000081D3000081D3000081D3000082C
:100080001D3000081D3000081D3000081D3000081C
:100090001D3000081D3000081D3000081D3000080C
:1000A0001D3000081D3000081D3000081D300008FC
:1000B0001D3000081D3000081D3000081D300008EC
:1000C0001D3000081D3000081D3000081D300008DC
:1000D0001D3000081D3000081D3000081D300008CC
:1000E0001D3000081D3000081D3000081D300008BC
:1000F0001D3000081D3000081D3000081D300008AC
:100100001D3000081D3000081D3000081D3000089B
:100110001D3000081D3000081D3000081D3000088B
:100120001D3000081D3000081D3000081D3000087B
:100130001D3000081D3000081D3000081D3000086B
:100140001D3000081D3000081D3000081D3000085B
:100150001D3000081D3000081D3000081D3000084B
:100160001D3000081D3000081D3000081D3000083B
:100170001D3000081D3000081D3000080000000080
:100180001D3000081D3000081D3000081D3000081B
:100190001D3000081D3000081D3000081D3000080B
:0C01A0001D3000081D300008392F000839
:1001AC0010B5054C237833B9044B13B10448AFF3A5
:1001BC0000800123237010BD0C0000200000000003
:1001CC007830000808B5034B1BB103490348AFF363
:1001DC00008008BD000000001000002078300008EE
:1001EC0053B94AB9002908BF00281CBF4FF0FF3192
:1001FC004FF0FF3000F072B9ADF1080C6DE904CE90
:10020C0000F006F8DDF804E0DDE9022304B07047E5
:10021C002DE9F047089E04468846002B4BD18A42B4
:10022C00154667D9B2FA82F24AB1C2F1200701FA37
:10023C0002F320FA07F7954047EA030894404FEA87
:10024C00154E230CB8FBFEF71FFA85FC0EFB178826
:10025C0043EA084307FB0CF1994209D9EB1807F163
:10026C00FF3080F01B81994240F21881023F2B44F1
:10027C005B1AA4B2B3FBFEF00EFB103344EA03444A
:10028C0000FB0CFCA44509D92C1900F1FF3380F0BC
:10029C000781A44540F2048102382C4440EA07400F
:1002AC00A4EB0C0400271EB1D4400023C6E9004384
:1002BC003946BDE8F0878B4209D9002E00F0EB805F
:1002CC000027C6E9000138463946BDE8F087B3FA85
:1002DC0083F7002F47D18B4202D3824200F2FA807F
:1002EC00841A61EB030301209846002EE0D0C6E986
:1002FC000048DDE702B9FFDEB2FA82F2002A40F0D4
:10030C008F80491B4FEA154E1FFA85F80127B1FB68
:10031C00FEFC230C0EFB1C1143EA014308FB0CF101
:10032C00994207D9EB180CF1FF3002D2994200F236
:10033C00CD808446591AA3B2B1FBFEF00EFB10140B
:10034C0043EA044408FB00F8A04507D92C1900F136
:10035C00FF3302D2A04500F2B6801846A4EB080485
:10036C0040EA0C409FE7C7F1200CBB4022FA0CFE80
:10037C004EEA030E01FA07F420FA0CF521FA0CF3FD
:10038C004FEA1E482543B3FBF8F92C0C08FB193334
:10039C001FFA8EFA44EA034309FB0AF49C4202FA60
:1003AC0007F200FA07F10BD91EEB030309F1FF303A
:1003BC0080F087809C4240F28480A9F1020973444A
:1003CC001B1BADB2B3FBF8F008FB103345EA03443A
:1003DC0000FB0AFAA24508D91EEB040400F1FF3316
:1003EC006BD2A24569D90238744440EA0940A0FB9B
:1003FC000289A4EB0A044C45C2464B4654D351D057
:10040C00002E69D0B1EB0A0564EB030404FA0CFC72
:10041C00FD40FC404CEA0505C6E90054002747E7BF
:10042C00C2F1200320FA03F7954001FA02F021FAF9
:10043C0003F34FEA154E3843010CB3FBFEF71FFADA
:10044C0085F80EFB173341EA034107FB08F38B4297
:10045C0004FA02F407D9691807F1FF3C2FD28B423A
:10046C002DD9023F2944CB1A81B2B3FBFEF00EFB0F
:10047C00103341EA034100FB08F38B4207D969189A
:10048C0000F1FF3C17D28B4215D902382944C91A06
:10049C0040EA07473BE73746304609E70746E7E6B9
:1004AC001846FBE64145ABD2B8EB020A69EB0E02EB
:1004BC0001381346A4E76046E9E7184695E7674616
:1004CC00D1E781467CE702382C4447E7ACF1020CBB
:1004DC002B442FE7384608E73746E9E6704700BF5C
:1004EC0080B500AF0E4B1B680D4A43F400731360CC
:1004FC000B4B1B680A4A43F480631360084B1B6860
:10050C00074A43F480731360032000F04DF9002078
:10051C0000F008F802F0B4FC0023184680BD00BFC0
:10052C00003C024080B582B000AF7860124B1A6874
:10053C00124B1B7819464FF47A73B3FBF1F3B2FBF1
:10054C00F3F3184600F065F90346002B01D00123A4
:10055C000EE07B680F2B0AD8002279684FF0FF3031
:10056C0000F02DF9064A7B681360002300E001239C
:10057C0018460837BD4680BD080000200400002046
:10058C000000002080B400AF064B1B781A46064BC7
:10059C001B681344044A136000BFBD465DF8047B1E
:1005AC00704700BF040000203000002080B400AF72
:1005BC00034B1B681846BD465DF8047B704700BFB3
:1005CC003000002080B584B000AF7860FFF7EEFFFC
:1005DC00B8607B68FB60FB68B3F1FF3F05D0094B4B
:1005EC001B781A46FB681344FB6000BFFFF7DEFF65
:1005FC000246BB68D31AFA689A42F7D800BF103784
:10060C00BD4680BD0400002080B485B000AF78608A
:10061C007B6803F00703FB600C4BDB68BB60BA68BC
:10062C004FF6FF031340BB60FB681A02BB68134311
:10063C0043F0BF6343F40033BB60044ABB68D36030
:10064C0000BF1437BD465DF8047B704700ED00E039
:10065C0080B400AF044BDB681B0A03F00703184699
:10066C00BD465DF8047B704700ED00E080B483B0BC
:10067C0000AF0346FB7197F90730002B0BDBFB79BE
:10068C0003F01F02074997F907305B09012000FAB4
:10069C0002F241F8232000BF0C37BD465DF8047B05
:1006AC00704700BF00E100E080B483B000AF0346A8
:1006BC003960FB7197F90730002B0ADB3B68DAB223
:1006CC000C4997F907301201D2B20B4483F800237E
:1006DC000AE03B68DAB20849FB7903F00F03043BEC
:1006EC001201D2B20B441A7600BF0C37BD465DF82E
:1006FC00047B704700E100E000ED00E080B489B0BD
:10070C0000AFF860B9607A60FB6803F00703FB6127
:10071C00FB69C3F10703042B28BF0423BB61FB69EE
:10072C000433062B02D9FB69033B00E000237B61F9
:10073C004FF0FF32BB6902FA03F3DA43BB681A408D
:10074C007B699A404FF0FF317B6901FA03F3D9437F
:10075C007B680B40134318462437BD465DF8047B79
:10076C007047000080B582B000AF78607B68013BB9
:10077C00B3F1807F01D301230FE00A4A7B68013B70
:10078C0053600F214FF0FF30FFF78EFF054B002217
:10079C009A60044B07221A60002318460837BD469E
:1007AC0080BD00BF10E000E080B582B000AF786083
:1007BC007868FFF729FF00BF0837BD4680BD80B5BC
:1007CC0086B000AF0346B9607A60FB7300237B618F
:1007DC00FFF73EFF78617A68B9687869FFF78EFF9A
:1007EC00024697F90F3011461846FFF75DFF00BF20
:1007FC001837BD4680BD80B582B000AF0346FB7193
:10080C0097F907301846FFF731FF00BF0837BD4690
:10081C0080BD80B582B000AF78607868FFF7A2FF2A
:10082C00034618460837BD4680BD80B582B000AF80
:10083C0078607B68002B01D101233BE07B6893F847
:10084C003930DBB2002B06D17B68002283F83820CC
:10085C00786801F00FFF7B68022283F839207B68EF
:10086C001B681B6823F440317B685A687B681B68E3
:10087C000A431A607B681B685B6B23F007017B687B
:10088C009A687B681B680A435A637B681B681B6CFD
:10089C0023F47F5323F03F037A68D1687A68126897
:1008AC000B4313647B680022DA637B68012283F8B4
:1008BC003920002318460837BD4680BD80B586B068
:1008CC0002AFF860B9607A603B60FB6893F838302F
:1008DC00012B01D1022318E0FB68012283F8382098
:1008EC00FB68022283F83920BB6900933B687A6865
:1008FC00B968F86800F0B0F9FB681B681A68FB6807
:10090C001B6842F001021A60002318461037BD46DE
:10091C0080BD80B584B000AF78607B681B685B6875
:10092C00FB607B681B681B68BB60FB6803F0010302
:10093C00002B26D0BB6803F48073002B21D07B687E
:10094C001B681A687B681B6822F480721A607B68CB
:10095C00DB6B43F001027B68DA637B681B68012266
:10096C009A607B68042283F839207B68002283F824
:10097C0038207B685B69002B03D07B685B697868E7
:10098C009847FB6803F02003002B26D0BB6803F4C8
:10099C000053002B21D07B681B681A687B681B688E
:1009AC0022F400521A607B681B6820229A607B68D4
:1009BC00DB6B43F002027B68DA637B68042283F80A
:1009CC0039207B68002283F838207B685B69002B18
:1009DC0003D07B685B6978689847FB6803F0080371
:1009EC00002B26D0BB6803F40063002B21D07B685E
:1009FC001B681A687B681B6822F400621A607B68AB
:100A0C001B6808229A607B68DB6B43F004027B68EE
:100A1C00DA637B68042283F839207B68002283F830
:100A2C0038207B685B69002B03D07B685B69786836
:100A3C009847FB6803F00403002B13D0BB6803F446
:100A4C008063002B0ED07B681B681A687B681B6860
:100A5C0022F480621A607B681B6804229A607868B2
:100A6C0000F053F8FB6803F00203002B24D0BB68A2
:100A7C0003F40073002B1FD07B681B681A687B681B
:100A8C001B6822F400721A607B681B6802229A6051
:100A9C007B68DA6B7B68DA637B68012283F8392028
:100AAC007B68002283F838207B681B69002B03D0FD
:100ABC007B681B6978689847FB6803F01003002B70
:100ACC001FD0BB6803F48053002B1AD07B681B68C3
:100ADC001A687B681B6822F480521A607B681B685A
:100AEC0010229A607B68DA6B7B68DA637B68012280
:100AFC0083F839207B68002283F83820786800F06E
:100B0C000EF800BF1037BD4680BD80B483B000AF77
:100B1C00786000BF0C37BD465DF8047B704780B42D
:100B2C0083B000AF786000BF0C37BD465DF8047B26
:100B3C007047000080B487B000AF786039607B6884
:100B4C005B68B3F5403F7B6893F83830012B01D1DB
:100B5C00022379E07B68012283F838207B6802222B
:100B6C0083F839203B681B0118337A6813443B61C6
:100B7C003B695A683B699B681B0413437B61354B8B
:100B8C00FB603B695B680A2B03D03B695B68092BF4
:100B9C0007D13B69DB6803F07F437A6913437B61C0
:100BAC0005E03B69DB681B067A6913437B613B6894
:100BBC00002B20D17B681B685A6AFB68DB4302EA76
:100BCC0003017B681B687A690A435A627B681B685D
:100BDC003A6912689A613B695B680A2B03D03B69DE
:100BEC005B68092B27D13B69DA687B681B6822F0AC
:100BFC007F429A621FE07B681B68DA69FB68DB4303
:100C0C0002EA03017B681B687A690A43DA617B6834
:100C1C001B683A6912681A613B695B680A2B03D03E
:100C2C003B695B68092B06D13B69DA687B681B68FA
:100C3C0022F07F421A627B68012283F839207B689C
:100C4C00002283F83820002318461C37BD465DF877
:100C5C00047B70470F0003FF80B48BB000AFF860CB
:100C6C00B9607A603B60FB681B685B6C03F04041C9
:100C7C003B681A043B6B1A43FB681B680A435A64B3
:100C8C00FB681B687A68DA63FB685B68B3F5403F06
:100C9C0074D1BB6803F07F433B62BB6803F47F03F2
:100CAC00FB61BB6803F47F43BB61BB68DBB27B6158
:100CBC00FB689B68002B08D1BA69FB691A433B6A35
:100CCC0013437A6913437B6253E0FB689B68012BE7
:100CDC0006D1BA69FB6913437A6913437B6248E016
:100CEC00FB689B68022B11D1FB69DB0CFB61BB69B8
:100CFC009B0ABB617B69DB087B61BB695A01FB69A1
:100D0C00DB0213437A6913437B6232E0FB689B6816
:100D1C00032B17D13B6ADB0F3B62FB69DB0CFB61DE
:100D2C00BB69DB0ABB617B69DB087B61BB695A0170
:100D3C00FB699B021A433B6ADB0313437A69134337
:100D4C007B6216E03B6A1B0F3B62FB691B0DFB6170
:100D5C00BB691B0BBB617B691B097B61BB691A01FE
:100D6C00FB691B021A433B6A1B0313437A69134347
:100D7C007B62FB681B687A6A9A6303E0FB681B68FA
:100D8C00BA68DA6000BF2C37BD465DF8047B70474B
:100D9C0080B489B000AF7860396000237B61002398
:100DAC003B610023BB610023FB6177E10122FB69FE
:100DBC0002FA03F37B613B681B687A6913403B6161
:100DCC003A697B699A4240F066813B685B68012B0B
:100DDC000BD03B685B68022B07D03B685B68112B20
:100DEC0003D03B685B68122B30D17B689B68BB617E
:100DFC00FB695B00032202FA03F3DB43BA6913407D
:100E0C00BB613B68DA68FB695B0002FA03F3BA6901
:100E1C001343BB617B68BA699A607B685B68BB6192
:100E2C000122FB6902FA03F3DB43BA691340BB618D
:100E3C003B685B681B0903F00102FB6902FA03F3D0
:100E4C00BA691343BB617B68BA695A607B68DB681B
:100E5C00BB61FB695B00032202FA03F3DB43BA6953
:100E6C001340BB613B689A68FB695B0002FA03F3B1
:100E7C00BA691343BB617B68BA69DA603B685B682B
:100E8C00022B03D03B685B68122B23D1FB69DA0879
:100E9C007B68083253F82230BB61FB6903F007030F
:100EAC009B000F2202FA03F3DB43BA691340BB61C8
:100EBC003B681A69FB6903F007039B0002FA03F312
:100ECC00BA691343BB61FB69DA087B680832B969FC
:100EDC0043F822107B681B68BB61FB695B00032233
:100EEC0002FA03F3DB43BA691340BB613B685B68EE
:100EFC0003F00302FB695B0002FA03F3BA691343C4
:100F0C00BB617B68BA691A603B685B6803F080530D
:100F1C00002B00F0C0800023FB60654B5B6C644AC7
:100F2C0043F480435364624B5B6C03F48043FB607B
:100F3C00FB68604AFB699B08023352F82330BB61A3
:100F4C00FB6903F003039B000F2202FA03F3DB435C
:100F5C00BA691340BB617B68574A934237D07B68B0
:100F6C00564A934231D07B68554A93422BD07B68CA
:100F7C00544A934225D07B68534A93421FD07B68D6
:100F8C00524A934219D07B68514A934213D07B68E2
:100F9C00504A93420DD07B684F4A934207D07B68EE
:100FAC004E4A934201D1092312E00A2310E0082390
:100FBC000EE007230CE006230AE0052308E00423D7
:100FCC0006E0032304E0022302E0012300E00023F7
:100FDC00FA6902F0030292009340BA691343BB61B1
:100FEC003449FB699B080233BA6941F823203C4B16
:100FFC001B68BB613B69DB43BA691340BB613B684F
:10100C005B6803F48033002B03D0BA693B6913434C
:10101C00BB61334ABB691360314B5B68BB613B6995
:10102C00DB43BA691340BB613B685B6803F4003374
:10103C00002B03D0BA693B691343BB61284ABB69D7
:10104C005360274B9B68BB613B69DB43BA69134018
:10105C00BB613B685B6803F48013002B03D0BA6957
:10106C003B691343BB611E4ABB6993601C4BDB6835
:10107C00BB613B69DB43BA691340BB613B685B688E
:10108C0003F40013002B03D0BA693B691343BB6113
:10109C00134ABB69D360FB690133FB61FB690F2BFE
:1010AC007FF684AE00BF2437BD465DF8047B7047E5
:1010BC0000380240003801400000024000040240A9
:1010CC0000080240000C02400010024000140240D4
:1010DC0000180240001C0240002002400024024084
:1010EC00003C014080B483B000AF78600B467B803D
:1010FC0013467B707B78002B03D07A887B689A61CF
:10110C0003E07B881A047B689A6100BF0C37BD46EC
:10111C005DF8047B7047000080B584B000AF786048
:10112C007B68002B01D10123BFE07B6893F8A130D1
:10113C00DBB2002B06D17B68002283F8A0207868F4
:10114C0001F034FD7B68022283F8A1207B681B68C8
:10115C009A697B681B6822F070429A617B681B68F5
:10116C0099697B685A687B689B681A437B68DB6863
:10117C001A437B681B691A437B681B680A439A6194
:10118C007B681B6899687B681A684A4B0B409360B4
:10119C007B685B691B04FB607B681B6899687B68D8
:1011AC009A69FB681A437B681B680A439A607B68E0
:1011BC001B68D9687B681A683E4B0B40D3607B6810
:1011CC00DB691B04FB607B681B68D9687B681A6A47
:1011DC00FB681A437B681B680A43DA607B681B68F0
:1011EC0019697B681A68334B0B4013617B685B6A27
:1011FC001B04FB607B681B6819697B689A6AFB6837
:10120C001A437B681B680A431A617B681B6859691F
:10121C007B681A68274B0B4053617B68DB6A1B04A5
:10122C00FB607B681B6859697B681A6BFB681A4307
:10123C007B681B680A435A617B6893F835301B0244
:10124C00FB607B6893F836301B04BB607B681B68C3
:10125C00DA6A7B681B6802F07F42DA627B681B6883
:10126C00D96ABA68FB6813437A6892F834201A4337
:10127C007B681B680A43DA627B681B685A6B7B6865
:10128C001B6842F006025A637B681B689A697B688C
:10129C001B6842F001029A617B680022C3F8A4200B
:1012AC007B68012283F8A120002318461037BD4625
:1012BC0080BD00BF00F800F0B0B584B000AFF8609E
:1012CC00B9607A60FB6893F8A030012B01D102233E
:1012DC002CE0FB68012283F8A020FB68022283F833
:1012EC00A120FA687B68342101FB03F3134403F15A
:1012FC003802BB6814461D460FCD0FC40FCD0FC46A
:10130C000FCD0FC42B6823607A68B968F86800F0B9
:10131C0011F8FB681B6801225A62FB68012283F8F2
:10132C00A120FB68002283F8A02000231846103768
:10133C00BD46B0BD80B489B000AFF860B9607A60CA
:10134C00BB685A68FB681B68DB681B0CC3F30B0398
:10135C0013441B04FB61FB681B681A467B68DB01AA
:10136C00134484335B68FA68126811467A68D201B8
:10137C000A44843203F470435360BB681A68FB68F8
:10138C001B68DB681B0CC3F30B0313445A1CFB6870
:10139C001B6819467B68DB010B4484331946FB69D7
:1013AC0013434B60BB68DA68FB681B68DB68C3F3EC
:1013BC000A0313441B04FB61FB681B681A467B6819
:1013CC00DB01134484339B68FA68126811467A680F
:1013DC00D2010A44843203F470439360BB689A6868
:1013EC00FB681B68DB68C3F30A0313445A1CFB68D5
:1013FC001B6819467B68DB010B4484331946FB6977
:10140C0013438B60FB681B681A467B68DB01134433
:10141C0084331B69FA68126811467A68D2010A444F
:10142C00843223F007031361FB681B681A467B6840
:10143C00DB01134484331A46BB681B691361BB6818
:10144C0093F831301B02FB61BB6893F832301B04FC
:10145C00BB61BB689B691B067B61FB681B681A46FA
:10146C007B68DB01134484339B69FB681B681A4659
:10147C007B68DB01134484331A4600239361BB68F9
:10148C0093F830301A46FB691A43BB691A43FB6860
:10149C001B6819467B68DB010B44843319467B6956
:1014AC0013438B61FB681B681A467B68DB01134492
:1014BC0084335B69FA68126811467A68D2010A446F
:1014CC00843223F0FF035361FB681B681A467B6868
:1014DC00DB01134484331A46BB685B695361FB68B8
:1014EC001B681A467B68DB0113448433DB69FA689A
:1014FC00126811467A68D2010A44843223F4E063FC
:10150C0023F00703D361BB68DA69BB681B6AF9680F
:10151C00096808467968C901014484311343CB61D9
:10152C00FB681B681A467B68DB01134484339B6A97
:10153C00FB681B681A467B68DB01134484331A462C
:10154C0000239362FB681B681A467B68DB0113441B
:10155C0084331A46BB685B6A9362BB681B69002BB9
:10156C0002D10423FB611BE0BB681B69012B02D178
:10157C000323FB6114E0BB681B69042B0BD0BB6815
:10158C001B69022B07D0BB681B69032B03D0BB68FC
:10159C001B69072B02D10223FB6101E00123FB61D4
:1015AC00FB681B681A467B68DB0113448433DB6AD7
:1015BC00FA68126811467A68D2010A44843203F040
:1015CC00E023D362BB689B6AFA6902FB03F31A043B
:1015DC00BB685968BB681B68CB1AF96901FB03F33C
:1015EC000333F968096808467968C90101448431F4
:1015FC001343CB62FB681B681A467B68DB01134400
:10160C0084331B6BFA68126811467A68D2010A445B
:10161C00843223F4FF6323F007031363FB681B6816
:10162C001A467B68DB01134484331A46BB68DB6AB9
:10163C001363FB681B681A467B68DB011344843315
:10164C001B68FA68126811467A68D2010A4484321F
:10165C0043F00103136000BF2437BD465DF8047BE3
:10166C007047000080B582B000AF00237B60002380
:10167C003B60204B1B6C1F4A43F0805313641D4B83
:10168C001B6C03F080533B603B681B4B01221A60C0
:10169C00FEF78CFF786009E0FEF788FF02467B6856
:1016AC00D31AB3F57A7F01D903231FE0134B5B6880
:1016BC0003F48033B3F5803FEED1114B01221A6055
:1016CC00FEF774FF786009E0FEF770FF02467B6856
:1016DC00D31AB3F57A7F01D9032307E0074B5B6874
:1016EC0003F40033B3F5003FEED10023184608375E
:1016FC00BD4680BD0038024040000E4200700040E4
:10170C0044000E4280B586B000AF78607B68002B39
:10171C0001D101235BE27B681B6803F00103002B02
:10172C0075D0A34B9B6803F00C03042B0CD0A04B7F
:10173C009B6803F00C03082B12D19D4B5B6803F4E0
:10174C008003B3F5800F0BD1994B1B6803F4003366
:10175C00002B5BD07B685B68002B57D1012336E2F2
:10176C007B685B68B3F5803F06D1914B1B68904A50
:10177C0043F4803313601DE07B685B68B3F5A02FE6
:10178C000CD18B4B1B688A4A43F480231360884B23
:10179C001B68874A43F4803313600BE0844B1B684F
:1017AC00834A23F480331360814B1B68804A23F4F3
:1017BC00802313607B685B68002B13D0FEF7F6FE6A
:1017CC00386108E0FEF7F2FE02463B69D31A642B3F
:1017DC0001D90323FBE1764B1B6803F40033002B88
:1017EC00F0D014E0FEF7E2FE386108E0FEF7DEFE12
:1017FC0002463B69D31A642B01D90323E7E16C4BF6
:10180C001B6803F40033002BF0D100E000BF7B68B1
:10181C001B6803F00203002B63D0654B9B6803F03D
:10182C000C03002B0BD0624B9B6803F00C03082BB2
:10183C001CD15F4B5B6803F48003002B16D15C4B0F
:10184C001B6803F00203002B05D07B68DB68012BBF
:10185C0001D00123BBE1564B1B6823F0F8027B68D7
:10186C001B69DB00524913430B603AE07B68DB6871
:10187C00002B20D04F4B01221A60FEF797FE3861E7
:10188C0008E0FEF793FE02463B69D31A022B01D9FE
:10189C0003239CE1464B1B6803F00203002BF0D0A2
:1018AC00434B1B6823F0F8027B681B69DB00404943
:1018BC0013430B6015E03F4B00221A60FEF776FED7
:1018CC00386108E0FEF772FE02463B69D31A022B20
:1018DC0001D903237BE1364B1B6803F00203002B79
:1018EC00F0D17B681B6803F00803002B30D07B68B9
:1018FC005B69002B16D0304B01221A60FEF756FEA6
:10190C00386108E0FEF752FE02463B69D31A022BFF
:10191C0001D903235BE1264B5B6F03F00203002B21
:10192C00F0D015E0244B00221A60FEF73FFE386120
:10193C0008E0FEF73BFE02463B69D31A022B01D9A5
:10194C00032344E11A4B5B6F03F00203002BF0D12D
:10195C007B681B6803F00403002B00F0A0800023BD
:10196C00FB75134B1B6C03F08053002B0FD1002322
:10197C00BB600F4B1B6C0E4A43F0805313640C4B33
:10198C001B6C03F08053BB60BB680123FB750B4BD6
:10199C001B6803F48073002B21D1084B1B68074A8A
:1019AC0043F480731360FEF701FE386111E000BF51
:1019BC000038024000004742800E47420070004051
:1019CC00FEF7F4FD02463B69D31A022B01D903231F
:1019DC00FDE0814B1B6803F48073002BF0D07B6817
:1019EC009B68012B06D17D4B1B6F7C4A43F0010396
:1019FC0013671CE07B689B68052B0CD1774B1B6F26
:101A0C00764A43F004031367744B1B6F734A43F01D
:101A1C00010313670BE0714B1B6F704A23F001033A
:101A2C0013676E4B1B6F6D4A23F0040313677B68BF
:101A3C009B68002B15D0FEF7B9FD38610AE0FEF764
:101A4C00B5FD02463B69D31A41F28832934201D963
:101A5C000323BCE0614B1B6F03F00203002BEED0A1
:101A6C0014E0FEF7A3FD38610AE0FEF79FFD024685
:101A7C003B69D31A41F28832934201D90323A6E081
:101A8C00564B1B6F03F00203002BEED1FB7D012B99
:101A9C0005D1524B1B6C514A23F0805313647B6865
:101AAC009B69002B00F092804C4B9B6803F00C035D
:101ABC00082B5CD07B689B69022B41D1484B0022E0
:101ACC001A60FEF773FD386108E0FEF76FFD024601
:101ADC003B69D31A022B01D9032378E03F4B1B68D7
:101AEC0003F00073002BF0D17B68DA697B681B6A0A
:101AFC001A437B685B6A9B011A437B689B6A5B0891
:101B0C00013B1B041A437B68DB6A1B0633491343F6
:101B1C004B60334B01221A60FEF748FD386108E038
:101B2C00FEF744FD02463B69D31A022B01D903236D
:101B3C004DE02A4B1B6803F00073002BF0D045E0FE
:101B4C00274B00221A60FEF731FD386108E0FEF7E2
:101B5C002DFD02463B69D31A022B01D9032336E033
:101B6C001E4B1B6803F00073002BF0D12EE07B683A
:101B7C009B69012B01D1012329E0184B9B68FB6069
:101B8C00FB6803F480027B68DB699A421CD1FB681A
:101B9C0003F03F027B681B6A9A4215D1FA6847F63C
:101BAC00C07313407A68526A93420DD1FB6803F4F8
:101BBC0040327B689B6A9A4206D1FB6803F07062E4
:101BCC007B68DB6A9A4201D0012300E000231846AF
:101BDC001837BD4680BD00BF007000400038024081
:101BEC006000474280B584B000AF786039607B6894
:101BFC00002B01D10123CCE0684B1B6803F00F03D1
:101C0C003A689A420CD9654B3A68D2B21A70634B57
:101C1C001B6803F00F033A689A4201D00123B8E025
:101C2C007B681B6803F00203002B20D07B681B68C9
:101C3C0003F00403002B05D0594B9B68584A43F41E
:101C4C00E05393607B681B6803F00803002B05D0FE
:101C5C00534B9B68524A43F460439360504B9B68D0
:101C6C0023F0F0027B689B684D4913438B607B68C3
:101C7C001B6803F00103002B44D07B685B68012BCD
:101C8C0007D1474B1B6803F40033002B19D10123F8
:101C9C007FE07B685B68022B03D07B685B68032B5F
:101CAC0007D13F4B1B6803F00073002B09D10123B4
:101CBC006FE03B4B1B6803F00203002B01D10123A7
:101CCC0067E0374B9B6823F003027B685B68344901
:101CDC0013438B60FEF76AFCF8600AE0FEF766FCC3
:101CEC000246FB68D31A41F28832934201D903238E
:101CFC004FE02B4B9B6803F00C027B685B689B00EE
:101D0C009A42EBD1254B1B6803F00F033A689A42B9
:101D1C000CD2224B3A68D2B21A70204B1B6803F0DB
:101D2C000F033A689A4201D0012332E07B681B68AA
:101D3C0003F00403002B08D0194B9B6823F4E052EA
:101D4C007B68DB68164913438B607B681B6803F068
:101D5C000803002B09D0124B9B6823F460427B686C
:101D6C001B69DB000E4913438B6000F021F8014620
:101D7C000B4B9B681B0903F00F030A4AD35C21FA37
:101D8C0003F3094A1360094B1B681846FEF7CAFB9C
:101D9C00002318461037BD4680BD00BF003C0240F2
:101DAC0000380240502401080800002000000020E8
:101DBC00F0B585B000AF00237B600023FB600023EF
:101DCC003B600023BB60504B9B6803F00C03042B5F
:101DDC0007D0082B08D0002B40F08D804B4BBB60FC
:101DEC008CE04B4BBB6089E0474B5B6803F03F03D7
:101DFC007B60454B5B6803F48003002B23D0424B84
:101E0C005B689B094FF0000440F2FF114FF0000299
:101E1C0003EA010504EA02063D4A02FB06F1002230
:101E2C0002FB05F20A443A49A5FB01015318194675
:101E3C007B684FF000041A462346FEF7D1F903469F
:101E4C000C46FB6049E0304B5B689B094FF000048B
:101E5C0040F2FF114FF0000203EA010504EA02060A
:101E6C00294632464FF000034FF00004540144EA77
:101E7C00D1644B0119462246491B62EB06024FF016
:101E8C0000034FF00004940144EA91648B015B1A47
:101E9C0064EB02044FF000014FF00002E20042EA52
:101EAC005372D9000B4614465B1944EB06044FF0F1
:101EBC0000014FF00002A20242EA935299020B4633
:101ECC001446184621467B684FF000041A462346F8
:101EDC00FEF786F903460C46FB600B4B5B681B0C4C
:101EEC0003F0030301335B003B60FA683B68B2FB11
:101EFC00F3F3BB6002E0054BBB6000BFBB68184648
:101F0C001437BD46F0BD00BF003802400024F40079
:101F1C0040787D0180B586B000AF786000237B618E
:101F2C0000233B617B681B6803F00103002B0BD182
:101F3C007B681B6803F00203002B05D17B681B68D0
:101F4C0003F04003002B75D0AD4B00221A60FEF756
:101F5C002DFB786108E0FEF729FB02467B69D31A5A
:101F6C00022B01D903238BE1A64B1B6803F0006302
:101F7C00002BF0D17B681B6803F00103002B09D008
:101F8C007B685B689A017B689B681B079D491343C0
:101F9C00C1F884307B681B6803F00203002B1FD050
:101FAC00984BD3F884301B0F03F007033B617B681D
:101FBC005B689A017B68DB681B061A433B691B074D
:101FCC0090491343C1F884308E4BD3F88C3023F0F6
:101FDC001F027B68DB69013B8A491343C1F88C30D3
:101FEC007B681B6803F04003002B0DD07B685B689B
:101FFC009A017B68DB681B061A437B689B681B078E
:10200C0080491343C1F884307D4B01221A60FEF7DE
:10201C00CDFA786108E0FEF7C9FA02467B69D31A5B
:10202C00022B01D903232BE1764B1B6803F00063D1
:10203C00002BF0D07B681B6803F00403002B05D148
:10204C007B681B6803F00803002B79D06E4B0022D1
:10205C001A60FEF7ABFA786108E0FEF7A7FA0246C1
:10206C007B69D31A022B01D9032309E1654B1B6849
:10207C0003F00053B3F1005FEFD07B681B6803F0F3
:10208C000403002B20D05F4BD3F888301B0F03F0D8
:10209C0007033B617B681B699A017B685B691B06C4
:1020AC001A433B691B0757491343C1F88830554BFA
:1020BC00D3F88C3023F4F8527B681B6A013B1B026B
:1020CC0050491343C1F88C307B681B6803F008033C
:1020DC00002B1ED04B4BD3F888301B0E03F00F0394
:1020EC003B617B681B699A013B691B061A437B6841
:1020FC009B691B0743491343C1F88830414BD3F804
:10210C008C3023F440327B685B6A3E491343C1F840
:10211C008C303D4B01221A60FEF748FA786108E0DA
:10212C00FEF744FA02467B69D31A022B01D903232A
:10213C00A6E0344B1B6803F00053B3F1005FEFD102
:10214C007B681B6803F02003002B00F08D800023BC
:10215C00FB602C4B1B6C2B4A43F080531364294BB4
:10216C001B6C03F08053FB60FB68284B1B68274AF1
:10217C0043F480731360FEF719FA786108E0FEF7F8
:10218C0015FA02467B69D31A022B01D9032377E097
:10219C001E4B1B6803F48073002BF0D0194B1B6F84
:1021AC0003F440733B613B69002B39D07B689B6A1D
:1021BC0003F440733A699A4232D0124B1B6F23F4EA
:1021CC0040733B61124B01221A60114B00221A60C2
:1021DC000C4A3B6913670B4B1B6F03F00103012B7C
:1021EC001ED1FEF7E3F9786114E0FEF7DFF9024641
:1021FC007B69D31A41F2883293420BD903233FE017
:10220C0068004742003802407000474200700040AE
:10221C00400E47421C4B1B6F03F00203002BE4D013
:10222C007B689B6A03F44073B3F5407F0DD1164B6A
:10223C009B6823F4F8127B689B6A23F0704323F4A9
:10224C004073114913438B6005E00F4B9B680E4A9A
:10225C0023F4F81393600C4B1A6F7B689B6AC3F3DF
:10226C000B03094913430B677B681B6803F01003CE
:10227C00002B04D07B6893F82C20044B1A600023AD
:10228C0018461837BD4680BD00380240E011474261
:10229C0080B582B000AF786039607B68002B01D1CB
:1022AC00012325E07B6893F82C30DBB2002B06D1A0
:1022BC007B68002283F82D20786800F047FB7B6850
:1022CC00022283F82C207B681A687B680433194639
:1022DC00104600F05CF87B6818687B685B681A46EF
:1022EC00396800F0C7F87B68012283F82C200023A2
:1022FC0018460837BD4680BD80B584B000AFF86085
:10230C00B9607A60FB6893F82C30DBB2022B01D1F8
:10231C00022318E0FB68022283F82C20FB681B6860
:10232C007A68B968184600F024F9BB681B68022B60
:10233C0004D1FB68052283F82C2003E0FB68012202
:10234C0083F82C20002318461037BD4680BD80B57D
:10235C0082B000AF786039607B6893F82C30DBB2C8
:10236C00022B01D102230EE07B68022283F82C2081
:10237C007B681B683968184600F037F97B680122C6
:10238C0083F82C20002318460837BD4680BD80B446
:10239C0085B000AF786039600023FB600023BB6020
:1023AC003B681B68012B29D07B681B68FB60FB68B2
:1023BC0023F4FF4323F07F03FB603B685A683B68C0
:1023CC009B681A433B68DB681A433B681B691A43DA
:1023DC003B685B691A433B689B691A433B68DB6942
:1023EC001A433B681B6A1A433B685B6A1343FA68DF
:1023FC001343FB607B68FA681A6034E07B681B68E7
:10240C00FB60FB6823F4F843FB603B68DA693B68CC
:10241C001B6A1A433B685B6A1343FA681343FB60FD
:10242C007B685B68BB60BB6823F4FF4323F07F03CE
:10243C00BB603B685A683B689B681A433B68DB6827
:10244C001A433B681B691A433B685B691A433B6838
:10245C009B691343BA681343BB607B68FA681A60C4
:10246C007B68BA685A60002318461437BD465DF87D
:10247C00047B704780B487B000AFF860B9607A60B5
:10248C0000237B6100233B617B68012B2ED0FB6812
:10249C009B687B617B6903F070437B61BB681B6845
:1024AC005A1EBB685B68013B1B011A43BB689B68E7
:1024BC00013B1B021A43BB68DB68013B1B031A433D
:1024CC00BB681B69013B1B041A43BB685B69013B7E
:1024DC001B051A43BB689B69013B1B0613437A69B6
:1024EC0013437B61FB687A699A603BE0FB689B68ED
:1024FC007B617B6923F4700323F470437B61BB68BD
:10250C00DB68013B1A03BB685B69013B1B0513438A
:10251C007A6913437B61FB68DB683B613B6903F0C1
:10252C0070433B61BB681B685A1EBB685B68013B10
:10253C001B011A43BB689B68013B1B021A43BB6817
:10254C001B69013B1B041A43BB689B69013B1B06BF
:10255C0013433A6913433B61FB687A699A60FB68E1
:10256C003A69DA60002318461C37BD465DF8047BD7
:10257C00704780B586B000AFF860B9607A60002310
:10258C003B6100237B61BB681A68BB685B681A43BC
:10259C00BB689B68013B5B011A43BB68DB685B0251
:1025AC0013433B613A69FB681A61FDF7FFFF7861E1
:1025BC0010E07B68B3F1FF3F0CD07B68002B07D099
:1025CC00FDF7F4FF02467B69D31A7A689A4201D26E
:1025DC00032306E0FB689B6903F02003202BE8D063
:1025EC00002318461837BD4680BD80B483B000AFB9
:1025FC00786039607B685A693B685B001A437B687A
:10260C005A61002318460C37BD465DF8047B7047B1
:10261C0080B500AF154B164A1A60144B00225A6055
:10262C00124B02229A60114B0022DA600F4B0022EF
:10263C009A620E4B0222DA620C4B00221A630B4B8D
:10264C0000225A630948FEF7F0F80346002B01D02C
:10265C0000F00EFC01210548FEF76CFA0346002B36
:10266C0001D000F005FC00BF80BD00BF340000208D
:10267C0000B0024080B584B000AF78607B681B6806
:10268C000E4A934215D10023FB600D4B1B6B0C4A79
:10269C0043F4000313630A4B1B6B03F40003FB604E
:1026AC00FB68002200215A20FEF789F85A20FEF719
:1026BC00A2F800BF1037BD4680BD00BF00B002407D
:1026CC000038024090B589B000AF04460846114668
:1026DC001A462346FB710346BB710B467B711346AE
:1026EC007B800023FB61FB79002B02D11023FB6163
:1026FC0004E0FB79012B01D10823FB61BB79FB6062
:10270C00FB693B617B797B617B88BB6107F10C03C7
:10271C004FF4805219460648FFF7EEFD0346002B96
:10272C0001D1002300E0012318462437BD4690BD9B
:10273C007400002080B584B000AF78600023FB608B
:10274C000023012201210020FFF7BCFF0120FDF72F
:10275C0039FF0023012202210020FFF7B3FF0023E1
:10276C00082203210020FFF7ADFF4FF40C73FB6030
:10277C00FB689BB2012204210020FFF7A3FF00BFDE
:10278C001037BD4680BD000080B500AF0448FFF790
:10279C00D1FF40F2AB210248FFF7D9FD00BF80BD4D
:1027AC007400002080B588B000AF3B1D00221A6079
:1027BC005A609A60DA601A615A619A61204B214A18
:1027CC001A601F4B00225A601D4B01229A601C4B51
:1027DC000822DA601A4B10221A61194B40225A61F6
:1027EC00174B4FF4C0729A61154B0022DA61144BEF
:1027FC004FF400621A62124B4FF480525A62104B23
:10280C004FF400529A6202237B600823BB600623BC
:10281C00FB6006233B6104237B610223BB61022323
:10282C00FB613B1D19460648FFF732FD0346002BA2
:10283C0001D000F01DFB00BF2037BD4680BD00BF9E
:10284C0074000020400100A080B586B000AF3B1D95
:10285C0000221A605A609A60DA601A61344B1B6865
:10286C00002B60D1324B01221A6000233B60314BAC
:10287C009B6B304A43F0010393632E4B9B6B03F02D
:10288C0001033B603B684FF63F037B600223BB6058
:10289C000123FB6003233B610C237B613B1D194629
:1028AC002548FEF775FA0D237B600223BB600123DC
:1028BC00FB6003233B610C237B613B1D19461F48C6
:1028CC00FEF766FA48F237137B600223BB600123E4
:1028DC00FB6003233B610C237B613B1D19461848AD
:1028EC00FEF756FA4FF683737B600223BB6001231D
:1028FC00FB6003233B610C237B613B1D1946114894
:10290C00FEF746FA4CF203737B600223BB60012393
:10291C00FB6003233B610C237B613B1D19460A487A
:10292C00FEF736FA00E000BF1837BD4680BD00BF89
:10293C002800002000380240001402400008024029
:10294C000018024000100240000C024080B582B01A
:10295C0000AF7860FFF778FF00BF0837BD4680BD39
:10296C0080B58EB000AF07F1240300221A605A60C4
:10297C009A60DA601A6100233B62494B1B6B484A30
:10298C0043F004031363464B1B6B03F004033B62DD
:10299C003B6A0023FB61424B1B6B414A43F480733F
:1029AC0013633F4B1B6B03F48073FB61FB690023C8
:1029BC00BB613B4B1B6B3A4A43F020031363384B10
:1029CC001B6B03F02003BB61BB6900237B61344BA1
:1029DC001B6B334A43F080031363314B1B6B03F0C7
:1029EC0080037B617B6900233B612D4B1B6B2C4A65
:1029FC0043F0400313632A4B1B6B03F040033B6112
:102A0C003B690023FB60264B1B6B254A43F01003EC
:102A1C001363234B1B6B03F01003FB60FB68002359
:102A2C00BB601F4B1B6B1E4A43F0080313631C4B0C
:102A3C001B6B03F00803BB60BB6800237B60184B67
:102A4C001B6B174A43F001031363154B1B6B03F00D
:102A5C0001037B607B6800233B60114B1B6B104AAE
:102A6C0043F0020313630E4B1B6B03F002033B603A
:102A7C003B68002220210B48FEF734FB20237B62AD
:102A8C000123BB620023FB6200233B6307F1240399
:102A9C0019460448FEF77CF900BF3837BD4680BDA7
:102AAC00003802400004024080B58EB000AF3B1DE0
:102ABC0034220021184600F0D1FA3A4B3A4A1A60F7
:102ACC00384B00225A60374B00229A60354B00225B
:102ADC00DA60344B00221A61324B13225A61314BAB
:102AEC0002229A612F4B9F22DA612E4B16221A6218
:102AFC002C4B40F29F425A622A4B40F26E229A6251
:102B0C00284B40F23F52DA62264B40F27A221A638B
:102B1C00244B002283F83420224B002283F83520EA
:102B2C00204B002283F836201E48FEF7F5FA0346A8
:102B3C00002B01D000F09CF94FF4FA737B6040F24B
:102B4C00DA23BB60C823FB604FF4AA733B610223FA
:102B5C007B61FF23BB610023FB614FF480633B620D
:102B6C0005237B624FF04043BB62F023FB62822360
:102B7C003B63002387F83430002387F8353000237B
:102B8C0087F836303B1D002219460648FEF794FBA9
:102B9C000346002B01D000F06BF900BF3837BD465F
:102BAC0080BD00BFA80000200068014080B58CB03B
:102BBC0000AF786007F11C0300221A605A609A601B
:102BCC00DA601A617B681B684B4A934240F08F8035
:102BDC000023BB61494B5B6C484A43F080635364F0
:102BEC00464B5B6C03F08063BB61BB6900237B616C
:102BFC00424B1B6B414A43F4807313633F4B1B6B7B
:102C0C0003F480737B617B6900233B613B4B1B6B43
:102C1C003A4A43F020031363384B1B6B03F0200339
:102C2C003B613B690023FB60344B1B6B334A43F025
:102C3C0080031363314B1B6B03F08003FB60FB6859
:102C4C000023BB602D4B1B6B2C4A43F040031363DA
:102C5C002A4B1B6B03F04003BB60BB6840F2F7636D
:102C6C00FB6102233B6200237B620323BB620E23C6
:102C7C00FB6207F11C0319462148FEF789F84FF453
:102C8C008063FB6102233B6200237B620323BB62F4
:102C9C000E23FB6207F11C0319461A48FEF778F85D
:102CAC004FF47E43FB6102233B6200237B620323D0
:102CBC00BB620E23FB6207F11C0319461248FEF798
:102CCC0067F84FF40C63FB6102233B6200237B62C9
:102CDC000323BB620E23FB6207F11C0319460B484E
:102CEC00FEF756F8012220210948FEF7FBF900BF38
:102CFC003037BD4680BD00BF00680140003802403F
:102D0C000020024000140240001C02400018024047
:102D1C000004024080B584B002AFFDF7E1FB00F087
:102D2C001DF8FFF71DFEFFF73DFDFFF7BDFEFFF79A
:102D3C006FFCFFF729FD064B7B6000233B600549C8
:102D4C00034A82230093F0230348FDF7B7FDFEE707
:102D5C00000000C0903000083400002080B5A0B006
:102D6C0000AF07F1500330220021184600F076F92D
:102D7C0007F13C0300221A605A609A60DA601A610B
:102D8C0007F10C0330220021184600F067F90023EC
:102D9C00BB60354B1B6C344A43F080531364324B8D
:102DAC001B6C03F08053BB60BB6800237B602F4B14
:102DBC001B682E4A43F4404313602C4B1B6803F4EE
:102DCC0040437B607B6801233B654FF480337B651C
:102DDC000223BB664FF48003FB660F233B67D823AB
:102DEC007B670223BB670423FB6707F1500318467C
:102DFC00FEF788FC0346002B01D000F039F8FEF7F3
:102E0C0031FC0346002B01D000F032F80F23FB639A
:102E1C0002233B6400237B644FF4A053BB644FF448
:102E2C008053FB6407F13C0305211846FEF7DAFEDC
:102E3C000346002B01D000F01BF80823FB60C623CF
:102E4C00FB6105237B6200233B6307F10C031846EF
:102E5C00FFF760F80346002B01D000F009F800BF23
:102E6C008037BD4680BD00BF003802400070004076
:102E7C0080B400AF00BFBD465DF8047B7047000016
:102E8C0080B483B000AF00237B60104B5B6C0F4AA7
:102E9C0043F4804353640D4B5B6C03F480437B60C1
:102EAC007B6800233B60094B1B6C084A43F0805342
:102EBC001364064B1B6C03F080533B603B6800BFF4
:102ECC000C37BD465DF8047B704700BF00380240EC
:102EDC0080B400AF00BFBD465DF8047B704780B482
:102EEC0000AFFEE780B400AFFEE780B400AFFEE7B2
:102EFC0080B400AFFEE780B400AF00BFBD465DF804
:102F0C00047B704780B400AF00BFBD465DF8047B06
:102F1C00704780B400AF00BFBD465DF8047B7047BE
:102F2C0080B500AFFDF72EFB00BF80BD80B500AFB4
:102F3C00054B5B68022B02D1044B01221A7004482A
:102F4C00FDF7E7FC00BF80BD00B002402C00002064
:102F5C003400002080B400AF164BD3F88830154AEB
:102F6C0043F47003C2F88830134B1B68124A43F0C9
:102F7C0001031360104B00229A600F4B1B680E4A22
:102F8C0023F0847323F4803313600B4B0B4A5A6089
:102F9C00094B1B68084A23F480231360064B00225C
:102FAC00DA60044B4FF000629A6000BFBD465DF8DA
:102FBC00047B704700ED00E0003802401030002424
:102FCC00DFF834D0002103E00C4B5B584350043144
:102FDC000B480C4B42189A42F6D30B4A02E00023E2
:102FEC0042F8043B094B9A42F9D3FFF7B3FF00F0C8
:102FFC0011F8FFF78FFE70470000032070240108C2
:10300C00000000200C0000200C00002050010020CB
:10301C00FEE7000070B50D4E0D4CA41BA41000254E
:10302C00A54209D10B4E0C4C00F020F8A41BA410A7
:10303C000025A54205D170BD56F8253098470135BD
:10304C00EEE756F8253098470135F2E76824010879
:10305C0068240108682401086C2401080244034612
:10306C00934200D1704703F8011BF9E7F8B500BF94
:10307C00F8BC08BC9E467047F8B500BFF8BC08BC4D
:04308C009E467047A5
:10309000FFFFFFFFFFFFFFFFFFFFFFFFFFFFFFFF40
:1030A000FFFFFFFFFFFFFFFFFFFFFFFFFFFFFFFF30
:1030B000FFFFFFFFFFFFFFFFFFFFFFFFFFFFFFFF20
:1030C000FFFFFFFFFFFFFFFFFFFFFFFFFFFFFFFF10
:104B8000DFFFFFFFDFFFDFFFFFFFDFFFFFFFFFFFB5
:104B9000FFFFFFFFFFFFFFFFFFFFFFFFFFFFFFFF25
:104BA000FFFFFFFFFFFFFFFFFFFFFFFFFFFFFFFF15
:104BB000FFFFFFFFFFFFFFFFFFFFFFFFFFFFFFFF05
:104BC000FFFFFFFFFFFFFFFFFFFFFFFFFFFFFFFFF5
:104F1000FFFFFFFFFFFFFFFFFFFFFFFFFFFFBEEFF2
:104F2000FFFFFFFFFFFFFFFFFFFFFFFFFFFFFFFF91
:104F3000FFFFFFFFFFFFFFFFFFFFFFFFFFFFFFFF81
:104F4000FFFFFFFFFFFFFFFFFFFFFFFFFFFFFFFF71
:104F5000FFFFFFFFFFFFFFFFFFFFFFFFFFFFFFFF61
:10E01000FFFFDFFFFFFFFFFFFFFFFFFFFFFFFFFF30
:10E02000FFFFFFFFFFFFFFFFFFFFFFFFFFFFFFFF00
:10E03000FFFFFFFFFFFFFFFFFFFFFFFFFFFFFFFFF0
:10E04000FFFFFFFFFFFFFFFFFFFFFFFFFFFFFFFFE0
:10E05000FFFFFFFFFFFFFFFFFFFFFFFFFFFFFFFFD0
:10F770005D865D865D865D865D869B96FFFFFFFFED
:10F78000FFFFFFFFFFFF9A1CBD3DDC1CFFFFFFFFDB
:10F79000FFFFFFFFFFFFFFFFFFFFFFFF1EB75D7EC5
:10F7A0005D861B7E7DE7FFFFFFFFFFFFFFFFFFFF83
:10F7B000FFFFFFFFFFFFFFFFFFFFFFFFFFFFFFFF59
:10F7C000FFFFFFFFFFFFFFFFFFFFFFFFFFFFFFFF49
:10F7D000FFFFFFFFFFFFFFFFFFFFFFFFFFFFFFFF39
:10F7E000FFFFFFFFFFFFFFFFFFFFFFFFFFFFFFFF29
:10F7F000FFFFFFFFFFFFFFFFFFFFFFFFFFFFFFFF19
:10F80000FFFFFFFFFFFFFFFFFFFFFFFFFFFFFFFF08
:10F81000FFFFFFFFFFFFFFFFFFFFFFFFFFFFFFFFF8
:10F82000FFFFFFFFFFFFFFFFFFFFFFFFFFFFFFFFE8
:10F83000FFFFFFFFFFFFFFFFFFFFFFFFFFFFFFFFD8
:10F84000FFFFFFFFFFFFFFFFFFFFFFFFFFFFFFFFC8
:10F85000FFFFFFFFFFFFFFFFFFFFFFFFFFFFFFFFB8
:10F86000FFFFFFFFFFFFFFFFFFFFFFFFFFFFFFFFA8
:10F87000FFFFFFFFFFFFFFFFFFFFFFFFFFFFFFFF98
:10F88000FFFFFFFFFFFFFFFFFFFFFFFFFFFFFFFF88
:10F89000FFFFFFFFFFFFFFFFFFFFFFFFFFFFFFFF78
:10F8A000FFFFFFFFFFFFFFFFFFFFFFFFFFFFFFFF68
:10F8B000FFFFFFFFFFFFFFFFFFFF36A5716B516BDF
:10F8C000B8B5FFFFFFFFFFFFFFFFFFFFFFFFFFFFD9
:10F8D000FFFFFFFFFFFFFFFFFFFFFFFFFFFFFFFF38
:10F8E000FFFFFFFFFFFFFFFFFFFFFFFFFFFFFFFF28
:10F8F000FFFFFFFFFFFFFFFFFFFFFFFFFFFFFFFF18
:10F90000FFFFBEF730639273B173FFFFFFFFFFFF8E
:10F91000FFFFFFFFFFFFFFFFFFFFFFFFFFFFFFFFF7
:10F92000FFFFFFFFFFFFFFFFFFFFFFFFFFFFFFFFE7
:10F93000FFFFFFFFFFFFFFFFFFFFFFFFFFFFFFFFD7
:10F94000FFFFFFFFFFFFFFFFFFFFFFFFFFFFFFFFC7
:10F950001B253C2D3C2D3C2D3C251D3DFFFFFFFF75
:10F96000FFFFFFFFFFFF9C0C7C35BB0CFFFFFFFF81
:10F97000FFFFFFFFFFFFFFFFFFFF1D76DB0C3C2DAE
:10F980005D257704FAC6FFFFFFFFFFFFFFFFFFFFC4
:10F99000FFFFFFFFFFFFFFFFFFFFFFFFFFFFFFFF77
:10F9A000FFFFFFFFFFFFFFFFFFFFFFFFFFFFFFFF67
:10F9B000FFFFFFFFFFFFFFFFFFFFFFFFFFFFFFFF57
:10F9C000FFFFFFFFFFFFFFFFFFFFFFFFFFFFFFFF47
:10F9D000FFFFFFFFFFFFFFFFFFFFFFFFFFFFFFFF37
:10F9E000FFFFFFFFFFFFFFFFFFFFFFFFFFFFFFFF27
:10F9F000FFFFFFFFFFFFFFFFFFFFFFFFFFFFFFFF17
:10FA0000FFFFFFFFFFFFFFFFFFFFFFFFFFFFFFFF06
:10FA1000FFFFFFFFFFFFFFFFFFFFFFFFFFFFFFFFF6
:10FA2000FFFFFFFFFFFFFFFFFFFFFFFFFFFFFFFFE6
:10FA3000FFFFFFFFFFFFFFFFFFFFFFFFFFFFFFFFD6
:10FA4000FFFFFFFFFFFFFFFFFFFFFFFFFFFFFFFFC6
:10FA5000FFFFFFFFFFFFFFFFFFFFFFFFFFFFFFFFB6
:10FA6000FFFFFFFFFFFFFFFFFFFFFFFFFFFFFFFFA6
:10FA7000FFFFFFFFFFFFFFFFFFFFFFFFFFFFFFFF96
:10FA8000FFFFFFFFFFFFFFFFFFFFFFFFFFFFFFFF86
:10FA9000FFFFFFFFFFFFFFFFFFFF070068000700FA
:10FAA000D27BFFFFFFFFFFFFFFFFFFFFFFFFFFFF17
:10FAB000FFFFFFFFFFFFFFFFFFFFFFFFFFFFFFFF56
:10FAC000FFFFFFFFFFFFFFFFFFFFFFFFFFFFFFFF46
:10FAD000FFFFFFFFFFFFFFFFFFFFFFFFFFFFFFFF36
:10FAE000FFFF5DEF050068000500D9BDFFFFFFFFC8
:10FAF000FFFFFFFFFFFFFFFFFFFFFFFFFFFFFFFF16
:10FB0000FFFFFFFFFFFFFFFFFFFFFFFFFFFFFFFF05
:10FB1000FFFFFFFFFFFFFFFFFFFFFFFFFFFFFFFFF5
:10FB2000FFFFFFFFFFFFFFFFFFFFFFFFFFFFFFFFE5
:10FB3000DB14FB0C3B255C355C2D3D4DFFFFFFFFCF
:10FB4000FFFFFFFFFFFF3B047D255B04FFFFFFFF7F
:10FB5000FFFFFFFFFFFFFFFFFB243C257C35FB146D
:10FB60009C45DDAEFFFFFFFFFFFFFFFFFFFFFFFF35
:10FB7000FFFFFFFFFFFFFFFFFFFFFFFFFFFFFFFF95
:10FB8000FFFFFFFFFFFFFFFFFFFFFFFFFFFFFFFF85
:10FB9000FFFFFFFFFFFFFFFFFFFFFFFFFFFFFFFF75
:10FBA000FFFFFFFFFFFFFFFFFFFFFFFFFFFFFFFF65
:10FBB000FFFFFFFFFFFFFFFFFFFFFFFFFFFFFFFF55
:10FBC000FFFFFFFFFFFFFFFFFFFFFFFFFFFFFFFF45
:10FBD000FFFFFFFFFFFFFFFFFFFFFFFFFFFFFFFF35
:10FBE000FFFFFFFFFFFFFFFFFFFFFFFFFFFFFFFF25
:10FBF000FFFFFFFFFFFFFFFFFFFFFFFFFFFFFFFF15
:10FC0000FFFFFFFFFFFFFFFFFFFFFFFFFFFFFFFF04
:10FC1000FFFFFFFFFFFFFFFFFFFFFFFFFFFFFFFFF4
:10FC2000FFFFFFFFFFFFFFFFFFFFFFFFFFFFFFFFE4
:10FC3000FFFFFFFFFFFFFFFFFFFFFFFFFFFFFFFFD4
:10FC4000FFFFFFFFFFFFFFFFFFFFFFFFFFFFFFFFC4
:10FC5000FFFFFFFFFFFFFFFFFFFFFFFFFFFFFFFFB4
:10FC6000FFFFFFFFFFFFFFFFFFFFFFFFFFFFFFFFA4
:10FC7000FFFFFFFFFFFFFFFFFFFFA908C9004800CC
:10FC80001384FFFFFFFFFFFFFFFFFFFFFFFFFFFFEB
:10FC9000FFFFFFFFFFFFFFFFFFFFFFFFFFFFFFFF74
:10FCA000FFFFFFFFFFFFFFFFFFFFFFFFFFFFFFFF64
:10FCB000FFFFFFFFFFFFFFFFFFFFFFFFFFFFFFFF54
:10FCC000FFFF7EEF0600E90807001AC6FFFFFFFFEF
:10FCD000FFFFFFFFFFFFFFFFFFFFFFFFFFFFFFFF34
:10FCE000FFFFFFFFFFFFFFFFFFFFFFFFFFFFFFFF24
:10FCF000FFFFFFFFFFFFFFFFFFFFFFFFFFFFFFFF14
:10FD0000FFFFFFFFFFFFFFFFFFFFFFFFFFFFFFFF03
:10FD1000FFFFFFFFBE6D3B2D5C2D5D4DFFFFFFFF25
:10FD2000FFFFFFFFFFFF5EC75ECF5EC7FFFFFFFF66
:10FD3000FFFFFFFFFFFFFFFFDB0C5C35FB1C9FE7B6
:10FD4000FFFFFFFFFFFFFFFFFFFFFFFFFFFFFFFFC3
:10FD5000FFFFFFFFFFFFFFFFFFFFFFFFFFFFFFFFB3
:10FD6000FFFFFFFFFFFFFFFFFFFFFFFFFFFFFFFFA3
:10FD7000FFFFFFFFFFFFFFFFFFFFFFFFFFFFFFFF93
:10FD8000FFFFFFFFFFFFFFFFFFFFFFFFFFFFFFFF83
:10FD9000FFFFFFFFFFFFFFFFFFFFFFFFFFFFFFFF73
:10FDA000FFFFFFFFFFFFFFFFFFFFFFFFFFFFFFFF63
:10FDB000FFFFFFFFFFFFFFFFFFFFFFFFFFFFFFFF53
:10FDC000FFFFFFFFFFFFFFFFFFFFFFFFFFFFFFFF43
:10FDD000FFFFFFFFFFFFFFFFFFFFFFFFFFFFFFFF33
:10FDE000FFFFFFFFFFFFFFFFFFFFFFFFFFFFFFFF23
:10FDF000FFFFFFFFFFFFFFFFFFFFFFFFFFFFFFFF13
:10FE0000FFFFFFFFFFFFFFFFFFFFFFFFFFFFFFFF02
:10FE1000FFFFFFFFFFFFFFFFFFFFFFFFFFFFFFFFF2
:10FE2000FFFFFFFFFFFFFFFFFFFFFFFFFFFFFFFFE2
:10FE3000FFFFFFFFFFFFFFFFFFFFFFFFFFFFFFFFD2
:10FE4000FFFFFFFFFFFFFFFFFFFFFFFFFFFFFFFFC2
:10FE5000FFFFFFFFFFFFFFFFFFFFA908C9004800EA
:10FE6000548CFFFFFFFFFFFFFFFFFFFFFFFFFFFFC0
:10FE7000FFFFFFFFFFFFFFFFFFFFFFFFFFFFFFFF92
:10FE8000FFFFFFFFFFFFFFFFFFFFFFFFFFFFFFFF82
:10FE9000FFFFFFFFFFFFFFFFFFFFFFFFFFFFFFFF72
:10FEA000FFFF7EEF0600E90807001AC6FFFFFFFF0D
:10FEB000FFFFFFFFFFFFFFFFFFFFFFFFFFFFFFFF52
:10FEC000FFFFFFFFFFFFFFFFFFFFFFFFFFFFFFFF42
:10FED000FFFFFFFFFFFFFFFFFFFFFFFFFFFFFFFF32
:10FEE000FFFFFFFFFFFFFFFFFFFFFFFFFFFFFFFF22
:10FEF000FFFFFFFFBE6D3B2D5C2D5D4DFFFFFFFF44
:10FF0000FFFF5D865D867D8E7D8E5D863FDFFFFF18
:10FF1000FFFFDEAE5D7E7D8E3C255C351B257D962C
:10FF20003D7E9FE7FFFFFFFFFFFFFFFFFFFFFFFF9C
:10FF30001DAF5D865D863D7EFEBEFFFFFFFFFFFFBE
:10FF4000FFFFFFFFFFFFFFFFFFFFFFFFFFFFFFFFC1
:10FF5000FFFFFFFFFFFFFFFFFFFFFFFFFFFFFFFFB1
:10FF6000FFFFFFFFFFFF97B52E42C910EA10E9100F
:10FF7000A9089173FFFFFFFF506BB27B506BFFFF2F
:10FF8000FFFF9AD6516B917336A5FFFFFFFFFFFF6E
:10FF9000FFFFFFFFFFFFFFFFF8BD716B716BD8BD67
:10FFA000FFFFFFFFFFFFFFFFFFFF1284D37BA808C7
:10FFB000EA10A908AE52538CFFFF96B59273516BAD
:10FFC0009AD6FFFF939492739173B7BD32844D42DA
:10FFD000C910A9102D4256ADFFFFFFFFFFFF97B5D7
:10FFE0000D42A910EA10A810CF5A1BE7FFFFFFFF30
:10FFF000FFFFFFFFFFFFFFFFFFFFFFFF97B5506B06
:020000040801F1
:10000000A808EA10C910CC319173FFFFFFFFFFFF72
:10001000FFFFFFFFFFFFD8BD716B716B79CE1CE74F
:10002000CF5AA908EA10A910306357ADFFFFFFFFB0
:10003000FFFFFFFFFFFF506BF383A908C900890092
:100040000D3AF383B273F27BFFFFFFFFFFFFFFFF69
:10005000FFFFD17BA910EA10C9100C3A9173FFFF82
:10006000FFFFFFFFFFFFFFFFFFFFFFFFFFFFFFFFA0
:10007000FFFF1CE7716B0A19E910EA100A19707387
:100080005CEFFFFF0600C90807001AC6FFFFFFFF6D
:10009000FFFFFFFFFFFFFFFFFFFFFFFFFFFFFFFF70
:1000A000FFFFFFFFFFFFFFFFFFFFFFFFFFFFFFFF60
:1000B000FFFFFFFFFFFFFFFFFFFFFFFFFFFFFFFF50
:1000C000FFFFFFFFFFFFFFFFFFFFFFFFFFFFFFFF40
:1000D000FFFFFFFFBE6D5B2D5C2D5D4DFFFFFFFF42
:1000E000FFFF1B255D255D2D3C2D1C157FAEFFFF01
:1000F000FFFFDC5D1C1D5D2D5C355B357C355D2DAA
:100100001C155ECFFFFFFFFFFFFFDFF75D7E1C1DAD
:100110001C253C255C2D5C2D3C25FB0CFC657ECF15
:10012000FFFFFFFFFFFFFFFFFFFFFFFFFFFFFFFFDF
:10013000FFFFFFFFFFFFFFFFFFFFFFFFFFFFFFFFCF
:10014000FFFFDBDEA81007008900A90088008900F6
:10015000A900480005003063070068000400FFFFA5
:10016000FFFF16A5060007004E4AFFFFFFFFFFFF37
:10017000FFFFFFFFFFFFFFFFD27307000700D273EF
:10018000FFFFFFFFFFFF1CE7260028006800A90013
:100190008800890089002700E910C910480006007E
:1001A00036A5FFFF4A2128004800070048006900E3
:1001B00089008900890027000600BAD6C810070008
:1001C000890089008800A90068004700706B9EF7CD
:1001D000FFFFFFFFFFFFFFFFFFFFAB2907006800E6
:1001E000A90088008800890048000600EE5A7DEFCB
:1001F000FFFFFFFFFFFFB173070048000700070084
:10020000690089008800A90068000600CB31DEFF84
:10021000FFFFFFFF316307006800CA00C908C90873
:10022000A900680048004700FFFFFFFFFFFFCE5214
:1002300088004800A900890089008900480005005D
:100240008D4AFFFFFFFFFFFFFFFFFFFFFFFFDFFF05
:10025000706B47004800A9008900880089004800A9
:10026000060050636800EA0807001AC6FFFFFFFF98
:10027000FFFFFFFFFFFFFFFFFFFFFFFFFFFFFFFF8E
:10028000FFFFFFFFFFFFFFFFFFFFFFFFFFFFFFFF7E
:10029000FFFFFFFFFFFFFFFFFFFFFFFFFFFFFFFF6E
:1002A000FFFFFFFFFFFFFFFFFFFFFFFFFFFFFFFF5E
:1002B000FFFFFFFFBE6D3B2D5C2D5D4DFFFFFFFF80
:1002C000FFFFBC149B0C1B257C351B1DBFB6FFFF1D
:1002D000FFFFDC4DBA04DB145C355C353B35DB14C9
:1002E0009B045FCFFFFFFFFF5ED77A045C2D5C2D80
:1002F000FB1CDB14BB0CBB0CFB1C3C2D5C2DFB0C5A
:10030000BC4DFFFFFFFFFFFFFFFFFFFFFFFFFFFFF2
:10031000FFFFFFFFFFFFFFFFFFFFFFFFFFFFFFFFED
:10032000F8C50500A900680005002A21CC39CC39A0
:10033000E9180600C9008800C908C9080600FFFFBF
:10034000FFFF57AD07008800AF52FFFFFFFFFFFF21
:10035000FFFFFFFFFFFFFFFF1384480048001384E7
:10036000FFFFFFFFCE5A0500C90048000500E9184D
:10037000CC39EC4104000700A900A900C908070016
:1003800057ADFFFFAB29A900C908C9082800A80874
:10039000CC39EC4105008800C9000700A90089009C
:1003A0000500CC39ED39A8100600C90028006A29DB
:1003B000FFFFFFFFFFFF9DF703008900A900060074
:1003C0004A29CC39EC410600070089006800040086
:1003D0003CEFFFFFFFFF127C4800C908EA088900D4
:1003E00005008B31CC394A210500890089000400C1
:1003F00019C6FFFF538C04000500A900C908E908CD
:100400002700050005000500FFFFFFFF670048000B
:10041000A90006006800EC41AB3103000700A90009
:1004200068008908FFFFFFFFFFFFFFFFFFFF0500D8
:10043000480089000600A808CC39EC39A808060055
:1004400068008800C908C90807001AC6FFFFFFFF37
:10045000FFFFFFFFFFFFFFFFFFFFFFFFFFFFFFFFAC
:10046000FFFFFFFFFFFFFFFFFFFFFFFFFFFFFFFF9C
:10047000FFFFFFFFFFFFFFFFFFFFFFFFFFFFFFFF8C
:10048000FFFFFFFFFFFFFFFFFFFFFFFFFFFFFFFF7C
:10049000FFFFFFFFBE653B2D5C355D4DFFFFFFFF9E
:1004A000FFFFFFFFFFFF187E5D2D1B1DBEB6FFFF88
:1004B000FFFFFFFFFFFFFFFFFB147C35BB14FFFFB7
:1004C000FFFFFFFFFFFFFFFF3C2D7C351B25BC55C9
:1004D0007FD7FFFFFFFFFFFF1ECFFE861B1D5C3592
:1004E0001C1D1D7EFFFFFFFFFFFFFFFFFFFFFFFF44
:1004F000FFFFFFFFFFFFFFFFFFFFFFFFFFFF36A52F
:100500002700C9000600B052FFFFFFFFFFFFFFFFFB
:10051000FFFF7AD64A006800C908C9080600FFFF35
:10052000FFFF57AD07008800AF52FFFFFFFFFFFF3F
:10053000FFFFFFFFFFFFFFFF138448004800138405
:10054000FFFF6D420700C9000700738CFFFFFFFF2C
:10055000FFFFFFFFFFFF19C6C8088900C908070091
:1005600057ADFFFFAB29A900C9086700B173FFFFB2
:10057000FFFFFFFFFFFF6D4A0700E908A9004919C7
:10058000FFFFFFFFFFFFFFFFB7B52700C908060009
:1005900019C6FFFFBEF72700A9006800CE313CEF67
:1005A000FFFFFFFFFFFFFFFF39C6EC396800C900FE
:1005B00006009DF7FFFF127C4800C90827002C4267
:1005C000FFFFFFFFFFFFFFFFFFFFAE526800CA0003
:1005D0000600FFFFFFFFFFFFFFFFA910C900480053
:1005E000548CFFFFFFFFFFFF7DF7E91089008900B2
:1005F000A8085DEFFFFFFFFFFFFFFFFF7AD6470070
:100600008900890005007DCEFFFFFFFF6700A9007C
:1006100068000C3AFFFFFFFFFFFFFFFFFFFFBBDE9D
:10062000706B2700C908C90807001AC6FFFFFFFF43
:10063000FFFFFFFFFFFFFFFFFFFFFFFFFFFFFFFFCA
:10064000FFFFFFFFFFFFFFFFFFFFFFFFFFFFFFFFBA
:10065000FFFFFFFFFFFFFFFFFFFFFFFFFFFFFFFFAA
:10066000FFFFFFFFFFFFFFFFFFFFFFFFFFFFFFFF9A
:10067000FFFFFFFFBE653B2D5C355D4DFFFFFFFFBC
:10068000FFFFFFFFFFFFF87D5C2D1B1DBFB6FFFFC7
:10069000FFFFFFFFFFFFFFFFFB147C35DB14FFFFB5
:1006A000FFFFFFFFFFFFFC6D3C251C251EBFFFFF6A
:1006B000FFFFFFFFFFFFFFFFFFFFFFFFDFFF1C1D2F
:1006C0007C35BB0CBFEFFFFFFFFFFFFFFFFFFFFF0E
:1006D000FFFFFFFFFFFFFFFFFFFFFFFFFFFF270001
:1006E000C90028002F6BFFFFFFFFFFFFFFFFFFFF89
:1006F000FFFFFFFFFFFF91734800C9080600FFFFDF
:10070000FFFF57AD07008800AF52FFFFFFFFFFFF5D
:10071000FFFFFFFFFFFFFFFF1384480048005484E2
:100720007DF70600E90806007BCEFFFFFFFFFFFF15
:10073000FFFFFFFFFFFFFFFFFFFF2700C9000700CC
:1007400057ADFFFFAB2989006800F05AFFFFFFFF9C
:10075000FFFFFFFFFFFFDEFF2A21A90006007DCE7D
:10076000FFFFFFFFFFFFFFFFFFFF105B6800A90017
:100770004821FFFFCE5A48006800516BFFFFFFFF82
:10078000FFFFFFFFFFFFFFFFFFFFFFFF2A19A90089
:10079000A9000200FFFFF27B48008800AE52FFFF75
:1007A000FFFFFFFFFFFFFFFFFFFFFFFF0600C9087E
:1007B00007001BA5FFFFFFFFFFFF8908C9004800D6
:1007C0001384FFFFFFFFFFFFC9108900A9008B31D1
:1007D000FFFFFFFFFFFFFFFFFFFFFFFFFFFFFFFF29
:1007E000EF5A88008800AD31FFFFB1732800A900DF
:1007F0006A29FFFFFFFFFFFFFFFFFFFFFFFFFFFF74
:10080000FFFF6F4A8800C90807001AC6FFFFFFFFF5
:10081000FFFFFFFFFFFFFFFFFFFFFFFFFFFFFFFFE8
:10082000FFFFFFFFFFFFFFFFFFFFFFFFFFFFFFFFD8
:10083000FFFFFFFFFFFFFFFFFFFFFFFFFFFFFFFFC8
:10084000FFFFFFFFFFFFFFFFFFFFFFFFFFFFFFFFB8
:10085000FFFFFFFFBE6D3B2D5C2D5D4DFFFFFFFFDA
:10086000FFFFFFFFFFFFF87D5D2D1B1DBFB6FFFFE4
:10087000FFFFFFFFFFFFFFFFFB147C35BB14FFFFF3
:10088000FFFFFFFFFFFFFA245C353C2DFD65DC5DBB
:10089000DC55BC553D7EDC55DC5DDC551D665B35AD
:1008A0005C355C35BC1CFFFFFFFFFFFFFFFFFFFF58
:1008B000FFFFFFFFFFFFFFFFFFFFFFFF5EEF0600F1
:1008C000C9008800FFFFFFFFFFFFFFFFFFFFFFFFE3
:1008D000FFFFFFFFFFFFFFFF0600C9080600FFFF45
:1008E000FFFF57AD07008800AF52FFFFFFFFFFFF7C
:1008F000FFFFFFFFFFFFFFFF138448006800D59C48
:10090000CC3988008900C910FFFFFFFFFFFFFFFF00
:10091000FFFFFFFFFFFFFFFFFFFF306368000700DF
:1009200057ADFFFFAB29A9006800CF52FFFFFFFFC3
:10093000FFFFFFFFFFFFFFFF6E4A89000600FFFF7A
:10094000FFFFFFFFFFFFFFFFFFFFAE526800A900A0
:10095000AC31FFFF8B29A900C9086800060006001A
:10096000060006000600060006000600A900E908C9
:10097000C9080700BBD6538C480048003484FFFFE9
:10098000FFFFFFFFFFFFFFFFFFFFFFFF0700E9087B
:10099000070056ADFFFFFFFFFFFF8908C9004800B1
:1009A0001384FFFFFFFF3EEF0600C908C900C9001E
:1009B0000600060006000600060006000600060007
:1009C0008900C908EA0805005DEF0400EA0807008D
:1009D000B59CFFFFFFFFFFFFFFFFFFFFFFFFFFFFD4
:1009E000FFFFDFFF0600C90807001AC6FFFFFFFF71
:1009F000FFFFFFFFFFFFFFFFFFFFFFFFFFFFFFFF07
:100A0000FFFFFFFFFFFFFFFFFFFFFFFFFFFFFFFFF6
:100A1000FFFFFFFFFFFFFFFFFFFFFFFFFFFFFFFFE6
:100A2000FFFFFFFFFFFFFFFFFFFFFFFFFFFFFFFFD6
:100A3000FFFFFFFFBE6D3B2D5C2D3D4DFFFFFFFF18
:100A4000FFFFFFFFFFFFF87D5D2D1B1DBFB6FFFF02
:100A5000FFFFFFFFFFFFFFFFFB147C35BB14FFFF11
:100A6000FFFFFFFFFFFF5C2D3B357C353D1D3D1536
:100A70003D1D3D153D153D155D153D1D3D155D1D8E
:100A80003C1D1C1DFB1CFFFFFFFFFFFFFFFFFFFFC7
:100A9000FFFFFFFFFFFFFFFFFFFFFFFF7EEF0600EF
:100AA000C900C910FFFFFFFFFFFFFFFFFFFFFFFFB0
:100AB000FFFFFFFFFFFFFFFF0600C9080600FFFF63
:100AC000FFFF57AD07008800AF52FFFFFFFFFFFF9A
:100AD000FFFFFFFFFFFFFFFF338448004800D59C66
:100AE0004E4A880048009173FFFFFFFFFFFFFFFFA2
:100AF000FFFFFFFFFFFFFFFFFFFF3ACE06000700EB
:100B000057ADFFFFAB29A9006800AF52FFFFFFFF01
:100B1000FFFFFFFFFFFFFFFF4E4289000600FFFFC0
:100B2000FFFFFFFFFFFFFFFFFFFFAE526800A900BE
:100B3000AC29FFFFAC31A900C908890007000700F4
:100B400007000700070007000700070027006800EC
:100B50006800040077AD748C48004800137CFFFFE8
:100B6000FFFFFFFFFFFFFFFFFFFFFFFF0600E9089A
:100B7000070057ADFFFFFFFFFFFF8908A9004800EE
:100B80001384FFFFFFFF7EF70600E908C90828006D
:100B9000070007000700070007000700070007001D
:100BA00027006800680005009EF70500EA080700B6
:100BB000548CFFFFFFFFFFFFFFFFFFFFFFFFFFFF63
:100BC000FFFF7EF70600EA0807001AC6FFFFFFFFD7
:100BD000FFFFFFFFFFFFFFFFFFFFFFFFFFFFFFFF25
:100BE000FFFFFFFFFFFFFFFFFFFFFFFFFFFFFFFF15
:100BF000FFFFFFFFFFFFFFFFFFFFFFFFFFFFFFFF05
:100C0000FFFFFFFFFFFFFFFFFFFFFFFFFFFFFFFFF4
:100C1000FFFFFFFFBE6D5B2D5C355D4DFFFFFFFFEE
:100C2000FFFFFFFFFFFFF87D5D2D1B1DBFB6FFFF20
:100C3000FFFFFFFFFFFFFFFFFB147C35DB0CFFFF17
:100C4000FFFFFFFFFFFF1B2D5C353C355ECF3EC72E
:100C50003EC73EC73EC73EC73EC73EC73EC75ED73C
:100C60007ED77FD75FCFFFFFFFFFFFFFFFFFFFFFB5
:100C7000FFFFFFFFFFFFFFFFFFFFFFFF5DEF06002E
:100C8000CA0807003CE7FFFFFFFFFFFFFFFFFFFF72
:100C9000FFFFFFFFFFFFDEFF0600EA080600FFFF81
:100CA000FFFF57AD07008800F05AFFFFFFFFFFFF6F
:100CB000FFFFFFFFFFFFFFFFF25A88004800B69CCE
:100CC000CA398800EA080400FFFFFFFFFFFFFFFFAB
:100CD000FFFFFFFFFFFFFFFFFFFF8E5288000700AF
:100CE00057ADFFFFAB29A9006800AF52FFFFFFFF20
:100CF000FFFFFFFFFFFFFFFF4E4289000600FFFFDF
:100D0000FFFFFFFFFFFFFFFFFFFFAE526800A900DC
:100D1000AC29FFFF6B29A90089006D425ACEF9BDAD
:100D2000F9BDF9BDF9BDF9BDF9BD1AC6D8BD2F632E
:100D30002F63B8B5FFFF1384480048001384FFFFFA
:100D4000FFFFFFFFFFFFFFFFFFFFFFFF0600E908B8
:100D5000070057ADFFFFFFFFFFFF8908C9004800EC
:100D60001384FFFFFFFF5DEF0500E908470037AD83
:100D70003AC6F9BDF9BDF9BDF9BDF9BDF9BD3AC62F
:100D800097B51063306B538CFEE60800E908070046
:100D9000B594FFFFFFFFFFFFFFFFFFFFFFFFFFFF18
:100DA000FFFFDFFF0600CA0807001AC6FFFFFFFFAC
:100DB000FFFFFFFFFFFFFFFFFFFFFFFFFFFFFFFF43
:100DC000FFFFFFFFFFFFFFFFFFFFFFFFFFFFFFFF33
:100DD000FFFFFFFFFFFFFFFFFFFFFFFFFFFFFFFF23
:100DE000FFFFFFFFFFFFFFFFFFFFFFFFFFFFFFFF13
:100DF000FFFFFFFFBD6D5B2D5C2D3D4DFFFFFFFF36
:100E0000FFFFFFFFFFFFF87D5D2D1B1DBFB6FFFF3E
:100E1000FFFFFFFFFFFFFFFFFB147C35BB0CFFFF55
:100E2000FFFFFFFFFFFF9C553C2DFB1CFEC6FFFF95
:100E3000FFFFFFFFFFFFFFFFFFFFFFFFFFFF3D7E05
:100E40007D8EFD75BFEFFFFFFFFFFFFF9E8E1B2511
:100E50005C2D9C45DEAEFFFFFFFFFFFFFFFF67003D
:100E6000A90068004D4AFFFFFFFFFFFFFFFFFFFFE4
:100E7000FFFFFFFFFFFFAD4A6800E9080600FFFF24
:100E8000FFFFF5A40700C9000500FFFFFFFFFFFFFC
:100E9000FFFFFFFFFFFFFFFF8908C9004800348400
:100EA000FFFF0500EA08270015A5FFFFFFFFFFFF72
:100EB000FFFFFFFFFFFFFFFFFFFF0600C900070066
:100EC00057ADFFFFAB29A9006800AF52FFFFFFFF3E
:100ED000FFFFFFFFFFFFFFFF4E4289000600FFFFFD
:100EE000FFFFFFFFFFFFFFFFFFFFAE526800A900FB
:100EF000AC29FFFF706B480089002D42FFFFFFFF08
:100F0000FFFFFFFFFFFFFFFFFFFFFFFFE8102700CE
:100F100007000821FFFFF27B48004800F383FFFF32
:100F2000FFFFFFFFFFFFFFFFFFFFFFFF0600C908F6
:100F3000070057ADFFFFFFFFFFFF8908C90048000A
:100F40001384FFFFFFFFFFFF0A19A900A900470054
:100F5000FFFFFFFFFFFFFFFFFFFFFFFFFFFFFFFFA1
:100F60006A21070007002D42FFFF11636800A900F6
:100F7000A808FFFFFFFFFFFFFFFFFFFFFFFFFFFFCF
:100F8000FFFFB1736800C90807001AC6FFFFFFFF23
:100F9000FFFFFFFFFFFFFFFFFFFFFFFFFFFFFFFF61
:100FA000FFFFFFFFFFFFFFFFFFFFFFFFFFFFFFFF51
:100FB000FFFFFFFFFFFFFFFFFFFFFFFFFFFFFFFF41
:100FC000FFFFFFFFFFFFFFFFFFFFFFFFFFFFFFFF31
:100FD000FFFFFFFFBE6D3B2D5C2D5D4DFFFFFFFF53
:100FE000FFFFFFFFFFFF18865D2D1B1DDFBEFFFF0C
:100FF000FFFFFFFFFFFFFFFFFB147C35BB0CFFFF74
:10100000FFFFFFFFFFFFFFFFDB0C7C35FB143EC73C
:10101000FFFFFFFFFFFFFFFFFFFFFFFFDB143C2D84
:101020003C253C2DFFFFFFFFFFFF7E96FB145C3548
:101030005C355C35DB0C3D86FFFFFFFFFFFF59CEC3
:101040000400CA000700306BFFFFFFFFFFFFFFFF38
:10105000FFFFFFFF29212800C908C9080600FFFF7C
:10106000FFFFFFFF0400EA082700538CFFFFFFFF8C
:10107000FFFFFFFFFFFF49218800C9084800F383F5
:10108000FFFFEF5A2800C9080600B494FFFFFFFFD6
:10109000FFFFFFFFFFFF1CE70500C900E90807008D
:1010A00057ADFFFFAB29A9006800AF52FFFFFFFF5C
:1010B000FFFFFFFFFFFFFFFF4E4A89000600FFFF13
:1010C000FFFFFFFFFFFFFFFFFFFFAE528800A900F9
:1010D000AC29FFFFFFFF0500C9002800EA41DEFF41
:1010E000FFFFFFFFFFFFFFFFBEFF4A218800C9008F
:1010F0000600FFFFFFFFF27B48004800137CFFFF64
:10110000FFFFFFFFFFFFFFFFFFFFFFFF0600EA08F3
:10111000070057ADFFFFFFFFFFFF8908C900480028
:101120001384FFFFFFFFFFFF59CE0300A900A900B2
:101130000500FFFFFFFFFFFFFFFFFFFF1CE70400AD
:10114000890089000300FBDEFFFFDFFF0400E908E0
:101150006800EC39FFFFFFFFFFFFFFFFFFFFFFFF0E
:101160002F630600E908C90807001AC6FFFFFFFF42
:10117000FFFFFFFFFFFFFFFFFFFFFFFFFFFFFFFF7F
:10118000FFFFFFFFFFFFFFFFFFFFFFFFFFFFFFFF6F
:10119000FFFFFFFFFFFFFFFFFFFFFFFFFFFFFFFF5F
:1011A000FFFFFFFFFFFFFFFFFFFFFFFFFFFFFFFF4F
:1011B0009A4D1C76BD453B355B357C357D8E1C6E6E
:1011C000FFFF5D7E7E8E9B4D5C2D3B2DFD5D5D7E2C
:1011D000FEB6FDAE3D7E7D8E3C255C353B257E8E8C
:1011E000392DBFEFFFFFFFFF5D86DB0C7C35FC1464
:1011F0009C457D865D865D86DC5D1C255C2D5C2DB9
:10120000DB14FFF7FFFFFFFFFFFF1D7E1B2D3C35AB
:101210005C353B355C2D7D8EFFFFFFFFFFFFFFFF41
:1012200076AD0600C9004800E9109273F59C716B19
:10123000AE4A06008900A900C900C9080600FFFFE0
:10124000FFFFFFFF0F5B0600EA082700E910B273FB
:10125000916B716B47008900C908C9086800138445
:10126000FFFFFFFF08196800CA084700C808B273EB
:10127000916BD273CC310600C900C900C9080700C0
:1012800057ADFFFFAB29A9006800AF52FFFFFFFF7A
:10129000FFFFFFFFFFFFFFFF4E4289000600FFFF39
:1012A000FFFFFFFFFFFFFFFFFFFFAE528800A90017
:1012B000AC31FFFFFFFF97B54600A900890027006A
:1012C000105B926BB2738B290500A90089000600A0
:1012D000F8BDFFFFFFFFF28348006800137CFFFFAB
:1012E000FFFFFFFFFFFFFFFFFFFFFFFF0600E9001B
:1012F000070057ADFFFFFFFFFFFF8908C900480047
:101300001384FFFFFFFFFFFFFFFF9EF7A808890080
:10131000C9004700EB39B273B2738E4A2700C90087
:1013200068006A217DEFFFFFFFFFFFFF1CE705005C
:10133000A9006800C9102D42B273B2734D42060075
:101340004800C900C908C90807001AC6FFFFFFFF07
:10135000FFFFFFFFFFFFFFFFFFFFFFFFFFFFFFFF9D
:10136000FFFFFFFFFFFFFFFFFFFFFFFFFFFFFFFF8D
:10137000FFFFFFFFFFFFFFFFFFFFFFFFFFFFFFFF7D
:10138000FFFFFFFFFFFFFFFFFFFFFFFFFFFFFFFF6D
:10139000FC1C3D1D3C253C253C253C253C1D7A0480
:1013A000FFFFFB143C1D3C253C253C253C251C1522
:1013B0001D6E1C6EFB0C3C1D3C253C255C253C1D1C
:1013C000FD0C3ECFFFFFFFFFFFFF5D8EFB143C25B2
:1013D0003C253C253C253C253C253C25FC145C3D1E
:1013E000DFFFFFFFFFFFFFFFFFFFDEAEFC0C5C2D0A
:1013F0003B2D5C2DDB0C7E8EFFFFFFFFFFFFFFFF11
:10140000FFFF39C6060007004800480007004800F3
:10141000680048000600AB29070048000400FFFFF1
:10142000FFFFFFFFFFFF77AD0400480048004800C2
:101430004700480068002700070048000700B27313
:10144000FFFF9EF7FFFFF1620700280048004800F9
:1014500048004800480028004800CA08C9000700A2
:1014600036A5FFFF2921070007004E42FFFFFFFFBF
:10147000FFFFFFFFFFFFFFFFEC3907000400FFFF46
:10148000FFFFFFFFFFFFFFFFFFFF4D4207000700C9
:101490002A21FFFFFFFFFFFFFFFF66000700480054
:1014A000480048004800680048000600E8185DEF62
:1014B000FFFFFFFFFFFFB17306000600B273FFFFDF
:1014C000FFFFFFFFFFFFFFFFFFFFFFFF04004800DC
:1014D000050016A5FFFFFFFFFFFF0800280006001C
:1014E000B273FFFFFFFFFFFFFFFFFFFFFFFFC8100B
:1014F000060048006900480048004800280006002F
:10150000C810FFFFFFFFFFFFFFFFFFFFFFFFBFFF51
:101510006A21070068006800480048004800480049
:1015200006008800270048000500F9BDFFFFFFFF07
:10153000FFFFFFFFFFFFFFFFFFFFFFFFFFFFFFFFBB
:10154000FFFFFFFFFFFFFFFFFFFFFFFFFFFFFFFFAB
:10155000FFFFFFFFFFFFFFFFFFFFFFFFFFFFFFFF9B
:10156000FFFFFFFFFFFFFFFFFFFFFFFFFFFFFFFF8B
:10157000BEA6DE9EBE9EDEA6BEA6BE9EBEA67D9674
:10158000FFFFBD9EBE9EBEA6BE9EBE9EBEA6BE9ECA
:101590003EC73EC7BE9EBEA6BE9EBE9EBE9EBEA609
:1015A000BE96BFEFFFFFFFFFFFFFFFFFFFFFDEAEB7
:1015B0007D8E9C45BC4D9C4D1C6E9E9EDFF7FFFFB3
:1015C000FFFFFFFFFFFFFFFFFFFFFFFF1EAF9C4579
:1015D000BC4DDC5D3ECFFFFFFFFFFFFFFFFFFFFFC6
:1015E000FFFFFFFFDFFF97B530638B29CC31CC3194
:1015F0008A29B594FCE6FFFF538C95943384FFFF52
:10160000FFFFFFFFFFFFFFFFDEFF958C3063AC297C
:10161000CC31AC31AE5297B53BC6748C748C5ACE7B
:10162000FFFF040006000700506BB8B5916B8B29D3
:10163000CC31AC314F429494FFFF6B29A9000600D6
:101640003FEFFFFF36A5958C758CB8B5FFFFFFFF08
:10165000FFFFFFFFFFFFFFFF77AD758C748CFFFF6F
:10166000FFFFFFFFFFFFFFFFFFFFB7B5758C958CF6
:1016700036A5FFFFFFFFFFFFFFFFFFFF97B5548475
:101680008B29CC31CC318D29748C3CEFFFFFFFFFCF
:10169000FFFFFFFFFFFF59CE748C748C5ACEFFFF03
:1016A000FFFFFFFFFFFFFFFFFFFFFFFF3684959463
:1016B0005484DCDEFFFFFFFFFFFFB8949594748C29
:1016C00059CEFFFFFFFFFFFFFFFFFFFFFFFFFFFF01
:1016D000BAD634848B29CC31CC318A29B594FCE636
:1016E000FFFFFFFFFFFFFFFFFFFFFFFFFFFFFFFF0A
:1016F000FFFF37A5CF52AB29CC31AC31EC39B494D4
:101700007ACEFFFF548C9594558C3FE7FFFFFFFF87
:10171000FFFFFFFFFFFFFFFFFFFFFFFFFFFFFFFFD9
:10172000FFFFFFFFFFFFFFFFFFFFFFFFFFFFFFFFC9
:10173000FFFFFFFFFFFFFFFFFFFFFFFFFFFFFFFFB9
:10174000FFFFFFFFFFFFFFFFFFFFFFFFFFFFFFFFA9
:10175000FFFFFFFFFFFFFFFFFFFFFFFFFFFFFFFF99
:10176000FFFFFFFFFFFFFFFFFFFFFFFFFFFFFFFF89
:10177000FFFFFFFFFFFFFFFFFFFFFFFFFFFFFFFF79
:10178000FFFFFFFFFFFFFFFFFFFFFFFFFFFFFFFF69
:10179000FFFFFFFFFFFFFFFFFFFFFFFFFFFFFFFF59
:1017A000FFFFFFFFFFFFFFFFFFFFFFFFFFFFFFFF49
:1017B000FFFFFFFFFFFFFFFFFFFFFFFFFFFFFFFF39
:1017C000FFFFFFFFFFFFFFFFFFFFFFFFFFFFFFFF29
:1017D000FFFFFFFFFFFFFFFFFFFFFFFFFFFFFFFF19
:1017E000FFFFFFFFFFFFFFFFFFFFFFFFFFFFFFFF09
:1017F000FFFFFFFFFFFFFFFFFFFFFFFFFFFFFFFFF9
:10180000FFFF738C0700EA08060039CEFFFFFFFFD9
:10181000FFFFFFFFFFFFFFFFB1732700C900E910C3
:10182000FFFFFFFFFFFFFFFFFFFFFFFFFFFFFFFFC8
:10183000FFFFFFFFFFFFFFFFFFFFFFFFFFFFFFFFB8
:10184000FFFFFFFFFFFFFFFFFFFFFFFFFFFFFFFFA8
:10185000FFFFFFFFFFFFFFFFFFFFFFFFFFFFFFFF98
:10186000FFFFFFFFFFFFFFFFFFFFFFFFFFFFFFFF88
:10187000FFFFFFFFFFFFFFFFFFFFFFFFFFFFFFFF78
:10188000FFFFFFFFFFFFFFFFFFFFFFFFFFFFFFFF68
:10189000FFFFFFFFFFFFFFFFFFFFFFFFFFFFFFFF58
:1018A000FFFFFFFFFFFFFFFFFFFFFFFFFFFFFFFF48
:1018B000FFFFFFFFFFFFFFFFFFFFFFFFFFFFFFFF38
:1018C000FFFFFFFFFFFFFFFFFFFFFFFFFFFFFFFF28
:1018D000FFFFFFFFFFFFFFFFFFFFFFFFFFFFFFFF18
:1018E000FFFFFFFFFFFFFFFFFFFFFFFFFFFFFFFF08
:1018F000FFFFFFFFFFFFFFFFFFFFFFFFFFFFFFFFF8
:10190000FFFFFFFFFFFFFFFFFFFFFFFFFFFFFFFFE7
:10191000FFFFFFFFFFFFFFFFFFFFFFFFFFFFFFFFD7
:10192000FFFFFFFFFFFFFFFFFFFFFFFFFFFFFFFFC7
:10193000FFFFFFFFFFFFFFFFFFFFFFFFFFFFFFFFB7
:10194000FFFFFFFFFFFFFFFFFFFFFFFFFFFFFFFFA7
:10195000FFFFFFFFFFFFFFFFFFFFFFFFFFFFFFFF97
:10196000FFFFFFFFFFFFFFFFFFFFFFFFFFFFFFFF87
:10197000FFFFFFFFFFFFFFFFFFFFFFFFFFFFFFFF77
:10198000FFFFFFFFFFFFFFFFFFFFFFFFFFFFFFFF67
:10199000FFFFFFFFFFFFFFFFFFFFFFFFFFFFFFFF57
:1019A000FFFFFFFFFFFFFFFFFFFFFFFFFFFFFFFF47
:1019B000FFFFFFFFFFFFFFFFFFFFFFFFFFFFFFFF37
:1019C000FFFFFFFFFFFFFFFFFFFFFFFFFFFFFFFF27
:1019D000FFFFFFFFFFFFFFFFFFFFFFFFFFFFFFFF17
:1019E000FFFFFFFFA7104800A9002700C808B27337
:1019F000736B926BF05A88002800A9000600506BA8
:101A0000FFFFFFFFFFFFFFFFFFFFFFFFFFFFFFFFE6
:101A1000FFFFFFFFFFFFFFFFFFFFFFFFFFFFFFFFD6
:101A2000FFFFFFFFFFFFFFFFFFFFFFFFFFFFFFFFC6
:101A3000FFFFFFFFFFFFFFFFFFFFFFFFFFFFFFFFB6
:101A4000FFFFFFFFFFFFFFFFFFFFFFFFFFFFFFFFA6
:101A5000FFFFFFFFFFFFFFFFFFFFFFFFFFFFFFFF96
:101A6000FFFFFFFFFFFFFFFFFFFFFFFFFFFFFFFF86
:101A7000FFFFFFFFFFFFFFFFFFFFFFFFFFFFFFFF76
:101A8000FFFFFFFFFFFFFFFFFFFFFFFFFFFFFFFF66
:101A9000FFFFFFFFFFFFFFFFFFFFFFFFFFFFFFFF56
:101AA000FFFFFFFFFFFFFFFFFFFFFFFFFFFFFFFF46
:101AB000FFFFFFFFFFFFFFFFFFFFFFFFFFFFFFFF36
:101AC000FFFFFFFFFFFFFFFFFFFFFFFFFFFFFFFF26
:101AD000FFFFFFFFFFFFFFFFFFFFFFFFFFFFFFFF16
:101AE000FFFFFFFFFFFFFFFFFFFFFFFFFFFFFFFF06
:101AF000FFFFFFFFFFFFFFFFFFFFFFFFFFFFFFFFF6
:101B0000FFFFFFFFFFFFFFFFFFFFFFFFFFFFFFFFE5
:101B1000FFFFFFFFFFFFFFFFFFFFFFFFFFFFFFFFD5
:101B2000FFFFFFFFFFFFFFFFFFFFFFFFFFFFFFFFC5
:101B3000FFFFFFFFFFFFFFFFFFFFFFFFFFFFFFFFB5
:101B4000FFFFFFFFFFFFFFFFFFFFFFFFFFFFFFFFA5
:101B5000FFFFFFFFFFFFFFFFFFFFFFFFFFFFFFFF95
:101B6000FFFFFFFFFFFFFFFFFFFFFFFFFFFFFFFF85
:101B7000FFFFFFFFFFFFFFFFFFFFFFFFFFFFFFFF75
:101B8000FFFFFFFFFFFFFFFFFFFFFFFFFFFFFFFF65
:101B9000FFFFFFFFFFFFFFFFFFFFFFFFFFFFFFFF55
:101BA000FFFFFFFFFFFFFFFFFFFFFFFFFFFFFFFF45
:101BB000FFFFFFFFFFFFFFFFFFFFFFFFFFFFFFFF35
:101BC000FFFFFFFF5DEF10638B2906000700070092
:101BD000060007000700070006006E4A506BFFFF73
:101BE000FFFFFFFFFFFFFFFFFFFFFFFFFFFFFFFF05
:101BF000FFFFFFFFFFFFFFFFFFFFFFFFFFFFFFFFF5
:101C0000FFFFFFFFFFFFFFFFFFFFFFFFFFFFFFFFE4
:101C1000FFFFFFFFFFFFFFFFFFFFFFFFFFFFFFFFD4
:101C2000FFFFFFFFFFFFFFFFFFFFFFFFFFFFFFFFC4
:101C3000FFFFFFFFFFFFFFFFFFFFFFFFFFFFFFFFB4
:101C4000FFFFFFFFFFFFFFFFFFFFFFFFFFFFFFFFA4
:101C5000FFFFFFFFFFFFFFFFFFFFFFFFFFFFFFFF94
:101C6000FFFFFFFFFFFFFFFFFFFFFFFFFFFFFFFF84
:101C7000FFFFFFFFFFFFFFFFFFFFFFFFFFFFFFFF74
:101C8000FFFFFFFFFFFFFFFFFFFFFFFFFFFFFFFF64
:101C9000FFFFFFFFFFFFFFFFFFFFFFFFFFFFFFFF54
:101CA000FFFFFFFFFFFFFFFFFFFFFFFFFFFFFFFF44
:101CB000FFFFFFFFFFFFFFFFFFFFFFFFFFFFFFFF34
:101CC000FFFFFFFFFFFFFFFFFFFFFFFFFFFFFFFF24
:101CD000FFFFFFFFFFFFFFFFFFFFFFFFFFFFFFFF14
:101CE000FFFFFFFFFFFFFFFFFFFFFFFFFFFFFFFF04
:101CF000FFFFFFFFFFFFFFFFFFFFFFFFFFFFFFFFF4
:101D0000FFFFFFFFFFFFFFFFFFFFFFFFFFFFFFFFE3
:101D1000FFFFFFFFFFFFFFFFFFFFFFFFFFFFFFFFD3
:101D2000FFFFFFFFFFFFFFFFFFFFFFFFFFFFFFFFC3
:101D3000FFFFFFFFFFFFFFFFFFFFFFFFFFFFFFFFB3
:101D4000FFFFFFFFFFFFFFFFFFFFFFFFFFFFFFFFA3
:101D5000FFFFFFFFFFFFFFFFFFFFFFFFFFFFFFFF93
:101D6000FFFFFFFFFFFFFFFFFFFFFFFFFFFFFFFF83
:101D7000FFFFFFFFFFFFFFFFFFFFFFFFFFFFFFFF73
:101D8000FFFFFFFFFFFFFFFFFFFFFFFFFFFFFFFF63
:101D9000FFFFFFFFFFFFFFFFFFFFFFFFFFFFFFFF53
:101DA000FFFFFFFFFFFFFFFFFFFF9EF73ACE3484E8
:101DB000748C748C548CB594FFFFFFFFFFFFFFFF02
:101DC000FFFFFFFFFFFFFFFFFFFFFFFFFFFFFFFF23
:101DD000FFFFFFFFFFFFFFFFFFFFFFFFFFFFFFFF13
:101DE000FFFFFFFFFFFFFFFFFFFFFFFFFFFFFFFF03
:101DF000FFFFFFFFFFFFFFFFFFFFFFFFFFFFFFFFF3
:102450000000000000000000010203040607080954
:08246000BCDDFE7F010000005D
:04246800D101000896
:04246C00AD010008B6
:0C24700010000000010000000024F40037
:0400000508002FCDF3
:00000001FF
