:020000040800F2
:100000000000032005290008412700084F270008A9
:10001000552700085B270008612700080000000042
:10002000000000000000000000000000672700083A
:1000300075270008000000008327000891270008AA
:100040005529000855290008552900085529000898
:100050005529000855290008552900085529000888
:100060005529000855290008552900085529000878
:100070005529000855290008552900085529000868
:100080005529000855290008552900085529000858
:100090005529000855290008552900085529000848
:1000A0005529000855290008552900085529000838
:1000B0005529000855290008552900085529000828
:1000C0005529000855290008552900085529000818
:1000D0005529000855290008552900085529000808
:1000E00055290008552900085529000855290008F8
:1000F00055290008552900085529000855290008E8
:1001000055290008552900085529000855290008D7
:1001100055290008552900085529000855290008C7
:1001200055290008552900085529000855290008B7
:1001300055290008552900085529000855290008A7
:100140005529000855290008552900085529000897
:100150005529000855290008552900085529000887
:100160005529000855290008552900085529000877
:1001700055290008552900085529000800000000ED
:100180005529000855290008552900085529000857
:100190005529000855290008552900085529000847
:0C01A000552900085529000855290008C1
:1001AC0010B5054C237833B9044B13B10448AFF3A5
:1001BC0000800123237010BD70000020000000009F
:1001CC008C32000808B5034B1BB103490348AFF34D
:1001DC00008008BD00000000740000208C32000874
:1001EC0053B94AB9002908BF00281CBF4FF0FF3192
:1001FC004FF0FF3000F072B9ADF1080C6DE904CE90
:10020C0000F006F8DDF804E0DDE9022304B07047E5
:10021C002DE9F047089E04468846002B4BD18A42B4
:10022C00154667D9B2FA82F24AB1C2F1200701FA37
:10023C0002F320FA07F7954047EA030894404FEA87
:10024C00154E230CB8FBFEF71FFA85FC0EFB178826
:10025C0043EA084307FB0CF1994209D9EB1807F163
:10026C00FF3080F01B81994240F21881023F2B44F1
:10027C005B1AA4B2B3FBFEF00EFB103344EA03444A
:10028C0000FB0CFCA44509D92C1900F1FF3380F0BC
:10029C000781A44540F2048102382C4440EA07400F
:1002AC00A4EB0C0400271EB1D4400023C6E9004384
:1002BC003946BDE8F0878B4209D9002E00F0EB805F
:1002CC000027C6E9000138463946BDE8F087B3FA85
:1002DC0083F7002F47D18B4202D3824200F2FA807F
:1002EC00841A61EB030301209846002EE0D0C6E986
:1002FC000048DDE702B9FFDEB2FA82F2002A40F0D4
:10030C008F80491B4FEA154E1FFA85F80127B1FB68
:10031C00FEFC230C0EFB1C1143EA014308FB0CF101
:10032C00994207D9EB180CF1FF3002D2994200F236
:10033C00CD808446591AA3B2B1FBFEF00EFB10140B
:10034C0043EA044408FB00F8A04507D92C1900F136
:10035C00FF3302D2A04500F2B6801846A4EB080485
:10036C0040EA0C409FE7C7F1200CBB4022FA0CFE80
:10037C004EEA030E01FA07F420FA0CF521FA0CF3FD
:10038C004FEA1E482543B3FBF8F92C0C08FB193334
:10039C001FFA8EFA44EA034309FB0AF49C4202FA60
:1003AC0007F200FA07F10BD91EEB030309F1FF303A
:1003BC0080F087809C4240F28480A9F1020973444A
:1003CC001B1BADB2B3FBF8F008FB103345EA03443A
:1003DC0000FB0AFAA24508D91EEB040400F1FF3316
:1003EC006BD2A24569D90238744440EA0940A0FB9B
:1003FC000289A4EB0A044C45C2464B4654D351D057
:10040C00002E69D0B1EB0A0564EB030404FA0CFC72
:10041C00FD40FC404CEA0505C6E90054002747E7BF
:10042C00C2F1200320FA03F7954001FA02F021FAF9
:10043C0003F34FEA154E3843010CB3FBFEF71FFADA
:10044C0085F80EFB173341EA034107FB08F38B4297
:10045C0004FA02F407D9691807F1FF3C2FD28B423A
:10046C002DD9023F2944CB1A81B2B3FBFEF00EFB0F
:10047C00103341EA034100FB08F38B4207D969189A
:10048C0000F1FF3C17D28B4215D902382944C91A06
:10049C0040EA07473BE73746304609E70746E7E6B9
:1004AC001846FBE64145ABD2B8EB020A69EB0E02EB
:1004BC0001381346A4E76046E9E7184695E7674616
:1004CC00D1E781467CE702382C4447E7ACF1020CBB
:1004DC002B442FE7384608E73746E9E6704700BF5C
:1004EC0080B500AF0E4B1B680D4A43F400731360CC
:1004FC000B4B1B680A4A43F480631360084B1B6860
:10050C00074A43F480731360032000F02FF9002096
:10051C0000F008F802F0E6F80023184680BD00BF92
:10052C00003C024080B582B000AF7860124B1A6874
:10053C00124B1B7819464FF47A73B3FBF1F3B2FBF1
:10054C00F3F3184600F039F90346002B01D00123D0
:10055C000EE07B680F2B0AD8002279684FF0FF3031
:10056C0000F00FF9064A7B681360002300E00123BA
:10057C0018460837BD4680BD080000200400002046
:10058C000000002080B400AF064B1B781A46064BC7
:10059C001B681344044A136000BFBD465DF8047B1E
:1005AC00704700BF040000209800002080B400AF0A
:1005BC00034B1B681846BD465DF8047B704700BFB3
:1005CC009800002080B584B000AF7860FFF7EEFF94
:1005DC00B8607B68FB60FB68B3F1FF3F05D0094B4B
:1005EC001B781A46FB681344FB6000BFFFF7DEFF65
:1005FC000246BB68D31AFA689A42F7D800BF103784
:10060C00BD4680BD0400002080B485B000AF78608A
:10061C007B6803F00703FB600C4BDB68BB60BA68BC
:10062C004FF6FF031340BB60FB681A02BB68134311
:10063C0043F0BF6343F40033BB60044ABB68D36030
:10064C0000BF1437BD465DF8047B704700ED00E039
:10065C0080B400AF044BDB681B0A03F00703184699
:10066C00BD465DF8047B704700ED00E080B483B0BC
:10067C0000AF03463960FB7197F90730002B0ADB9A
:10068C003B68DAB20C4997F907301201D2B20B442D
:10069C0083F800230AE03B68DAB20849FB7903F0DF
:1006AC000F03043B1201D2B20B441A7600BF0C3775
:1006BC00BD465DF8047B704700E100E000ED00E012
:1006CC0080B489B000AFF860B9607A60FB6803F061
:1006DC000703FB61FB69C3F10703042B28BF042349
:1006EC00BB61FB690433062B02D9FB69033B00E0B9
:1006FC0000237B614FF0FF32BB6902FA03F3DA434C
:10070C00BB681A407B699A404FF0FF317B6901FA54
:10071C0003F3D9437B680B40134318462437BD467B
:10072C005DF8047B7047000080B582B000AF786044
:10073C007B68013BB3F1807F01D301230FE00A4AB0
:10074C007B68013B53600F214FF0FF30FFF78EFFAA
:10075C00054B00229A60044B07221A6000231846AE
:10076C000837BD4680BD00BF10E000E080B582B008
:10077C0000AF78607868FFF747FF00BF0837BD46C9
:10078C0080BD80B586B000AF0346B9607A60FB735C
:10079C0000237B61FFF75CFF78617A68B968786940
:1007AC00FFF78EFF024697F90F3011461846FFF7F8
:1007BC005DFF00BF1837BD4680BD80B582B000AF6D
:1007CC0078607868FFF7B0FF034618460837BD46D7
:1007DC0080BD000080B489B000AF78603960002320
:1007EC007B6100233B610023BB610023FB6177E14C
:1007FC000122FB6902FA03F37B613B681B687A698F
:10080C0013403B613A697B699A4240F066813B68D0
:10081C005B68022B03D03B685B68122B23D1FB690E
:10082C00DA087B68083253F82230BB61FB6903F0AD
:10083C0007039B000F2202FA03F3DB43BA69134050
:10084C00BB613B681A69FB6903F007039B0002FA62
:10085C0003F3BA691343BB61FB69DA087B6808329E
:10086C00B96943F822107B681B68BB61FB695B00AC
:10087C00032202FA03F3DB43BA691340BB613B6802
:10088C005B6803F00302FB695B0002FA03F3BA69CD
:10089C001343BB617B68BA691A603B685B68012BC8
:1008AC000BD03B685B68022B07D03B685B68112B55
:1008BC0003D03B685B68122B30D17B689B68BB61B3
:1008CC00FB695B00032202FA03F3DB43BA691340B2
:1008DC00BB613B68DA68FB695B0002FA03F3BA6937
:1008EC001343BB617B68BA699A607B685B68BB61C8
:1008FC000122FB6902FA03F3DB43BA691340BB61C3
:10090C003B685B681B0903F00102FB6902FA03F305
:10091C00BA691343BB617B68BA695A607B68DB6850
:10092C00BB61FB695B00032202FA03F3DB43BA6988
:10093C001340BB613B689A68FB695B0002FA03F3E6
:10094C00BA691343BB617B68BA69DA603B685B6860
:10095C0003F08053002B00F0C0800023FB60654B3C
:10096C005B6C644A43F480435364624B5B6C03F4EA
:10097C008043FB60FB68604AFB699B08023352F8BA
:10098C002330BB61FB6903F003039B000F2202FAC7
:10099C0003F3DB43BA691340BB617B68574A93424C
:1009AC0037D07B68564A934231D07B68554A934284
:1009BC002BD07B68544A934225D07B68534A934290
:1009CC001FD07B68524A934219D07B68514A93429C
:1009DC0013D07B68504A93420DD07B684F4A9342A8
:1009EC0007D07B684E4A934201D1092312E00A23B7
:1009FC0010E008230EE007230CE006230AE0052391
:100A0C0008E0042306E0032304E0022302E00123B0
:100A1C0000E00023FA6902F0030292009340BA69E5
:100A2C001343BB613449FB699B080233BA6941F833
:100A3C0023203C4B1B68BB613B69DB43BA69134009
:100A4C00BB613B685B6803F48033002B03D0BA694D
:100A5C003B691343BB61334ABB691360314B5B6821
:100A6C00BB613B69DB43BA691340BB613B685B68A4
:100A7C0003F40033002B03D0BA693B691343BB6109
:100A8C00284ABB695360274B9B68BB613B69DB43BE
:100A9C00BA691340BB613B685B6803F48013002B9D
:100AAC0003D0BA693B691343BB611E4ABB699360AF
:100ABC001C4BDB68BB613B69DB43BA691340BB6110
:100ACC003B685B6803F40013002B03D0BA693B69E5
:100ADC001343BB61134ABB69D360FB690133FB61F0
:100AEC00FB690F2B7FF684AE00BF2437BD465DF843
:100AFC00047B70470038024000380140000002407F
:100B0C000004024000080240000C024000100240A9
:100B1C000014024000180240001C02400020024059
:100B2C0000240240003C014080B584B000AF7860E6
:100B3C007B68002B01D101230FE17B6893F83D30DA
:100B4C00DBB2002B06D17B68002283F83C2078684E
:100B5C0001F084FC7B68242283F83D207B681B68B1
:100B6C001A687B681B6822F001021A6001F0DEFB38
:100B7C00F8607B685B687B4A934207D8FB687A4ACB
:100B8C00934294BF01230023DBB206E0FB68774A53
:100B9C00934294BF01230023DBB2002B01D001232D
:100BAC00DBE0FB68724AA2FB03239B0CBB607B68F7
:100BBC001B685B6823F03F017B681B68BA680A43BB
:100BCC005A607B681B681B6A23F03F017B685B687B
:100BDC00644A934202D8BB68013309E0BB684FF406
:100BEC00967202FB03F3634AA2FB03239B090133B6
:100BFC007A6812680B4313627B681B68DB6923F409
:100C0C004F4222F0FF027B685B6856498B420DD83D
:100C1C00FB68591E7B685B685B00B1FBF3F3013327
:100C2C00C3F30B03042B38BF04234FE07B689B6892
:100C3C00002B11D1FB68581E7B6859680B465B0072
:100C4C000B44B0FBF3F30133C3F30B03002B0CBFCA
:100C5C0001230023DBB212E0FB68581E7B68596845
:100C6C000B469B000B4499000B44B0FBF3F3013390
:100C7C00C3F30B03002B0CBF01230023DBB2002BAF
:100C8C0001D0012322E07B689B68002B0ED1FB680E
:100C9C00581E7B6859680B465B000B44B0FBF3F3A2
:100CAC000133C3F30B0343F400430FE0FB68581EFE
:100CBC007B6859680B469B000B4499000B44B0FBB6
:100CCC00F3F30133C3F30B0343F44043796809682E
:100CDC001343CB617B681B681B6823F0C0017B68E6
:100CEC00DA697B681B6A1A437B681B680A431A60C3
:100CFC007B681B689B6823F4034323F0FF037A682B
:100D0C0011697A68D26811437A6812680B43936050
:100D1C007B681B68DB6823F0FF017B685A697B6882
:100D2C009B691A437B681B680A43DA607B681B6803
:100D3C001A687B681B6842F001021A607B6800220B
:100D4C001A647B68202283F83D207B6800221A639A
:100D5C007B68002283F83E20002318461037BD46DE
:100D6C0080BD00BFA08601007F841E00FF083D00EF
:100D7C0083DE1B43D34D621080B588B002AFF860A0
:100D8C007A601A460B467B8113463B81FFF70EFCBB
:100D9C007861FB6893F83D30DBB2202B40F0E080AB
:100DAC007B690093192301227049F86800F034FC28
:100DBC000346002B01D00223D3E0FB6893F83C30B0
:100DCC00012B01D10223CCE0FB68012283F83C20EB
:100DDC00FB681B681B6803F00103012B07D0FB6841
:100DEC001B681A68FB681B6842F001021A60FB68FA
:100DFC001B681A68FB681B6822F400621A60FB68A7
:100E0C00212283F83D20FB68102283F83E20FB68EA
:100E1C0000221A64FB687A685A62FB683A895A8520
:100E2C00FB685B8D9AB2FB681A85FB68504ADA62E4
:100E3C0079897B693A6AF86800F0C2FA0346002B9C
:100E4C0001D001238DE000233B61FB681B685B69CB
:100E5C003B61FB681B689B693B613B6966E07A6997
:100E6C00396AF86800F0AEFC0346002B0DD0FB6825
:100E7C001B6C042B07D1FB681B681A68FB681B688A
:100E8C0042F400721A6001236BE0FB685B6A1A780B
:100E9C00FB681B681A61FB685B6A5A1CFB685A6228
:100EAC00FB685B8D9BB2013B9AB2FB685A85FB6871
:100EBC001B8D013B9AB2FB681A85FB681B685B694A
:100ECC0003F00403042B1BD1FB681B8D002B17D0E4
:100EDC00FB685B6A1A78FB681B681A61FB685B6AC3
:100EEC005A1CFB685A62FB685B8D9BB2013B9AB241
:100EFC00FB685A85FB681B8D013B9AB2FB681A850F
:100F0C007A69396AF86800F09EFC0346002B0DD014
:100F1C00FB681B6C042B07D1FB681B681A68FB6809
:100F2C001B6842F400721A6001231AE0FB681B8DE7
:100F3C00002B94D1FB681B681A68FB681B6842F491
:100F4C0000721A60FB68202283F83D20FB680022A7
:100F5C0083F83E20FB68002283F83C20002300E04D
:100F6C00022318461837BD4680BD00BF0200100092
:100F7C000000FFFF80B58CB002AFF8607A601A46B3
:100F8C000B467B8113463B81FFF710FB7862FB68B5
:100F9C0093F83D30DBB2202B40F00B827B6A009340
:100FAC00192301227C49F86800F036FB0346002B1C
:100FBC0001D00223FEE1FB6893F83C30012B01D1F8
:100FCC000223F7E1FB68012283F83C20FB681B68D5
:100FDC001B6803F00103012B07D0FB681B681A6820
:100FEC00FB681B6842F001021A60FB681B681A68F8
:100FFC00FB681B6822F400621A60FB68222283F8EB
:10100C003D20FB68102283F83E20FB6800221A6406
:10101C00FB687A685A62FB683A895A85FB685B8D73
:10102C009AB2FB681A85FB685C4ADA6279897B6A3A
:10103C003A6BF86800F03AFA0346002B01D0012312
:10104C00B8E1FB681B8D002B13D100233B62FB68BE
:10105C001B685B693B62FB681B689B693B623B6A74
:10106C00FB681B681A68FB681B6842F400721A6004
:10107C008CE1FB681B8D012B1BD1FB681B681A686C
:10108C00FB681B6822F480621A600023FB61FB681A
:10109C001B685B69FB61FB681B689B69FB61FB69F7
:1010AC00FB681B681A68FB681B6842F400721A60C4
:1010BC006CE1FB681B8D022B1BD1FB681B681A684B
:1010CC00FB681B6822F480621A60FB681B681A6854
:1010DC00FB681B6842F400621A600023BB61FB686A
:1010EC001B685B69BB61FB681B689B69BB61BB6967
:1010FC004CE1FB681B681A68FB681B6842F4806251
:10110C001A6000237B61FB681B685B697B61FB6871
:10111C001B689B697B617B6938E1FB681B8D032B2A
:10112C0000F2F180FB681B8D012B23D17A6A396B9D
:10113C00F86800F0C9FB0346002B01D0012339E10C
:10114C00FB681B681A69FB685B6AD2B21A70FB6891
:10115C005B6A5A1CFB685A62FB681B8D013B9AB296
:10116C00FB681A85FB685B8D9BB2013B9AB2FB68EE
:10117C005A850BE1FB681B8D022B4ED17B6A0093C9
:10118C003B6B00220649F86800F046FA0346002B38
:10119C0008D001230EE100BF020010000000FFFF89
:1011AC0004000100FB681B681A68FB681B6842F4AA
:1011BC0000721A60FB681B681A69FB685B6AD2B222
:1011CC001A70FB685B6A5A1CFB685A62FB681B8DC1
:1011DC00013B9AB2FB681A85FB685B8D9BB2013BA5
:1011EC009AB2FB685A85FB681B681A69FB685B6AD4
:1011FC00D2B21A70FB685B6A5A1CFB685A62FB68B5
:10120C001B8D013B9AB2FB681A85FB685B8D9BB208
:10121C00013B9AB2FB685A85B8E07B6A00933B6B42
:10122C0000226649F86800F0F7F90346002B01D05C
:10123C000123BFE0FB681B681A68FB681B6822F47B
:10124C0080621A60FB681B681A69FB685B6AD2B221
:10125C001A70FB685B6A5A1CFB685A62FB681B8D30
:10126C00013B9AB2FB681A85FB685B8D9BB2013B14
:10127C009AB2FB685A857B6A00933B6B00224F49FC
:10128C00F86800F0C9F90346002B01D0012391E066
:10129C00FB681B681A68FB681B6842F400721A60D2
:1012AC00FB681B681A69FB685B6AD2B21A70FB6830
:1012BC005B6A5A1CFB685A62FB681B8D013B9AB235
:1012CC00FB681A85FB685B8D9BB2013B9AB2FB688D
:1012DC005A85FB681B681A69FB685B6AD2B21A7084
:1012EC00FB685B6A5A1CFB685A62FB681B8D013BEE
:1012FC009AB2FB681A85FB685B8D9BB2013B9AB274
:10130C00FB685A8542E07A6A396BF86800F0DCFABF
:10131C000346002B01D001234CE0FB681B681A69C3
:10132C00FB685B6AD2B21A70FB685B6A5A1CFB687A
:10133C005A62FB681B8D013B9AB2FB681A85FB68ED
:10134C005B8D9BB2013B9AB2FB685A85FB681B68AC
:10135C005B6903F00403042B18D1FB681B681A6942
:10136C00FB685B6AD2B21A70FB685B6A5A1CFB683A
:10137C005A62FB681B8D013B9AB2FB681A85FB68AD
:10138C005B8D9BB2013B9AB2FB685A85FB681B8D47
:10139C00002B7FF4C2AEFB68202283F83D20FB6853
:1013AC00002283F83E20FB68002283F83C200023B7
:1013BC0000E0022318462837BD4680BD040001001A
:1013CC0080B588B002AFF8607A603B600B467B81D9
:1013DC00FB68DB6A7B617B69082B06D07B69012B80
:1013EC0003D07B6913F5803F08D1FB681B681A6832
:1013FC00FB681B6842F480721A600BE0FB681B6B85
:10140C00122B07D1FB681B681A68FB681B6842F437
:10141C0080721A603B6800937B6800224FF00111C8
:10142C00F86800F0F9F80346002B01D0012335E0F1
:10143C00FB681B69B3F5804F08D17B89DBB21A4678
:10144C00FB681B6802F0FE021A611BE07B89DB1152
:10145C00DBB203F00603DBB263F00F03DAB2FB6816
:10146C001B681A613B687A680E49F86800F02BF922
:10147C000346002B01D0012310E07B89DAB2FB6814
:10148C001B681A613B687A680749F86800F01BF919
:10149C000346002B01D0012300E000231846183727
:1014AC00BD4680BD080001000200010080B588B077
:1014BC0002AFF8607A603B600B467B81FB68DB6AAD
:1014CC007B61FB681B681A68FB681B6842F48062CE
:1014DC001A607B69082B06D07B69012B03D07B69D2
:1014EC0013F5803F08D1FB681B681A68FB681B6802
:1014FC0042F480721A600BE0FB681B6B112B07D156
:10150C00FB681B681A68FB681B6842F480721A60DF
:10151C003B6800937B6800224FF00111F86800F0E3
:10152C007BF80346002B01D001236DE0FB681B699F
:10153C00B3F5804F08D17B89DBB243F00103DAB2FB
:10154C00FB681B681A6153E07B89DB11DBB203F08B
:10155C000603DBB263F00F03DAB2FB681B681A6197
:10156C003B687A682A49F86800F0ADF80346002B0E
:10157C0001D0012348E07B89DAB2FB681B681A6151
:10158C003B687A682349F86800F09DF80346002B05
:10159C0001D0012338E000233B61FB681B685B69C9
:1015AC003B61FB681B689B693B613B69FB681B6883
:1015BC001A68FB681B6842F480721A603B680093DF
:1015CC007B6800224FF00111F86800F025F8034603
:1015DC00002B01D0012317E07B89DB11DBB203F078
:1015EC000603DBB263F00E03DAB2FB681B681A6108
:1015FC003B687A680749F86800F065F80346002BE9
:10160C0001D0012300E0002318461837BD4680BDE9
:10161C00080001000200010080B584B000AFF86042
:10162C00B9603B601346FB7125E03B68B3F1FF3FAB
:10163C0021D0FEF7BBFF0246BB69D31A3A689A4227
:10164C0002D33B68002B16D1FB6800221A63FB689F
:10165C00202283F83D20FB68002283F83E20FB68A3
:10166C001B6C43F02002FB681A64FB68002283F8B1
:10167C003C20012323E0BB681B0CDBB2012B0DD1FA
:10168C00FB681B685B69DA43BB6813409BB2002B99
:10169C000CBF01230023DBB21A460CE0FB681B686D
:1016AC009B69DA43BB6813409BB2002B0CBF012330
:1016BC000023DBB21A46FB799A42B6D000231846B7
:1016CC001037BD4680BD80B584B000AFF860B960FE
:1016DC007A603B6051E0FB681B685B6903F48063D4
:1016EC00B3F5806F23D1FB681B681A68FB681B6815
:1016FC0042F400721A60FB681B686FF480625A61D6
:10170C00FB6800221A63FB68202283F83D20FB68EB
:10171C00002283F83E20FB681B6C43F00402FB683C
:10172C001A64FB68002283F83C20012346E07B68A6
:10173C00B3F1FF3F21D0FEF739FF02463B68D31AC5
:10174C007A689A4202D37B68002B16D1FB68002280
:10175C001A63FB68202283F83D20FB68002283F883
:10176C003E20FB681B6C43F02002FB681A64FB688C
:10177C00002283F83C20012320E0BB681B0CDBB269
:10178C00012B0CD1FB681B685B69DA43BB68134007
:10179C009BB2002B14BF01230023DBB20BE0FB68D0
:1017AC001B689B69DA43BB6813409BB2002B14BFC8
:1017BC0001230023DBB2002B8DD1002318461037F8
:1017CC00BD4680BD80B584B000AFF860B9607A606A
:1017DC002DE0F86800F0CEF80346002B01D0012371
:1017EC002DE0BB68B3F1FF3F21D0FEF7DFFE0246D0
:1017FC007B68D31ABA689A4202D3BB68002B16D105
:10180C00FB6800221A63FB68202283F83D20FB68EA
:10181C00002283F83E20FB681B6C43F02002FB681F
:10182C001A64FB68002283F83C20012307E0FB6864
:10183C001B685B6903F08003802BCAD10023184618
:10184C001037BD4680BD80B584B000AFF860B9607C
:10185C007A602DE0F86800F08DF80346002B01D07B
:10186C0001232DE0BB68B3F1FF3F21D0FEF79EFEB4
:10187C0002467B68D31ABA689A4202D3BB68002B23
:10188C0016D1FB6800221A63FB68202283F83D20E6
:10189C00FB68002283F83E20FB681B6C43F020029F
:1018AC00FB681A64FB68002283F83C20012307E0E4
:1018BC00FB681B685B6903F00403042BCAD100238B
:1018CC0018461037BD4680BD80B584B000AFF860B7
:1018DC00B9607A6042E0FB681B685B6903F0100337
:1018EC00102B19D1FB681B686FF010025A61FB6852
:1018FC0000221A63FB68202283F83D20FB6800223B
:10190C0083F83E20FB681A6CFB681A64FB680022A3
:10191C0083F83C20012329E0FEF748FE02467B6851
:10192C00D31ABA689A4202D3BB68002B16D1FB6853
:10193C0000221A63FB68202283F83D20FB680022FA
:10194C0083F83E20FB681B6C43F02002FB681A6492
:10195C00FB68002283F83C20012307E0FB681B682E
:10196C005B6903F04003402BB5D1002318461037B8
:10197C00BD4680BD80B483B000AF78607B681B68C7
:10198C005B6903F48063B3F5806F1BD17B681B68C4
:10199C006FF480625A617B6800221A637B68202294
:1019AC0083F83D207B68002283F83E207B681B6C0B
:1019BC0043F004027B681A647B68002283F83C20A5
:1019CC00012300E0002318460C37BD465DF8047B6C
:1019DC00704780B483B000AF786039607B6893F84F
:1019EC003D30DBB2202B29D17B68242283F83D20AB
:1019FC007B681B681A687B681B6822F001021A60FE
:101A0C007B681B685A6A7B681B6822F010025A625A
:101A1C007B681B68596A7B681B683A680A435A6280
:101A2C007B681B681A687B681B6842F001021A60AD
:101A3C007B68202283F83D20002300E00223184617
:101A4C000C37BD465DF8047B704780B485B000AFA1
:101A5C00786039600023FB817B6893F83D30DBB202
:101A6C00202B2AD17B68242283F83D207B681B68BD
:101A7C001A687B681B6822F001021A607B681B687D
:101A8C005B6AFB81FB8923F00F03FB813B689AB2F5
:101A9C00FB891343FB817B681B68FA895A627B685C
:101AAC001B681A687B681B6842F001021A607B682D
:101ABC00202283F83D20002300E00223184614372F
:101ACC00BD465DF8047B704780B582B000AF002343
:101ADC007B6000233B60204B1B6C1F4A43F0805300
:101AEC0013641D4B1B6C03F080533B603B681B4B1A
:101AFC0001221A60FEF75AFD786009E0FEF756FDE8
:101B0C0002467B68D31AB3F57A7F01D903231FE011
:101B1C00134B5B6803F48033B3F5803FEED1114B6C
:101B2C0001221A60FEF742FD786009E0FEF73EFDE7
:101B3C0002467B68D31AB3F57A7F01D9032307E0F9
:101B4C00074B5B6803F40033B3F5003FEED1002381
:101B5C0018460837BD4680BD0038024040000E4292
:101B6C000070004044000E4280B586B000AF786033
:101B7C007B68002B01D101232DE27B681B6803F0ED
:101B8C000103002B75D0A34B9B6803F00C03042BB3
:101B9C000CD0A04B9B6803F00C03082B12D19D4B6F
:101BAC005B6803F48003B3F5800F0BD1994B1B6872
:101BBC0003F40033002B5BD07B685B68002B57D1A0
:101BCC00012308E27B685B68B3F5803F06D1914B3B
:101BDC001B68904A43F4803313601DE07B685B689C
:101BEC00B3F5A02F0CD18B4B1B688A4A43F480238E
:101BFC001360884B1B68874A43F4803313600BE0F7
:101C0C00844B1B68834A23F480331360814B1B681D
:101C1C00804A23F4802313607B685B68002B13D00D
:101C2C00FEF7C4FC386108E0FEF7C0FC02463B69D5
:101C3C00D31A642B01D90323CDE1764B1B6803F433
:101C4C000033002BF0D014E0FEF7B0FC386108E054
:101C5C00FEF7ACFC02463B69D31A642B01D9032373
:101C6C00B9E16C4B1B6803F40033002BF0D100E09E
:101C7C0000BF7B681B6803F00203002B63D0654B2D
:101C8C009B6803F00C03002B0BD0624B9B6803F09A
:101C9C000C03082B1CD15F4B5B6803F48003002BF7
:101CAC0016D15C4B1B6803F00203002B05D07B683C
:101CBC00DB68012B01D001238DE1564B1B6823F00F
:101CCC00F8027B681B69DB00524913430B603AE056
:101CDC007B68DB68002B20D04F4B01221A60FEF78B
:101CEC0065FC386108E0FEF761FC02463B69D31ADB
:101CFC00022B01D903236EE1464B1B6803F0020350
:101D0C00002BF0D0434B1B6823F0F8027B681B6957
:101D1C00DB00404913430B6015E03F4B00221A6077
:101D2C00FEF744FC386108E0FEF740FC02463B69D4
:101D3C00D31A022B01D903234DE1364B1B6803F058
:101D4C000203002BF0D17B681B6803F00803002B07
:101D5C0030D07B685B69002B16D0304B01221A60A7
:101D6C00FEF724FC386108E0FEF720FC02463B69D4
:101D7C00D31A022B01D903232DE1264B5B6F03F001
:101D8C000203002BF0D015E0244B00221A60FEF762
:101D9C000DFC386108E0FEF709FC02463B69D31ADA
:101DAC00022B01D9032316E11A4B5B6F03F00203DC
:101DBC00002BF0D17B681B6803F00403002B00F0B0
:101DCC00A0800023FB75134B1B6C03F08053002B7E
:101DDC000FD10023FB600F4B1B6C0E4A43F080535A
:101DEC0013640C4B1B6C03F08053FB60FB680123EA
:101DFC00FB750B4B1B6803F48073002B21D1084B34
:101E0C001B68074A43F480731360FEF7CFFB3861FD
:101E1C0011E000BF0038024000004742800E4742EC
:101E2C0000700040FEF7C2FB02463B69D31A022B3E
:101E3C0001D90323CFE06A4B1B6803F48073002B9A
:101E4C00F0D07B689B68012B06D1664B1B6F654AF3
:101E5C0043F0010313671CE07B689B68052B0CD1D6
:101E6C00604B1B6F5F4A43F0040313675D4B1B6FA2
:101E7C005C4A43F0010313670BE05A4B1B6F594A42
:101E8C0023F001031367574B1B6F564A23F00403CF
:101E9C0013677B689B68002B15D0FEF787FB3861B6
:101EAC000AE0FEF783FB02463B69D31A41F2883203
:101EBC00934201D903238EE04A4B1B6F03F00203BC
:101ECC00002BEED014E0FEF771FB38610AE0FEF750
:101EDC006DFB02463B69D31A41F28832934201D919
:101EEC00032378E03F4B1B6F03F00203002BEED172
:101EFC00FB7D012B05D13B4B1B6C3A4A23F08053E5
:101F0C0013647B689B69002B64D0364B9B6803F091
:101F1C000C03082B5CD07B689B69022B41D1324BA4
:101F2C0000221A60FEF742FB386108E0FEF73EFB28
:101F3C0002463B69D31A022B01D903234BE0294BF0
:101F4C001B6803F00073002BF0D17B68DA697B68A7
:101F5C001B6A1A437B685B6A9B011A437B689B6A0A
:101F6C005B08013B1B041A437B68DB6A1B061D499B
:101F7C0013434B601C4B01221A60FEF717FB3861B0
:101F8C0008E0FEF713FB02463B69D31A022B01D97A
:101F9C00032320E0134B1B6803F00073002BF0D0DD
:101FAC0018E0114B00221A60FEF700FB386108E0C4
:101FBC00FEF7FCFA02463B69D31A022B01D9032324
:101FCC0009E0084B1B6803F00073002BF0D101E013
:101FDC00012300E0002318461837BD4680BD00BF22
:101FEC0000700040003802406000474280B584B069
:101FFC0000AF786039607B68002B01D10123CAE007
:10200C00674B1B6803F00F033A689A420CD9644B78
:10201C003A68D2B21A70624B1B6803F00F033A682D
:10202C009A4201D00123B6E07B681B6803F00203DF
:10203C00002B20D07B681B6803F00403002B05D019
:10204C00584B9B68574A43F4E05393607B681B687A
:10205C0003F00803002B05D0524B9B68514A43F404
:10206C00604393604F4B9B6823F0F0027B689B6846
:10207C004C4913438B607B681B6803F00103002BF6
:10208C0044D07B685B68012B07D1464B1B6803F47B
:10209C000033002B19D101237DE07B685B68022B98
:1020AC0003D07B685B68032B07D13E4B1B6803F0A6
:1020BC000073002B09D101236DE03A4B1B6803F030
:1020CC000203002B01D1012365E0364B9B6823F002
:1020DC0003027B685B68334913438B60FEF766FA37
:1020EC00F8600AE0FEF762FA0246FB68D31A41F286
:1020FC008832934201D903234DE02A4B9B6803F0AD
:10210C000C027B685B689B009A42EBD1244B1B68EA
:10211C0003F00F033A689A420CD2214B3A68D2B2C0
:10212C001A701F4B1B6803F00F033A689A4201D0D8
:10213C00012330E07B681B6803F00403002B08D0FC
:10214C00184B9B6823F4E0527B68DB6815491343FA
:10215C008B607B681B6803F00803002B09D0114BC4
:10216C009B6823F460427B681B69DB000D491343B9
:10217C008B6000F01DF801460A4B9B681B0903F0AD
:10218C000F03094AD35C21FA03F3084A13600020B9
:10219C00FEF7C8F9002318461037BD4680BD00BFB6
:1021AC00003C024000380240AC320008080000201D
:1021BC00F0B585B000AF00237B600023FB600023EB
:1021CC003B600023BB60504B9B6803F00C03042B5B
:1021DC0007D0082B08D0002B40F08D804B4BBB60F8
:1021EC008CE04B4BBB6089E0474B5B6803F03F03D3
:1021FC007B60454B5B6803F48003002B23D0424B80
:10220C005B689B094FF0000440F2FF114FF0000295
:10221C0003EA010504EA02063D4A02FB06F100222C
:10222C0002FB05F20A443A49A5FB01015318194671
:10223C007B684FF000041A462346FDF7D1FF034696
:10224C000C46FB6049E0304B5B689B094FF0000487
:10225C0040F2FF114FF0000203EA010504EA020606
:10226C00294632464FF000034FF00004540144EA73
:10227C00D1644B0119462246491B62EB06024FF012
:10228C0000034FF00004940144EA91648B015B1A43
:10229C0064EB02044FF000014FF00002E20042EA4E
:1022AC005372D9000B4614465B1944EB06044FF0ED
:1022BC0000014FF00002A20242EA935299020B462F
:1022CC001446184621467B684FF000041A462346F4
:1022DC00FDF786FF03460C46FB600B4B5B681B0C43
:1022EC0003F0030301335B003B60FA683B68B2FB0D
:1022FC00F3F3BB6002E0054BBB6000BFBB68184644
:10230C001437BD46F0BD00BF003802400024F40075
:10231C0040787D0180B400AF034B1B681846BD4666
:10232C005DF8047B704700BF0800002080B500AF4B
:10233C00FFF7F0FF0146054B9B689B0A03F0070370
:10234C00034AD35C21FA03F3184680BD00380240DF
:10235C00BC32000880B485B000AF0023FB601E4B7C
:10236C001B6B1D4A43F0040313631B4B1B6B03F0E5
:10237C000403FB60FB680023BB60174B1B6B164A06
:10238C0043F080031363144B1B6B03F08003BB609F
:10239C00BB6800237B60104B1B6B0F4A43F001039F
:1023AC0013630D4B1B6B03F001037B607B680023F5
:1023BC003B60094B1B6B084A43F002031363064B4B
:1023CC001B6B03F002033B603B6800BF1437BD4638
:1023DC005DF8047B704700BF0038024080B500AF49
:1023EC001B4B1C4A1A601A4B1B4A5A60184B002292
:1023FC009A60174B0022DA60154B4FF480421A6139
:10240C00134B00225A61124B00229A61104B00228E
:10241C00DA610F4B00221A620D48FEF785FB03466A
:10242C00002B01D000F056F900210948FFF7D1FA32
:10243C000346002B01D000F04DF900210448FFF7B2
:10244C0004FB0346002B01D000F044F900BF80BD13
:10245C009C00002000580040A086010080B58AB086
:10246C0000AF786007F1140300221A605A609A607A
:10247C00DA601A617B681B68194A93422BD10023DE
:10248C003B61184B1B6B174A43F080031363154BCE
:10249C001B6B03F080033B613B6930237B61122390
:1024AC00BB610123FB6103233B6204237B6207F1C5
:1024BC00140319460C48FEF78DF90023FB60094BF9
:1024CC001B6C084A43F480031364064B1B6C03F427
:1024DC008003FB60FB6800BF2837BD4680BD00BF92
:1024EC000058004000380240001C024080B483B009
:1024FC0000AF78604FF06043D3F8803E03F00103E7
:10250C00002B13D04FF06043D3F8003E03F00103CF
:10251C00002B0BD000E000BF4FF060431B68002B7A
:10252C00F9D04FF060437A68D2B21A707B681846C3
:10253C000C37BD465DF8047B7047000080B584B055
:10254C0002AFFDF7CDFF00F039F8FFF703FFFFF7FF
:10255C0045FF184800F088FA5E23FB715F23BB71BE
:10256C0000237B71FA1D3223009301234021124872
:10257C00FEF702FC7A1D32230093012341210E4801
:10258C00FEF7F8FC0220FEF71DF8BA1D322300936B
:10259C00012340210848FEF7EFFB7A1D32230093FC
:1025AC00012341210448FEF7E5FC3220FEF70AF82E
:1025BC00D8E700BFA43200089C00002080B594B07E
:1025CC0000AF07F1200330220021184600F0E8F993
:1025DC0007F10C0300221A605A609A60DA601A61E3
:1025EC000023BB602B4B1B6C2A4A43F080531364B3
:1025FC00284B1B6C03F08053BB60BB6800237B60D3
:10260C00254B1B68244A43F440431360224B1B6840
:10261C0003F440437B607B6801233B624FF48033BF
:10262C007B620223BB634FF48003FB630F233B6489
:10263C00D8237B640223BB640423FB6407F12003CF
:10264C001846FFF791FA0346002B01D000F042F830
:10265C00FFF73AFA0346002B01D000F03BF80F23AA
:10266C00FB6002233B6100237B614FF4A053BB61F1
:10267C004FF48053FB6107F10C0305211846FFF75B
:10268C00B5FC0346002B01D000F024F800BF5037F6
:10269C00BD4680BD003802400070004080B586B059
:1026AC0000AFF860B9607A6000237B6109E0BB6819
:1026BC005A1CBA601B781846FFF718FF7B69013368
:1026CC007B617A697B689A42F1DB7B681846183724
:1026DC00BD4680BD80B400AF00BFBD465DF8047B35
:1026EC007047000080B483B000AF00237B60104BB8
:1026FC005B6C0F4A43F4804353640D4B5B6C03F4E7
:10270C0080437B607B6800233B60094B1B6C084A51
:10271C0043F080531364064B1B6C03F080533B60F7
:10272C003B6800BF0C37BD465DF8047B704700BFAB
:10273C000038024080B400AF00BFBD465DF8047B9A
:10274C00704780B400AFFEE780B400AFFEE780B402
:10275C0000AFFEE780B400AFFEE780B400AF00BF6F
:10276C00BD465DF8047B704780B400AF00BFBD462A
:10277C005DF8047B704780B400AF00BFBD465DF8C8
:10278C00047B704780B500AFFDF7FCFE00BF80BD39
:10279C0080B586B000AFF860B9607A6000237B61C9
:1027AC000AE0AFF300800146BB685A1CBA60CAB29B
:1027BC001A707B6901337B617A697B689A42F0DB22
:1027CC007B6818461837BD4680BD80B483B000AF17
:1027DC0078604FF0FF3318460C37BD465DF8047B2C
:1027EC00704780B483B000AF786039603B684FF4B9
:1027FC0000525A60002318460C37BD465DF8047B26
:10280C00704780B483B000AF7860012318460C3752
:10281C00BD465DF8047B704780B485B000AFF860AE
:10282C00B9607A60002318461437BD465DF8047B06
:10283C007047000080B584B000AF7860114B1B6806
:10284C00002B02D10F4B104A1A600E4B1B68FB6019
:10285C000C4B1A687B6813446A46934207D900F004
:10286C0075F802460C2313604FF0FF3306E0054B5E
:10287C001A687B681344034A1360FB6818461037C8
:10288C00BD4680BD8C000020F800002080B400AF55
:10289C00164BD3F88830154A43F47003C2F88830CD
:1028AC00134B1B68124A43F001031360104B0022B8
:1028BC009A600F4B1B680E4A23F0847323F4803309
:1028CC0013600B4B0B4A5A60094B1B68084A23F4E4
:1028DC0080231360064B0022DA60044B4FF0006239
:1028EC009A6000BFBD465DF8047B704700ED00E0C8
:1028FC000038024010300024DFF834D0002103E00F
:10290C000C4B5B58435004310B480C4B42189A4209
:10291C00F6D30B4A02E0002342F8043B094B9A42DF
:10292C00F9D3FFF7B3FF00F017F8FFF707FE704776
:10293C000000032038330008000000207000002045
:10294C0070000020F4000020FEE70000014B186826
:10295C00704700BF0C00002070B50D4E0D4CA41B31
:10296C00A4100025A54209D10B4E0C4C00F088FC9C
:10297C00A41BA4100025A54205D170BD56F8253026
:10298C0098470135EEE756F8253098470135F2E7C0
:10299C00303300083033000830330008343300087B
:1029AC0002440346934200D1704703F8011BF9E738
:1029BC0070B50E46054618B183690BB900F00CFAD8
:1029CC00AB69AC6813B9284600F006FA234B9C425D
:1029DC0017D16C68A3891B071DD52369DBB1013E98
:1029EC00A36816F8011F013BA360E9B9002B2EDA8E
:1029FC0022460A21284600F03FF8013011D00A2067
:102A0C0011E0174B9C4201D1AC68E3E7154B9C429B
:102A1C0008BFEC68DEE72146284600F07FF8002866
:102A2C00DDD04FF0FF3070BD002B04DAA2699A4262
:102A3C0006DC0A2904D023685A1C22601970CFE7DF
:102A4C002246284600F018F80130C9D1E9E723687E
:102A5C000A205A1C22601870E5E700BFE832000813
:102A6C0008330008C8320008024B01461868FFF70B
:102A7C009FBF00BF0C000020F8B50E46144605465B
:102A8C0018B183690BB900F0A7F9214B9C422AD1EC
:102A9C006C68A369A360A3891A072ED5236963B355
:102AAC0023692068C01A6369F6B28342374604DC96
:102ABC002146284600F026F928BBA368013BA360F9
:102ACC0023685A1C22601E7063690130834204D053
:102ADC00A389DB0719D50A2E17D12146284600F009
:102AEC0011F990B10FE00B4B9C4201D1AC68D0E7CF
:102AFC00094B9C4208BFEC68CBE72146284600F006
:102B0C000DF80028CCD04FF0FF373846F8BD00BF89
:102B1C00E832000808330008C8320008324B70B5A0
:102B2C001D6806460C4625B1AB6913B9284600F062
:102B3C0053F92E4B9C420FD16C68B4F90C309AB2FD
:102B4C0015072CD4D00611D40922326043F040036F
:102B5C00A3814FF0FF303EE0254B9C4201D1AC6885
:102B6C00EBE7244B9C4208BFEC68E6E7510712D513
:102B7C00616B41B104F14403994202D0304600F03C
:102B8C0019FA00236363A38923F02403A381002390
:102B9C00636023692360A38943F00803A38123693D
:102BAC004BB9A38903F42073B3F5007F03D02146FE
:102BBC00304600F0BFF9A28912F001030CD00023BB
:102BCC00A36063695B42A361236953B9B4F90C3008
:102BDC0013F08000BAD170BD920758BF6369A3602F
:102BEC00F2E70020F7E700BF0C000020E8320008F5
:102BFC0008330008C83200088A892DE9F0410546DF
:102C0C0010070C4658D44B68002B05DC0B6C002BC2
:102C1C0002DC0020BDE8F081E66A002EF9D000232A
:102C2C0012F480522F68216A2B6032D0606DA38918
:102C3C005A0705D56368C01A636B0BB1236CC01AB5
:102C4C0000230246E66A216A2846B047431CA38942
:102C5C0006D129681D2948D8294ACA40D60744D527
:102C6C0000226260D9042269226004D5421C01D181
:102C7C002B6803B96065616B2F600029C9D004F122
:102C8C004403994202D0284600F094F90020606376
:102C9C00C0E701232846B047411CC8D12B68002B44
:102CAC00C5D01D2B01D0162B01D12F60B1E7A38904
:102CBC0043F04003A381ADE70F69002FA9D0930720
:102CCC000E6808BF4B690F6018BF0023A6EB0708FE
:102CDC008B60B8F1000F9CDD43463A46216AA66A28
:102CEC002846B047002806DCA38943F04003A381A3
:102CFC004FF0FF308EE70744A8EB0008E9E700BF70
:102D0C000100402038B50B6905460C46DBB118B103
:102D1C0083690BB900F060F80C4B9C4209D16C68CC
:102D2C00B4F90C307BB121462846BDE83840FFF79A
:102D3C0063BF074B9C4201D1AC68F1E7054B9C4249
:102D4C0008BFEC68ECE7002038BD00BFE832000893
:102D5C0008330008C8320008002310B50446C0E947
:102D6C000033836081814366C281C0E9043383618F
:102D7C00194608225C30FFF713FE054B6362054BC6
:102D8C00A362054BE362054B2462236310BD00BFB5
:102D9C0031310008533100088B310008AF31000885
:102DAC00014900F085B800BF112D000870B54A1E0E
:102DBC00682555430E4605F1740100F049F90446A7
:102DCC0040B10021C0E900160C30A06005F168028A
:102DDC00FFF7E6FD204670BD836910B5044633BB92
:102DEC00C0E912330365124B124A1B688262984287
:102DFC0004BF0123836100F01FF86060204600F0DF
:102E0C001BF8A060204600F017F80022E0600421B7
:102E1C006068FFF7A1FF01220921A068FFF79CFF62
:102E2C0002221221E068FFF797FF0123A36110BD76
:102E3C00C4320008AD2D0008F8B51B4B1E68B369F1
:102E4C00074613B93046FFF7C7FF4836D6E90134B9
:102E5C00013B03D5336833B13668F7E7B4F90C504E
:102E6C006DB16834F4E704213846FFF79FFF3060FA
:102E7C000028F1D10C233B6004462046F8BD0B4BD7
:102E8C006566C4E90055A560C4E90335C4E9055578
:102E9C000822294604F15C00FFF782FDC4E90D55B8
:102EAC00C4E91255E9E700BFC43200080100FFFF76
:102EBC002DE9F8438046894600F14804002614B9F0
:102ECC003046BDE8F883D4E90175013F01D524688B
:102EDC00F5E7AB89012B07D9B5F90E30013303D0D7
:102EEC0029464046C84706436835EEE770B50E469E
:102EFC00B1F90E10002996B014461D4607DA0023CE
:102F0C002B60B3891A0610D44FF480630EE06A4626
:102F1C0000F06EF90028F2DB019A02F47042A2F57F
:102F2C0000535A425A412A60EEE7402300202360A6
:102F3C0016B070BD8B8973B59D0706460C4607D538
:102F4C0004F14703236023610123636102B070BD68
:102F5C0001AB6A46FFF7CAFF00990546304600F000
:102F6C0077F848B9B4F90C309A05EFD423F0030381
:102F7C0043F00203A381E3E70D4BB362A389206006
:102F8C0043F08003A381009B6361019B20615BB1D3
:102F9C00B4F90E10304600F03DF928B1A38923F0A6
:102FAC00030343F00103A381A3891D43A581CDE74E
:102FBC00AD2D000838B50546002945D051F8043C24
:102FCC000C1F002BB8BFE41800F046F91F4A136819
:102FDC00104633B9636014602846BDE8384000F0F1
:102FEC003CB9A3420CD921686218934204BF1A68F9
:102FFC005B68636004BF521822600460ECE7134600
:10300C005A680AB1A242FAD919685818A0420BD1D1
:10301C0020680144581882421960DDD1106852684A
:10302C005A6001441960D7E702D90C232B60D3E70F
:10303C00206821188A4204BF11685268626004BF7C
:10304C00091821605C60C7E738BD00BF9000002004
:10305C0070B5CD1C25F0030508350C2D38BF0C259B
:10306C00002D064601DBA94203D90C233360002056
:10307C0070BD00F0F1F8214A1468214691B9204C3A
:10308C0023681BB9304600F03DF8206029463046D5
:10309C0000F038F8431C24D10C233360304600F088
:1030AC00DCF8E4E70B685B1B18D40B2B0FD90B6017
:1030BC00CD50CC18304600F0D0F804F10B00231D95
:1030CC0020F00700C31AD3D05A42E250D0E78C420A
:1030DC004B6816BF636013600C46EBE70C464968FF
:1030EC00CCE7C41C24F00304A04205D0211A3046BE
:1030FC0000F008F80130CFD02560DBE7900000200D
:10310C009400002038B5064C002305460846236081
:10311C00FFF790FB431C02D1236803B12B6038BD31
:10312C00F000002010B50C46B1F90E1000F096F826
:10313C000028ABBF636DA3891B1823F48053ACBF6D
:10314C006365A38110BD2DE9F0411F468B89DB051A
:10315C0005460C46164605D502230022B1F90E1081
:10316C0000F068F8A389B4F90E1023F48053A381FE
:10317C0032463B462846BDE8F04100F017B810B582
:10318C000C46B1F90E1000F055F8431CA38915BF7D
:10319C00606523F4805343F48053A38118BFA3814B
:1031AC0010BDB1F90E1000F013B8000038B5074C83
:1031BC00054608461146002222601A46FFF76EFAB1
:1031CC00431C02D1236803B12B6038BDF0000020F2
:1031DC0038B5064C0023054608462360FFF7F5FA80
:1031EC00431C02D1236803B12B6038BDF0000020D2
:1031FC0038B5074C00230546084611462360FFF7F7
:10320C00F0FA431C02D1236803B12B6038BD00BF18
:10321C00F000002038B5064C002305460846236014
:10322C00FFF7EFFA431C02D1236803B12B6038BDC2
:10323C00F000002038B5074C054608461146002220
:10324C0022601A46FFF7E8FA431C02D1236803B147
:10325C002B6038BDF00000207047704738B5074C24
:10326C00054608461146002222601A46FFF790FADE
:10327C00431C02D1236803B12B6038BDF000002041
:10328C00F8B500BFF8BC08BC9E467047F8B500BF47
:08329C00F8BC08BC9E46704717
:1032A40053746172740D00000000000000000000FF
:1032B40001020304060708090000000001020304D8
:1032C40010000020000000000000000000000000CA
:1032D40000000000000000000000000000000000EA
:1032E40000000000000000000000000000000000DA
:1032F40000000000000000000000000000000000CA
:1033040000000000000000000000000000000000B9
:1033140000000000000000000000000000000000A9
:0433240000000000A5
:08332800F4CEFF7F010000005C
:04333000D1010008BF
:04333400AD010008DF
:1033380010000000010000000024F400100000202C
:1033480000000000E832000808330008C83200080E
:103358000000000000000000000000000000000065
:103368000000000000000000000000000000000055
:103378000000000000000000000000000000000045
:103388000000000000000000000000000000000035
:103398000000000000000000000000000000000025
:0400000508002905C1
:00000001FF
