:020000040800F2
:1000000000000320E1140008191400081B14000864
:100010001D1400081F14000821140008000000002F
:100020000000000000000000000000002314000891
:1000300025140008000000002714000829140008F7
:100040003115000831150008311500083115000878
:100050003115000831150008311500083115000868
:100060003115000831150008311500083115000858
:100070003115000831150008311500083115000848
:100080003115000831150008311500083115000838
:100090003115000831150008311500083115000828
:1000A0003115000831150008311500083115000818
:1000B0003115000831150008311500083115000808
:1000C00031150008311500083115000831150008F8
:1000D00031150008311500083115000831150008E8
:1000E00031150008311500083115000831150008D8
:1000F00031150008311500083115000831150008C8
:1001000031150008311500083115000831150008B7
:1001100031150008311500083115000831150008A7
:100120003115000831150008311500083115000897
:100130003115000831150008311500083115000887
:100140003115000831150008311500083115000877
:100150003115000831150008311500083115000867
:100160003115000831150008311500083115000857
:100170003115000831150008311500080000000095
:100180003115000831150008311500083115000837
:100190003115000831150008311500083115000827
:0C01A00031150008311500083115000869
:1001AC0010B5054C237833B9044B13B10448AFF3A5
:1001BC0000800123237010BD70000020000000009F
:1001CC00681E000808B5034B1BB103490348AFF385
:1001DC00008008BD0000000074000020681E0008AC
:1001EC0053B94AB9002908BF00281CBF4FF0FF3192
:1001FC004FF0FF3000F072B9ADF1080C6DE904CE90
:10020C0000F006F8DDF804E0DDE9022304B07047E5
:10021C002DE9F047089E04468846002B4BD18A42B4
:10022C00154667D9B2FA82F24AB1C2F1200701FA37
:10023C0002F320FA07F7954047EA030894404FEA87
:10024C00154E230CB8FBFEF71FFA85FC0EFB178826
:10025C0043EA084307FB0CF1994209D9EB1807F163
:10026C00FF3080F01B81994240F21881023F2B44F1
:10027C005B1AA4B2B3FBFEF00EFB103344EA03444A
:10028C0000FB0CFCA44509D92C1900F1FF3380F0BC
:10029C000781A44540F2048102382C4440EA07400F
:1002AC00A4EB0C0400271EB1D4400023C6E9004384
:1002BC003946BDE8F0878B4209D9002E00F0EB805F
:1002CC000027C6E9000138463946BDE8F087B3FA85
:1002DC0083F7002F47D18B4202D3824200F2FA807F
:1002EC00841A61EB030301209846002EE0D0C6E986
:1002FC000048DDE702B9FFDEB2FA82F2002A40F0D4
:10030C008F80491B4FEA154E1FFA85F80127B1FB68
:10031C00FEFC230C0EFB1C1143EA014308FB0CF101
:10032C00994207D9EB180CF1FF3002D2994200F236
:10033C00CD808446591AA3B2B1FBFEF00EFB10140B
:10034C0043EA044408FB00F8A04507D92C1900F136
:10035C00FF3302D2A04500F2B6801846A4EB080485
:10036C0040EA0C409FE7C7F1200CBB4022FA0CFE80
:10037C004EEA030E01FA07F420FA0CF521FA0CF3FD
:10038C004FEA1E482543B3FBF8F92C0C08FB193334
:10039C001FFA8EFA44EA034309FB0AF49C4202FA60
:1003AC0007F200FA07F10BD91EEB030309F1FF303A
:1003BC0080F087809C4240F28480A9F1020973444A
:1003CC001B1BADB2B3FBF8F008FB103345EA03443A
:1003DC0000FB0AFAA24508D91EEB040400F1FF3316
:1003EC006BD2A24569D90238744440EA0940A0FB9B
:1003FC000289A4EB0A044C45C2464B4654D351D057
:10040C00002E69D0B1EB0A0564EB030404FA0CFC72
:10041C00FD40FC404CEA0505C6E90054002747E7BF
:10042C00C2F1200320FA03F7954001FA02F021FAF9
:10043C0003F34FEA154E3843010CB3FBFEF71FFADA
:10044C0085F80EFB173341EA034107FB08F38B4297
:10045C0004FA02F407D9691807F1FF3C2FD28B423A
:10046C002DD9023F2944CB1A81B2B3FBFEF00EFB0F
:10047C00103341EA034100FB08F38B4207D969189A
:10048C0000F1FF3C17D28B4215D902382944C91A06
:10049C0040EA07473BE73746304609E70746E7E6B9
:1004AC001846FBE64145ABD2B8EB020A69EB0E02EB
:1004BC0001381346A4E76046E9E7184695E7674616
:1004CC00D1E781467CE702382C4447E7ACF1020CBB
:1004DC002B442FE7384608E73746E9E6704700BF5C
:1004EC0038B50E4A0E4B054618784FF47A73B3FBA9
:1004FC00F0F31068B0FBF3F000F09CF8044658B928
:10050C000F2D09D8024629464FF0FF3000F05EF857
:10051C00044B20461D6038BD0120FCE7080000207C
:10052C00000000200400002008B50B4B1A6842F4B0
:10053C0000721A601A6842F480621A601A6842F4F7
:10054C0080721A60032000F02FF80020FFF7C8FF1C
:10055C0000F040FF002008BD003C0240034A044B61
:10056C0011681B780B441360704700BF9C0000207F
:10057C0000000020014B1868704700BF9C00002051
:10058C0038B50446FFF7F6FF631C1CBF054B1B7800
:10059C00054618BFE418FFF7EDFF401BA042FAD345
:1005AC0038BD00BF00000020074AD36823F4E06385
:1005BC001B041B0C43F0BF63000243F4003300F434
:1005CC00E0600343D360704700ED00E0174B70B55B
:1005DC00DC68C4F30224C4F10705042D04F1040300
:1005EC0028BF04254FF0FF36062B06FA05F38CBF07
:1005FC00033C002421EA0303A34006FA04F422EA94
:10060C000404002843EA0403A8BF00F160404FEA49
:10061C000313BCBF00F00F00054ADBB2AABF00F504
:10062C006140135480F8003370BD00BF00ED00E052
:10063C0014ED00E00138B0F1807F0AD2064B074A76
:10064C005860F02182F823100020072298601A606D
:10065C0070470120704700BF10E000E000ED00E0A3
:10066C002DE9F04F85B00B68DFF8C4816E4ADFF8D6
:10067C00C491019300230124019D9C402540AC4270
:10068C0040F0B8804C6824F0100C4FEA430E03265F
:10069C000CF1FF3706FA0EF6012F6FEA060611D899
:1006AC00876807EA060ACF6807FA0EF747EA0A07CF
:1006BC008760476827EA050AC4F300179F4047EA9A
:1006CC000A074760C76807EA060A8F6807FA0EF739
:1006DC0047EA0A07BCF1020FC76016D14FEAD30AEA
:1006EC0000EB8A0A03F0070BDAF820704FEA8B0B49
:1006FC004FF00F0C0CFA0BFC27EA0C0C0F6907FAE5
:10070C000BF747EA0C07CAF8207007683E4004F064
:10071C00030707FA0EFE4EEA06060660E60069D5E8
:10072C004FF0000BCDF80CB0D8F844703F4E47F4A6
:10073C008047C8F84470D8F8447007F48047039792
:10074C00039F23F0030707F1804707F59C3703F05D
:10075C00030ED7F808A04FEA8E0E4FF00F0C0CFAD0
:10076C000EFCB0422AEA0C0C4BD006F58066B04267
:10077C0049D006F58066B04247D006F58066B04297
:10078C0045D006F58066B04243D0484543D006F5C7
:10079C000066B04241D006F58066B0423FD006F507
:1007AC008066B0423DD006F58066B04214BF0A2682
:1007BC00092606FA0EF646EA0C06BE601668EF43EA
:1007CC0014F4803F0CBF3E402E431660566814F460
:1007DC00003F0CBF3E402E435660966814F4801FB9
:1007EC000CBF3E402E439660D668A40254BF3E40D8
:1007FC002E43D6600133102B7FF43DAF05B0BDE81E
:10080C00F08F5E46D5E70126D3E70226D1E7032613
:10081C00CFE70426CDE70526CBE70626C9E7072652
:10082C00C7E70826C5E700BF003C014000000240B6
:10083C0000380240001402400AB18161704709047B
:10084C00FBE7436931EA030308BF09048161704780
:10085C0037B500230193184B184C1A6C42F0805298
:10086C001A641B6C03F080530193019B144B0122FF
:10087C001A60FFF77FFE05466368DA030BD5114B50
:10088C000E4C01221A60FFF775FE054663689B0348
:10089C000AD5002006E0FFF76DFE401BB0F57A7F0D
:1008AC00EAD9032003B030BDFFF764FE401BB0F55E
:1008BC007A7FEBD9F5E700BF0038024000700040AA
:1008CC0040000E4244000E422DE9F341044608B9A3
:1008DC0001203FE00368DD0710D4236898075AD441
:1008EC0023681A0700F19C8023685B0700F1BA802B
:1008FC00A069002840F01B8100202BE0A74B9A68D0
:10090C0002F00C02042A07D09A6802F00C02082AA2
:10091C000AD15B68590207D5A04B1B689A03DCD53A
:10092C006368002BD9D1D3E763689C4DB3F5803F46
:10093C0013D12B6843F480332B60FFF71BFE974DCC
:10094C0006462B689B03C8D4FFF714FE801B642853
:10095C00F7D9032002B0BDE8F081B3F5A02F04D184
:10096C002B6843F480232B60E3E72A6822F480325F
:10097C002A602A6822F480222A60002BDDD1FFF73E
:10098C00F9FD06462B689F03A7D5FFF7F3FD801BE7
:10099C006428F7D9DDE7814B9A6812F00C0F07D069
:1009AC009A6802F00C02082A11D15B685E020ED420
:1009BC007A4B1A68950702D5E268012A88D11A6821
:1009CC00216922F0F80242EAC1021A6088E7E26863
:1009DC00734BB2B101221A60FFF7CCFD6F4D064686
:1009EC002B68980707D52B68226923F0F80343EA94
:1009FC00C2032B6074E7FFF7BDFD801B0228EFD903
:100A0C00A7E71A60FFF7B6FD644D06462B689907F9
:100A1C007FF566AFFFF7AEFD801B0228F6D998E78D
:100A2C006269604B7AB101221A60FFF7A3FD5B4D3E
:100A3C0006466B6F9F073FF557AFFFF79BFD801B7B
:100A4C000228F6D985E71A60FFF794FD534D064648
:100A5C006B6F98077FF548AFFFF78CFD801B022862
:100A6C00F6D976E74D4B1A6C12F0805228D10192D0
:100A7C001A6C42F080521A641B6C03F08053019381
:100A8C00019B0126484D2B68D9051BD5A368434D06
:100A9C00012B27D12B6F43F001032B67FFF76AFD66
:100AAC003E4D074641F288382B6F9B0739D5002EF7
:100ABC003FF41EAF394A136C23F08053136417E7CD
:100ACC000026DFE72B6843F480732B60FFF752FDA1
:100ADC0007462B68DA05D9D4FFF74CFDC01B02285A
:100AEC00F7D936E7052B04D12B6F43F004032B67A2
:100AFC00D0E72A6F22F001022A672A6F22F0040243
:100B0C002A67002BCAD1FFF735FD41F2883807461A
:100B1C002B6F9807CBD5FFF72DFDC01B4045F7D9A0
:100B2C0017E7FFF727FDC01B4045BDD911E71B4D4B
:100B3C00AB6803F00C03082B47D01C4E0023022893
:100B4C00336035D1FFF716FD07462B6899011ED48B
:100B5C00D4E907321343626A43EA8213E26A43EA36
:100B6C000263A26A0D4C5208013A43EA02436B60DD
:100B7C0001233360FFF7FEFC054623689A013FF51D
:100B8C00BBAEFFF7F7FC401B0228F6D9E1E6FFF7F6
:100B9C00F1FCC01B0228D8D9DBE600BF00380240AC
:100BAC0000004742800E4742007000406000474200
:100BBC00FFF7E0FC04462B689B017FF59DAEFFF729
:100BCC00D9FC001B0228F6D9C3E601283FF4C2AEBB
:100BDC006868E36900F480029A427FF479AE226A75
:100BEC0000F03F0393427FF473AE626A47F6C07322
:100BFC00034093427FF46CAEA26A00F440339342FC
:100C0C007FF466AEE36A00F07060C01A18BF012072
:100C1C00A0E600BF134908B58B6803F00C03042B46
:100C2C0003D0082B03D0104800E0104808BD4A68D8
:100C3C004B68496813F4800314BF0C480A48C1F38D
:100C4C00881118BF002302F03F02A1FB0001FFF73F
:100C5C00C7FA044B5B68C3F3014301335B00B0FB81
:100C6C00F3F0E3E7003802400024F40040787D0103
:100C7C002DE9F0410D46044610B90120BDE8F08184
:100C8C00434B1A6802F00F028A4228D321688F075F
:100C9C002DD4C80740D43E4B1A6802F00F02AA426A
:100CAC0065D8226851076BD4130707D5394A2169D7
:100CBC00936823F4604343EAC1039360FFF7AAFFF0
:100CCC00344B354A9B68C3F30313D35CD840334B86
:100CDC001860334B1868FFF703FC0020CEE7CAB24C
:100CEC001A701B6803F00F038B42C6D1CEE7294B59
:100CFC0011F0040F1EBF9A6842F4E0529A600E077E
:100D0C0042BF9A6842F460429A609A68A06822F0E6
:100D1C00F00202439A60BCE762681E4B012A1CD1A8
:100D2C001B6813F4003FA8D01A4EB36823F00303DA
:100D3C001343B360FFF71EFC41F288380746B368D3
:100D4C00626803F00C03B3EB820FA4D0FFF712FC24
:100D5C00C01B4045F3D9032090E7911E01291B6865
:100D6C0002D813F0007FDEE713F0020FDBE7EAB2E4
:100D7C001A701B6803F00F03AB427FF47EAF90E751
:100D8C000449E0688B6823F4E05303438B608BE7E2
:100D9C00003C024000380240871E0008080000207A
:100DAC000400002038B50D460446C8B190F82C302C
:100DBC0003F0FF021BB980F82D2000F059F9022333
:100DCC0084F82C30211D206800F036F86268206809
:100DDC00294600F067F8012384F82C30002038BD38
:100DEC000120FCE738B5044690F82C00C0B202286C
:100DFC000D460DD0022384F82C30206800F08FF8BB
:100E0C002B68022B0CBF0523012384F82C30002007
:100E1C0038BD10B5044690F82C00C0B2022809D099
:100E2C00022384F82C30206800F09EF8012384F80B
:100E3C002C30002010BD00002DE9F0414A6AD1E9A8
:100E4C000743D1E90158D1E903ECD1E905760968EA
:100E5C00012943EA0403124904680FD01A432A43B8
:100E6C0042EA080343EA0E0343EA0C033B432140E6
:100E7C0033430B4303600020BDE8F0811343426809
:100E8C00114045EA080242EA0E0242EA0C023A43D9
:100E9C0024F4F844324323430A4303604260EAE7F4
:100EAC000080FFFFCB68F0B50C688E680D695F1E83
:100EBC004B6904F1FF3C4C688969013B1B05013C03
:100ECC00013E013D0139012A4FEA04144FEA06267E
:100EDC004FEA05454FEA016143EA07330CD043EA78
:100EEC000C032343826833432B4302F070420B43C1
:100EFC00134383600020F0BD876827F4700727F444
:100F0C00704744EA06023B4342EA0C02C76883601E
:100F1C002A4307F070470A433A43C260EAE773B5C5
:100F2C00002301931546D1E900321343CA6843EA02
:100F3C0042238A68013A43EA42130193019B0361FD
:100F4C000446FFF717FB0646A06910F0200003D0FB
:100F5C006B1CF9D015B9032002B070BDFFF70AFB6A
:100F6C00801BA842F0D9F6E7436943EA410141618D
:100F7C00002070471FB598B1012814BF002008202D
:100F8C00CDE90010CDE9022369464FF480520548A3
:100F9C00FFF728FF003018BF012005B05DF804FBF7
:100FAC001020EDE7A00000200023012210B511460F
:100FBC001846FFF7DFFF0120FFF7E2FA00230122BA
:100FCC0002211846FFF7D6FF0023082203211846FA
:100FDC00FFF7D0FF4FF40C73012204210020BDE871
:100FEC001040FFF7C7BF000010B5054C2046FFF7B7
:100FFC00DBFF204640F2AB21BDE81040FFF709BFF4
:10100C00A00000201848194A002300B50121C0E9AE
:10101C0000230822C0E902124FF0100C4022C0E954
:10102C0004C24FF4C072C0E906234FF4006E4FF4B3
:10103C008053C0E908E34FF4005389B00722836260
:10104C0002230421CDE901320622CDE9031201A9C4
:10105C00CDE905330793FFF7A5FE08B100F0B8F909
:10106C0009B05DF804FB00BFA0000020400100A007
:10107C00F0B587B01422002101A800F07FFA254AB0
:10108C001368002B43D101240093234B14609A6BFB
:10109C00224822439A639B6B0394234000930227BC
:1010AC0003260C25009B01A94FF63F03CDE9013720
:1010BC00CDE90465FFF7D4FA0D2301A9184805956D
:1010CC00CDE90137CDE90346FFF7CAFA48F23713E9
:1010DC0001A914480595CDE90137CDE90346FFF781
:1010EC00BFFA4FF6837301A90F480595CDE9013777
:1010FC00CDE90346FFF7B4FA4CF2037301A90B4890
:10110C000595CDE90137CDE90346FFF7A9FA07B0FC
:10111C00F0BD00BF8C0000200038024000140240DB
:10112C00000802400018024000100240000C02406F
:10113C0030B58FB01422002109A800F01FFA00244A
:10114C00314B01941A6B314D42F004021A631A6B45
:10115C0002F004020192019A02941A6B42F02002EE
:10116C001A631A6B02F020020292029A03941A6B11
:10117C0042F080021A631A6B02F080020392039A07
:10118C0004941A6B42F002021A631A6B02F0020208
:10119C000492049A05941A6B42F040021A631A6B7B
:1011AC0002F040020592059A06941A6B42F0100266
:1011BC001A631A6B02F010020692069A07941A6BC5
:1011CC0042F008021A631A6B02F008020792079A9F
:1011DC0008941A6B42F001021A631B6B03F00103B3
:1011EC000893284601220221089BFFF725FB0123C7
:1011FC00022209A92846CDE90923CDE90B34FFF7D2
:10120C002FFA0FB030BD00BF00380240000402407E
:10121C0070B594B0102200210AA800F0AFF900219B
:10122C00142203A800F0AAF900241D4B01941A6C97
:10123C0042F080521A641B6C03F080530193019BA3
:10124C00184B02941A6842F440421A601B6803F46B
:10125C00404302930122029B4FF48033CDE90823D3
:10126C0002254FF48003CDE90E530F26D823CDE988
:10127C00106308A8042313931295FFF725FBFFF7BF
:10128C00E7FA4FF480534FF4A051CDE9061303A8AD
:10129C000521CDE903650594FFF7EAFC14B070BD98
:1012AC00003802400070004030B500234FF060441D
:1012BC00934201DB104630BDD4F8800EC50707D52C
:1012CC00D4F8000EC00703D5C85C256815B1207092
:1012DC000133EDE700BFF8E708B5012202211F48F2
:1012EC00FFF7AAFA4FF4FA70FFF74AF9002202212D
:1012FC001A48FFF7A1FA4FF04043002203F8012BE4
:10130C0013F17E5FFAD1012202211448FFF794FAFF
:10131C004FF4FA70FFF734F9002202210F48FFF75F
:10132C008BFA4FF0404313F8012B13F17E5FFAD187
:10133C00012202210948FFF77FFA4FF4FA70FFF7F8
:10134C001FF9002202210548FFF776FA012202213B
:10135C000248BDE80840FFF76FBA00BF0004024026
:10136C0008B5FFF7E1F8FFF753FFFFF7E1FEFFF7D2
:10137C0049FEFFF739FE144800F064F902211348C6
:10138C00FFF75FFA6420FFF7FBF802210F48FFF725
:10139C0058FA6420FFF7F4F802210C48FFF751FAD1
:1013AC006420FFF7EDF802210848FFF74AFA6420A1
:1013BC00FFF7E6F802210548FFF743FA6420FFF730
:1013CC00DFF8FFF789FFFEE7801E000800040240EB
:1013DC007047000082B00C4B002100915A6C42F413
:1013EC0080425A645A6C02F480420092009A019135
:1013FC001A6C42F080521A641B6C03F080530193F8
:10140C00019B02B0704700BF003802407047FEE7F6
:10141C00FEE7FEE7FEE7704770477047FFF79EB8A0
:10142C0070B50E4615460C46A31B9D4201DC2846A2
:10143C0070BDAFF3008004F8010BF5E74FF0FF30FF
:10144C0070474FF400534B600020704701207047E9
:10145C000020704708B50A4B1968024609B90949BA
:10146C0019601868694602448A4206D900F05CF893
:10147C000C2303604FF0FF3008BD1A60FCE700BF7F
:10148C0090000020D80000200F49D1F8883043F498
:10149C007003C1F888300D4B1A68002042F001022D
:1014AC001A6098601A6822F0847222F480321A60F2
:1014BC00074A5A601A6822F480221A60D8604FF0EA
:1014CC0000638B60704700BF00ED00E00038024005
:1014DC0010300024DFF834D0002103E00C4B5B58B3
:1014EC00435004310B480C4B42189A42F6D30B4A2A
:1014FC0002E0002342F8043B094B9A42F9D3FFF770
:10150C00C3FF00F017F8FFF72BFF70470000032014
:10151C000C1F00080000002070000020700000204C
:10152C00D8000020FEE70000014B1868704700BF90
:10153C000C00002070B50D4E0D4CA41BA410002502
:10154C00A54209D10B4E0C4C00F088FCA41BA41036
:10155C000025A54205D170BD56F8253098470135B8
:10156C00EEE756F8253098470135F2E7041F0008DE
:10157C00041F0008041F0008081F0008024403464B
:10158C00934200D1704703F8011BF9E770B50E4682
:10159C00054618B183690BB900F00CFAAB69AC685D
:1015AC0013B9284600F006FA234B9C4217D16C68FD
:1015BC00A3891B071DD52369DBB1013EA36816F86F
:1015CC00011F013BA360E9B9002B2EDA22460A2148
:1015DC00284600F03FF8013011D00A2011E0174BDB
:1015EC009C4201D1AC68E3E7154B9C4208BFEC6808
:1015FC00DEE72146284600F07FF80028DDD04FF0CA
:10160C00FF3070BD002B04DAA2699A4206DC0A296D
:10161C0004D023685A1C22601970CFE72246284652
:10162C0000F018F80130C9D1E9E723680A205A1CE8
:10163C0022601870E5E700BFBC1E0008DC1E000825
:10164C009C1E0008024B01461868FFF79FBF00BFA5
:10165C000C000020F8B50E461446054618B18369F7
:10166C000BB900F0A7F9214B9C422AD16C68A369F5
:10167C00A360A3891A072ED5236963B32369206855
:10168C00C01A6369F6B28342374604DC2146284609
:10169C0000F026F928BBA368013BA36023685A1C01
:1016AC0022601E7063690130834204D0A389DB077A
:1016BC0019D50A2E17D12146284600F011F990B100
:1016CC000FE00B4B9C4201D1AC68D0E7094B9C421C
:1016DC0008BFEC68CBE72146284600F00DF800283F
:1016EC00CCD04FF0FF373846F8BD00BFBC1E000809
:1016FC00DC1E00089C1E0008324B70B51D680646A7
:10170C000C4625B1AB6913B9284600F053F92E4BA2
:10171C009C420FD16C68B4F90C309AB215072CD4DA
:10172C00D00611D40922326043F04003A3814FF05C
:10173C00FF303EE0254B9C4201D1AC68EBE7244BDB
:10174C009C4208BFEC68E6E7510712D5616B41B1CA
:10175C0004F14403994202D0304600F019FA0023F8
:10176C006363A38923F02403A381002363602369AB
:10177C002360A38943F00803A38123694BB9A38990
:10178C0003F42073B3F5007F03D02146304600F0FC
:10179C00BFF9A28912F001030CD00023A360636986
:1017AC005B42A361236953B9B4F90C3013F0800088
:1017BC00BAD170BD920758BF6369A360F2E70020ED
:1017CC00F7E700BF0C000020BC1E0008DC1E000860
:1017DC009C1E00088A892DE9F041054610070C462D
:1017EC0058D44B68002B05DC0B6C002B02DC002062
:1017FC00BDE8F081E66A002EF9D0002312F4805285
:10180C002F68216A2B6032D0606DA3895A0705D5E9
:10181C006368C01A636B0BB1236CC01A00230246B9
:10182C00E66A216A2846B047431CA38906D1296879
:10183C001D2948D8294ACA40D60744D500226260DF
:10184C00D9042269226004D5421C01D12B6803B94A
:10185C006065616B2F600029C9D004F14403994283
:10186C0002D0284600F094F900206063C0E7012301
:10187C002846B047411CC8D12B68002BC5D01D2B66
:10188C0001D0162B01D12F60B1E7A38943F040039F
:10189C00A381ADE70F69002FA9D093070E6808BF8D
:1018AC004B690F6018BF0023A6EB07088B60B8F1DB
:1018BC00000F9CDD43463A46216AA66A2846B0478B
:1018CC00002806DCA38943F04003A3814FF0FF30CE
:1018DC008EE70744A8EB0008E9E700BF01004020B1
:1018EC0038B50B6905460C46DBB118B183690BB9E9
:1018FC0000F060F80C4B9C4209D16C68B4F90C30C8
:10190C007BB121462846BDE83840FFF763BF074B43
:10191C009C4201D1AC68F1E7054B9C4208BFEC68D6
:10192C00ECE7002038BD00BFBC1E0008DC1E000820
:10193C009C1E0008002310B50446C0E900338360E8
:10194C0081814366C281C0E9043383611946082250
:10195C005C30FFF713FE054B6362054BA362054B2E
:10196C00E362054B2462236310BD00BF0D1D00080C
:10197C002F1D0008671D00088B1D0008014900F091
:10198C0085B800BFED18000870B54A1E6825554390
:10199C000E4605F1740100F049F9044640B10021EE
:1019AC00C0E900160C30A06005F16802FFF7E6FDF7
:1019BC00204670BD836910B5044633BBC0E91233B1
:1019CC000365124B124A1B688262984204BF0123C2
:1019DC00836100F01FF86060204600F01BF8A060E7
:1019EC00204600F017F80022E06004216068FFF741
:1019FC00A1FF01220921A068FFF79CFF02221221FE
:101A0C00E068FFF797FF0123A36110BD981E000843
:101A1C0089190008F8B51B4B1E68B369074613B942
:101A2C003046FFF7C7FF4836D6E90134013B03D5F2
:101A3C00336833B13668F7E7B4F90C506DB16834DC
:101A4C00F4E704213846FFF79FFF30600028F1D1FE
:101A5C000C233B6004462046F8BD0B4B6566C4E97D
:101A6C000055A560C4E90335C4E90555082229468B
:101A7C0004F15C00FFF782FDC4E90D55C4E9125571
:101A8C00E9E700BF981E00080100FFFF2DE9F843AD
:101A9C008046894600F14804002614B93046BDE85A
:101AAC00F883D4E90175013F01D52468F5E7AB89CA
:101ABC00012B07D9B5F90E30013303D02946404626
:101ACC00C84706436835EEE770B50E46B1F90E10FF
:101ADC00002996B014461D4607DA00232B60B38903
:101AEC001A0610D44FF480630EE06A4600F06EF9CB
:101AFC000028F2DB019A02F47042A2F500535A421C
:101B0C005A412A60EEE740230020236016B070BDD6
:101B1C008B8973B59D0706460C4607D504F1470320
:101B2C00236023610123636102B070BD01AB6A467F
:101B3C00FFF7CAFF00990546304600F077F848B920
:101B4C00B4F90C309A05EFD423F0030343F00203ED
:101B5C00A381E3E70D4BB362A389206043F08003BC
:101B6C00A381009B6361019B20615BB1B4F90E10F2
:101B7C00304600F03DF928B1A38923F0030343F06C
:101B8C000103A381A3891D43A581CDE78919000811
:101B9C0038B50546002945D051F8043C0C1F002BE4
:101BAC00B8BFE41800F046F91F4A1368104633B961
:101BBC00636014602846BDE8384000F03CB9A3428D
:101BCC000CD921686218934204BF1A685B68636081
:101BDC0004BF521822600460ECE713465A680AB13D
:101BEC00A242FAD919685818A0420BD120680144B6
:101BFC00581882421960DDD1106852685A6001444D
:101C0C001960D7E702D90C232B60D3E72068211881
:101C1C008A4204BF11685268626004BF09182160CF
:101C2C005C60C7E738BD00BF9400002070B5CD1CC8
:101C3C0025F0030508350C2D38BF0C25002D064664
:101C4C0001DBA94203D90C233360002070BD00F0E6
:101C5C00F1F8214A1468214691B9204C23681BB92C
:101C6C00304600F03DF820602946304600F038F848
:101C7C00431C24D10C233360304600F0DCF8E4E73D
:101C8C000B685B1B18D40B2B0FD90B60CD50CC18E9
:101C9C00304600F0D0F804F10B00231D20F00700B3
:101CAC00C31AD3D05A42E250D0E78C424B6816BFCD
:101CBC00636013600C46EBE70C464968CCE7C41C28
:101CCC0024F00304A04205D0211A304600F008F895
:101CDC000130CFD02560DBE7940000209800002075
:101CEC0038B5064C0023054608462360FFF7B2FBC7
:101CFC00431C02D1236803B12B6038BDD4000020F3
:101D0C0010B50C46B1F90E1000F096F80028ABBFD8
:101D1C00636DA3891B1823F48053ACBF6365A38147
:101D2C0010BD2DE9F0411F468B89DB0505460C469D
:101D3C00164605D502230022B1F90E1000F068F802
:101D4C00A389B4F90E1023F48053A38132463B4689
:101D5C002846BDE8F04100F017B810B50C46B1F9B3
:101D6C000E1000F055F8431CA38915BF606523F4D1
:101D7C00805343F48053A38118BFA38110BDB1F9E4
:101D8C000E1000F013B8000038B5074C0546084695
:101D9C001146002222601A46FFF786FA431C02D134
:101DAC00236803B12B6038BDD400002038B5064C35
:101DBC000023054608462360FFF740FB431C02D175
:101DCC00236803B12B6038BDD400002038B5074C14
:101DDC0000230546084611462360FFF732FB431CDF
:101DEC0002D1236803B12B6038BD00BFD4000020A2
:101DFC0038B5064C0023054608462360FFF726FB42
:101E0C00431C02D1236803B12B6038BDD4000020E1
:101E1C0038B5074C054608461146002222601A4682
:101E2C00FFF716FB431C02D1236803B12B6038BDAE
:101E3C00D40000207047704738B5074C054608465B
:101E4C001146002222601A46FFF7EAFA431C02D11F
:101E5C00236803B12B6038BDD4000020F8B500BF57
:101E6C00F8BC08BC9E467047F8B500BFF8BC08BC6F
:041E7C009E467047C7
:101E800053746172740D0000000000000000000136
:101E900002030406070809001000002000000000EB
:101EA0000000000000000000000000000000000032
:101EB0000000000000000000000000000000000022
:101EC0000000000000000000000000000000000012
:101ED0000000000000000000000000000000000002
:101EE00000000000000000000000000000000000F2
:0C1EF000000000000000000000000000E6
:081EFC0020E3FF7F010000005C
:041F0400D1010008FF
:041F0800AD0100081F
:101F0C0001000000100000000024F400100000206C
:101F1C0000000000BC1E0008DC1E00089C1E00080F
:101F2C0000000000000000000000000000000000A5
:101F3C000000000000000000000000000000000095
:101F4C000000000000000000000000000000000085
:101F5C000000000000000000000000000000000075
:101F6C000000000000000000000000000000000065
:04000005080014E1FA
:00000001FF
