:020000040800F2
:1000000000000320D9280008252500083325000812
:10001000392500083F25000845250008000000009C
:100020000000000000000000000000004B25000858
:100030005925000800000000672500087525000804
:100040002929000829290008292900082929000848
:100050002929000829290008292900082929000838
:100060002929000829290008292900082929000828
:100070002929000829290008292900082929000818
:100080002929000829290008292900082929000808
:1000900029290008292900082929000829290008F8
:1000A00029290008292900082929000829290008E8
:1000B0002929000829290008812500082929000884
:1000C00029290008292900082929000829290008C8
:1000D00029290008292900082929000829290008B8
:1000E00029290008292900082929000829290008A8
:1000F0002929000829290008292900082929000898
:100100002929000829290008292900082929000887
:100110002929000829290008292900082929000877
:100120002929000829290008292900082929000867
:100130002929000829290008292900082929000857
:100140002929000829290008292900082929000847
:100150002929000829290008292900082929000837
:100160002929000829290008292900082929000827
:100170002929000829290008292900080000000071
:100180002929000829290008292900082929000807
:1001900029290008292900082929000829290008F7
:0C01A00029290008292900082929000845
:1001AC0010B5054C237833B9044B13B10448AFF3A5
:1001BC0000800123237010BD70000020000000009F
:1001CC006032000808B5034B1BB103490348AFF379
:1001DC00008008BD000000007400002060320008A0
:1001EC0053B94AB9002908BF00281CBF4FF0FF3192
:1001FC004FF0FF3000F072B9ADF1080C6DE904CE90
:10020C0000F006F8DDF804E0DDE9022304B07047E5
:10021C002DE9F047089E04468846002B4BD18A42B4
:10022C00154667D9B2FA82F24AB1C2F1200701FA37
:10023C0002F320FA07F7954047EA030894404FEA87
:10024C00154E230CB8FBFEF71FFA85FC0EFB178826
:10025C0043EA084307FB0CF1994209D9EB1807F163
:10026C00FF3080F01B81994240F21881023F2B44F1
:10027C005B1AA4B2B3FBFEF00EFB103344EA03444A
:10028C0000FB0CFCA44509D92C1900F1FF3380F0BC
:10029C000781A44540F2048102382C4440EA07400F
:1002AC00A4EB0C0400271EB1D4400023C6E9004384
:1002BC003946BDE8F0878B4209D9002E00F0EB805F
:1002CC000027C6E9000138463946BDE8F087B3FA85
:1002DC0083F7002F47D18B4202D3824200F2FA807F
:1002EC00841A61EB030301209846002EE0D0C6E986
:1002FC000048DDE702B9FFDEB2FA82F2002A40F0D4
:10030C008F80491B4FEA154E1FFA85F80127B1FB68
:10031C00FEFC230C0EFB1C1143EA014308FB0CF101
:10032C00994207D9EB180CF1FF3002D2994200F236
:10033C00CD808446591AA3B2B1FBFEF00EFB10140B
:10034C0043EA044408FB00F8A04507D92C1900F136
:10035C00FF3302D2A04500F2B6801846A4EB080485
:10036C0040EA0C409FE7C7F1200CBB4022FA0CFE80
:10037C004EEA030E01FA07F420FA0CF521FA0CF3FD
:10038C004FEA1E482543B3FBF8F92C0C08FB193334
:10039C001FFA8EFA44EA034309FB0AF49C4202FA60
:1003AC0007F200FA07F10BD91EEB030309F1FF303A
:1003BC0080F087809C4240F28480A9F1020973444A
:1003CC001B1BADB2B3FBF8F008FB103345EA03443A
:1003DC0000FB0AFAA24508D91EEB040400F1FF3316
:1003EC006BD2A24569D90238744440EA0940A0FB9B
:1003FC000289A4EB0A044C45C2464B4654D351D057
:10040C00002E69D0B1EB0A0564EB030404FA0CFC72
:10041C00FD40FC404CEA0505C6E90054002747E7BF
:10042C00C2F1200320FA03F7954001FA02F021FAF9
:10043C0003F34FEA154E3843010CB3FBFEF71FFADA
:10044C0085F80EFB173341EA034107FB08F38B4297
:10045C0004FA02F407D9691807F1FF3C2FD28B423A
:10046C002DD9023F2944CB1A81B2B3FBFEF00EFB0F
:10047C00103341EA034100FB08F38B4207D969189A
:10048C0000F1FF3C17D28B4215D902382944C91A06
:10049C0040EA07473BE73746304609E70746E7E6B9
:1004AC001846FBE64145ABD2B8EB020A69EB0E02EB
:1004BC0001381346A4E76046E9E7184695E7674616
:1004CC00D1E781467CE702382C4447E7ACF1020CBB
:1004DC002B442FE7384608E73746E9E6704700BF5C
:1004EC0080B500AF0E4B1B680D4A43F400731360CC
:1004FC000B4B1B680A4A43F480631360084B1B6860
:10050C00074A43F480731360032000F02BF900209A
:10051C0000F008F801F0D8FF0023184680BD00BF9A
:10052C00003C024080B582B000AF7860124B1A6874
:10053C00124B1B7819464FF47A73B3FBF1F3B2FBF1
:10054C00F3F3184600F043F90346002B01D00123C6
:10055C000EE07B680F2B0AD8002279684FF0FF3031
:10056C0000F00BF9064A7B681360002300E00123BE
:10057C0018460837BD4680BD080000200400002046
:10058C000000002080B400AF064B1B781A46064BC7
:10059C001B681344044A136000BFBD465DF8047B1E
:1005AC00704700BF04000020A800002080B400AFFA
:1005BC00034B1B681846BD465DF8047B704700BFB3
:1005CC00A800002080B485B000AF78607B6803F091
:1005DC000703FB600C4BDB68BB60BA684FF6FF038C
:1005EC001340BB60FB681A02BB68134343F0BF6344
:1005FC0043F40033BB60044ABB68D36000BF1437BC
:10060C00BD465DF8047B704700ED00E080B400AFA0
:10061C00044BDB681B0A03F007031846BD465DF864
:10062C00047B704700ED00E080B483B000AF03465C
:10063C00FB7197F90730002B0BDBFB7903F01F02E2
:10064C00074997F907305B09012000FA02F241F8DB
:10065C00232000BF0C37BD465DF8047B704700BFFC
:10066C0000E100E080B483B000AF03463960FB7159
:10067C0097F90730002B0ADB3B68DAB20C4997F983
:10068C0007301201D2B20B4483F800230AE03B6816
:10069C00DAB20849FB7903F00F03043B1201D2B222
:1006AC000B441A7600BF0C37BD465DF8047B7047CF
:1006BC0000E100E000ED00E080B489B000AFF8602C
:1006CC00B9607A60FB6803F00703FB61FB69C3F157
:1006DC000703042B28BF0423BB61FB690433062BDF
:1006EC0002D9FB69033B00E000237B614FF0FF3232
:1006FC00BB6902FA03F3DA43BB681A407B699A4080
:10070C004FF0FF317B6901FA03F3D9437B680B404F
:10071C00134318462437BD465DF8047B7047000030
:10072C0080B582B000AF78607B68013BB3F1807F0D
:10073C0001D301230FE00A4A7B68013B53600F2170
:10074C004FF0FF30FFF78EFF054B00229A60044BF1
:10075C0007221A60002318460837BD4680BD00BF2B
:10076C0010E000E080B582B000AF78607868FFF7E9
:10077C0029FF00BF0837BD4680BD80B586B000AFED
:10078C000346B9607A60FB7300237B61FFF73EFF81
:10079C0078617A68B9687869FFF78EFF024697F935
:1007AC000F3011461846FFF75DFF00BF1837BD46E6
:1007BC0080BD80B582B000AF0346FB7197F907305E
:1007CC001846FFF731FF00BF0837BD4680BD80B526
:1007DC0082B000AF78607868FFF7A2FF0346184636
:1007EC000837BD4680BD000080B489B000AF78608A
:1007FC00396000237B6100233B610023BB61002334
:10080C00FB6177E10122FB6902FA03F37B613B6830
:10081C001B687A6913403B613A697B699A4240F0E4
:10082C0066813B685B68022B03D03B685B68122BCC
:10083C0023D1FB69DA087B68083253F82230BB619C
:10084C00FB6903F007039B000F2202FA03F3DB435F
:10085C00BA691340BB613B681A69FB6903F0070373
:10086C009B0002FA03F3BA691343BB61FB69DA0814
:10087C007B680832B96943F822107B681B68BB613E
:10088C00FB695B00032202FA03F3DB43BA691340F2
:10089C00BB613B685B6803F00302FB695B0002FA17
:1008AC0003F3BA691343BB617B68BA691A603B688E
:1008BC005B68012B0BD03B685B68022B07D03B6855
:1008CC005B68112B03D03B685B68122B30D17B68C3
:1008DC009B68BB61FB695B00032202FA03F3DB43F9
:1008EC00BA691340BB613B68DA68FB695B0002FACA
:1008FC0003F3BA691343BB617B68BA699A607B687E
:10090C005B68BB610122FB6902FA03F3DB43BA6942
:10091C001340BB613B685B681B0903F00102FB6978
:10092C0002FA03F3BA691343BB617B68BA695A6074
:10093C007B68DB68BB61FB695B00032202FA03F393
:10094C00DB43BA691340BB613B689A68FB695B0087
:10095C0002FA03F3BA691343BB617B68BA69DA60C4
:10096C003B685B6803F08053002B00F0C0800023D1
:10097C00FB60654B5B6C644A43F480435364624B8D
:10098C005B6C03F48043FB60FB68604AFB699B086B
:10099C00023352F82330BB61FB6903F003039B0065
:1009AC000F2202FA03F3DB43BA691340BB617B6885
:1009BC00574A934237D07B68564A934231D07B6872
:1009CC00554A93422BD07B68544A934225D07B687E
:1009DC00534A93421FD07B68524A934219D07B688A
:1009EC00514A934213D07B68504A93420DD07B6896
:1009FC004F4A934207D07B684E4A934201D1092358
:100A0C0012E00A2310E008230EE007230CE0062373
:100A1C000AE0052308E0042306E0032304E0022394
:100A2C0002E0012300E00023FA6902F003029200C5
:100A3C009340BA691343BB613449FB699B08023389
:100A4C00BA6941F823203C4B1B68BB613B69DB4313
:100A5C00BA691340BB613B685B6803F48033002BBD
:100A6C0003D0BA693B691343BB61334ABB6913605A
:100A7C00314B5B68BB613B69DB43BA691340BB61BB
:100A8C003B685B6803F40033002B03D0BA693B6905
:100A9C001343BB61284ABB695360274B9B68BB61FE
:100AAC003B69DB43BA691340BB613B685B6803F489
:100ABC008013002B03D0BA693B691343BB611E4AF8
:100ACC00BB6993601C4BDB68BB613B69DB43BA6958
:100ADC001340BB613B685B6803F40013002B03D02D
:100AEC00BA693B691343BB61134ABB69D360FB69A9
:100AFC000133FB61FB690F2B7FF684AE00BF2437FB
:100B0C00BD465DF8047B7047003802400038014058
:100B1C00000002400004024000080240000C0240A9
:100B2C00001002400014024000180240001C024059
:100B3C000020024000240240003C014080B582B0FD
:100B4C0000AF00237B6000233B60204B1B6C1F4AD3
:100B5C0043F0805313641D4B1B6C03F080533B60BC
:100B6C003B681B4B01221A60FFF720FD786009E0FF
:100B7C00FFF71CFD02467B68D31AB3F57A7F01D9C7
:100B8C0003231FE0134B5B6803F48033B3F5803F02
:100B9C00EED1114B01221A60FFF708FD786009E0D5
:100BAC00FFF704FD02467B68D31AB3F57A7F01D9AF
:100BBC00032307E0074B5B6803F40033B3F5003FF6
:100BCC00EED1002318460837BD4680BD00380240E0
:100BDC0040000E420070004044000E4280B586B0CA
:100BEC0000AF78607B68002B01D101232DE27B687C
:100BFC001B6803F00103002B75D0A34B9B6803F01B
:100C0C000C03042B0CD0A04B9B6803F00C03082B9B
:100C1C0012D19D4B5B6803F48003B3F5800F0BD1AD
:100C2C00994B1B6803F40033002B5BD07B685B682B
:100C3C00002B57D1012308E27B685B68B3F5803F3A
:100C4C0006D1914B1B68904A43F4803313601DE02E
:100C5C007B685B68B3F5A02F0CD18B4B1B688A4A61
:100C6C0043F480231360884B1B68874A43F480331A
:100C7C0013600BE0844B1B68834A23F480331360AE
:100C8C00814B1B68804A23F4802313607B685B686C
:100C9C00002B13D0FFF78AFC386108E0FFF786FCC5
:100CAC0002463B69D31A642B01D90323CDE1764B61
:100CBC001B6803F40033002BF0D014E0FFF776FC34
:100CCC00386108E0FFF772FC02463B69D31A642BCB
:100CDC0001D90323B9E16C4B1B6803F40033002BDF
:100CEC00F0D100E000BF7B681B6803F00203002B0F
:100CFC0063D0654B9B6803F00C03002B0BD0624B4D
:100D0C009B6803F00C03082B1CD15F4B5B6803F44E
:100D1C008003002B16D15C4B1B6803F00203002BE5
:100D2C0005D07B68DB68012B01D001238DE1564B8C
:100D3C001B6823F0F8027B681B69DB0052491343E4
:100D4C000B603AE07B68DB68002B20D04F4B012214
:100D5C001A60FFF72BFC386108E0FFF727FC02460E
:100D6C003B69D31A022B01D903236EE1464B1B6856
:100D7C0003F00203002BF0D0434B1B6823F0F80266
:100D8C007B681B69DB00404913430B6015E03F4B4C
:100D9C0000221A60FFF70AFC386108E0FFF706FC36
:100DAC0002463B69D31A022B01D903234DE1364B82
:100DBC001B6803F00203002BF0D17B681B6803F067
:100DCC000803002B30D07B685B69002B16D0304BAE
:100DDC0001221A60FFF7EAFB386108E0FFF7E6FB37
:100DEC0002463B69D31A022B01D903232DE1264B72
:100DFC005B6F03F00203002BF0D015E0244B0022B4
:100E0C001A60FFF7D3FB386108E0FFF7CFFB02460F
:100E1C003B69D31A022B01D9032316E11A4B5B6FE2
:100E2C0003F00203002BF0D17B681B6803F0040372
:100E3C00002B00F0A0800023FB75134B1B6C03F000
:100E4C008053002B0FD10023FB600F4B1B6C0E4A01
:100E5C0043F0805313640C4B1B6C03F08053FB600A
:100E6C00FB680123FB750B4B1B6803F48073002B91
:100E7C0021D1084B1B68074A43F480731360FFF7BA
:100E8C0095FB386111E000BF00380240000047427A
:100E9C00800E474200700040FFF788FB02463B691A
:100EAC00D31A022B01D90323CFE06A4B1B6803F43E
:100EBC008073002BF0D07B689B68012B06D1664BAE
:100ECC001B6F654A43F0010313671CE07B689B684A
:100EDC00052B0CD1604B1B6F5F4A43F00403136767
:100EEC005D4B1B6F5C4A43F0010313670BE05A4BDD
:100EFC001B6F594A23F001031367574B1B6F564A5C
:100F0C0023F0040313677B689B68002B15D0FFF755
:100F1C004DFB38610AE0FFF749FB02463B69D31AE7
:100F2C0041F28832934201D903238EE04A4B1B6F66
:100F3C0003F00203002BEED014E0FFF737FB38610F
:100F4C000AE0FFF733FB02463B69D31A41F28832C1
:100F5C00934201D9032378E03F4B1B6F03F002034C
:100F6C00002BEED1FB7D012B05D13B4B1B6C3A4A80
:100F7C0023F0805313647B689B69002B64D0364B41
:100F8C009B6803F00C03082B5CD07B689B69022BDD
:100F9C0041D1324B00221A60FFF708FB386108E0A0
:100FAC00FFF704FB02463B69D31A022B01D903233A
:100FBC004BE0294B1B6803F00073002BF0D17B68CE
:100FCC00DA697B681B6A1A437B685B6A9B011A436C
:100FDC007B689B6A5B08013B1B041A437B68DB6ADA
:100FEC001B061D4913434B601C4B01221A60FFF773
:100FFC00DDFA386108E0FFF7D9FA02463B69D31AEB
:10100C00022B01D9032320E0134B1B6803F0007360
:10101C00002BF0D018E0114B00221A60FFF7C6FA33
:10102C00386108E0FFF7C2FA02463B69D31A022B7B
:10103C0001D9032309E0084B1B6803F00073002B54
:10104C00F0D101E0012300E0002318461837BD461B
:10105C0080BD00BF00700040003802406000474275
:10106C0080B584B000AF786039607B68002B01D10B
:10107C000123CAE0674B1B6803F00F033A689A42DE
:10108C000CD9644B3A68D2B21A70624B1B6803F0ED
:10109C000F033A689A4201D00123B6E07B681B68C3
:1010AC0003F00203002B20D07B681B6803F00403C1
:1010BC00002B05D0584B9B68574A43F4E053936080
:1010CC007B681B6803F00803002B05D0524B9B6810
:1010DC00514A43F4604393604F4B9B6823F0F002FA
:1010EC007B689B684C4913438B607B681B6803F0DF
:1010FC000103002B44D07B685B68012B07D1464B66
:10110C001B6803F40033002B19D101237DE07B68AD
:10111C005B68022B03D07B685B68032B07D13E4BCB
:10112C001B6803F00073002B09D101236DE03A4BCF
:10113C001B6803F00203002B01D1012365E0364B41
:10114C009B6823F003027B685B68334913438B6015
:10115C00FFF72CFAF8600AE0FFF728FA0246FB6862
:10116C00D31A41F28832934201D903234DE02A4B22
:10117C009B6803F00C027B685B689B009A42EBD186
:10118C00244B1B6803F00F033A689A420CD2214B94
:10119C003A68D2B21A701F4B1B6803F00F033A68FF
:1011AC009A4201D0012330E07B681B6803F00403F2
:1011BC00002B08D0184B9B6823F4E0527B68DB684B
:1011CC00154913438B607B681B6803F00803002BE5
:1011DC0009D0114B9B6823F460427B681B69DB00D0
:1011EC000D4913438B6000F01DF801460A4B9B68B8
:1011FC001B0903F00F03094AD35C21FA03F3084AD5
:10120C0013600020FFF78EF9002318461037BD46F7
:10121C0080BD00BF003C0240003802408032000814
:10122C0008000020F0B585B000AF00237B600023E0
:10123C00FB6000233B600023BB60504B9B6803F0BA
:10124C000C03042B07D0082B08D0002B40F08D800A
:10125C004B4BBB608CE04B4BBB6089E0474B5B68F6
:10126C0003F03F037B60454B5B6803F48003002B6A
:10127C0023D0424B5B689B094FF0000440F2FF11F6
:10128C004FF0000203EA010504EA02063D4A02FBA4
:10129C0006F1002202FB05F20A443A49A5FB0101C2
:1012AC00531819467B684FF000041A462346FEF784
:1012BC0097FF03460C46FB6049E0304B5B689B098B
:1012CC004FF0000440F2FF114FF0000203EA010559
:1012DC0004EA0206294632464FF000034FF00004A0
:1012EC00540144EAD1644B0119462246491B62EB76
:1012FC0006024FF000034FF00004940144EA91649D
:10130C008B015B1A64EB02044FF000014FF00002FA
:10131C00E20042EA5372D9000B4614465B1944EBC7
:10132C0006044FF000014FF00002A20242EA935271
:10133C0099020B461446184621467B684FF0000470
:10134C001A462346FEF74CFF03460C46FB600B4B3C
:10135C005B681B0C03F0030301335B003B60FA6812
:10136C003B68B2FBF3F3BB6002E0054BBB6000BF14
:10137C00BB6818461437BD46F0BD00BF00380240AC
:10138C000024F40040787D0180B582B000AF786015
:10139C007B68002B01D101231DE07B6893F83D3065
:1013AC00DBB2002B06D17B68002283F83C207868E6
:1013BC0001F03CFA7B68022283F83D207B681A68B6
:1013CC007B6804331946104600F0B0FB7B680122A1
:1013DC0083F83D20002318460837BD4680BD80B5F4
:1013EC0082B000AF78607B68002B01D101231DE037
:1013FC007B6893F83D30DBB2002B06D17B68002272
:10140C0083F83C20786800F015F87B68022283F89A
:10141C003D207B681A687B6804331946104600F03F
:10142C0085FB7B68012283F83D2000231846083792
:10143C00BD4680BD80B483B000AF786000BF0C3770
:10144C00BD465DF8047B704780B584B000AF786012
:10145C0039603B680C2B41D801A252F823F000BF35
:10146C00A1140008E9140008E9140008E9140008A4
:10147C00B3140008E9140008E9140008E914000882
:10148C00C5140008E9140008E9140008E914000860
:10149C00D71400087B681B68DA687B681B6842F00D
:1014AC000202DA601BE07B681B68DA687B681B68E9
:1014BC0042F00402DA6012E07B681B68DA687B6831
:1014CC001B6842F00802DA6009E07B681B68DA6886
:1014DC007B681B6842F01002DA6000E000BF7B689A
:1014EC001B6801223968184600F00AFE7B681B68ED
:1014FC009B6803F00703FB60FB68062B07D07B6837
:10150C001B681A687B681B6842F001021A60002392
:10151C0018461037BD4680BD80B582B000AF7860EC
:10152C007B681B681B6903F00203022B22D17B68CA
:10153C001B68DB6803F00203022B1BD17B681B6862
:10154C006FF002021A617B6801221A777B681B68B4
:10155C009B6903F00303002B03D0786800F0BAFEFC
:10156C0005E0786800F0C4FA786800F0CBFA7B6884
:10157C0000221A777B681B681B6903F00403042B99
:10158C0022D17B681B68DB6803F00403042B1BD19E
:10159C007B681B686FF004021A617B6802221A7761
:1015AC007B681B689B6903F44073002B03D078683D
:1015BC0000F090FE05E0786800F09AFA786800F088
:1015CC00A1FA7B6800221A777B681B681B6903F001
:1015DC000803082B22D17B681B68DB6803F0080327
:1015EC00082B1BD17B681B686FF008021A617B68A3
:1015FC0004221A777B681B68DB6903F00303002B5A
:10160C0003D0786800F066FE05E0786800F070FAA8
:10161C00786800F077FA7B6800221A777B681B6881
:10162C001B6903F01003102B22D17B681B68DB684D
:10163C0003F01003102B1BD17B681B686FF010029A
:10164C001A617B6808221A777B681B68DB6903F4D4
:10165C004073002B03D0786800F03CFE05E07868FE
:10166C0000F046FA786800F04DFA7B6800221A7791
:10167C007B681B681B6903F00103012B0ED17B688F
:10168C001B68DB6803F00103012B07D17B681B6827
:10169C006FF001021A61786800F020FA7B681B6811
:1016AC001B6903F08003802B0ED17B681B68DB6801
:1016BC0003F08003802B07D17B681B686FF08002DE
:1016CC001A61786800F090FD7B681B681B6903F059
:1016DC004003402B0ED17B681B68DB6803F0400392
:1016EC00402B07D17B681B686FF040021A61786849
:1016FC0000F012FA7B681B681B6903F02003202B97
:10170C000ED17B681B68DB6803F02003202B07D10C
:10171C007B681B686FF020021A61786800F05AFD34
:10172C0000BF0837BD4680BD80B584B000AFF860FF
:10173C00B9607A60FB6893F83C30012B01D102232D
:10174C008AE0FB68012283F83C20FB68022283F8C4
:10175C003D207B68002B1BD1FB681868BB6819689F
:10176C00BB685A68BB68DB6800F006FBFB681B684B
:10177C009A69FB681B6822F00C029A61FB681B6873
:10178C009969BB689A68FB681B680A439A615AE0BE
:10179C007B68042B1CD1FB681868BB681968BB6894
:1017AC005A68BB68DB6800F08AFBFB681B689A69A7
:1017BC00FB681B6822F440629A61FB681B6899699C
:1017CC00BB689B681A02FB681B680A439A613AE083
:1017DC007B68082B1BD1FB681868BB681968BB6851
:1017EC005A68BB68DB6800F0D7FBFB681B68DA69DA
:1017FC00FB681B6822F00C02DA61FB681B68D96974
:10180C00BB689A68FB681B680A43DA611BE0FB68DB
:10181C001868BB681968BB685A68BB68DB6800F05D
:10182C00F7FBFB681B68DA69FB681B6822F44062F3
:10183C00DA61FB681B68D969BB689B681A02FB6894
:10184C001B680A43DA61FB68012283F83D20FB68C0
:10185C00002283F83C20002318461037BD4680BD7B
:10186C0080B584B000AF786039607B6893F83C3009
:10187C00012B01D10223A6E07B68012283F83C20D6
:10188C007B68022283F83D207B681B689B68FB60A9
:10189C00FB6823F07703FB60FB6823F47F43FB605A
:1018AC007B681B68FA689A603B681B68402B67D0A2
:1018BC00402B0BD8102B73D0102B02D8002B6FD0D1
:1018CC0078E0202B6CD0302B6AD073E0702B0DD0CD
:1018DC00702B04D8502B33D0602B41D06AE0B3F579
:1018EC00805F66D0B3F5005F17D063E07B68186843
:1018FC003B6899683B685A683B68DB6800F0E0FB22
:10190C007B681B689B68FB60FB6843F07703FB609C
:10191C007B681B68FA689A604CE07B6818683B68C7
:10192C0099683B685A683B68DB6800F0C9FB7B68C8
:10193C001B689A687B681B6842F480429A6039E0A5
:10194C007B6818683B6859683B68DB681A4600F08E
:10195C0087FA7B681B685021184600F096FB29E03B
:10196C007B6818683B6859683B68DB681A4600F06E
:10197C00E3FA7B681B686021184600F086FB19E0CF
:10198C007B6818683B6859683B68DB681A4600F04E
:10199C0067FA7B681B684021184600F076FB09E06B
:1019AC007B681A683B681B681946104600F06DFB93
:1019BC0000E000BF7B68012283F83D207B68002299
:1019CC0083F83C20002318461037BD4680BD80B5F7
:1019DC0082B000AF786039607B6893F83C30012BA3
:1019EC0001D1022331E07B68012283F83C207B6823
:1019FC00022283F83D203968786800F037F90346F5
:101A0C00002B09D07B68012283F83D207B680022E3
:101A1C0083F83C20012318E07B681B68DA687B683C
:101A2C001B6822F04002DA607B681B68DA687B680E
:101A3C001B6822F48042DA607B68012283F83D2027
:101A4C007B68002283F83C20002318460837BD46EB
:101A5C0080BD000080B485B000AF78603960002391
:101A6C00FB603B680C2B31D801A252F823F000BF6D
:101A7C00B11A0008D91A0008D91A0008D91A000896
:101A8C00BB1A0008D91A0008D91A0008D91A00087C
:101A9C00C51A0008D91A0008D91A0008D91A000862
:101AAC00CF1A00087B681B685B6BFB600FE07B68E0
:101ABC001B689B6BFB600AE07B681B68DB6BFB6045
:101ACC0005E07B681B681B6CFB6000E000BFFB68DB
:101ADC0018461437BD465DF8047B704780B483B05C
:101AEC0000AF786000BF0C37BD465DF8047B7047D3
:101AFC0080B483B000AF786000BF0C37BD465DF892
:101B0C00047B704780B483B000AF786000BF0C37A3
:101B1C00BD465DF8047B704780B483B000AF78603D
:101B2C0000BF0C37BD465DF8047B704780B485B0B0
:101B3C0000AF786039607B681B68FB607B68404A4B
:101B4C00934213D07B68B3F1804F0FD07B683D4A32
:101B5C0093420BD07B683C4A934207D07B683B4A4C
:101B6C00934203D07B683A4A934208D1FB6823F036
:101B7C007003FB603B685B68FA681343FB607B682F
:101B8C002F4A93422BD07B68B3F1804F27D07B68D0
:101B9C002C4A934223D07B682B4A93421FD07B68FC
:101BAC002A4A93421BD07B68294A934217D07B6800
:101BBC00284A934213D07B68274A93420FD07B6804
:101BCC00264A93420BD07B68254A934207D07B6808
:101BDC00244A934203D07B68234A934208D1FB6882
:101BEC0023F44073FB603B68DB68FA681343FB60CB
:101BFC00FB6823F080023B685B691343FB607B68E6
:101C0C00FA681A603B689A687B68DA623B681A6803
:101C1C007B689A627B680A4A934203D07B680C4AC1
:101C2C00934203D13B681A697B681A637B68012273
:101C3C005A6100BF1437BD465DF8047B704700BF86
:101C4C00000001400004004000080040000C00406F
:101C5C0000040140004001400044014000480140A4
:101C6C0000180040001C00400020004080B586B0E9
:101C7C0000AF786039607B681B689B687B617B690F
:101C8C0023F070037B613B685B687A6913437B616B
:101C9C007B6923F007037B613B681B687A691343FC
:101CAC007B617B681B687A699A603B685B68302B48
:101CBC005CD0302B06D8102B58D0202B56D0002BB4
:101CCC0054D054E0502B3DD0502B02D8402B10D088
:101CDC004DE0602B40D0702B00D048E07B6818683A
:101CEC003B68D9683B689A683B681B6900F0E8F967
:101CFC003DE03B681B68052B01D1012338E07B6874
:101D0C001B681B6A3B617B681B681A6A7B681B68D3
:101D1C0022F001021A627B681B689B69FB60FB68FE
:101D2C0023F0F003FB603B681B691B01FA6813434B
:101D3C00FB607B681B68FA689A617B681B683A6970
:101D4C001A6214E07B6818683B6899683B681B69E9
:101D5C001A4600F085F80AE07B6818683B689968B9
:101D6C003B681B691A4600F0E7F800E000BF00234F
:101D7C0018461837BD4680BD80B487B000AFF860F8
:101D8C00B9607A603B60FB681B6A23F00102FB6858
:101D9C001A62FB689B697B61FB681B6A3B61FB6891
:101DAC00284A93421BD0FB68B3F1804F17D0FB68D5
:101DBC00254A934213D0FB68244A93420FD0FB6808
:101DCC00234A93420BD0FB68224A934207D0FB680C
:101DDC00214A934203D0FB68204A934201D101234C
:101DEC0000E00023002B08D07B6923F003037B6108
:101DFC007A697B6813437B6103E07B6943F00103E1
:101E0C007B617B6923F0F0037B613B681B01DBB2D8
:101E1C007A6913437B613B6923F00A033B61BB681E
:101E2C0003F00A033A6913433B61FB687A699A61D0
:101E3C00FB683A691A6200BF1C37BD465DF8047B2B
:101E4C00704700BF00000140000400400008004043
:101E5C00000C00400004014000400140001800400C
:101E6C0080B487B000AFF860B9607A60FB681B6A19
:101E7C007B61FB681B6A23F00102FB681A62FB683A
:101E8C009B693B613B6923F0F0033B617B681B0161
:101E9C003A6913433B617B6923F00A037B617A69DE
:101EAC00BB6813437B61FB683A699A61FB687A698A
:101EBC001A6200BF1C37BD465DF8047B704780B4C6
:101ECC0087B000AFF860B9607A603B60FB681B6A52
:101EDC0023F01002FB681A62FB689B697B61FB684C
:101EEC001B6A3B617B6923F440737B617B681B023B
:101EFC007A6913437B617B6923F470437B613B6894
:101F0C001B039BB27A6913437B613B6923F0A003EB
:101F1C003B61BB681B0103F0A0033A6913433B61AF
:101F2C00FB687A699A61FB683A691A6200BF1C37D0
:101F3C00BD465DF8047B704780B487B000AFF86095
:101F4C00B9607A60FB681B6A23F01002FB681A62A6
:101F5C00FB689B697B61FB681B6A3B617B6923F4B3
:101F6C0070437B617B681B037A6913437B613B691C
:101F7C0023F0A0033B61BB681B013A6913433B612F
:101F8C00FB687A699A61FB683A691A6200BF1C3770
:101F9C00BD465DF8047B704780B487B000AFF86035
:101FAC00B9607A603B60FB681B6A23F48072FB6843
:101FBC001A62FB68DB697B61FB681B6A3B617B69AE
:101FCC0023F003037B617A697B6813437B617B6934
:101FDC0023F0F0037B613B681B01DBB27A6913438E
:101FEC007B613B6923F420633B61BB681B0203F4F8
:101FFC0020633A6913433B61FB687A69DA61FB68D9
:10200C003A691A6200BF1C37BD465DF8047B704705
:10201C0080B487B000AFF860B9607A603B60FB6851
:10202C001B6A23F48052FB681A62FB68DB697B61D4
:10203C00FB681B6A3B617B6923F440737B617B68A3
:10204C001B027A6913437B617B6923F470437B61C8
:10205C003B681B039BB27A6913437B613B6923F496
:10206C0020433B61BB681B0303F420433A691343D1
:10207C003B61FB687A69DA61FB683A691A6200BFF6
:10208C001C37BD465DF8047B704780B485B000AF4B
:10209C00786039607B689B68FB60FB6823F0700399
:1020AC00FB603A68FB68134343F00703FB607B68F3
:1020BC00FA689A6000BF1437BD465DF8047B704720
:1020CC0080B487B000AFF860B9607A603B60FB68A1
:1020DC009B687B617B6923F47F437B613B681A02BD
:1020EC007B681A43BB6813437A6913437B61FB68B3
:1020FC007A699A6000BF1C37BD465DF8047B704757
:10210C0080B487B000AFF860B9607A60BB6803F048
:10211C001F03012202FA03F37B61FB681A6A7B69D5
:10212C00DB431A40FB681A62FB681A6ABB6803F04F
:10213C001F03796801FA03F31A43FB681A6200BFA4
:10214C001C37BD465DF8047B704780B485B000AF8A
:10215C00786039607B6893F83C30012B01D1022305
:10216C0032E07B68012283F83C207B68022283F8F2
:10217C003D207B681B685B68FB607B681B689B6809
:10218C00BB60FB6823F07003FB603B681B68FA685C
:10219C001343FB60BB6823F08003BB603B685B6848
:1021AC00BA681343BB607B681B68FA685A607B682B
:1021BC001B68BA689A607B68012283F83D207B68B3
:1021CC00002283F83C20002318461437BD465DF8E6
:1021DC00047B704780B483B000AF786000BF0C37CD
:1021EC00BD465DF8047B704780B483B000AF786067
:1021FC0000BF0C37BD465DF8047B704780B485B0DA
:10220C0000AF0023FB601E4B1B6B1D4A43F0040305
:10221C0013631B4B1B6B03F00403FB60FB68002375
:10222C00BB60174B1B6B164A43F080031363144BB4
:10223C001B6B03F08003BB60BB6800237B60104BFF
:10224C001B6B0F4A43F0010313630D4B1B6B03F025
:10225C0001037B607B6800233B60094B1B6B084AC6
:10226C0043F002031363064B1B6B03F002033B604A
:10227C003B6800BF1437BD465DF8047B704700BF58
:10228C000038024080B483B000AF78604FF06043F8
:10229C00D3F8803E03F00103002B13D04FF06043C2
:1022AC00D3F8003E03F00103002B0BD000E000BF7D
:1022BC004FF060431B68002BF9D04FF060437A68F5
:1022CC00D2B21A707B6818460C37BD465DF8047B99
:1022DC007047000080B582B000AF78607B681B7FD0
:1022EC00012B06D100217868FFF7B4FB0246084B9E
:1022FC001A607B681B7F022B06D104217868FFF7DC
:10230C00A9FB0246034B1A6000BF0837BD4680BDCF
:10231C008C0000209000002080B500AFFEF7E0F8A4
:10232C0000F042F8FFF76AFF00F0E2F9174800F0FE
:10233C0085FB00211648FFF787F804211448FFF7A6
:10234C0083F8144B1B68002B07D1134B4FF0000282
:10235C001A60124B00221A60F3E7114B1B686422BF
:10236C0002FB03F20B4B1B68B2FBF3F307EE903A44
:10237C00F8EE677A084BC3ED007A064B1B68094AE6
:10238C00B2FBF3F3054A1360DBE700BF78320008B9
:10239C00AC0000208C00002094000020980000204D
:1023AC0090000020804A5D0580B594B000AF07F125
:1023BC00200330220021184600F0DCFA07F10C0350
:1023CC0000221A605A609A60DA601A610023BB60BE
:1023DC002B4B1B6C2A4A43F080531364284B1B6C09
:1023EC0003F08053BB60BB6800237B60254B1B68EC
:1023FC00244A43F440431360224B1B6803F44043CC
:10240C007B607B6801233B624FF480337B62022349
:10241C00BB634FF48003FB630F233B64D8237B64C3
:10242C000223BB640423FB6407F120031846FEF768
:10243C00D5FB0346002B01D000F042F8FEF77EFBE3
:10244C000346002B01D000F03BF80F23FB60022366
:10245C003B6100237B614FF4A053BB614FF480536D
:10246C00FB6107F10C0305211846FEF7F9FD034645
:10247C00002B01D000F024F800BF5037BD4680BDC2
:10248C00003802400070004080B586B000AFF860A4
:10249C00B9607A6000237B6109E0BB685A1CBA60A2
:1024AC001B781846FFF7EEFE7B6901337B617A6976
:1024BC007B689A42F1DB7B6818461837BD4680BDB5
:1024CC0080B400AFFEE7000080B483B000AF0023FF
:1024DC007B60104B5B6C0F4A43F4804353640D4B91
:1024EC005B6C03F480437B607B6800233B60094B8F
:1024FC001B6C084A43F080531364064B1B6C03F0AF
:10250C0080533B603B6800BF0C37BD465DF8047BD5
:10251C00704700BF0038024080B400AF00BFBD461A
:10252C005DF8047B704780B400AFFEE780B400AF69
:10253C00FEE780B400AFFEE780B400AFFEE780B4E6
:10254C0000AF00BFBD465DF8047B704780B400AFA0
:10255C0000BFBD465DF8047B704780B400AF00BF80
:10256C00BD465DF8047B704780B500AFFEF70AF8F6
:10257C0000BF80BD80B500AF0248FEF7CDFF00BFA5
:10258C0080BD00BFAC00002080B586B000AFF86005
:10259C00B9607A6000237B610AE0AFF300800146EA
:1025AC00BB685A1CBA60CAB21A707B6901337B6172
:1025BC007A697B689A42F0DB7B6818461837BD460F
:1025CC0080BD80B483B000AF78604FF0FF33184605
:1025DC000C37BD465DF8047B704780B483B000AF08
:1025EC00786039603B684FF400525A6000231846FB
:1025FC000C37BD465DF8047B704780B483B000AFE8
:10260C007860012318460C37BD465DF8047B704793
:10261C0080B485B000AFF860B9607A6000231846CA
:10262C001437BD465DF8047B7047000080B584B05C
:10263C0000AF7860114B1B68002B02D10F4B104A76
:10264C001A600E4B1B68FB600C4B1A687B681344BA
:10265C006A46934207D900F063F902460C231360D3
:10266C004FF0FF3306E0054B1A687B681344034AAE
:10267C001360FB6818461037BD4680BD9C000020D7
:10268C00F000002080B400AF164BD3F88830154A08
:10269C0043F47003C2F88830134B1B68124A43F0A2
:1026AC0001031360104B00229A600F4B1B680E4AFB
:1026BC0023F0847323F4803313600B4B0B4A5A6062
:1026CC00094B1B68084A23F480231360064B002235
:1026DC00DA60044B4FF000629A6000BFBD465DF8B3
:1026EC00047B704700ED00E00038024010300024FD
:1026FC0080B590B000AF07F1300300221A605A6029
:10270C009A60DA6007F11C0300221A605A609A6022
:10271C00DA601A6107F10C0300221A605A609A60A1
:10272C00DA603B1D00221A605A603E4B3E4A1A602A
:10273C003C4B00225A603B4B00229A60394B4FF6BF
:10274C00FE72DA60374B00221A61364B00229A6116
:10275C003448FEF719FE0346002B01D0FFF7B0FEFC
:10276C004FF480533B6307F1300319462D48FFF7B4
:10277C0077F80346002B01D0FFF7A2FE2948FEF79D
:10278C002EFE0346002B01D0FFF79AFE0423FB61BB
:10279C0050233B6200237B620023BB620023FB625D
:1027AC0007F11C0319461F48FFF711F90346002BCC
:1027BC0001D0FFF785FE0023FB6001233B61002362
:1027CC007B610023BB6107F10C03002219461548FD
:1027DC00FEF7AAFF0346002B01D0FFF771FE022380
:1027EC00FB6002233B6107F10C03042219460D48E0
:1027FC00FEF79AFF0346002B01D0FFF761FE002382
:10280C007B600023BB603B1D19460648FFF79DFC0F
:10281C000346002B01D0FFF753FE00BF4037BD46E7
:10282C0080BD00BFAC0000200008004080B58AB01D
:10283C0000AF786007F1140300221A605A609A60A6
:10284C00DA601A617B681B681D4A934233D10023FE
:10285C003B611C4B1B6C1B4A43F004031364194B68
:10286C001B6C03F004033B613B690023FB60154BBD
:10287C001B6B144A43F002031363124B1B6B03F0E4
:10288C000203FB60FB6840237B611223BB610223C4
:10289C00FB6102233B6202237B6207F1140319469E
:1028AC000948FDF7A1FF002200211E20FDF765FF5E
:1028BC001E20FDF77EFF00BF2837BD4680BD00BF40
:1028CC00000800400038024000040240DFF834D019
:1028DC00002103E00C4B5B58435004310B480C4B6C
:1028EC0042189A42F6D30B4A02E0002342F8043B0A
:1028FC00094B9A42F9D3FFF7C5FE00F017F8FFF722
:10290C000BFD70470000032004330008000000207A
:10291C007000002070000020F0000020FEE7000096
:10292C00014B1868704700BF0C00002070B50D4EAD
:10293C000D4CA41BA4100025A54209D10B4E0C4C28
:10294C0000F088FCA41BA4100025A54205D170BD85
:10295C0056F8253098470135EEE756F8253098475C
:10296C000135F2E7FC320008FC320008FC320008AA
:10297C000033000802440346934200D1704703F829
:10298C00011BF9E770B50E46054618B183690BB902
:10299C0000F00CFAAB69AC6813B9284600F006FAE3
:1029AC00234B9C4217D16C68A3891B071DD5236947
:1029BC00DBB1013EA36816F8011F013BA360E9B926
:1029CC00002B2EDA22460A21284600F03FF801306F
:1029DC0011D00A2011E0174B9C4201D1AC68E3E7FF
:1029EC00154B9C4208BFEC68DEE72146284600F0F8
:1029FC007FF80028DDD04FF0FF3070BD002B04DADB
:102A0C00A2699A4206DC0A2904D023685A1C226067
:102A1C001970CFE72246284600F018F80130C9D1CA
:102A2C00E9E723680A205A1C22601870E5E700BF0A
:102A3C00B4320008D432000894320008024B01462C
:102A4C001868FFF79FBF00BF0C000020F8B50E46BA
:102A5C001446054618B183690BB900F0A7F9214B50
:102A6C009C422AD16C68A369A360A3891A072ED54E
:102A7C00236963B323692068C01A6369F6B2834281
:102A8C00374604DC2146284600F026F928BBA3680B
:102A9C00013BA36023685A1C22601E7063690130DD
:102AAC00834204D0A389DB0719D50A2E17D12146FE
:102ABC00284600F011F990B10FE00B4B9C4201D16C
:102ACC00AC68D0E7094B9C4208BFEC68CBE72146C9
:102ADC00284600F00DF80028CCD04FF0FF373846D0
:102AEC00F8BD00BFB4320008D4320008943200089C
:102AFC00324B70B51D6806460C4625B1AB6913B94F
:102B0C00284600F053F92E4B9C420FD16C68B4F957
:102B1C000C309AB215072CD4D00611D4092232608D
:102B2C0043F04003A3814FF0FF303EE0254B9C4225
:102B3C0001D1AC68EBE7244B9C4208BFEC68E6E79C
:102B4C00510712D5616B41B104F14403994202D093
:102B5C00304600F019FA00236363A38923F02403A1
:102B6C00A3810023636023692360A38943F00803D6
:102B7C00A38123694BB9A38903F42073B3F5007FB8
:102B8C0003D02146304600F0BFF9A28912F00103B0
:102B9C000CD00023A36063695B42A361236953B922
:102BAC00B4F90C3013F08000BAD170BD920758BF45
:102BBC006369A360F2E70020F7E700BF0C00002078
:102BCC00B4320008D4320008943200088A892DE906
:102BDC00F041054610070C4658D44B68002B05DC19
:102BEC000B6C002B02DC0020BDE8F081E66A002EA5
:102BFC00F9D0002312F480522F68216A2B6032D056
:102C0C00606DA3895A0705D56368C01A636B0BB155
:102C1C00236CC01A00230246E66A216A2846B04794
:102C2C00431CA38906D129681D2948D8294ACA40C2
:102C3C00D60744D500226260D9042269226004D5EB
:102C4C00421C01D12B6803B96065616B2F600029B0
:102C5C00C9D004F14403994202D0284600F094F9FB
:102C6C0000206063C0E701232846B047411CC8D14F
:102C7C002B68002BC5D01D2B01D0162B01D12F603A
:102C8C00B1E7A38943F04003A381ADE70F69002F9F
:102C9C00A9D093070E6808BF4B690F6018BF0023BB
:102CAC00A6EB07088B60B8F1000F9CDD43463A4653
:102CBC00216AA66A2846B047002806DCA38943F09F
:102CCC004003A3814FF0FF308EE70744A8EB0008C8
:102CDC00E9E700BF0100402038B50B6905460C46FA
:102CEC00DBB118B183690BB900F060F80C4B9C4256
:102CFC0009D16C68B4F90C307BB121462846BDE88B
:102D0C003840FFF763BF074B9C4201D1AC68F1E739
:102D1C00054B9C4208BFEC68ECE7002038BD00BFB7
:102D2C00B4320008D432000894320008002310B5E5
:102D3C000446C0E90033836081814366C281C0E9E7
:102D4C0004338361194608225C30FFF713FE054BF0
:102D5C006362054BA362054BE362054B246223635C
:102D6C0010BD00BF05310008273100085F31000895
:102D7C0083310008014900F085B800BFE52C00083C
:102D8C0070B54A1E682555430E4605F1740100F0D6
:102D9C0049F9044640B10021C0E900160C30A0608E
:102DAC0005F16802FFF7E6FD204670BD836910B59A
:102DBC00044633BBC0E912330365124B124A1B683D
:102DCC008262984204BF0123836100F01FF86060A7
:102DDC00204600F01BF8A060204600F017F80022F7
:102DEC00E06004216068FFF7A1FF01220921A068BF
:102DFC00FFF79CFF02221221E068FFF797FF0123E7
:102E0C00A36110BD90320008812D0008F8B51B4B52
:102E1C001E68B369074613B93046FFF7C7FF48363B
:102E2C00D6E90134013B03D5336833B13668F7E793
:102E3C00B4F90C506DB16834F4E704213846FFF74F
:102E4C009FFF30600028F1D10C233B6004462046E4
:102E5C00F8BD0B4B6566C4E90055A560C4E90335A4
:102E6C00C4E905550822294604F15C00FFF782FDF0
:102E7C00C4E90D55C4E91255E9E700BF90320008CA
:102E8C000100FFFF2DE9F8438046894600F1480414
:102E9C00002614B93046BDE8F883D4E90175013F2A
:102EAC0001D52468F5E7AB89012B07D9B5F90E30AC
:102EBC00013303D029464046C84706436835EEE740
:102ECC0070B50E46B1F90E10002996B014461D4689
:102EDC0007DA00232B60B3891A0610D44FF48063F1
:102EEC000EE06A4600F06EF90028F2DB019A02F45B
:102EFC007042A2F500535A425A412A60EEE7402331
:102F0C000020236016B070BD8B8973B59D070646F3
:102F1C000C4607D504F14703236023610123636149
:102F2C0002B070BD01AB6A46FFF7CAFF00990546B7
:102F3C00304600F077F848B9B4F90C309A05EFD464
:102F4C0023F0030343F00203A381E3E70D4BB362C9
:102F5C00A389206043F08003A381009B6361019BE4
:102F6C0020615BB1B4F90E10304600F03DF928B188
:102F7C00A38923F0030343F00103A381A3891D4319
:102F8C00A581CDE7812D000838B50546002945D02F
:102F9C0051F8043C0C1F002BB8BFE41800F046F9A4
:102FAC001F4A1368104633B9636014602846BDE8A5
:102FBC00384000F03CB9A3420CD921686218934206
:102FCC0004BF1A685B68636004BF52182260046017
:102FDC00ECE713465A680AB1A242FAD91968581894
:102FEC00A0420BD120680144581882421960DDD1EF
:102FFC00106852685A6001441960D7E702D90C2353
:10300C002B60D3E7206821188A4204BF11685268EC
:10301C00626004BF091821605C60C7E738BD00BF5F
:10302C00A000002070B5CD1C25F0030508350C2D33
:10303C0038BF0C25002D064601DBA94203D90C2311
:10304C003360002070BD00F0F1F8214A146821466D
:10305C0091B9204C23681BB9304600F03DF8206034
:10306C002946304600F038F8431C24D10C23336039
:10307C00304600F0DCF8E4E70B685B1B18D40B2B34
:10308C000FD90B60CD50CC18304600F0D0F804F1BD
:10309C000B00231D20F00700C31AD3D05A42E25074
:1030AC00D0E78C424B6816BF636013600C46EBE7AD
:1030BC000C464968CCE7C41C24F00304A04205D09C
:1030CC00211A304600F008F80130CFD02560DBE73C
:1030DC00A0000020A400002038B5064C00230546B3
:1030EC0008462360FFF7A2FA431C02D1236803B100
:1030FC002B6038BDEC00002010B50C46B1F90E1059
:10310C0000F096F80028ABBF636DA3891B1823F45D
:10311C008053ACBF6365A38110BD2DE9F0411F4600
:10312C008B89DB0505460C46164605D50223002285
:10313C00B1F90E1000F068F8A389B4F90E1023F45D
:10314C008053A38132463B462846BDE8F04100F04F
:10315C0017B810B50C46B1F90E1000F055F8431C19
:10316C00A38915BF606523F4805343F48053A38176
:10317C0018BFA38110BDB1F90E1000F013B80000F8
:10318C0038B5074C054608461146002222601A46FF
:10319C00FFF77AF9431C02D1236803B12B6038BDC9
:1031AC00EC00002038B5064C002305460846236089
:1031BC00FFF707FA431C02D1236803B12B6038BD1B
:1031CC00EC00002038B5074C002305460846114694
:1031DC002360FFF702FA431C02D1236803B12B6072
:1031EC0038BD00BFEC00002038B5064C0023054666
:1031FC0008462360FFF701FA431C02D1236803B190
:10320C002B6038BDEC00002038B5074C054608464D
:10321C001146002222601A46FFF7FAF9431C02D12C
:10322C00236803B12B6038BDEC0000207047704759
:10323C0038B5074C054608461146002222601A464E
:10324C00FFF7A2F9431C02D1236803B12B6038BDF0
:10325C00EC000020F8B500BFF8BC08BC9E467047D7
:0C326C00F8B500BFF8BC08BC9E467047D7
:1032780053746172740D000000000000000000002B
:1032880001020304060708091000002000000000DE
:103298000000000000000000000000000000000026
:1032A8000000000000000000000000000000000016
:1032B8000000000000000000000000000000000006
:1032C80000000000000000000000000000000000F6
:1032D80000000000000000000000000000000000E6
:0C32E800000000000000000000000000DA
:0832F40028CFFF7F010000005C
:0432FC00D1010008F4
:04330000AD01000813
:1033040010000000010000000024F4001000002060
:1033140000000000B4320008D432000894320008DF
:103324000000000000000000000000000000000099
:103334000000000000000000000000000000000089
:103344000000000000000000000000000000000079
:103354000000000000000000000000000000000069
:103364000000000000000000000000000000000059
:04000005080028D9EE
:00000001FF
