:020000040800F2
:1000000000000320712E0008C5280008D32800082E
:10001000D9280008DF280008E528000800000000B3
:10002000000000000000000000000000EB280008B5
:10003000F928000800000000072900081529000819
:10004000C12E0008C12E0008C12E0008C12E0008D4
:10005000C12E0008C12E0008C12E0008C12E0008C4
:10006000C12E0008C12E0008C12E0008C12E0008B4
:10007000C12E0008C12E0008C12E0008C12E0008A4
:10008000C12E0008C12E0008C12E0008C12E000894
:10009000C12E0008C12E0008C12E0008C12E000884
:1000A000C12E0008C12E0008C12E0008C12E000874
:1000B000C12E0008C12E0008C12E0008C12E000864
:1000C000C12E0008C12E0008C12E0008C12E000854
:1000D000C12E0008C12E0008C12E0008C12E000844
:1000E000C12E0008C12E0008C12E0008C12E000834
:1000F000C12E0008C12E000821290008C12E0008C9
:10010000C12E0008C12E0008C12E0008C12E000813
:10011000C12E0008C12E000835290008C12E000894
:10012000C12E0008C12E0008C12E0008C12E0008F3
:10013000C12E0008C12E0008C12E0008C12E0008E3
:10014000C12E0008C12E0008C12E0008C12E0008D3
:10015000C12E0008C12E0008C12E0008C12E0008C3
:10016000C12E0008C12E0008C12E0008C12E0008B3
:10017000C12E0008C12E0008C12E0008000000009A
:10018000C12E0008C12E0008C12E0008C12E000893
:10019000C12E0008C12E0008C12E0008C12E000883
:0C01A000C12E0008C12E0008C12E00086E
:1001AC0010B5054C237833B9044B13B10448AFF3A5
:1001BC0000800123237010BD70000020000000009F
:1001CC00F837000808B5034B1BB103490348AFF3DC
:1001DC00008008BD0000000074000020F837000803
:1001EC0053B94AB9002908BF00281CBF4FF0FF3192
:1001FC004FF0FF3000F072B9ADF1080C6DE904CE90
:10020C0000F006F8DDF804E0DDE9022304B07047E5
:10021C002DE9F047089E04468846002B4BD18A42B4
:10022C00154667D9B2FA82F24AB1C2F1200701FA37
:10023C0002F320FA07F7954047EA030894404FEA87
:10024C00154E230CB8FBFEF71FFA85FC0EFB178826
:10025C0043EA084307FB0CF1994209D9EB1807F163
:10026C00FF3080F01B81994240F21881023F2B44F1
:10027C005B1AA4B2B3FBFEF00EFB103344EA03444A
:10028C0000FB0CFCA44509D92C1900F1FF3380F0BC
:10029C000781A44540F2048102382C4440EA07400F
:1002AC00A4EB0C0400271EB1D4400023C6E9004384
:1002BC003946BDE8F0878B4209D9002E00F0EB805F
:1002CC000027C6E9000138463946BDE8F087B3FA85
:1002DC0083F7002F47D18B4202D3824200F2FA807F
:1002EC00841A61EB030301209846002EE0D0C6E986
:1002FC000048DDE702B9FFDEB2FA82F2002A40F0D4
:10030C008F80491B4FEA154E1FFA85F80127B1FB68
:10031C00FEFC230C0EFB1C1143EA014308FB0CF101
:10032C00994207D9EB180CF1FF3002D2994200F236
:10033C00CD808446591AA3B2B1FBFEF00EFB10140B
:10034C0043EA044408FB00F8A04507D92C1900F136
:10035C00FF3302D2A04500F2B6801846A4EB080485
:10036C0040EA0C409FE7C7F1200CBB4022FA0CFE80
:10037C004EEA030E01FA07F420FA0CF521FA0CF3FD
:10038C004FEA1E482543B3FBF8F92C0C08FB193334
:10039C001FFA8EFA44EA034309FB0AF49C4202FA60
:1003AC0007F200FA07F10BD91EEB030309F1FF303A
:1003BC0080F087809C4240F28480A9F1020973444A
:1003CC001B1BADB2B3FBF8F008FB103345EA03443A
:1003DC0000FB0AFAA24508D91EEB040400F1FF3316
:1003EC006BD2A24569D90238744440EA0940A0FB9B
:1003FC000289A4EB0A044C45C2464B4654D351D057
:10040C00002E69D0B1EB0A0564EB030404FA0CFC72
:10041C00FD40FC404CEA0505C6E90054002747E7BF
:10042C00C2F1200320FA03F7954001FA02F021FAF9
:10043C0003F34FEA154E3843010CB3FBFEF71FFADA
:10044C0085F80EFB173341EA034107FB08F38B4297
:10045C0004FA02F407D9691807F1FF3C2FD28B423A
:10046C002DD9023F2944CB1A81B2B3FBFEF00EFB0F
:10047C00103341EA034100FB08F38B4207D969189A
:10048C0000F1FF3C17D28B4215D902382944C91A06
:10049C0040EA07473BE73746304609E70746E7E6B9
:1004AC001846FBE64145ABD2B8EB020A69EB0E02EB
:1004BC0001381346A4E76046E9E7184695E7674616
:1004CC00D1E781467CE702382C4447E7ACF1020CBB
:1004DC002B442FE7384608E73746E9E6704700BF5C
:1004EC0080B500AF0E4B1B680D4A43F400731360CC
:1004FC000B4B1B680A4A43F480631360084B1B6860
:10050C00074A43F480731360032000F04DF9002078
:10051C0000F008F802F0A8F90023184680BD00BFCF
:10052C00003C024080B582B000AF7860124B1A6874
:10053C00124B1B7819464FF47A73B3FBF1F3B2FBF1
:10054C00F3F3184600F065F90346002B01D00123A4
:10055C000EE07B680F2B0AD8002279684FF0FF3031
:10056C0000F02DF9064A7B681360002300E001239C
:10057C0018460837BD4680BD080000200400002046
:10058C000000002080B400AF064B1B781A46064BC7
:10059C001B681344044A136000BFBD465DF8047B1E
:1005AC00704700BF04000020B000002080B400AFF2
:1005BC00034B1B681846BD465DF8047B704700BFB3
:1005CC00B000002080B584B000AF7860FFF7EEFF7C
:1005DC00B8607B68FB60FB68B3F1FF3F05D0094B4B
:1005EC001B781A46FB681344FB6000BFFFF7DEFF65
:1005FC000246BB68D31AFA689A42F7D800BF103784
:10060C00BD4680BD0400002080B485B000AF78608A
:10061C007B6803F00703FB600C4BDB68BB60BA68BC
:10062C004FF6FF031340BB60FB681A02BB68134311
:10063C0043F0BF6343F40033BB60044ABB68D36030
:10064C0000BF1437BD465DF8047B704700ED00E039
:10065C0080B400AF044BDB681B0A03F00703184699
:10066C00BD465DF8047B704700ED00E080B483B0BC
:10067C0000AF0346FB7197F90730002B0BDBFB79BE
:10068C0003F01F02074997F907305B09012000FAB4
:10069C0002F241F8232000BF0C37BD465DF8047B05
:1006AC00704700BF00E100E080B483B000AF0346A8
:1006BC003960FB7197F90730002B0ADB3B68DAB223
:1006CC000C4997F907301201D2B20B4483F800237E
:1006DC000AE03B68DAB20849FB7903F00F03043BEC
:1006EC001201D2B20B441A7600BF0C37BD465DF82E
:1006FC00047B704700E100E000ED00E080B489B0BD
:10070C0000AFF860B9607A60FB6803F00703FB6127
:10071C00FB69C3F10703042B28BF0423BB61FB69EE
:10072C000433062B02D9FB69033B00E000237B61F9
:10073C004FF0FF32BB6902FA03F3DA43BB681A408D
:10074C007B699A404FF0FF317B6901FA03F3D9437F
:10075C007B680B40134318462437BD465DF8047B79
:10076C007047000080B582B000AF78607B68013BB9
:10077C00B3F1807F01D301230FE00A4A7B68013B70
:10078C0053600F214FF0FF30FFF78EFF054B002217
:10079C009A60044B07221A60002318460837BD469E
:1007AC0080BD00BF10E000E080B582B000AF786083
:1007BC007868FFF729FF00BF0837BD4680BD80B5BC
:1007CC0086B000AF0346B9607A60FB7300237B618F
:1007DC00FFF73EFF78617A68B9687869FFF78EFF9A
:1007EC00024697F90F3011461846FFF75DFF00BF20
:1007FC001837BD4680BD80B582B000AF0346FB7193
:10080C0097F907301846FFF731FF00BF0837BD4690
:10081C0080BD80B582B000AF78607868FFF7A2FF2A
:10082C00034618460837BD4680BD000080B489B029
:10083C0000AF7860396000237B6100233B610023AB
:10084C00BB610023FB6177E10122FB6902FA03F330
:10085C007B613B681B687A6913403B613A697B6931
:10086C009A4240F066813B685B68012B0BD03B6879
:10087C005B68022B07D03B685B68112B03D03B688D
:10088C005B68122B30D17B689B68BB61FB695B009A
:10089C00032202FA03F3DB43BA691340BB613B68E2
:1008AC00DA68FB695B0002FA03F3BA691343BB61B4
:1008BC007B68BA699A607B685B68BB610122FB69E3
:1008CC0002FA03F3DB43BA691340BB613B685B6814
:1008DC001B0903F00102FB6902FA03F3BA69134323
:1008EC00BB617B68BA695A607B68DB68BB61FB697A
:1008FC005B00032202FA03F3DB43BA691340BB61CA
:10090C003B689A68FB695B0002FA03F3BA6913430C
:10091C00BB617B68BA69DA603B685B68022B03D009
:10092C003B685B68122B23D1FB69DA087B680832C1
:10093C0053F82230BB61FB6903F007039B000F22C5
:10094C0002FA03F3DB43BA691340BB613B681A69D3
:10095C00FB6903F007039B0002FA03F3BA69134324
:10096C00BB61FB69DA087B680832B96943F822106D
:10097C007B681B68BB61FB695B00032202FA03F313
:10098C00DB43BA691340BB613B685B6803F003024D
:10099C00FB695B0002FA03F3BA691343BB617B6822
:1009AC00BA691A603B685B6803F08053002B00F057
:1009BC00C0800023FB60654B5B6C644A43F480434E
:1009CC005364624B5B6C03F48043FB60FB68604ACE
:1009DC00FB699B08023352F82330BB61FB6903F0BF
:1009EC0003039B000F2202FA03F3DB43BA691340A3
:1009FC00BB617B68574A934237D07B68564A934217
:100A0C0031D07B68554A93422BD07B68544A934231
:100A1C0025D07B68534A93421FD07B68524A93423D
:100A2C0019D07B68514A934213D07B68504A934249
:100A3C000DD07B684F4A934207D07B684E4A934255
:100A4C0001D1092312E00A2310E008230EE007234A
:100A5C000CE006230AE0052308E0042306E0032348
:100A6C0004E0022302E0012300E00023FA6902F013
:100A7C00030292009340BA691343BB613449FB698A
:100A8C009B080233BA6941F823203C4B1B68BB61BD
:100A9C003B69DB43BA691340BB613B685B6803F499
:100AAC008033002B03D0BA693B691343BB61334AD3
:100ABC00BB691360314B5B68BB613B69DB43BA6953
:100ACC001340BB613B685B6803F40033002B03D01D
:100ADC00BA693B691343BB61284ABB695360274B16
:100AEC009B68BB613B69DB43BA691340BB613B68E4
:100AFC005B6803F48013002B03D0BA693B69134382
:100B0C00BB611E4ABB6993601C4BDB68BB613B69D4
:100B1C00DB43BA691340BB613B685B6803F40013A9
:100B2C00002B03D0BA693B691343BB61134ABB6901
:100B3C00D360FB690133FB61FB690F2B7FF684AE3D
:100B4C0000BF2437BD465DF8047B70470038024077
:100B5C00003801400000024000040240000802403E
:100B6C00000C024000100240001402400018024029
:100B7C00001C02400020024000240240003C0140C6
:100B8C0080B483B000AF78600B467B8013467B70DB
:100B9C007B78002B03D07A887B689A6103E07B8892
:100BAC001A047B689A6100BF0C37BD465DF8047B64
:100BBC007047000080B582B000AF00237B6000233B
:100BCC003B60204B1B6C1F4A43F0805313641D4B3E
:100BDC001B6C03F080533B603B681B4B01221A607B
:100BEC00FFF7E4FC786009E0FFF7E0FC02467B6865
:100BFC00D31AB3F57A7F01D903231FE0134B5B683B
:100C0C0003F48033B3F5803FEED1114B01221A600F
:100C1C00FFF7CCFC786009E0FFF7C8FC02467B6864
:100C2C00D31AB3F57A7F01D9032307E0074B5B682E
:100C3C0003F40033B3F5003FEED100231846083718
:100C4C00BD4680BD0038024040000E42007000409E
:100C5C0044000E4280B586B000AF78607B68002BF4
:100C6C0001D101235BE27B681B6803F00103002BBD
:100C7C0075D0A34B9B6803F00C03042B0CD0A04B3A
:100C8C009B6803F00C03082B12D19D4B5B6803F49B
:100C9C008003B3F5800F0BD1994B1B6803F4003321
:100CAC00002B5BD07B685B68002B57D1012336E2AD
:100CBC007B685B68B3F5803F06D1914B1B68904A0B
:100CCC0043F4803313601DE07B685B68B3F5A02FA1
:100CDC000CD18B4B1B688A4A43F480231360884BDE
:100CEC001B68874A43F4803313600BE0844B1B680A
:100CFC00834A23F480331360814B1B68804A23F4AE
:100D0C00802313607B685B68002B13D0FFF74EFCCD
:100D1C00386108E0FFF74AFC02463B69D31A642BA2
:100D2C0001D90323FBE1764B1B6803F40033002B42
:100D3C00F0D014E0FFF73AFC386108E0FFF736FC1E
:100D4C0002463B69D31A642B01D90323E7E16C4BB0
:100D5C001B6803F40033002BF0D100E000BF7B686C
:100D6C001B6803F00203002B63D0654B9B6803F0F8
:100D7C000C03002B0BD0624B9B6803F00C03082B6D
:100D8C001CD15F4B5B6803F48003002B16D15C4BCA
:100D9C001B6803F00203002B05D07B68DB68012B7A
:100DAC0001D00123BBE1564B1B6823F0F8027B6892
:100DBC001B69DB00524913430B603AE07B68DB682C
:100DCC00002B20D04F4B01221A60FFF7EFFB38614C
:100DDC0008E0FFF7EBFB02463B69D31A022B01D963
:100DEC0003239CE1464B1B6803F00203002BF0D05D
:100DFC00434B1B6823F0F8027B681B69DB004049FE
:100E0C0013430B6015E03F4B00221A60FFF7CEFB3B
:100E1C00386108E0FFF7CAFB02463B69D31A022B84
:100E2C0001D903237BE1364B1B6803F00203002B33
:100E3C00F0D17B681B6803F00803002B30D07B6873
:100E4C005B69002B16D0304B01221A60FFF7AEFB0A
:100E5C00386108E0FFF7AAFB02463B69D31A022B64
:100E6C0001D903235BE1264B5B6F03F00203002BDC
:100E7C00F0D015E0244B00221A60FFF797FB386185
:100E8C0008E0FFF793FB02463B69D31A022B01D90A
:100E9C00032344E11A4B5B6F03F00203002BF0D1E8
:100EAC007B681B6803F00403002B00F0A080002378
:100EBC00FB75134B1B6C03F08053002B0FD10023DD
:100ECC00BB600F4B1B6C0E4A43F0805313640C4BEE
:100EDC001B6C03F08053BB60BB680123FB750B4B91
:100EEC001B6803F48073002B21D1084B1B68074A45
:100EFC0043F480731360FFF759FB386111E000BFB6
:100F0C000038024000004742800E4742007000400B
:100F1C00FFF74CFB02463B69D31A022B01D9032382
:100F2C00FDE0814B1B6803F48073002BF0D07B68D1
:100F3C009B68012B06D17D4B1B6F7C4A43F0010350
:100F4C0013671CE07B689B68052B0CD1774B1B6FE0
:100F5C00764A43F004031367744B1B6F734A43F0D8
:100F6C00010313670BE0714B1B6F704A23F00103F5
:100F7C0013676E4B1B6F6D4A23F0040313677B687A
:100F8C009B68002B15D0FFF711FB38610AE0FFF7C7
:100F9C000DFB02463B69D31A41F28832934201D9C8
:100FAC000323BCE0614B1B6F03F00203002BEED05C
:100FBC0014E0FFF7FBFA38610AE0FFF7F7FA024694
:100FCC003B69D31A41F28832934201D90323A6E03C
:100FDC00564B1B6F03F00203002BEED1FB7D012B54
:100FEC0005D1524B1B6C514A23F0805313647B6820
:100FFC009B69002B00F092804C4B9B6803F00C0318
:10100C00082B5CD07B689B69022B41D1484B00229A
:10101C001A60FFF7CBFA386108E0FFF7C7FA02460F
:10102C003B69D31A022B01D9032378E03F4B1B6891
:10103C0003F00073002BF0D17B68DA697B681B6AC4
:10104C001A437B685B6A9B011A437B689B6A5B084B
:10105C00013B1B041A437B68DB6A1B0633491343B1
:10106C004B60334B01221A60FFF7A0FA386108E09D
:10107C00FFF79CFA02463B69D31A022B01D90323D2
:10108C004DE02A4B1B6803F00073002BF0D045E0B9
:10109C00274B00221A60FFF789FA386108E0FFF746
:1010AC0085FA02463B69D31A022B01D9032336E099
:1010BC001E4B1B6803F00073002BF0D12EE07B68F5
:1010CC009B69012B01D1012329E0184B9B68FB6024
:1010DC00FB6803F480027B68DB699A421CD1FB68D5
:1010EC0003F03F027B681B6A9A4215D1FA6847F6F7
:1010FC00C07313407A68526A93420DD1FB6803F4B3
:10110C0040327B689B6A9A4206D1FB6803F070629E
:10111C007B68DB6A9A4201D0012300E00023184669
:10112C001837BD4680BD00BF00700040003802403B
:10113C006000474280B584B000AF786039607B684E
:10114C00002B01D10123CCE0684B1B6803F00F038B
:10115C003A689A420CD9654B3A68D2B21A70634B12
:10116C001B6803F00F033A689A4201D00123B8E0E0
:10117C007B681B6803F00203002B20D07B681B6884
:10118C0003F00403002B05D0594B9B68584A43F4D9
:10119C00E05393607B681B6803F00803002B05D0B9
:1011AC00534B9B68524A43F460439360504B9B688B
:1011BC0023F0F0027B689B684D4913438B607B687E
:1011CC001B6803F00103002B44D07B685B68012B88
:1011DC0007D1474B1B6803F40033002B19D10123B3
:1011EC007FE07B685B68022B03D07B685B68032B1A
:1011FC0007D13F4B1B6803F00073002B09D101236F
:10120C006FE03B4B1B6803F00203002B01D1012361
:10121C0067E0374B9B6823F003027B685B683449BB
:10122C0013438B60FFF7C2F9F8600AE0FFF7BEF9D1
:10123C000246FB68D31A41F28832934201D9032348
:10124C004FE02B4B9B6803F00C027B685B689B00A8
:10125C009A42EBD1254B1B6803F00F033A689A4274
:10126C000CD2224B3A68D2B21A70204B1B6803F096
:10127C000F033A689A4201D0012332E07B681B6865
:10128C0003F00403002B08D0194B9B6823F4E052A5
:10129C007B68DB68164913438B607B681B6803F023
:1012AC000803002B09D0124B9B6823F460427B6827
:1012BC001B69DB000E4913438B6000F021F80146DB
:1012CC000B4B9B681B0903F00F030A4AD35C21FAF2
:1012DC0003F3094A1360094B1B681846FFF722F900
:1012EC00002318461037BD4680BD00BF003C0240AD
:1012FC0000380240183800080800002000000020C8
:10130C00F0B585B000AF00237B600023FB600023A9
:10131C003B600023BB60504B9B6803F00C03042B19
:10132C0007D0082B08D0002B40F08D804B4BBB60B6
:10133C008CE04B4BBB6089E0474B5B6803F03F0391
:10134C007B60454B5B6803F48003002B23D0424B3E
:10135C005B689B094FF0000440F2FF114FF0000254
:10136C0003EA010504EA02063D4A02FB06F10022EB
:10137C0002FB05F20A443A49A5FB01015318194630
:10138C007B684FF000041A462346FEF729FF0346FC
:10139C000C46FB6049E0304B5B689B094FF0000446
:1013AC0040F2FF114FF0000203EA010504EA0206C5
:1013BC00294632464FF000034FF00004540144EA32
:1013CC00D1644B0119462246491B62EB06024FF0D1
:1013DC0000034FF00004940144EA91648B015B1A02
:1013EC0064EB02044FF000014FF00002E20042EA0D
:1013FC005372D9000B4614465B1944EB06044FF0AC
:10140C0000014FF00002A20242EA935299020B46ED
:10141C001446184621467B684FF000041A462346B2
:10142C00FEF7DEFE03460C46FB600B4B5B681B0CA9
:10143C0003F0030301335B003B60FA683B68B2FBCB
:10144C00F3F3BB6002E0054BBB6000BFBB68184602
:10145C001437BD46F0BD00BF003802400024F40034
:10146C0040787D0180B582B000AF78607B68002B3E
:10147C0001D101231DE07B6893F83D30DBB2002BDA
:10148C0006D17B68002283F83C20786801F060FC70
:10149C007B68022283F83D207B681A687B680433E2
:1014AC001946104600F04CFC7B68012283F83D2065
:1014BC00002318460837BD4680BD80B485B000AF08
:1014CC0078607B681B68DA687B681B6842F00102F5
:1014DC00DA607B681B689B6803F00703FB60FB68A2
:1014EC00062B07D07B681B681A687B681B6842F068
:1014FC0001021A60002318461437BD465DF8047BC0
:10150C00704780B582B000AF78607B68002B01D14A
:10151C0001231DE07B6893F83D30DBB2002B06D134
:10152C007B68002283F83C20786801F039FC7B68EA
:10153C00022283F83D207B681A687B6804331946C5
:10154C00104600F0FDFB7B68012283F83D20002350
:10155C0018460837BD4680BD80B584B000AF7860B2
:10156C0039603B680C2B41D801A252F823F000BF24
:10157C00B1150008F9150008F9150008F91500084F
:10158C00C3150008F9150008F9150008F91500082D
:10159C00D5150008F9150008F9150008F91500080B
:1015AC00E71500087B681B68DA687B681B6842F0EB
:1015BC000202DA601BE07B681B68DA687B681B68D8
:1015CC0042F00402DA6012E07B681B68DA687B6820
:1015DC001B6842F00802DA6009E07B681B68DA6875
:1015EC007B681B6842F01002DA6000E000BF7B6889
:1015FC001B6801223968184600F0F2FD7B681B68F5
:10160C00154A934204D07B681B68144A934201D15B
:10161C00012300E00023002B07D07B681B685A6C69
:10162C007B681B6842F400425A647B681B689B68A9
:10163C0003F00703FB60FB68062B07D07B681B6875
:10164C001A687B681B6842F001021A600023184676
:10165C001037BD4680BD00BF0000014000040140B2
:10166C0080B582B000AF786039603B680C2B41D8F4
:10167C0001A252F823F000BFB916000801170008A8
:10168C000117000801170008CB1600080117000805
:10169C000117000801170008DD16000801170008E3
:1016AC000117000801170008EF1600087B681B687B
:1016BC00DA687B681B6822F00202DA601BE07B6848
:1016CC001B68DA687B681B6822F00402DA6012E09F
:1016DC007B681B68DA687B681B6822F00802DA609A
:1016EC0009E07B681B68DA687B681B6822F01002D3
:1016FC00DA6000E000BF7B681B680022396818467E
:10170C0000F06EFD7B681B68204A934204D07B6816
:10171C001B681F4A934201D1012300E00023002BD8
:10172C0017D07B681B681A6A41F211131340002B07
:10173C000FD17B681B681A6A40F244431340002B9C
:10174C0007D17B681B685A6C7B681B6822F40042CB
:10175C005A647B681B681A6A41F211131340002B00
:10176C000FD17B681B681A6A40F244431340002B6C
:10177C0007D17B681B681A687B681B6822F0010222
:10178C001A60002318460837BD4680BD0000014092
:10179C000004014080B586B000AF786039607B688A
:1017AC00002B01D1012383E07B6893F83D30DBB241
:1017BC00002B06D17B68002283F83C20786801F06E
:1017CC007FFA7B68022283F83D207B681B689B684C
:1017DC007A68126823F4804323F0070393607B68D4
:1017EC001A687B6804331946104600F0A9FA7B6826
:1017FC001B689B687B617B681B689B693B617B6892
:10180C001B681B6AFB603B681B687A6913437B612E
:10181C003B6923F4407323F003033B613B689A68F4
:10182C003B689B691B0213433A6913433B613B6959
:10183C0023F4406323F00C033B613B6923F47043B6
:10184C0023F0F0033B613B68DA683B68DB691B0201
:10185C0013433A6913433B613B681B691A013B68AC
:10186C001B6A1B0313433A6913433B61FB6823F068
:10187C002203FB60FB6823F08803FB603B685A681B
:10188C003B685B691B011343FA681343FB607B687D
:10189C001B687A699A607B681B683A699A617B68F5
:1018AC001B68FA681A627B68012283F83D200023CA
:1018BC0018461837BD4680BD80B582B000AF786041
:1018CC0039603B68002B02D0042B10D01FE07B68E2
:1018DC001B6801220021184600F082FC7B681B6803
:1018EC00DA687B681B6842F00202DA602EE07B68E3
:1018FC001B6801220421184600F072FC7B681B68EF
:10190C00DA687B681B6842F00402DA601EE07B68D0
:10191C001B6801220021184600F062FC7B681B68E2
:10192C0001220421184600F05BFC7B681B68DA6816
:10193C007B681B6842F00202DA607B681B68DA681D
:10194C007B681B6842F00402DA6000BF7B681B688E
:10195C001A687B681B6842F001021A600023184663
:10196C000837BD4680BD80B582B000AF78607B681B
:10197C001B681B6903F00203022B22D17B681B68D6
:10198C00DB6803F00203022B1BD17B681B686FF032
:10199C0002021A617B6801221A777B681B689B69BB
:1019AC0003F00303002B03D0786800F0B5F905E0D1
:1019BC00786800F0A7F9786800F0BCFD7B6800221D
:1019CC001A777B681B681B6903F00403042B22D174
:1019DC007B681B68DB6803F00403042B1BD17B685A
:1019EC001B686FF004021A617B6802221A777B680D
:1019FC001B689B6903F44073002B03D0786800F0DC
:101A0C008BF905E0786800F07DF9786800F092FDBC
:101A1C007B6800221A777B681B681B6903F008033C
:101A2C00082B22D17B681B68DB6803F00803082BAA
:101A3C001BD17B681B686FF008021A617B6804225B
:101A4C001A777B681B68DB6903F00303002B03D058
:101A5C00786800F061F905E0786800F053F978686F
:101A6C0000F068FD7B6800221A777B681B681B6995
:101A7C0003F01003102B22D17B681B68DB6803F08A
:101A8C001003102B1BD17B681B686FF010021A61BE
:101A9C007B6808221A777B681B68DB6903F4407348
:101AAC00002B03D0786800F037F905E0786800F077
:101ABC0029F9786800F03EFD7B6800221A777B6874
:101ACC001B681B6903F00103012B0ED17B681B689B
:101ADC00DB6803F00103012B07D17B681B686FF0F7
:101AEC0001021A61786800F04FFD7B681B681B6966
:101AFC0003F08003802B0ED17B681B68DB6803F03E
:101B0C008003802B07D17B681B686FF080021A6101
:101B1C00786800F063FC7B681B681B6903F040036A
:101B2C00402B0ED17B681B68DB6803F04003402B15
:101B3C0007D17B681B686FF040021A61786800F06F
:101B4C00F5F87B681B681B6903F02003202B0ED172
:101B5C007B681B68DB6803F02003202B07D17B68B4
:101B6C001B686FF020021A61786800F02DFC00BF32
:101B7C000837BD4680BD000080B584B000AFF8606A
:101B8C00B9607A60FB6893F83C30012B01D10223D9
:101B9C00B4E0FB68012283F83C20FB68022283F846
:101BAC003D207B680C2B00F29F8001A252F823F0A1
:101BBC00F11B0008F51C0008F51C0008F51C0008BA
:101BCC00311C0008F51C0008F51C0008F51C000869
:101BDC00731C0008F51C0008F51C0008F51C000817
:101BEC00B31C0008FB681B68B968184600F048F97C
:101BFC00FB681B689A69FB681B6842F008029A61D3
:101C0C00FB681B689A69FB681B6822F004029A61E6
:101C1C00FB681B689969BB681A69FB681B680A43F7
:101C2C009A6162E0FB681B68B968184600F098F985
:101C3C00FB681B689A69FB681B6842F400629A6136
:101C4C00FB681B689A69FB681B6822F480629A61C6
:101C5C00FB681B689969BB681B691A02FB681B68E7
:101C6C000A439A6141E0FB681B68B968184600F0AA
:101C7C00EDF9FB681B68DA69FB681B6842F0080227
:101C8C00DA61FB681B68DA69FB681B6822F00402E6
:101C9C00DA61FB681B68D969BB681A69FB681B6849
:101CAC000A43DA6121E0FB681B68B968184600F04A
:101CBC0041FAFB681B68DA69FB681B6842F4006236
:101CCC00DA61FB681B68DA69FB681B6822F48062C6
:101CDC00DA61FB681B68D969BB681B691A02FB686F
:101CEC001B680A43DA6100E000BFFB68012283F83D
:101CFC003D20FB68002283F83C2000231846103757
:101D0C00BD4680BD80B483B000AF786000BF0C3797
:101D1C00BD465DF8047B704780B483B000AF78603B
:101D2C0000BF0C37BD465DF8047B704780B483B0B0
:101D3C0000AF786000BF0C37BD465DF8047B704780
:101D4C0080B485B000AF786039607B681B68FB603D
:101D5C007B68404A934213D07B68B3F1804F0FD01D
:101D6C007B683D4A93420BD07B683C4A934207D038
:101D7C007B683B4A934203D07B683A4A934208D132
:101D8C00FB6823F07003FB603B685B68FA681343E5
:101D9C00FB607B682F4A93422BD07B68B3F1804F5A
:101DAC0027D07B682C4A934223D07B682B4A9342E2
:101DBC001FD07B682A4A93421BD07B68294A9342E6
:101DCC0017D07B68284A934213D07B68274A9342EA
:101DDC000FD07B68264A93420BD07B68254A9342EE
:101DEC0007D07B68244A934203D07B68234A9342F2
:101DFC0008D1FB6823F44073FB603B68DB68FA682E
:101E0C001343FB60FB6823F080023B685B69134360
:101E1C00FB607B68FA681A603B689A687B68DA62D8
:101E2C003B681A687B689A627B680A4A934203D0C3
:101E3C007B680C4A934203D13B681A697B681A632E
:101E4C007B6801225A6100BF1437BD465DF8047BE4
:101E5C00704700BF00000140000400400008004033
:101E6C00000C0040000401400040014000440140CF
:101E7C000048014000180040001C004000200040B9
:101E8C0080B487B000AF786039607B681B6A23F040
:101E9C0001027B681A627B681B6A7B617B685B68EA
:101EAC003B617B689B69FB60FB6823F07003FB6004
:101EBC00FB6823F00303FB603B681B68FA68134361
:101ECC00FB607B6923F002037B613B689B687A694A
:101EDC0013437B617B68204A934203D07B681F4A83
:101EEC0093420CD17B6923F008037B613B68DB6870
:101EFC007A6913437B617B6923F004037B617B6804
:101F0C00154A934203D07B68144A934211D13B6922
:101F1C0023F480733B613B6923F400733B613B68A2
:101F2C005B693A6913433B613B689B693A691343AC
:101F3C003B617B683A695A607B68FA689A613B68D6
:101F4C005A687B685A637B687A691A6200BF1C37CF
:101F5C00BD465DF8047B7047000001400004014061
:101F6C0080B487B000AF786039607B681B6A23F05F
:101F7C0010027B681A627B681B6A7B617B685B68FA
:101F8C003B617B689B69FB60FB6823F4E043FB606F
:101F9C00FB6823F44073FB603B681B681B02FA6808
:101FAC001343FB607B6923F020037B613B689B68D8
:101FBC001B017A6913437B617B68224A934203D0ED
:101FCC007B68214A93420DD17B6923F080037B61AE
:101FDC003B68DB681B017A6913437B617B6923F0E7
:101FEC0040037B617B68174A934203D07B68164A97
:101FFC00934213D13B6923F480633B613B6923F427
:10200C0000633B613B685B699B003A6913433B612E
:10201C003B689B699B003A6913433B617B683A6957
:10202C005A607B68FA689A613B685A687B689A6365
:10203C007B687A691A6200BF1C37BD465DF8047B69
:10204C00704700BF000001400004014080B487B01D
:10205C0000AF786039607B681B6A23F480727B6800
:10206C001A627B681B6A7B617B685B683B617B687F
:10207C00DB69FB60FB6823F07003FB60FB6823F0FB
:10208C000303FB603B681B68FA681343FB607B69C6
:10209C0023F400737B613B689B681B027A691343D2
:1020AC007B617B68214A934203D07B68204A934230
:1020BC000DD17B6923F400637B613B68DB681B02F9
:1020CC007A6913437B617B6923F480637B617B6852
:1020DC00164A934203D07B68154A934213D13B694D
:1020EC0023F480533B613B6923F400533B613B6811
:1020FC005B691B013A6913433B613B689B691B019C
:10210C003A6913433B617B683A695A607B68FA68A9
:10211C00DA613B685A687B68DA637B687A691A62B1
:10212C0000BF1C37BD465DF8047B704700000140C2
:10213C000004014080B487B000AF786039607B68E0
:10214C001B6A23F480527B681A627B681B6A3B61B2
:10215C007B685B687B617B68DB69FB60FB6823F4F5
:10216C00E043FB60FB6823F44073FB603B681B6837
:10217C001B02FA681343FB603B6923F400533B6179
:10218C003B689B681B033A6913433B617B68124AAB
:10219C00934203D07B68114A934209D17B6923F4A3
:1021AC0080437B613B685B699B017A6913437B616C
:1021BC007B687A695A607B68FA68DA613B685A68AE
:1021CC007B681A647B683A691A6200BF1C37BD468B
:1021DC005DF8047B704700BF000001400004014023
:1021EC0080B487B000AFF860B9607A60BB6803F068
:1021FC001F03012202FA03F37B61FB681A6A7B69F5
:10220C00DB431A40FB681A62FB681A6ABB6803F06E
:10221C001F03796801FA03F31A43FB681A6200BFC3
:10222C001C37BD465DF8047B7047000080B485B058
:10223C0000AF786039607B6893F83C30012B01D19A
:10224C0002235AE07B68012283F83C207B6802223F
:10225C0083F83D207B681B685B68FB607B681B68B0
:10226C009B68BB60FB6823F07003FB603B681B68DA
:10227C00FA681343FB607B681B68FA685A607B68DA
:10228C001B68214A934222D07B681B68B3F1804FB4
:10229C001DD07B681B681D4A934218D07B681B6855
:1022AC001B4A934213D07B681B681A4A93420ED088
:1022BC007B681B68184A934209D07B681B68174AD5
:1022CC00934204D07B681B68154A93420CD1BB68BF
:1022DC0023F08003BB603B685B68BA681343BB6048
:1022EC007B681B68BA689A607B68012283F83D2082
:1022FC007B68002283F83C20002318461437BD4627
:10230C005DF8047B704700BF0000014000040040F2
:10231C0000080040000C0040000401400040014057
:10232C000018004080B485B000AF7860396000239D
:10233C00FB607B6893F83C30012B01D102233DE01C
:10234C007B68012283F83C20FB6823F0FF023B688A
:10235C00DB681343FB60FB6823F440723B689B68AB
:10236C001343FB60FB6823F480623B685B68134398
:10237C00FB60FB6823F400623B681B681343FB6043
:10238C00FB6823F480523B681B691343FB60FB68BA
:10239C0023F400523B685B691343FB60FB6823F436
:1023AC0080423B68DB691343FB607B681B68FA68FF
:1023BC005A647B68002283F83C20002318461437AB
:1023CC00BD465DF8047B704780B483B000AF786085
:1023DC0000BF0C37BD465DF8047B704780B483B0FA
:1023EC0000AF786000BF0C37BD465DF8047B7047CA
:1023FC0080B58AB000AF07F1140300221A605A604E
:10240C009A60DA601A6100233B61344B1B6B334AD0
:10241C0043F004031363314B1B6B03F004033B6168
:10242C003B690023FB602D4B1B6B2C4A43F0800354
:10243C0013632A4B1B6B03F08003FB60FB680023C8
:10244C00BB60264B1B6B254A43F001031363234BE4
:10245C001B6B03F00103BB60BB6800237B601F4B4D
:10246C001B6B1E4A43F0020313631C4B1B6B03F0E4
:10247C0002037B607B6800233B60184B1B6B174A85
:10248C0043F480731363154B1B6B03F480733B6035
:10249C003B68002250211248FEF772FB10237B612F
:1024AC000123BB610023FB6100233B6207F1140392
:1024BC0019460B48FEF7BAF940237B610123BB6137
:1024CC000123FB6100233B6207F114031946044806
:1024DC00FEF7ACF900BF2837BD4680BD003802407E
:1024EC000020024080B483B000AF78604FF06043AE
:1024FC00D3F8803E03F00103002B13D04FF0604360
:10250C00D3F8003E03F00103002B0BD000E000BF1A
:10251C004FF060431B68002BF9D04FF060437A6892
:10252C00D2B21A707B6818460C37BD465DF8047B36
:10253C007047000080B582B000AF78600D4B1B680F
:10254C005A1C0C490A600C4A126893420ED10021A5
:10255C000A48FFF785F8012240210948FEF710FBD5
:10256C00084B00221A70034B00221A6000BF083778
:10257C00BD4680BD980000209C000020B4000020C7
:10258C0000200240A000002080B483B000AF78602F
:10259C000A4B1B680133094A1360094B5A6A094BF1
:1025AC001B68D31A084A1360054B5B6A054A136013
:1025BC0000BF0C37BD465DF8047B70478C000020D3
:1025CC00000C0040940000209000002080B582B0E8
:1025DC0000AFFDF785FF00F06DF8FFF709FF00F085
:1025EC0061FA00F0E9FA00F0B1FA2D4800F0F2FCC3
:1025FC003C212C48FFF760F92B48FEF75EFF0122C7
:10260C0010212A48FEF7BCFA002240212748FEF789
:10261C00B7FA274B1B684FF4FA62DA62244B4FF47B
:10262C00FA62DA60224B1B684FF47A725A63002309
:10263C007B60012000F0CAF84FF0FF3000F0F2F898
:10264C0000F000F94FF4FA737B600AE07B689BB2F0
:10265C00184600F0CDF80A20FDF7B4FF7B68013B6B
:10266C007B607B68A02BF1DC4FF47A70FDF7AAFF3E
:10267C00A0237B600AE07B689BB2184600F0B8F898
:10268C000A20FDF79FFF7B6801337B607B68B3F505
:10269C00FA7FF0DB4FF47A70FDF794FFD2E700BFBE
:1026AC0010380008F4000020340100200020024003
:1026BC00B400002080B594B000AF07F120033022A5
:1026CC000021184600F022FC07F10C0300221A60CE
:1026DC005A609A60DA601A610023BB602B4B1B6C4A
:1026EC002A4A43F080531364284B1B6C03F080532D
:1026FC00BB60BB6800237B60254B1B68244A43F4FA
:10270C0040431360224B1B6803F440437B607B689F
:10271C0001233B624FF480337B620223BB634FF493
:10272C008003FB630F233B64D8237B640223BB64CD
:10273C000423FB6407F120031846FEF78BFA0346CB
:10274C00002B01D000F088F8FEF734FA0346002B7A
:10275C0001D000F081F80F23FB6002233B610023C2
:10276C007B614FF4A053BB614FF48053FB6107F1C5
:10277C000C0305211846FEF7DDFC0346002B01D0A7
:10278C0000F06AF800BF5037BD4680BD00380240EB
:10279C000070004080B586B000AFF860B9607A6018
:1027AC0000237B6109E0BB685A1CBA601B78184691
:1027BC00FFF798FE7B6901337B617A697B689A42EB
:1027CC00F1DB7B6818461837BD4680BD80B582B0FA
:1027DC0000AF0346FB80FB88DBB21A46102103488E
:1027EC00FEF7CEF900BF0837BD4680BD0020024081
:1027FC0080B483B000AF0346FB80094B1B68FA889A
:10280C00DA62FB88064AD360FB885B089AB2044BF9
:10281C001B685A6300BF0C37BD465DF8047B7047DC
:10282C00B400002080B483B000AF78607B68044AA9
:10283C00136000BF0C37BD465DF8047B704700BFCA
:10284C009C00002080B500AF00210248FEF784FEFA
:10285C0000BF80BDB400002080B400AF00BFBD46F7
:10286C005DF8047B7047000080B483B000AF002398
:10287C007B60104B5B6C0F4A43F4804353640D4BED
:10288C005B6C03F480437B607B6800233B60094BEB
:10289C001B6C084A43F080531364064B1B6C03F00B
:1028AC0080533B603B6800BF0C37BD465DF8047B32
:1028BC00704700BF0038024080B400AF00BFBD4677
:1028CC005DF8047B704780B400AFFEE780B400AFC6
:1028DC00FEE780B400AFFEE780B400AFFEE780B443
:1028EC0000AF00BFBD465DF8047B704780B400AFFD
:1028FC0000BFBD465DF8047B704780B400AF00BFDD
:10290C00BD465DF8047B704780B500AFFDF73AFE1D
:10291C0000BF80BD80B500AF0248FFF724F800BFB0
:10292C0080BD00BFB400002080B500AF0248FFF7A7
:10293C001AF800BF80BD00BF3401002080B586B0FE
:10294C0000AFF860B9607A6000237B610AE0AFF3F6
:10295C0000800146BB685A1CBA60CAB21A707B6907
:10296C0001337B617A697B689A42F0DB7B6818469D
:10297C001837BD4680BD80B483B000AF78604FF08F
:10298C00FF3318460C37BD465DF8047B704780B4A6
:10299C0083B000AF786039603B684FF400525A60E6
:1029AC00002318460C37BD465DF8047B704780B495
:1029BC0083B000AF7860012318460C37BD465DF834
:1029CC00047B704780B485B000AFF860B9607A6062
:1029DC00002318461437BD465DF8047B7047000091
:1029EC0080B584B000AF7860114B1B68002B02D10E
:1029FC000F4B104A1A600E4B1B68FB600C4B1A688D
:102A0C007B6813446A46934207D900F055FA024694
:102A1C000C2313604FF0FF3306E0054B1A687B68FC
:102A2C001344034A1360FB6818461037BD4680BD3B
:102A3C00A40000207801002080B400AF164BD3F81E
:102A4C008830154A43F47003C2F88830134B1B6866
:102A5C00124A43F001031360104B00229A600F4B93
:102A6C001B680E4A23F0847323F4803313600B4BE2
:102A7C000B4A5A60094B1B68084A23F480231360E5
:102A8C00064B0022DA60044B4FF000629A6000BFE4
:102A9C00BD465DF8047B704700ED00E00038024055
:102AAC001030002480B58CB000AF07F10C03242249
:102ABC000021184600F02AFA3B1D00221A605A60C9
:102ACC00204B214A1A601F4B00225A601D4B0022DA
:102ADC009A601C4B6FF00102DA601A4B00221A61EB
:102AEC00184B00229A610123FB6000233B610123F8
:102AFC007B610023BB610023FB6100233B6201234C
:102B0C007B620023BB620023FB6207F10C031946B6
:102B1C000C48FEF73FFE0346002B01D0FFF79CFE4E
:102B2C0000237B600023BB603B1D19460548FFF763
:102B3C007DFB0346002B01D0FFF78EFE00BF303724
:102B4C00BD4680BDF4000020000C004080B582B072
:102B5C0000AF3B4600221A605A60154B154A1A60AA
:102B6C00134BB3225A60124B00229A60104B42F264
:102B7C000F72DA600E4B00229A610D48FEF772FC60
:102B8C000346002B01D0FFF767FE00233B600023B8
:102B9C007B603B4619460648FFF748FB0346002B73
:102BAC0001D0FFF759FE00BF0837BD4680BD00BFFE
:102BBC00340100200010004080B592B000AF07F146
:102BCC00400300221A605A6007F1240300221A60A5
:102BDC005A609A60DA601A615A619A613B1D202230
:102BEC000021184600F092F9334B344A1A60324BEC
:102BFC0059225A60304B00229A602F4B40F2CF7210
:102C0C00DA602D4B00221A612B4B00225A612A4BA1
:102C1C0000229A612848FEF774FC0346002B01D071
:102C2C00FFF71AFE00233B6400237B6407F140038B
:102C3C0019462148FFF7FAFA0346002B01D0FFF79B
:102C4C000BFE60237B620023BB620023FB6200232C
:102C5C003B6300237B630023BB630023FB6307F10F
:102C6C002403002219461448FEF786FF0346002B66
:102C7C0001D0FFF7F1FD00237B600023BB60002334
:102C8C00FB6000233B6100237B614FF40053BB616D
:102C9C0000233B623B1D19460748FFF743FB0346E5
:102CAC00002B01D0FFF7D8FD034800F0A1F800BFBE
:102CBC004837BD4680BD00BFB40000200004014071
:102CCC0080B58AB000AF786007F1140300221A6057
:102CDC005A609A60DA601A617B681B68194A9342E1
:102CEC002CD100233B61184B1B6C174A43F0080393
:102CFC001364154B1B6C03F008033B613B69002309
:102D0C00FB60114B1B6B104A43F0800313630E4B9B
:102D1C001B6B03F08003FB60FB684FF440637B612B
:102D2C000223BB610123FB6100233B6202237B6214
:102D3C0007F1140319460548FDF778FD00BF283745
:102D4C00BD4680BD000C004000380240001C024013
:102D5C0080B584B000AF78607B681B680E4A9342E4
:102D6C0015D10023FB600D4B1B6C0C4A43F0100378
:102D7C0013640A4B1B6C03F01003FB60FB6800220E
:102D8C0000213620FDF71BFD3620FDF734FD00BF7A
:102D9C001037BD4680BD00BF001000400038024017
:102DAC0080B584B000AF78607B681B680E4A934294
:102DBC0015D10023FB600D4B5B6C0C4A43F00203F6
:102DCC0053640A4B5B6C03F00203FB60FB6800224C
:102DDC0000212E20FDF7F3FC2E20FDF70CFD00BF8B
:102DEC001037BD4680BD00BF0004014000380240D2
:102DFC0080B588B000AF786007F10C0300221A6030
:102E0C005A609A60DA601A617B681B68124A9342B6
:102E1C001DD10023BB60114B1B6B104A43F4807314
:102E2C0013630E4B1B6B03F48073BB60BB682023D6
:102E3C00FB6002233B6100237B610023BB61032306
:102E4C00FB6107F10C0319460548FDF7EFFC00BFC9
:102E5C002037BD4680BD00BF000401400038024051
:102E6C0000200240DFF834D0002103E00C4B5B580B
:102E7C00435004310B480C4B42189A42F6D30B4A80
:102E8C0002E0002342F8043B094B9A42F9D3FFF7C6
:102E9C00D3FD00F017F8FFF799FB704700000320F3
:102EAC009C380008000000207000002070000020FA
:102EBC0078010020FEE70000014B1868704700BF46
:102ECC000C00002070B50D4E0D4CA41BA410002559
:102EDC00A54209D10B4E0C4C00F088FCA41BA4108D
:102EEC000025A54205D170BD56F82530984701350F
:102EFC00EEE756F8253098470135F2E7943800088C
:102F0C0094380008943800089838000802440346A6
:102F1C00934200D1704703F8011BF9E770B50E46D8
:102F2C00054618B183690BB900F00CFAAB69AC68B3
:102F3C0013B9284600F006FA234B9C4217D16C6853
:102F4C00A3891B071DD52369DBB1013EA36816F8C5
:102F5C00011F013BA360E9B9002B2EDA22460A219E
:102F6C00284600F03FF8013011D00A2011E0174B31
:102F7C009C4201D1AC68E3E7154B9C4208BFEC685E
:102F8C00DEE72146284600F07FF80028DDD04FF020
:102F9C00FF3070BD002B04DAA2699A4206DC0A29C4
:102FAC0004D023685A1C22601970CFE722462846A9
:102FBC0000F018F80130C9D1E9E723680A205A1C3F
:102FCC0022601870E5E700BF4C3800086C38000828
:102FDC002C380008024B01461868FFF79FBF00BF52
:102FEC000C000020F8B50E461446054618B183694E
:102FFC000BB900F0A7F9214B9C422AD16C68A3694C
:10300C00A360A3891A072ED5236963B323692068AB
:10301C00C01A6369F6B28342374604DC214628465F
:10302C0000F026F928BBA368013BA36023685A1C57
:10303C0022601E7063690130834204D0A389DB07D0
:10304C0019D50A2E17D12146284600F011F990B156
:10305C000FE00B4B9C4201D1AC68D0E7094B9C4272
:10306C0008BFEC68CBE72146284600F00DF8002895
:10307C00CCD04FF0FF373846F8BD00BF4C380008B5
:10308C006C3800082C380008324B70B51D680646A9
:10309C000C4625B1AB6913B9284600F053F92E4BF9
:1030AC009C420FD16C68B4F90C309AB215072CD431
:1030BC00D00611D40922326043F04003A3814FF0B3
:1030CC00FF303EE0254B9C4201D1AC68EBE7244B32
:1030DC009C4208BFEC68E6E7510712D5616B41B121
:1030EC0004F14403994202D0304600F019FA00234F
:1030FC006363A38923F02403A38100236360236902
:10310C002360A38943F00803A38123694BB9A389E6
:10311C0003F42073B3F5007F03D02146304600F052
:10312C00BFF9A28912F001030CD00023A3606369DC
:10313C005B42A361236953B9B4F90C3013F08000DE
:10314C00BAD170BD920758BF6369A360F2E7002043
:10315C00F7E700BF0C0000204C3800086C38000862
:10316C002C3800088A892DE9F041054610070C46D9
:10317C0058D44B68002B05DC0B6C002B02DC0020B8
:10318C00BDE8F081E66A002EF9D0002312F48052DB
:10319C002F68216A2B6032D0606DA3895A0705D540
:1031AC006368C01A636B0BB1236CC01A0023024610
:1031BC00E66A216A2846B047431CA38906D12968D0
:1031CC001D2948D8294ACA40D60744D50022626036
:1031DC00D9042269226004D5421C01D12B6803B9A1
:1031EC006065616B2F600029C9D004F144039942DA
:1031FC0002D0284600F094F900206063C0E7012358
:10320C002846B047411CC8D12B68002BC5D01D2BBC
:10321C0001D0162B01D12F60B1E7A38943F04003F5
:10322C00A381ADE70F69002FA9D093070E6808BFE3
:10323C004B690F6018BF0023A6EB07088B60B8F131
:10324C00000F9CDD43463A46216AA66A2846B047E1
:10325C00002806DCA38943F04003A3814FF0FF3024
:10326C008EE70744A8EB0008E9E700BF0100402007
:10327C0038B50B6905460C46DBB118B183690BB93F
:10328C0000F060F80C4B9C4209D16C68B4F90C301E
:10329C007BB121462846BDE83840FFF763BF074B9A
:1032AC009C4201D1AC68F1E7054B9C4208BFEC682D
:1032BC00ECE7002038BD00BF4C3800086C38000823
:1032CC002C380008002310B50446C0E90033836095
:1032DC0081814366C281C0E90433836119460822A7
:1032EC005C30FFF713FE054B6362054BA362054B85
:1032FC00E362054B2462236310BD00BF9D360008BA
:10330C00BF360008F73600081B370008014900F0EB
:10331C0085B800BF7D32000870B54A1E682555433C
:10332C000E4605F1740100F049F9044640B1002144
:10333C00C0E900160C30A06005F16802FFF7E6FD4D
:10334C00204670BD836910B5044633BBC0E9123307
:10335C000365124B124A1B688262984204BF012318
:10336C00836100F01FF86060204600F01BF8A0603D
:10337C00204600F017F80022E06004216068FFF797
:10338C00A1FF01220921A068FFF79CFF0222122154
:10339C00E068FFF797FF0123A36110BD28380008F0
:1033AC0019330008F8B51B4B1E68B369074613B9EF
:1033BC003046FFF7C7FF4836D6E90134013B03D549
:1033CC00336833B13668F7E7B4F90C506DB1683433
:1033DC00F4E704213846FFF79FFF30600028F1D155
:1033EC000C233B6004462046F8BD0B4B6566C4E9D4
:1033FC000055A560C4E90335C4E9055508222946E2
:10340C0004F15C00FFF782FDC4E90D55C4E91255C7
:10341C00E9E700BF283800080100FFFF2DE9F84359
:10342C008046894600F14804002614B93046BDE8B0
:10343C00F883D4E90175013F01D52468F5E7AB8920
:10344C00012B07D9B5F90E30013303D0294640467C
:10345C00C84706436835EEE770B50E46B1F90E1055
:10346C00002996B014461D4607DA00232B60B38959
:10347C001A0610D44FF480630EE06A4600F06EF921
:10348C000028F2DB019A02F47042A2F500535A4272
:10349C005A412A60EEE740230020236016B070BD2D
:1034AC008B8973B59D0706460C4607D504F1470377
:1034BC00236023610123636102B070BD01AB6A46D6
:1034CC00FFF7CAFF00990546304600F077F848B977
:1034DC00B4F90C309A05EFD423F0030343F0020344
:1034EC00A381E3E70D4BB362A389206043F0800313
:1034FC00A381009B6361019B20615BB1B4F90E1049
:10350C00304600F03DF928B1A38923F0030343F0C2
:10351C000103A381A3891D43A581CDE719330008BD
:10352C0038B50546002945D051F8043C0C1F002B3A
:10353C00B8BFE41800F046F91F4A1368104633B9B7
:10354C00636014602846BDE8384000F03CB9A342E3
:10355C000CD921686218934204BF1A685B686360D7
:10356C0004BF521822600460ECE713465A680AB193
:10357C00A242FAD919685818A0420BD1206801440C
:10358C00581882421960DDD1106852685A600144A3
:10359C001960D7E702D90C232B60D3E720682118D8
:1035AC008A4204BF11685268626004BF0918216026
:1035BC005C60C7E738BD00BFA800002070B5CD1C0B
:1035CC0025F0030508350C2D38BF0C25002D0646BB
:1035DC0001DBA94203D90C233360002070BD00F03D
:1035EC00F1F8214A1468214691B9204C23681BB983
:1035FC00304600F03DF820602946304600F038F89F
:10360C00431C24D10C233360304600F0DCF8E4E793
:10361C000B685B1B18D40B2B0FD90B60CD50CC183F
:10362C00304600F0D0F804F10B00231D20F0070009
:10363C00C31AD3D05A42E250D0E78C424B6816BF23
:10364C00636013600C46EBE70C464968CCE7C41C7E
:10365C0024F00304A04205D0211A304600F008F8EB
:10366C000130CFD02560DBE7A8000020AC000020A3
:10367C0038B5064C0023054608462360FFF7B0F921
:10368C00431C02D1236803B12B6038BD74010020A8
:10369C0010B50C46B1F90E1000F096F80028ABBF2F
:1036AC00636DA3891B1823F48053ACBF6365A3819E
:1036BC0010BD2DE9F0411F468B89DB0505460C46F4
:1036CC00164605D502230022B1F90E1000F068F859
:1036DC00A389B4F90E1023F48053A38132463B46E0
:1036EC002846BDE8F04100F017B810B50C46B1F90A
:1036FC000E1000F055F8431CA38915BF606523F428
:10370C00805343F48053A38118BFA38110BDB1F93A
:10371C000E1000F013B8000038B5074C05460846EB
:10372C001146002222601A46FFF734F8431C02D1DE
:10373C00236803B12B6038BD7401002038B5064CEA
:10374C000023054608462360FFF715F9431C02D1F8
:10375C00236803B12B6038BD7401002038B5074CC9
:10376C0000230546084611462360FFF710F9431C59
:10377C0002D1236803B12B6038BD00BF7401002057
:10378C0038B5064C0023054608462360FFF70FF9B1
:10379C00431C02D1236803B12B6038BD7401002097
:1037AC0038B5074C054608461146002222601A46D9
:1037BC00FFF708F9431C02D1236803B12B6038BD15
:1037CC00740100207047704738B5074C0546084611
:1037DC001146002222601A46FFF7B0F8431C02D1B2
:1037EC00236803B12B6038BD74010020F8B500BF0D
:1037FC00F8BC08BC9E467047F8B500BFF8BC08BCC6
:04380C009E4670471D
:1038100053746172740D000000000000000000008D
:103820000102030406070809100000200000000040
:103830000000000000000000000000000000000088
:103840000000000000000000000000000000000078
:103850000000000000000000000000000000000068
:103860000000000000000000000000000000000058
:103870000000000000000000000000000000000048
:0C3880000000000000000000000000003C
:08388C0090C9FF7F010000005C
:04389400D101000856
:04389800AD01000876
:10389C0010000000010000000024F40010000020C3
:1038AC00000000004C3800086C3800082C38000868
:1038BC0000000000000000000000000000000000FC
:1038CC0000000000000000000000000000000000EC
:1038DC0000000000000000000000000000000000DC
:1038EC0000000000000000000000000000000000CC
:1038FC0000000000000000000000000000000000BC
:0400000508002E7150
:00000001FF
