:020000040800F2
:1000000000000320E1290008ED260008FB26000877
:1000100001270008072700080D270008000000003E
:10002000000000000000000000000000132700088E
:1000300021270008000000002F2700083D270008A6
:10004000312A0008312A0008312A0008312A000824
:10005000312A0008312A0008312A0008312A000814
:10006000312A0008312A0008312A0008312A000804
:10007000312A0008312A0008312A0008312A0008F4
:10008000312A0008312A0008312A0008312A0008E4
:10009000312A0008312A0008312A0008312A0008D4
:1000A000312A0008312A0008312A0008312A0008C4
:1000B000312A0008312A0008312A0008312A0008B4
:1000C000312A0008312A0008312A0008312A0008A4
:1000D000312A0008312A0008312A0008312A000894
:1000E000312A0008312A0008312A0008312A000884
:1000F000312A0008312A0008312A0008312A000874
:10010000312A0008312A0008312A0008312A000863
:10011000312A0008312A0008312A0008312A000853
:10012000312A0008312A0008312A0008312A000843
:10013000312A0008312A0008312A0008312A000833
:10014000312A0008312A0008312A0008312A000823
:10015000312A0008312A0008312A0008312A000813
:10016000312A0008312A0008312A0008312A000803
:10017000312A0008312A0008312A00080000000056
:10018000312A0008312A0008312A0008312A0008E3
:10019000312A0008312A0008312A0008312A0008D3
:0C01A000312A0008312A0008312A00082A
:1001AC0010B5054C237833B9044B13B10448AFF3A5
:1001BC0000800123237010BD70000020000000009F
:1001CC006833000808B5034B1BB103490348AFF370
:1001DC00008008BD00000000740000206833000897
:1001EC0053B94AB9002908BF00281CBF4FF0FF3192
:1001FC004FF0FF3000F072B9ADF1080C6DE904CE90
:10020C0000F006F8DDF804E0DDE9022304B07047E5
:10021C002DE9F047089E04468846002B4BD18A42B4
:10022C00154667D9B2FA82F24AB1C2F1200701FA37
:10023C0002F320FA07F7954047EA030894404FEA87
:10024C00154E230CB8FBFEF71FFA85FC0EFB178826
:10025C0043EA084307FB0CF1994209D9EB1807F163
:10026C00FF3080F01B81994240F21881023F2B44F1
:10027C005B1AA4B2B3FBFEF00EFB103344EA03444A
:10028C0000FB0CFCA44509D92C1900F1FF3380F0BC
:10029C000781A44540F2048102382C4440EA07400F
:1002AC00A4EB0C0400271EB1D4400023C6E9004384
:1002BC003946BDE8F0878B4209D9002E00F0EB805F
:1002CC000027C6E9000138463946BDE8F087B3FA85
:1002DC0083F7002F47D18B4202D3824200F2FA807F
:1002EC00841A61EB030301209846002EE0D0C6E986
:1002FC000048DDE702B9FFDEB2FA82F2002A40F0D4
:10030C008F80491B4FEA154E1FFA85F80127B1FB68
:10031C00FEFC230C0EFB1C1143EA014308FB0CF101
:10032C00994207D9EB180CF1FF3002D2994200F236
:10033C00CD808446591AA3B2B1FBFEF00EFB10140B
:10034C0043EA044408FB00F8A04507D92C1900F136
:10035C00FF3302D2A04500F2B6801846A4EB080485
:10036C0040EA0C409FE7C7F1200CBB4022FA0CFE80
:10037C004EEA030E01FA07F420FA0CF521FA0CF3FD
:10038C004FEA1E482543B3FBF8F92C0C08FB193334
:10039C001FFA8EFA44EA034309FB0AF49C4202FA60
:1003AC0007F200FA07F10BD91EEB030309F1FF303A
:1003BC0080F087809C4240F28480A9F1020973444A
:1003CC001B1BADB2B3FBF8F008FB103345EA03443A
:1003DC0000FB0AFAA24508D91EEB040400F1FF3316
:1003EC006BD2A24569D90238744440EA0940A0FB9B
:1003FC000289A4EB0A044C45C2464B4654D351D057
:10040C00002E69D0B1EB0A0564EB030404FA0CFC72
:10041C00FD40FC404CEA0505C6E90054002747E7BF
:10042C00C2F1200320FA03F7954001FA02F021FAF9
:10043C0003F34FEA154E3843010CB3FBFEF71FFADA
:10044C0085F80EFB173341EA034107FB08F38B4297
:10045C0004FA02F407D9691807F1FF3C2FD28B423A
:10046C002DD9023F2944CB1A81B2B3FBFEF00EFB0F
:10047C00103341EA034100FB08F38B4207D969189A
:10048C0000F1FF3C17D28B4215D902382944C91A06
:10049C0040EA07473BE73746304609E70746E7E6B9
:1004AC001846FBE64145ABD2B8EB020A69EB0E02EB
:1004BC0001381346A4E76046E9E7184695E7674616
:1004CC00D1E781467CE702382C4447E7ACF1020CBB
:1004DC002B442FE7384608E73746E9E6704700BF5C
:1004EC0080B500AF01224FF480613D4800F0C6FC9E
:1004FC0000224FF400713A4800F0C0FC642000F078
:10050C000BFA01224FF40071354800F0B7FC0021C2
:10051C00AE2000F0BBF80021D52000F0B7F8002188
:10052C00F02000F0B3F80021A82000F0AFF8002173
:10053C003F2000F0ABF80021D32000F0A7F80021F9
:10054C00002000F0A3F80021402000F09FF80021CB
:10055C008D2000F09BF80021142000F097F800216A
:10056C00202000F093F80021002000F08FF80021EB
:10057C00A12000F08BF80021C02000F087F80021AA
:10058C00DA2000F083F80021122000F07FF800211F
:10059C00812000F07BF80021EF2000F077F800219B
:1005AC00D92000F073F80021F12000F06FF8002141
:1005BC00DB2000F06BF80021302000F067F8002100
:1005CC00A42000F063F80021A62000F05FF80021C1
:1005DC00AF2000F05BF800F07DF800BF80BD00BFDD
:1005EC00000C024080B582B000AF0023FB7126E006
:1005FC00FB79503BDBB20021184600F047F8002194
:10060C00002000F043F80021102000F03FF80023F8
:10061C00BB710DE0BA79FB790C49D2000A44134442
:10062C001B780121184600F031F8BB790133BB71FE
:10063C0097F90630002BEDDAFB790133FB71FB796E
:10064C00072BD5D900BF0837BD4680BD98000020C8
:10065C0080B582B000AF0021002000F017F8002117
:10066C00002000F013F80021102000F00FF80023F8
:10067C00FB71FB79044AD35C0121184600F006F8A3
:10068C00FB790133FB71F4E78833000880B582B045
:10069C0000AF03460A46FB711346BB71BB791A4681
:1006AC004FF48061094800F0E9FBF91D0523012294
:1006BC00074801F0B9F801224FF48061034800F0BB
:1006CC00DDFB00BF0837BD4680BD00BF000C0240FB
:1006DC009C04002080B582B000AF0023FB7114E0B5
:1006EC000023BB710AE0BA79FB790C49D2000A44A9
:1006FC00134400221A70BB790133BB7197F9063091
:10070C00002BF0DAFB790133FB71FB79072BE7D96E
:10071C00FFF768FF00BF0837BD4680BD980000207A
:10072C0080B485B000AF0346FB710B46BB7113461A
:10073C007B710023FB7397F90730002B41DBBB79EE
:10074C003F2B3ED8BB79DB08DBB2C3F10703BB738D
:10075C00BB7903F007037B737B7BC3F10703012297
:10076C0002FA03F3FB737B79002B12D0FA79BB7B73
:10077C001749D2000A4413441878FA79BB7BF97BE9
:10078C000143C8B21249D2000A44134402461A70FB
:10079C0018E0FA79BB7B0E49D2000A4413441B784B
:1007AC005AB297F90F30DB435BB2134059B2FA7966
:1007BC00BB7BC8B20649D2000A44134402461A70E5
:1007CC0000E000BF1437BD465DF8047B704700BFE6
:1007DC009800002090B585B000AF0446084611463D
:1007EC001A462346FB710346BB710B467B711346BD
:1007FC003B71FB79FB7313E0BB79BB7309E097F892
:10080C002020B97BFB7B1846FFF78AFFBB7B0133AB
:10081C00BB73BA7B3B799A42F1D9FB7B0133FB73F7
:10082C00FA7B7B799A42E7D9FFF7DCFE00BF1437DD
:10083C00BD4690BD80B500AF0E4B1B680D4A43F40E
:10084C00007313600B4B1B680A4A43F480631360FC
:10085C00084B1B68074A43F480731360032000F0B5
:10086C002FF9002000F008F801F012FF00231846C1
:10087C0080BD00BF003C024080B582B000AF786004
:10088C00124B1A68124B1B7819464FF47A73B3FB50
:10089C00F1F3B2FBF3F3184600F039F90346002BE1
:1008AC0001D001230EE07B680F2B0AD80022796857
:1008BC004FF0FF3000F00FF9064A7B6813600023FD
:1008CC0000E0012318460837BD4680BD0800002013
:1008DC00040000200000002080B400AF064B1B7801
:1008EC001A46064B1B681344044A136000BFBD46EE
:1008FC005DF8047B704700BF0400002098040020C2
:10090C0080B400AF034B1B681846BD465DF8047BF2
:10091C00704700BF9804002080B584B000AF7860A9
:10092C00FFF7EEFFB8607B68FB60FB68B3F1FF3F3D
:10093C0005D0094B1B781A46FB681344FB6000BFBB
:10094C00FFF7DEFF0246BB68D31AFA689A42F7D863
:10095C0000BF1037BD4680BD0400002080B485B0B8
:10096C0000AF78607B6803F00703FB600C4BDB681F
:10097C00BB60BA684FF6FF031340BB60FB681A02FA
:10098C00BB68134343F0BF6343F40033BB60044ABA
:10099C00BB68D36000BF1437BD465DF8047B70475D
:1009AC0000ED00E080B400AF044BDB681B0A03F0E1
:1009BC0007031846BD465DF8047B704700ED00E068
:1009CC0080B483B000AF03463960FB7197F90730F0
:1009DC00002B0ADB3B68DAB20C4997F9073012019D
:1009EC00D2B20B4483F800230AE03B68DAB2084920
:1009FC00FB7903F00F03043B1201D2B20B441A76BD
:100A0C0000BF0C37BD465DF8047B704700E100E089
:100A1C0000ED00E080B489B000AFF860B9607A6096
:100A2C00FB6803F00703FB61FB69C3F10703042BAD
:100A3C0028BF0423BB61FB690433062B02D9FB6975
:100A4C00033B00E000237B614FF0FF32BB6902FAED
:100A5C0003F3DA43BB681A407B699A404FF0FF31CD
:100A6C007B6901FA03F3D9437B680B4013431846A7
:100A7C002437BD465DF8047B7047000080B582B01A
:100A8C0000AF78607B68013BB3F1807F01D3012319
:100A9C000FE00A4A7B68013B53600F214FF0FF3097
:100AAC00FFF78EFF054B00229A60044B07221A6059
:100ABC00002318460837BD4680BD00BF10E000E09B
:100ACC0080B582B000AF78607868FFF747FF00BF51
:100ADC000837BD4680BD80B586B000AF0346B9600F
:100AEC007A60FB7300237B61FFF75CFF78617A68A7
:100AFC00B9687869FFF78EFF024697F90F301146F7
:100B0C001846FFF75DFF00BF1837BD4680BD80B5A6
:100B1C0082B000AF78607868FFF7B0FF03461846E4
:100B2C000837BD4680BD000080B489B000AF786046
:100B3C00396000237B6100233B610023BB610023F0
:100B4C00FB6177E10122FB6902FA03F37B613B68ED
:100B5C001B687A6913403B613A697B699A4240F0A1
:100B6C0066813B685B68012B0BD03B685B68022B92
:100B7C0007D03B685B68112B03D03B685B68122B7A
:100B8C0030D17B689B68BB61FB695B00032202FA76
:100B9C0003F3DB43BA691340BB613B68DA68FB695A
:100BAC005B0002FA03F3BA691343BB617B68BA6951
:100BBC009A607B685B68BB610122FB6902FA03F3F4
:100BCC00DB43BA691340BB613B685B681B0903F0EC
:100BDC000102FB6902FA03F3BA691343BB617B6838
:100BEC00BA695A607B68DB68BB61FB695B000322F6
:100BFC0002FA03F3DB43BA691340BB613B689A68A2
:100C0C00FB695B0002FA03F3BA691343BB617B68AF
:100C1C00BA69DA603B685B68022B03D03B685B689F
:100C2C00122B23D1FB69DA087B68083253F8223087
:100C3C00BB61FB6903F007039B000F2202FA03F36D
:100C4C00DB43BA691340BB613B681A69FB6903F06B
:100C5C0007039B0002FA03F3BA691343BB61FB69F8
:100C6C00DA087B680832B96943F822107B681B6884
:100C7C00BB61FB695B00032202FA03F3DB43BA6935
:100C8C001340BB613B685B6803F00302FB695B00CC
:100C9C0002FA03F3BA691343BB617B68BA691A6041
:100CAC003B685B6803F08053002B00F0C08000238E
:100CBC00FB60654B5B6C644A43F480435364624B4A
:100CCC005B6C03F48043FB60FB68604AFB699B0828
:100CDC00023352F82330BB61FB6903F003039B0022
:100CEC000F2202FA03F3DB43BA691340BB617B6842
:100CFC00574A934237D07B68564A934231D07B682F
:100D0C00554A93422BD07B68544A934225D07B683A
:100D1C00534A93421FD07B68524A934219D07B6846
:100D2C00514A934213D07B68504A93420DD07B6852
:100D3C004F4A934207D07B684E4A934201D1092314
:100D4C0012E00A2310E008230EE007230CE0062330
:100D5C000AE0052308E0042306E0032304E0022351
:100D6C0002E0012300E00023FA6902F00302920082
:100D7C009340BA691343BB613449FB699B08023346
:100D8C00BA6941F823203C4B1B68BB613B69DB43D0
:100D9C00BA691340BB613B685B6803F48033002B7A
:100DAC0003D0BA693B691343BB61334ABB69136017
:100DBC00314B5B68BB613B69DB43BA691340BB6178
:100DCC003B685B6803F40033002B03D0BA693B69C2
:100DDC001343BB61284ABB695360274B9B68BB61BB
:100DEC003B69DB43BA691340BB613B685B6803F446
:100DFC008013002B03D0BA693B691343BB611E4AB5
:100E0C00BB6993601C4BDB68BB613B69DB43BA6914
:100E1C001340BB613B685B6803F40013002B03D0E9
:100E2C00BA693B691343BB61134ABB69D360FB6965
:100E3C000133FB61FB690F2B7FF684AE00BF2437B7
:100E4C00BD465DF8047B7047003802400038014015
:100E5C00000002400004024000080240000C024066
:100E6C00001002400014024000180240001C024016
:100E7C000020024000240240003C014080B483B0BA
:100E8C0000AF78600B467B8013467B707B78002B21
:100E9C0003D07A887B689A6103E07B881A047B68AC
:100EAC009A6100BF0C37BD465DF8047B70470000AB
:100EBC0080B582B000AF00237B6000233B60204BE9
:100ECC001B6C1F4A43F0805313641D4B1B6C03F0C7
:100EDC0080533B603B681B4B01221A60FFF710FDEF
:100EEC00786009E0FFF70CFD02467B68D31AB3F576
:100EFC007A7F01D903231FE0134B5B6803F4803323
:100F0C00B3F5803FEED1114B01221A60FFF7F8FCCC
:100F1C00786009E0FFF7F4FC02467B68D31AB3F55E
:100F2C007A7F01D9032307E0074B5B6803F4003396
:100F3C00B3F5003FEED1002318460837BD4680BDFF
:100F4C000038024040000E420070004044000E4247
:100F5C0080B586B000AF78607B68002B01D101238F
:100F6C005BE27B681B6803F00103002B75D0A34B7D
:100F7C009B6803F00C03042B0CD0A04B9B6803F074
:100F8C000C03082B12D19D4B5B6803F48003B3F563
:100F9C00800F0BD1994B1B6803F40033002B5BD0F3
:100FAC007B685B68002B57D1012336E27B685B685A
:100FBC00B3F5803F06D1914B1B68904A43F48033C4
:100FCC0013601DE07B685B68B3F5A02F0CD18B4BD5
:100FDC001B688A4A43F480231360884B1B68874A3A
:100FEC0043F4803313600BE0844B1B68834A23F477
:100FFC0080331360814B1B68804A23F48023136079
:10100C007B685B68002B13D0FFF77AFC386108E033
:10101C00FFF776FC02463B69D31A642B01D90323F4
:10102C00FBE1764B1B6803F40033002BF0D014E08B
:10103C00FFF766FC386108E0FFF762FC02463B698B
:10104C00D31A642B01D90323E7E16C4B1B6803F41F
:10105C000033002BF0D100E000BF7B681B6803F06D
:10106C000203002B63D0654B9B6803F00C03002B31
:10107C000BD0624B9B6803F00C03082B1CD15F4B0D
:10108C005B6803F48003002B16D15C4B1B6803F0E8
:10109C000203002B05D07B68DB68012B01D00123F8
:1010AC00BBE1564B1B6823F0F8027B681B69DB0025
:1010BC00524913430B603AE07B68DB68002B20D06D
:1010CC004F4B01221A60FFF71BFC386108E0FFF759
:1010DC0017FC02463B69D31A022B01D903239CE16E
:1010EC00464B1B6803F00203002BF0D0434B1B68EC
:1010FC0023F0F8027B681B69DB00404913430B604B
:10110C0015E03F4B00221A60FFF7FAFB386108E04C
:10111C00FFF7F6FB02463B69D31A022B01D90323D6
:10112C007BE1364B1B6803F00203002BF0D17B688C
:10113C001B6803F00803002B30D07B685B69002B25
:10114C0016D0304B01221A60FFF7DAFB386108E049
:10115C00FFF7D6FB02463B69D31A022B01D90323B6
:10116C005BE1264B5B6F03F00203002BF0D015E024
:10117C00244B00221A60FFF7C3FB386108E0FFF72D
:10118C00BFFB02463B69D31A022B01D9032344E16E
:10119C001A4B5B6F03F00203002BF0D17B681B68CA
:1011AC0003F00403002B00F0A0800023FB75134B0D
:1011BC001B6C03F08053002B0FD10023BB600F4B33
:1011CC001B6C0E4A43F0805313640C4B1B6C03F0E6
:1011DC008053BB60BB680123FB750B4B1B6803F48E
:1011EC008073002B21D1084B1B68074A43F4807392
:1011FC001360FFF785FB386111E000BF0038024037
:10120C0000004742800E474200700040FFF778FB19
:10121C0002463B69D31A022B01D90323FDE0814B13
:10122C001B6803F48073002BF0D07B689B68012B48
:10123C0006D17D4B1B6F7C4A43F0010313671CE006
:10124C007B689B68052B0CD1774B1B6F764A43F060
:10125C0004031367744B1B6F734A43F0010313674A
:10126C000BE0714B1B6F704A23F0010313676E4B3D
:10127C001B6F6D4A23F0040313677B689B68002B7C
:10128C0015D0FFF73DFB38610AE0FFF739FB02464A
:10129C003B69D31A41F28832934201D90323BCE053
:1012AC00614B1B6F03F00203002BEED014E0FFF731
:1012BC0027FB38610AE0FFF723FB02463B69D31A90
:1012CC0041F28832934201D90323A6E0564B1B6F9F
:1012DC0003F00203002BEED1FB7D012B05D1524B09
:1012EC001B6C514A23F0805313647B689B69002B61
:1012FC0000F092804C4B9B6803F00C03082B5CD0E5
:10130C007B689B69022B41D1484B00221A60FFF786
:10131C00F7FA386108E0FFF7F3FA02463B69D31A93
:10132C00022B01D9032378E03F4B1B6803F00073B9
:10133C00002BF0D17B68DA697B681B6A1A437B68E7
:10134C005B6A9B011A437B689B6A5B08013B1B042D
:10135C001A437B68DB6A1B06334913434B60334BE0
:10136C0001221A60FFF7CCFA386108E0FFF7C8FADF
:10137C0002463B69D31A022B01D903234DE02A4BB9
:10138C001B6803F00073002BF0D045E0274B0022C4
:10139C001A60FFF7B5FA386108E0FFF7B1FA0246B8
:1013AC003B69D31A022B01D9032336E01E4B1B6871
:1013BC0003F00073002BF0D12EE07B689B69012BAE
:1013CC0001D1012329E0184B9B68FB60FB6803F4F7
:1013DC0080027B68DB699A421CD1FB6803F03F02F8
:1013EC007B681B6A9A4215D1FA6847F6C0731340A2
:1013FC007A68526A93420DD1FB6803F440327B68E1
:10140C009B6A9A4206D1FB6803F070627B68DB6AC8
:10141C009A4201D0012300E0002318461837BD463C
:10142C0080BD00BF007000400038024060004742A1
:10143C0080B584B000AF786039607B68002B01D137
:10144C000123CCE0684B1B6803F00F033A689A4207
:10145C000CD9654B3A68D2B21A70634B1B6803F017
:10146C000F033A689A4201D00123B8E07B681B68ED
:10147C0003F00203002B20D07B681B6803F00403ED
:10148C00002B05D0594B9B68584A43F4E0539360AA
:10149C007B681B6803F00803002B05D0534B9B683B
:1014AC00524A43F460439360504B9B6823F0F00224
:1014BC007B689B684D4913438B607B681B6803F00A
:1014CC000103002B44D07B685B68012B07D1474B91
:1014DC001B6803F40033002B19D101237FE07B68D8
:1014EC005B68022B03D07B685B68032B07D13F4BF7
:1014FC001B6803F00073002B09D101236FE03B4BF9
:10150C001B6803F00203002B01D1012367E0374B6A
:10151C009B6823F003027B685B68344913438B6040
:10152C00FFF7EEF9F8600AE0FFF7EAF90246FB680C
:10153C00D31A41F28832934201D903234FE02B4B4B
:10154C009B6803F00C027B685B689B009A42EBD1B2
:10155C00254B1B6803F00F033A689A420CD2224BBE
:10156C003A68D2B21A70204B1B6803F00F033A682A
:10157C009A4201D0012332E07B681B6803F004031C
:10158C00002B08D0194B9B6823F4E0527B68DB6876
:10159C00164913438B607B681B6803F00803002B10
:1015AC0009D0124B9B6823F460427B681B69DB00FB
:1015BC000E4913438B6000F021F801460B4B9B68DE
:1015CC001B0903F00F030A4AD35C21FA03F3094AFF
:1015DC001360094B1B681846FFF74EF90023184699
:1015EC001037BD4680BD00BF003C024000380240B1
:1015FC00883700080800002000000020F0B585B0F6
:10160C0000AF00237B600023FB6000233B600023C2
:10161C00BB60504B9B6803F00C03042B07D0082BCA
:10162C0008D0002B40F08D804B4BBB608CE04B4BBB
:10163C00BB6089E0474B5B6803F03F037B60454B25
:10164C005B6803F48003002B23D0424B5B689B093F
:10165C004FF0000440F2FF114FF0000203EA0105C5
:10166C0004EA02063D4A02FB06F1002202FB05F2E7
:10167C000A443A49A5FB0101531819467B684FF0FF
:10168C0000041A462346FEF7ABFD03460C46FB60EE
:10169C0049E0304B5B689B094FF0000440F2FF11AE
:1016AC004FF0000203EA010504EA0206294632461D
:1016BC004FF000034FF00004540144EAD1644B0195
:1016CC0019462246491B62EB06024FF000034FF00D
:1016DC000004940144EA91648B015B1A64EB0204EC
:1016EC004FF000014FF00002E20042EA5372D900C1
:1016FC000B4614465B1944EB06044FF000014FF007
:10170C000002A20242EA935299020B461446184672
:10171C0021467B684FF000041A462346FEF760FD15
:10172C0003460C46FB600B4B5B681B0C03F003037E
:10173C0001335B003B60FA683B68B2FBF3F3BB60C0
:10174C0002E0054BBB6000BFBB6818461437BD46B2
:10175C00F0BD00BF003802400024F40040787D0149
:10176C0080B582B000AF78607B68002B01D101237B
:10177C0056E07B6800229A627B6893F85130DBB2AA
:10178C00002B06D17B68002283F85020786800F08B
:10179C0025FF7B68022283F851207B681B681A683E
:1017AC007B681B6822F040021A607B685A687B6871
:1017BC009B681A437B68DB681A437B681B691A4376
:1017CC007B685B691A437B689B6903F400731A435B
:1017DC007B68DB691A437B681B6A42EA03017B68FE
:1017EC009A6A7B681B680A431A607B689B691B0CAE
:1017FC0003F004017B685A6A7B681B680A435A60D1
:10180C007B681B68DA697B681B6822F40062DA610A
:10181C007B6800225A657B68012283F851200023E3
:10182C0018460837BD4680BD80B588B000AFF8605B
:10183C00B9603B601346FB800023FB77FB6893F891
:10184C005030012B01D102231EE1FB68012283F8E9
:10185C005020FFF755F8B861FB88FB82FB6893F8C2
:10186C005130DBB2012B02D00223FB7703E1BB68C2
:10187C00002B02D0FB88002B02D10123FB77FAE06E
:10188C00FB68032283F85120FB6800225A65FB6831
:10189C00BA681A63FB68FA889A86FB68FA88DA8653
:1018AC00FB6800229A63FB6800229A87FB6800227F
:1018BC00DA87FB6800225A64FB6800221A64FB6812
:1018CC009B68B3F5004F07D1FB681B681A68FB686F
:1018DC001B6842F480421A60FB681B681B6803F0AB
:1018EC004003402B07D0FB681B681A68FB681B6819
:1018FC0042F040021A60FB68DB68B3F5006F4BD115
:10190C00FB685B68002B02D0FB8A012B3ED1FB6885
:10191C001B6B1A88FB681B68DA60FB681B6B9A1CD4
:10192C00FB681A63FB68DB8E9BB2013B9AB2FB68C7
:10193C00DA862BE0FB681B689B6803F00203022B22
:10194C0012D1FB681B6B1A88FB681B68DA60FB689A
:10195C001B6B9A1CFB681A63FB68DB8E9BB2013B0A
:10196C009AB2FB68DA8611E0FEF7CAFF0246BB6941
:10197C00D31A3A689A4203D83B68B3F1FF3F02D1BD
:10198C003B68002B02D10323FB7774E0FB68DB8EF2
:10199C009BB2002BCED14CE0FB685B68002B02D0D5
:1019AC00FB8A012B40D1FB681A6BFB681B680C335C
:1019BC0012781A70FB681B6B5A1CFB681A63FB6865
:1019CC00DB8E9BB2013B9AB2FB68DA862CE0FB689B
:1019DC001B689B6803F00203022B13D1FB681A6B84
:1019EC00FB681B680C3312781A70FB681B6B5A1C53
:1019FC00FB681A63FB68DB8E9BB2013B9AB2FB68F7
:101A0C00DA8611E0FEF77CFF0246BB69D31A3A680E
:101A1C009A4203D83B68B3F1FF3F02D13B68002BDD
:101A2C0002D10323FB7726E0FB68DB8E9BB2002BF5
:101A3C00CDD1BA693968F86800F094F80346002BE8
:101A4C0002D0FB6820225A65FB689B68002B0AD1E8
:101A5C0000233B61FB681B68DB683B61FB681B6810
:101A6C009B683B613B69FB685B6D002B02D00123DB
:101A7C00FB7700E000BFFB68012283F85120FB6874
:101A8C00002283F85020FB7F18462037BD4680BDCE
:101A9C0080B584B000AFF860B9603B601346FB7151
:101AAC004CE03B68B3F1FF3F48D0FEF729FF0246FC
:101ABC00BB69D31A3A689A4202D93B68002B3DD1D4
:101ACC00FB681B685A68FB681B6822F0E0025A60CE
:101ADC00FB685B68B3F5827F11D1FB689B68B3F53B
:101AEC00004F04D0FB689B68B3F5806F07D1FB688F
:101AFC001B681A68FB681B6822F040021A60FB68BE
:101B0C009B6AB3F5005F0FD1FB681B681A68FB6812
:101B1C001B6822F400521A60FB681B681A68FB6889
:101B2C001B6842F400521A60FB68012283F85120B2
:101B3C00FB68002283F8502003230FE0FB681B682E
:101B4C009A68BB681340BA689A420CBF0123002301
:101B5C00DBB21A46FB799A42A3D100231846103700
:101B6C00BD4680BD80B588B002AFF860B9607A60C0
:101B7C001B4B1B681B4AA2FB03235B0D4FF47A72B1
:101B8C0002FB03F37B61FB685B68B3F5827F12D1C8
:101B9C007B680093BB6800228021F868FFF778FF10
:101BAC000346002B16D0FB685B6D43F02002FB68EC
:101BBC005A6503230FE07B69002B0AD07B69013B3C
:101BCC007B61FB681B689B6803F08003802BF2D061
:101BDC0000E000BF002318461837BD4680BD00BF8B
:101BEC0008000020819F5E1680B582B000AF78603F
:101BFC007B68002B01D101231DE07B6893F83D30FD
:101C0C00DBB2002B06D17B68002283F83C2078687D
:101C1C0000F09AFE7B68022283F83D207B681A68EC
:101C2C007B6804331946104600F0A6F87B68012245
:101C3C0083F83D20002318460837BD4680BD80B58B
:101C4C0084B000AFF860B9607A60FB6893F83C3000
:101C5C00012B01D102238AE0FB68012283F83C208E
:101C6C00FB68022283F83D207B68002B1BD1FB68AC
:101C7C001868BB681968BB685A68BB68DB6800F0F9
:101C8C001BF9FB681B689A69FB681B6822F00C0245
:101C9C009A61FB681B689969BB689A68FB681B684A
:101CAC000A439A615AE07B68042B1CD1FB681868C4
:101CBC00BB681968BB685A68BB68DB6800F070F9D0
:101CCC00FB681B689A69FB681B6822F440629A6186
:101CDC00FB681B689969BB689B681A02FB681B68E8
:101CEC000A439A613AE07B68082B1BD1FB681868A1
:101CFC00BB681968BB685A68BB68DB6800F08DF973
:101D0C00FB681B68DA69FB681B6822F00C02DA615D
:101D1C00FB681B68D969BB689A68FB681B680A4337
:101D2C00DA611BE0FB681868BB681968BB685A6805
:101D3C00BB68DB6800F0ADF9FB681B68DA69FB680F
:101D4C001B6822F44062DA61FB681B68D969BB68C6
:101D5C009B681A02FB681B680A43DA61FB68012264
:101D6C0083F83D20FB68002283F83C2000231846B2
:101D7C001037BD4680BD000080B485B000AF7860E0
:101D8C0039607B681B68FB607B68404A934213D0C8
:101D9C007B68B3F1804F0FD07B683D4A93420BD0E8
:101DAC007B683C4A934207D07B683B4A934203D002
:101DBC007B683A4A934208D1FB6823F07003FB60BE
:101DCC003B685B68FA681343FB607B682F4A93425D
:101DDC002BD07B68B3F1804F27D07B682C4A934281
:101DEC0023D07B682B4A93421FD07B682A4A9342AC
:101DFC001BD07B68294A934217D07B68284A9342B0
:101E0C0013D07B68274A93420FD07B68264A9342B3
:101E1C000BD07B68254A934207D07B68244A9342B7
:101E2C0003D07B68234A934208D1FB6823F44073A8
:101E3C00FB603B68DB68FA681343FB60FB6823F0CC
:101E4C0080023B685B691343FB607B68FA681A602D
:101E5C003B689A687B68DA623B681A687B689A62AE
:101E6C007B680A4A934203D07B680C4A934203D1A5
:101E7C003B681A697B681A637B6801225A6100BF50
:101E8C001437BD465DF8047B704700BF000001406D
:101E9C000004004000080040000C00400004014019
:101EAC00004001400044014000480140001800403F
:101EBC00001C00400020004080B487B000AFF860E8
:101ECC00B9607A603B60FB681B6A23F00102FB6817
:101EDC001A62FB689B697B61FB681B6A3B61FB6850
:101EEC00284A93421BD0FB68B3F1804F17D0FB6894
:101EFC00254A934213D0FB68244A93420FD0FB68C7
:101F0C00234A93420BD0FB68224A934207D0FB68CA
:101F1C00214A934203D0FB68204A934201D101230A
:101F2C0000E00023002B08D07B6923F003037B61C6
:101F3C007A697B6813437B6103E07B6943F001039F
:101F4C007B617B6923F0F0037B613B681B01DBB297
:101F5C007A6913437B613B6923F00A033B61BB68DD
:101F6C0003F00A033A6913433B61FB687A699A618F
:101F7C00FB683A691A6200BF1C37BD465DF8047BEA
:101F8C00704700BF00000140000400400008004002
:101F9C00000C0040000401400040014000180040CB
:101FAC0080B487B000AFF860B9607A603B60FB68C2
:101FBC001B6A23F01002FB681A62FB689B697B6149
:101FCC00FB681B6A3B617B6923F440737B617B6814
:101FDC001B027A6913437B617B6923F470437B6139
:101FEC003B681B039BB27A6913437B613B6923F00B
:101FFC00A0033B61BB681B0103F0A0033A691343C8
:10200C003B61FB687A699A61FB683A691A6200BFA6
:10201C001C37BD465DF8047B704780B487B000AFB9
:10202C00F860B9607A603B60FB681B6A23F48072CD
:10203C00FB681A62FB68DB697B61FB681B6A3B61AE
:10204C007B6923F003037B617A697B6813437B61B3
:10205C007B6923F0F0037B613B681B01DBB27A697F
:10206C0013437B613B6923F420633B61BB681B0218
:10207C0003F420633A6913433B61FB687A69DA61C4
:10208C00FB683A691A6200BF1C37BD465DF8047BD9
:10209C00704780B487B000AFF860B9607A603B607D
:1020AC00FB681B6A23F48052FB681A62FB68DB69CD
:1020BC007B61FB681B6A3B617B6923F440737B612A
:1020CC007B681B027A6913437B617B6923F4704341
:1020DC007B613B681B039BB27A6913437B613B6951
:1020EC0023F420433B61BB681B0303F420433A6990
:1020FC0013433B61FB687A69DA61FB683A691A62DF
:10210C0000BF1C37BD465DF8047B704780B485B0BA
:10211C0000AF786039607B6893F83C30012B01D1BB
:10212C0002235AE07B68012283F83C207B68022260
:10213C0083F83D207B681B685B68FB607B681B68D1
:10214C009B68BB60FB6823F07003FB603B681B68FB
:10215C00FA681343FB607B681B68FA685A607B68FB
:10216C001B68214A934222D07B681B68B3F1804FD5
:10217C001DD07B681B681D4A934218D07B681B6876
:10218C001B4A934213D07B681B681A4A93420ED0A9
:10219C007B681B68184A934209D07B681B68174AF6
:1021AC00934204D07B681B68154A93420CD1BB68E0
:1021BC0023F08003BB603B685B68BA681343BB6069
:1021CC007B681B68BA689A607B68012283F83D20A3
:1021DC007B68002283F83C20002318461437BD4648
:1021EC005DF8047B704700BF000001400004004014
:1021FC0000080040000C0040000401400040014079
:10220C000018004080B58CB000AF07F11C03002211
:10221C001A605A609A60DA601A610023BB61354B10
:10222C001B6B344A43F004031363324B1B6B03F0F8
:10223C000403BB61BB6900237B612E4B1B6B2D4AD6
:10224C0043F0800313632B4B1B6B03F080037B6108
:10225C007B6900233B61274B1B6B264A43F0010330
:10226C001363244B1B6B03F001033B613B6900239D
:10227C00FB60204B1B6B1F4A43F0100313631D4B79
:10228C001B6B03F01003FB60FB680023BB60194B56
:10229C001B6B184A43F008031363164B1B6B03F0BC
:1022AC000803BB60BB6800237B60124B1B6B114A9D
:1022BC0043F0020313630F4B1B6B03F002037B60B1
:1022CC007B6801224FF4C0610B48FEF7D7FD4FF439
:1022DC00C063FB6101233B6200237B620323BB626F
:1022EC0007F11C0319460448FEF71EFC00BF3037EB
:1022FC00BD4680BD00380240000C024080B483B063
:10230C0000AF78604FF06043D3F8803E03F00103D8
:10231C00002B13D04FF06043D3F8003E03F00103C1
:10232C00002B0BD000E000BF4FF060431B68002B6C
:10233C00F9D04FF060437A68D2B21A707B681846B5
:10234C000C37BD465DF8047B7047000080B582B049
:10235C0002AFFEF76FFA00F075F8FFF753FF00F0CD
:10236C00A1FA00F003F9364800F0ECFBFEF7B8F8E0
:10237C00002300933F237F2200210020FEF72AFA3E
:10238C004FF49670FEF7C8FA012300933F237F2287
:10239C0000210020FEF71EFA4FF49670FEF7BCFAEF
:1023AC00FEF756F900212620FEF770F900210020D7
:1023BC00FEF76CF900210020FEF768F900210720D8
:1023CC00FEF764F900210320FEF760F900210020DC
:1023DC00FEF75CF90021FF20FEF758F900212F20B1
:1023EC00FEF754F94FF47A70FEF796FA00212E207E
:1023FC00FEF74CF900212920FEF748F900210020B6
:10240C00FEF744F900210020FEF740F900210720D7
:10241C00FEF73CF900210720FEF738F900210120D6
:10242C00FEF734F900212F20FEF730F94FF47A70C3
:10243C00FEF772FA00212E20FEF728F9B2E700BF52
:10244C008033000880B594B000AF07F12003302230
:10245C000021184600F012FB07F10C0300221A6051
:10246C005A609A60DA601A610023BB602B4B1B6CBC
:10247C002A4A43F080531364284B1B6C03F080539F
:10248C00BB60BB6800237B60254B1B68244A43F46C
:10249C0040431360224B1B6803F440437B607B6812
:1024AC0001233B624FF480337B620223BB634FF406
:1024BC008003FB630F233B64D8237B640223BB6440
:1024CC000423FB6407F120031846FEF741FD034685
:1024DC00002B01D000F042F8FEF7EAFC0346002B7B
:1024EC0001D000F03BF80F23FB6002233B6100237B
:1024FC007B614FF4A053BB614FF48053FB6107F138
:10250C000C0305211846FEF793FF0346002B01D060
:10251C0000F024F800BF5037BD4680BD00380240A3
:10252C000070004080B586B000AFF860B9607A608A
:10253C0000237B6109E0BB685A1CBA601B78184603
:10254C00FFF7DCFE7B6901337B617A697B689A4219
:10255C00F1DB7B6818461837BD4680BD80B400AFF0
:10256C0000BFBD465DF8047B7047000080B500AF2E
:10257C00184B194A1A60174B4FF482725A60154B5C
:10258C004FF400429A60134B0022DA60114B002288
:10259C001A61104B00225A610E4B4FF480229A6143
:1025AC000C4B0022DA610B4B00221A62094B002201
:1025BC005A62084B00229A62064B0A22DA620548DC
:1025CC00FFF7CEF80346002B01D0FFF7C7FF00BF83
:1025DC0080BD00BF9C0400200034014080B58AB04F
:1025EC0000AF786007F1140300221A605A609A60F9
:1025FC00DA601A617B681B68224A93423DD1002342
:10260C003B61214B5B6C204A43F4005353641E4BDB
:10261C005B6C03F400533B613B690023FB601A4B7A
:10262C001B6B194A43F010031363174B1B6B03F01E
:10263C001003FB60FB684FF400637B610223BB61FA
:10264C000123FB6103233B6205237B6207F1140327
:10265C0019460E48FEF768FA4FF4A0437B6102233B
:10266C00BB610023FB6103233B6205237B6207F103
:10267C00140319460548FEF757FA00BF2837BD4624
:10268C0080BD00BF00340140003802400010024001
:10269C0080B483B000AF00237B60104B5B6C0F4A9F
:1026AC0043F4804353640D4B5B6C03F480437B60B9
:1026BC007B6800233B60094B1B6C084A43F080533A
:1026CC001364064B1B6C03F080533B603B6800BFEC
:1026DC000C37BD465DF8047B704700BF00380240E4
:1026EC0080B400AF00BFBD465DF8047B704780B47A
:1026FC0000AFFEE780B400AFFEE780B400AFFEE7AA
:10270C0080B400AFFEE780B400AF00BFBD465DF8FB
:10271C00047B704780B400AF00BFBD465DF8047BFE
:10272C00704780B400AF00BFBD465DF8047B7047B6
:10273C0080B500AFFEF7D0F800BF80BD80B586B085
:10274C0000AFF860B9607A6000237B610AE0AFF3F8
:10275C0000800146BB685A1CBA60CAB21A707B6909
:10276C0001337B617A697B689A42F0DB7B6818469F
:10277C001837BD4680BD80B483B000AF78604FF091
:10278C00FF3318460C37BD465DF8047B704780B4A8
:10279C0083B000AF786039603B684FF400525A60E8
:1027AC00002318460C37BD465DF8047B704780B497
:1027BC0083B000AF7860012318460C37BD465DF836
:1027CC00047B704780B485B000AFF860B9607A6064
:1027DC00002318461437BD465DF8047B7047000093
:1027EC0080B584B000AF7860114B1B68002B02D110
:1027FC000F4B104A1A600E4B1B68FB600C4B1A688F
:10280C007B6813446A46934207D900F00DF90246DF
:10281C000C2313604FF0FF3306E0054B1A687B68FE
:10282C001344034A1360FB6818461037BD4680BD3D
:10283C008C0000203805002080B400AF164BD3F874
:10284C008830154A43F47003C2F88830134B1B6868
:10285C00124A43F001031360104B00229A600F4B95
:10286C001B680E4A23F0847323F4803313600B4BE4
:10287C000B4A5A60094B1B68084A23F480231360E7
:10288C00064B0022DA60044B4FF000629A6000BFE6
:10289C00BD465DF8047B704700ED00E00038024057
:1028AC001030002480B586B000AF07F11003002271
:1028BC001A605A603B4600221A605A609A60DA60CD
:1028CC00204B4FF080421A601E4B08225A601D4B61
:1028DC0000229A601B4B4FF0FF32DA60194B00223A
:1028EC001A61184B80229A611648FFF77DF903464E
:1028FC00002B01D0FFF732FE00233B6100237B61EC
:10290C0007F1100319460F48FFF700FC0346002B94
:10291C0001D0FFF723FE00233B6001237B600023E3
:10292C00BB600023FB603B46002219460548FFF7BD
:10293C0086F90346002B01D0FFF710FE00BF1837B5
:10294C00BD4680BDF404002080B58AB000AF78602D
:10295C0007F1140300221A605A609A60DA601A6157
:10296C007B681B68B3F1804F2BD100233B61174B65
:10297C001B6C164A43F001031364144B1B6C03F0DD
:10298C0001033B613B690023FB60104B1B6B0F4A3F
:10299C0043F0010313630D4B1B6B03F00103FB604E
:1029AC00FB6820237B610223BB610023FB610223B4
:1029BC003B6201237B6207F1140319460448FEF7BE
:1029CC00B3F800BF2837BD4680BD00BF00380240B9
:1029DC0000000240DFF834D0002103E00C4B5B58C0
:1029EC00435004310B480C4B42189A42F6D30B4A15
:1029FC0002E0002342F8043B094B9A42F9D3FFF75B
:102A0C001BFF00F017F8FFF7A1FC70470000032034
:102A1C000C3800080000002070000020700000201E
:102A2C0038050020FEE70000014B1868704700BF16
:102A3C000C00002070B50D4E0D4CA41BA4100025ED
:102A4C00A54209D10B4E0C4C00F088FCA41BA41021
:102A5C000025A54205D170BD56F8253098470135A3
:102A6C00EEE756F8253098470135F2E704380008B0
:102A7C0004380008043800080838000802440346EB
:102A8C00934200D1704703F8011BF9E770B50E466D
:102A9C00054618B183690BB900F00CFAAB69AC6848
:102AAC0013B9284600F006FA234B9C4217D16C68E8
:102ABC00A3891B071DD52369DBB1013EA36816F85A
:102ACC00011F013BA360E9B9002B2EDA22460A2133
:102ADC00284600F03FF8013011D00A2011E0174BC6
:102AEC009C4201D1AC68E3E7154B9C4208BFEC68F3
:102AFC00DEE72146284600F07FF80028DDD04FF0B5
:102B0C00FF3070BD002B04DAA2699A4206DC0A2958
:102B1C0004D023685A1C22601970CFE7224628463D
:102B2C0000F018F80130C9D1E9E723680A205A1CD3
:102B3C0022601870E5E700BFBC370008DC370008DE
:102B4C009C370008024B01461868FFF79FBF00BF77
:102B5C000C000020F8B50E461446054618B18369E2
:102B6C000BB900F0A7F9214B9C422AD16C68A369E0
:102B7C00A360A3891A072ED5236963B32369206840
:102B8C00C01A6369F6B28342374604DC21462846F4
:102B9C0000F026F928BBA368013BA36023685A1CEC
:102BAC0022601E7063690130834204D0A389DB0765
:102BBC0019D50A2E17D12146284600F011F990B1EB
:102BCC000FE00B4B9C4201D1AC68D0E7094B9C4207
:102BDC0008BFEC68CBE72146284600F00DF800282A
:102BEC00CCD04FF0FF373846F8BD00BFBC370008DB
:102BFC00DC3700089C370008324B70B51D68064660
:102C0C000C4625B1AB6913B9284600F053F92E4B8D
:102C1C009C420FD16C68B4F90C309AB215072CD4C5
:102C2C00D00611D40922326043F04003A3814FF047
:102C3C00FF303EE0254B9C4201D1AC68EBE7244BC6
:102C4C009C4208BFEC68E6E7510712D5616B41B1B5
:102C5C0004F14403994202D0304600F019FA0023E3
:102C6C006363A38923F02403A38100236360236996
:102C7C002360A38943F00803A38123694BB9A3897B
:102C8C0003F42073B3F5007F03D02146304600F0E7
:102C9C00BFF9A28912F001030CD00023A360636971
:102CAC005B42A361236953B9B4F90C3013F0800073
:102CBC00BAD170BD920758BF6369A360F2E70020D8
:102CCC00F7E700BF0C000020BC370008DC37000819
:102CDC009C3700088A892DE9F041054610070C46FF
:102CEC0058D44B68002B05DC0B6C002B02DC00204D
:102CFC00BDE8F081E66A002EF9D0002312F4805270
:102D0C002F68216A2B6032D0606DA3895A0705D5D4
:102D1C006368C01A636B0BB1236CC01A00230246A4
:102D2C00E66A216A2846B047431CA38906D1296864
:102D3C001D2948D8294ACA40D60744D500226260CA
:102D4C00D9042269226004D5421C01D12B6803B935
:102D5C006065616B2F600029C9D004F1440399426E
:102D6C0002D0284600F094F900206063C0E70123EC
:102D7C002846B047411CC8D12B68002BC5D01D2B51
:102D8C0001D0162B01D12F60B1E7A38943F040038A
:102D9C00A381ADE70F69002FA9D093070E6808BF78
:102DAC004B690F6018BF0023A6EB07088B60B8F1C6
:102DBC00000F9CDD43463A46216AA66A2846B04776
:102DCC00002806DCA38943F04003A3814FF0FF30B9
:102DDC008EE70744A8EB0008E9E700BF010040209C
:102DEC0038B50B6905460C46DBB118B183690BB9D4
:102DFC0000F060F80C4B9C4209D16C68B4F90C30B3
:102E0C007BB121462846BDE83840FFF763BF074B2E
:102E1C009C4201D1AC68F1E7054B9C4208BFEC68C1
:102E2C00ECE7002038BD00BFBC370008DC370008D9
:102E3C009C370008002310B50446C0E900338360BA
:102E4C0081814366C281C0E904338361194608223B
:102E5C005C30FFF713FE054B6362054BA362054B19
:102E6C00E362054B2462236310BD00BF0D320008E2
:102E7C002F320008673200088B320008014900F03D
:102E8C0085B800BFED2D000870B54A1E6825554366
:102E9C000E4605F1740100F049F9044640B10021D9
:102EAC00C0E900160C30A06005F16802FFF7E6FDE2
:102EBC00204670BD836910B5044633BBC0E912339C
:102ECC000365124B124A1B688262984204BF0123AD
:102EDC00836100F01FF86060204600F01BF8A060D2
:102EEC00204600F017F80022E06004216068FFF72C
:102EFC00A1FF01220921A068FFF79CFF02221221E9
:102F0C00E068FFF797FF0123A36110BD9837000815
:102F1C00892E0008F8B51B4B1E68B369074613B918
:102F2C003046FFF7C7FF4836D6E90134013B03D5DD
:102F3C00336833B13668F7E7B4F90C506DB16834C7
:102F4C00F4E704213846FFF79FFF30600028F1D1E9
:102F5C000C233B6004462046F8BD0B4B6566C4E968
:102F6C000055A560C4E90335C4E905550822294676
:102F7C0004F15C00FFF782FDC4E90D55C4E912555C
:102F8C00E9E700BF983700080100FFFF2DE9F8437F
:102F9C008046894600F14804002614B93046BDE845
:102FAC00F883D4E90175013F01D52468F5E7AB89B5
:102FBC00012B07D9B5F90E30013303D02946404611
:102FCC00C84706436835EEE770B50E46B1F90E10EA
:102FDC00002996B014461D4607DA00232B60B389EE
:102FEC001A0610D44FF480630EE06A4600F06EF9B6
:102FFC000028F2DB019A02F47042A2F500535A4207
:10300C005A412A60EEE740230020236016B070BDC1
:10301C008B8973B59D0706460C4607D504F147030B
:10302C00236023610123636102B070BD01AB6A466A
:10303C00FFF7CAFF00990546304600F077F848B90B
:10304C00B4F90C309A05EFD423F0030343F00203D8
:10305C00A381E3E70D4BB362A389206043F08003A7
:10306C00A381009B6361019B20615BB1B4F90E10DD
:10307C00304600F03DF928B1A38923F0030343F057
:10308C000103A381A3891D43A581CDE7892E0008E7
:10309C0038B50546002945D051F8043C0C1F002BCF
:1030AC00B8BFE41800F046F91F4A1368104633B94C
:1030BC00636014602846BDE8384000F03CB9A34278
:1030CC000CD921686218934204BF1A685B6863606C
:1030DC0004BF521822600460ECE713465A680AB128
:1030EC00A242FAD919685818A0420BD120680144A1
:1030FC00581882421960DDD1106852685A60014438
:10310C001960D7E702D90C232B60D3E7206821186C
:10311C008A4204BF11685268626004BF09182160BA
:10312C005C60C7E738BD00BF9000002070B5CD1CB7
:10313C0025F0030508350C2D38BF0C25002D06464F
:10314C0001DBA94203D90C233360002070BD00F0D1
:10315C00F1F8214A1468214691B9204C23681BB917
:10316C00304600F03DF820602946304600F038F833
:10317C00431C24D10C233360304600F0DCF8E4E728
:10318C000B685B1B18D40B2B0FD90B60CD50CC18D4
:10319C00304600F0D0F804F10B00231D20F007009E
:1031AC00C31AD3D05A42E250D0E78C424B6816BFB8
:1031BC00636013600C46EBE70C464968CCE7C41C13
:1031CC0024F00304A04205D0211A304600F008F880
:1031DC000130CFD02560DBE7900000209400002068
:1031EC0038B5064C0023054608462360FFF7F8FA6D
:1031FC00431C02D1236803B12B6038BD3405002079
:10320C0010B50C46B1F90E1000F096F80028ABBFC3
:10321C00636DA3891B1823F48053ACBF6365A38132
:10322C0010BD2DE9F0411F468B89DB0505460C4688
:10323C00164605D502230022B1F90E1000F068F8ED
:10324C00A389B4F90E1023F48053A38132463B4674
:10325C002846BDE8F04100F017B810B50C46B1F99E
:10326C000E1000F055F8431CA38915BF606523F4BC
:10327C00805343F48053A38118BFA38110BDB1F9CF
:10328C000E1000F013B8000038B5074C0546084680
:10329C001146002222601A46FFF744F9431C02D162
:1032AC00236803B12B6038BD3405002038B5064CBB
:1032BC000023054608462360FFF75DFA431C02D144
:1032CC00236803B12B6038BD3405002038B5074C9A
:1032DC0000230546084611462360FFF758FA431CA5
:1032EC0002D1236803B12B6038BD00BF3405002028
:1032FC0038B5064C0023054608462360FFF757FAFD
:10330C00431C02D1236803B12B6038BD3405002067
:10331C0038B5074C054608461146002222601A466D
:10332C00FFF750FA431C02D1236803B12B6038BD60
:10333C00340500207047704738B5074C05460846E1
:10334C001146002222601A46FFF7F8F9431C02D1FD
:10335C00236803B12B6038BD34050020F8B500BFDD
:10336C00F8BC08BC9E467047F8B500BFF8BC08BC5A
:04337C009E467047B2
:1033800053746172740D00000000000000000038EA
:103390007CFCFCF8F0E0C0800000000000000000B1
:1033A000000000000000000000000000000000001D
:1033B000000000000000000000000000000000000D
:1033C00000000000E0F0F0F0E0C08000000000002D
:1033D00000000000000000000000000000000000ED
:1033E00000000000000000000000000000000000DD
:1033F00000000000000000000000000000000000CD
:1034000000000000000000000000000000000000BC
:1034100000000103070F1F3F7FFEFCF8F0E0C080B3
:10342000000000000000000000000000000000009C
:10343000000000000000000000000000000000008C
:1034400000000000000103070F1F3F7FFEFCF8F0A3
:10345000E0C080000000000000000000000000004C
:10346000000000000000000000000000000000005C
:10347000000000000000000000000000000000004C
:10348000000000000000000000000000000000003C
:10349000000000000000000000000103070F1F3FB4
:1034A0007FFEFCF8F0E0C08000000000000000009B
:1034B000000000000000000000000000000000000C
:1034C00000000000000000000000000000010307F1
:1034D0000F1F3F7FFEFCF8F0E0C0800000000000FE
:1034E00000000000000000000000000000000000DC
:1034F00000000000000000000000000000000000CC
:1035000000000000000000003E3E3E3E3E3E3E3ECB
:103510003E3E3E3E3E3E3E3E3E3E3E3E3E3E3E3ECB
:103520003E3E3F3F3F3F3F3F7FFEFEFEFEFEFEBE74
:103530003E3E3E3E3E3E3E3E3E3E3E3E3E3E3E3EAB
:103540003E3E3E3E3E3E3E3E3E3E3E3E3E3E3E3E9B
:103550003E3E3E3E3E3F3F3F3F3F3F7FFEFEFEFE44
:10356000FEFEBE3E3E3E3E3E3E3E3E3E3E3E3E3E7B
:103570003E3E3E3E3E3E3E3E3E3E3E3E3E3E3E3E6B
:103580003E3E3E3E3E3E3E3E00000000000000004B
:10359000000000000000000000000000000000002B
:1035A000000000000000000000000103070F1F3FA3
:1035B0007FFEFCF8F0E0C08000000000000000008A
:1035C00000000000000000000000000000000000FB
:1035D00000000000000000000000000000010307E0
:1035E0000F1F3F7FFEFCF8F0E0C0800000000000ED
:1035F00000000000000000000000000000000000CB
:1036000000000000000000000000000000000000BA
:1036100000000000000000000000000000000000AA
:10362000000000000000000000000000000000009A
:1036300000000103070F1F3F7FFEFCF8F0E0C08091
:10364000000000000000000000000000000000007A
:10365000000000000000000000000000000000006A
:1036600000000000000103070F1F3F7FFEFCF8F081
:10367000E0C080000000000000000000000000002A
:10368000000000000000000000000000000000003A
:10369000000000000000000000000000000000002A
:1036A000000000000000000000000000000000001A
:1036B000000000000000000000000103070F1F3F92
:1036C0007FFEFCF8F0E0C080000000000000000079
:1036D00000000000000000000000000000000000EA
:1036E00000000000000000000000000000010307CF
:1036F0000F1F3F7FFEFCF8F0E0C0800000000000DC
:1037000000000000000000000000000000000000B9
:1037100000000000000000000000000000000000A9
:103720000000000000000000000000000000000099
:103730000000000000000000000000000000000089
:1037400000000103070F1F3F7FFEFCF87000000020
:103750000000000000000000000000000000000069
:103760000000000000000000000000000000000059
:10377000000000000001030707070300000000002D
:103780000000000000000000000000000000000039
:1037900001020304060708091000002000000000D1
:1037A0000000000000000000000000000000000019
:1037B0000000000000000000000000000000000009
:1037C00000000000000000000000000000000000F9
:1037D00000000000000000000000000000000000E9
:1037E00000000000000000000000000000000000D9
:0C37F000000000000000000000000000CD
:0837FC0020CAFF7F010000005C
:04380400D1010008E6
:04380800AD01000806
:10380C0010000000010000000024F4001000002053
:10381C0000000000BC370008DC3700089C370008AB
:10382C00000000000000000000000000000000008C
:10383C00000000000000000000000000000000007C
:10384C00000000000000000000000000000000006C
:10385C00000000000000000000000000000000005C
:10386C00000000000000000000000000000000004C
:04000005080029E1E5
:00000001FF
