:020000040800F2
:1000000000000320512300088D2100089B210008D7
:10001000A1210008A7210008AD2100080000000070
:10002000000000000000000000000000B3210008F4
:10003000C121000800000000CF210008DD210008D8
:10004000A1230008A1230008A1230008A123000880
:10005000A1230008A1230008A1230008A123000870
:10006000A1230008A1230008A1230008A123000860
:10007000A1230008A1230008A1230008A123000850
:10008000A1230008A1230008A1230008A123000840
:10009000A1230008A1230008A1230008A123000830
:1000A000A1230008A1230008A1230008A123000820
:1000B000A1230008A1230008A1230008A123000810
:1000C000A1230008A1230008A1230008A123000800
:1000D000A1230008A1230008A1230008A1230008F0
:1000E000A1230008A1230008A1230008A1230008E0
:1000F000A1230008A1230008A1230008A1230008D0
:10010000A1230008A1230008A1230008A1230008BF
:10011000A1230008A1230008A1230008A1230008AF
:10012000A1230008A1230008A1230008A12300089F
:10013000A1230008A1230008A1230008A12300088F
:10014000A1230008A1230008A1230008A12300087F
:10015000A1230008A1230008A1230008A12300086F
:10016000A1230008A1230008A1230008A12300085F
:10017000A1230008A1230008A1230008000000001B
:10018000A1230008A1230008A1230008A12300083F
:10019000A1230008A1230008A1230008A12300082F
:0C01A000A1230008A1230008A1230008EF
:1001AC0010B5054C237833B9044B13B10448AFF3A5
:1001BC0000800123237010BD70000020000000009F
:1001CC00D82C000808B5034B1BB103490348AFF307
:1001DC00008008BD0000000074000020D82C00082E
:1001EC0053B94AB9002908BF00281CBF4FF0FF3192
:1001FC004FF0FF3000F072B9ADF1080C6DE904CE90
:10020C0000F006F8DDF804E0DDE9022304B07047E5
:10021C002DE9F047089E04468846002B4BD18A42B4
:10022C00154667D9B2FA82F24AB1C2F1200701FA37
:10023C0002F320FA07F7954047EA030894404FEA87
:10024C00154E230CB8FBFEF71FFA85FC0EFB178826
:10025C0043EA084307FB0CF1994209D9EB1807F163
:10026C00FF3080F01B81994240F21881023F2B44F1
:10027C005B1AA4B2B3FBFEF00EFB103344EA03444A
:10028C0000FB0CFCA44509D92C1900F1FF3380F0BC
:10029C000781A44540F2048102382C4440EA07400F
:1002AC00A4EB0C0400271EB1D4400023C6E9004384
:1002BC003946BDE8F0878B4209D9002E00F0EB805F
:1002CC000027C6E9000138463946BDE8F087B3FA85
:1002DC0083F7002F47D18B4202D3824200F2FA807F
:1002EC00841A61EB030301209846002EE0D0C6E986
:1002FC000048DDE702B9FFDEB2FA82F2002A40F0D4
:10030C008F80491B4FEA154E1FFA85F80127B1FB68
:10031C00FEFC230C0EFB1C1143EA014308FB0CF101
:10032C00994207D9EB180CF1FF3002D2994200F236
:10033C00CD808446591AA3B2B1FBFEF00EFB10140B
:10034C0043EA044408FB00F8A04507D92C1900F136
:10035C00FF3302D2A04500F2B6801846A4EB080485
:10036C0040EA0C409FE7C7F1200CBB4022FA0CFE80
:10037C004EEA030E01FA07F420FA0CF521FA0CF3FD
:10038C004FEA1E482543B3FBF8F92C0C08FB193334
:10039C001FFA8EFA44EA034309FB0AF49C4202FA60
:1003AC0007F200FA07F10BD91EEB030309F1FF303A
:1003BC0080F087809C4240F28480A9F1020973444A
:1003CC001B1BADB2B3FBF8F008FB103345EA03443A
:1003DC0000FB0AFAA24508D91EEB040400F1FF3316
:1003EC006BD2A24569D90238744440EA0940A0FB9B
:1003FC000289A4EB0A044C45C2464B4654D351D057
:10040C00002E69D0B1EB0A0564EB030404FA0CFC72
:10041C00FD40FC404CEA0505C6E90054002747E7BF
:10042C00C2F1200320FA03F7954001FA02F021FAF9
:10043C0003F34FEA154E3843010CB3FBFEF71FFADA
:10044C0085F80EFB173341EA034107FB08F38B4297
:10045C0004FA02F407D9691807F1FF3C2FD28B423A
:10046C002DD9023F2944CB1A81B2B3FBFEF00EFB0F
:10047C00103341EA034100FB08F38B4207D969189A
:10048C0000F1FF3C17D28B4215D902382944C91A06
:10049C0040EA07473BE73746304609E70746E7E6B9
:1004AC001846FBE64145ABD2B8EB020A69EB0E02EB
:1004BC0001381346A4E76046E9E7184695E7674616
:1004CC00D1E781467CE702382C4447E7ACF1020CBB
:1004DC002B442FE7384608E73746E9E6704700BF5C
:1004EC0080B483B000AF0346FB80FB889BB2FB80DB
:1004FC00044BFA8892B21A8000BF0C37BD465DF8E7
:10050C00047B7047FEFF076080B483B000AF064BDE
:10051C005B889BB2FB80FB889BB218460C37BD46B0
:10052C005DF8047B704700BFFEFF076080B483B0AA
:10053C0000AF0346FB80FB889BB2FB80044BFA8820
:10054C0092B25A8000BF0C37BD465DF8047B7047F1
:10055C00FEFF076080B500AFD320FFF7C1FFFFF7A8
:10056C00D3FF03461A46B24B9A80FFF7CDFF0346E2
:10057C001A46AF4B9A80FFF7C7FF03461A46AC4B9F
:10058C009A80AB4B9B881B029AB2A94B9A80FFF7BF
:10059C00BBFF03461A46A64B9B8813439AB2A44B47
:1005AC009A80A34B9B8849F24132934240F03281AE
:1005BC00A04801F07FFFCF20FFF792FF0020FFF74C
:1005CC00B5FFC120FFF7B2FF3020FFF7AFFFED20E2
:1005DC00FFF786FF6420FFF7A9FF0320FFF7A6FFB4
:1005EC001220FFF7A3FF8120FFF7A0FFE820FFF701
:1005FC0077FF8520FFF79AFF1020FFF797FF7A20EF
:10060C00FFF794FFCB20FFF76BFF3920FFF78EFF2E
:10061C002C20FFF78BFF0020FFF788FF3420FFF71B
:10062C0085FF0220FFF782FFF720FFF759FF2020FC
:10063C00FFF77CFFEA20FFF753FF0020FFF776FF60
:10064C000020FFF773FFC020FFF74AFF1B20FFF7C6
:10065C006DFFC120FFF744FF0120FFF767FFC520A6
:10066C00FFF73EFF3020FFF761FF3020FFF75EFF02
:10067C00C720FFF735FFB720FFF758FF3620FFF7ED
:10068C002FFF4820FFF752FF3A20FFF729FF552094
:10069C00FFF74CFFB120FFF723FF0020FFF746FFC9
:1006AC001A20FFF743FFB620FFF71AFF0A20FFF7C7
:1006BC003DFFA220FFF73AFFF220FFF711FF0020C9
:1006CC00FFF734FF2620FFF70BFF0120FFF72EFF6B
:1006DC00E020FFF705FF0F20FFF728FF2A20FFF788
:1006EC0025FF2820FFF722FF0820FFF71FFF0E2011
:1006FC00FFF71CFF0820FFF719FF5420FFF716FF28
:10070C00A920FFF713FF4320FFF710FF0A20FFF784
:10071C000DFF0F20FFF70AFF0020FFF707FF002057
:10072C00FFF704FF0020FFF701FF0020FFF7FEFE9C
:10073C00E120FFF7D5FE0020FFF7F8FE1520FFF7AC
:10074C00F5FE1720FFF7F2FE0720FFF7EFFE112052
:10075C00FFF7ECFE0620FFF7E9FE2B20FFF7E6FE85
:10076C005620FFF7E3FE3C20FFF7E0FE0520FFF7E5
:10077C00DDFE1020FFF7DAFE0F20FFF7D7FE3F203B
:10078C00FFF7D4FE3F20FFF7D1FE0F20FFF7CEFE80
:10079C002B20FFF7A5FE0020FFF7C8FE0020FFF777
:1007AC00C5FE0120FFF7C2FE3F20FFF7BFFE2A2047
:1007BC00FFF796FE0020FFF7B9FE0020FFF7B6FE0C
:1007CC000020FFF7B3FEEF20FFF7B0FE1120FFF77C
:1007DC0087FE782000F012FA2920FFF781FE164BD5
:1007EC001B68154A23F00F031360134B1B68124A46
:1007FC0023F470631360104B1B680F4A43F004031F
:10080C0013600D4B1B680C4A43F4806313600B4858
:10081C0001F050FE002000F015F8012220210848BC
:10082C0000F09EFC4FF6FF7000F00AF900BF80BD8F
:10083C009C000020F02C0008040100A0FC2C0008F7
:10084C000004024080B582B000AF0346FB71124A2F
:10085C00FB799371FB79002B07D10F4BF0221A8097
:10086C000D4B4FF4A0725A8006E00B4B4FF4A07264
:10087C001A80094BF0225A80074B2C221A81064B06
:10088C002A225A81044B2B229A81002000F006F870
:10089C0000BF0837BD4680BD9C00002080B584B0E9
:1008AC0000AF0346FB710023FB810023BB81584B37
:1008BC009B79012B2ED1FB79072B2BD801A252F857
:1008CC0023F000BFF1080008F7080008FD08000835
:1008DC0003090008090900080F0900081509000898
:1008EC001B0900080623FB7114E00723FB7111E0C0
:1008FC000423FB710EE00523FB710BE00123FB715C
:10090C0008E00023FB7105E00323FB7102E00223E6
:10091C00FB7100BFFB79072B35D801A252F823F0ED
:10092C00930900084D0900085709000861090008DF
:10093C006B090008750900087F090008890900087F
:10094C00FB8943F08003FB811DE0FB8943F04003EE
:10095C00FB8118E0FB8943F0C003FB8113E0FB89AA
:10096C0043F02003FB810EE0FB8943F06003FB8125
:10097C0009E0FB8943F0A003FB8104E0FB8943F011
:10098C00E003FB8100BF3623BB81FA89BB8911468A
:10099C00184600F03FF81E4B5B891846FFF7A0FD88
:1009AC000020FFF7C3FD0020FFF7C0FD184B1B888C
:1009BC00013B1B129BB21846FFF7B8FD144B1B886A
:1009CC00013B9BB2DBB29BB21846FFF7AFFD104B5D
:1009DC009B891846FFF784FD0020FFF7A7FD002038
:1009EC00FFF7A4FD0A4B5B88013B1B129BB2184618
:1009FC00FFF79CFD064B5B88013B9BB2DBB29BB2C5
:100A0C001846FFF793FD00BF1037BD4680BD00BFF1
:100A1C009C00002080B483B000AF03460A46FB80E4
:100A2C001346BB80054AFB881380044ABB8853805D
:100A3C0000BF0C37BD465DF8047B7047FEFF0760B6
:100A4C0080B584B000AF78600023FB60104B1B882E
:100A5C00BB600F4B5B881A46BB6802FB03F3BB60A1
:100A6C000021002000F028F800F016F80023FB60AD
:100A7C0006E0084B7A6892B25A80FB680133FB603F
:100A8C00FA68BB689A42F4D300BF1037BD4680BDEC
:100A9C009C000020FEFF076080B400AF044B054AA9
:100AAC0012891A8000BFBD465DF8047B704700BFF9
:100ABC00FEFF07609C00002080B582B000AF0346AB
:100ACC000A46FB801346BB80124B5B891846FFF726
:100ADC0007FDFB881B0A9BB21846FFF727FDFB8816
:100AEC00DBB29BB21846FFF721FD0A4B9B891846D7
:100AFC00FFF7F6FCBB881B0A9BB21846FFF716FDE6
:100B0C00BB88DBB29BB21846FFF710FD00BF08375D
:100B1C00BD4680BD9C00002080B500AF0E4B1B680D
:100B2C000D4A43F4007313600B4B1B680A4A43F4E1
:100B3C0080631360084B1B68074A43F4807313608F
:100B4C00032000F02FF9002000F008F801F0F0FA73
:100B5C000023184680BD00BF003C024080B582B027
:100B6C0000AF7860124B1A68124B1B7819464FF481
:100B7C007A73B3FBF1F3B2FBF3F3184600F039F9D7
:100B8C000346002B01D001230EE07B680F2B0AD803
:100B9C00002279684FF0FF3000F00FF9064A7B68AD
:100BAC001360002300E0012318460837BD4680BDC2
:100BBC0008000020040000200000002080B400AFDA
:100BCC00064B1B781A46064B1B681344044A1360E9
:100BDC0000BFBD465DF8047B704700BF04000020D9
:100BEC00AC00002080B400AF034B1B681846BD4618
:100BFC005DF8047B704700BFAC00002080B584B06A
:100C0C0000AF7860FFF7EEFFB8607B68FB60FB68B5
:100C1C00B3F1FF3F05D0094B1B781A46FB68134410
:100C2C00FB6000BFFFF7DEFF0246BB68D31AFA6811
:100C3C009A42F7D800BF1037BD4680BD0400002093
:100C4C0080B485B000AF78607B6803F00703FB606D
:100C5C000C4BDB68BB60BA684FF6FF031340BB60FC
:100C6C00FB681A02BB68134343F0BF6343F40033C1
:100C7C00BB60044ABB68D36000BF1437BD465DF847
:100C8C00047B704700ED00E080B400AF044BDB68E0
:100C9C001B0A03F007031846BD465DF8047B70473A
:100CAC0000ED00E080B483B000AF03463960FB7107
:100CBC0097F90730002B0ADB3B68DAB20C4997F93D
:100CCC0007301201D2B20B4483F800230AE03B68D0
:100CDC00DAB20849FB7903F00F03043B1201D2B2DC
:100CEC000B441A7600BF0C37BD465DF8047B704789
:100CFC0000E100E000ED00E080B489B000AFF860E6
:100D0C00B9607A60FB6803F00703FB61FB69C3F110
:100D1C000703042B28BF0423BB61FB690433062B98
:100D2C0002D9FB69033B00E000237B614FF0FF32EB
:100D3C00BB6902FA03F3DA43BB681A407B699A4039
:100D4C004FF0FF317B6901FA03F3D9437B680B4009
:100D5C00134318462437BD465DF8047B70470000EA
:100D6C0080B582B000AF78607B68013BB3F1807FC7
:100D7C0001D301230FE00A4A7B68013B53600F212A
:100D8C004FF0FF30FFF78EFF054B00229A60044BAB
:100D9C0007221A60002318460837BD4680BD00BFE5
:100DAC0010E000E080B582B000AF78607868FFF7A3
:100DBC0047FF00BF0837BD4680BD80B586B000AF89
:100DCC000346B9607A60FB7300237B61FFF75CFF1D
:100DDC0078617A68B9687869FFF78EFF024697F9EF
:100DEC000F3011461846FFF75DFF00BF1837BD46A0
:100DFC0080BD80B582B000AF78607868FFF7B0FF37
:100E0C00034618460837BD4680BD000080B489B043
:100E1C0000AF7860396000237B6100233B610023C5
:100E2C00BB610023FB6177E10122FB6902FA03F34A
:100E3C007B613B681B687A6913403B613A697B694B
:100E4C009A4240F066813B685B68012B0BD03B6893
:100E5C005B68022B07D03B685B68112B03D03B68A7
:100E6C005B68122B30D17B689B68BB61FB695B00B4
:100E7C00032202FA03F3DB43BA691340BB613B68FC
:100E8C00DA68FB695B0002FA03F3BA691343BB61CE
:100E9C007B68BA699A607B685B68BB610122FB69FD
:100EAC0002FA03F3DB43BA691340BB613B685B682E
:100EBC001B0903F00102FB6902FA03F3BA6913433D
:100ECC00BB617B68BA695A607B68DB68BB61FB6994
:100EDC005B00032202FA03F3DB43BA691340BB61E4
:100EEC003B689A68FB695B0002FA03F3BA69134327
:100EFC00BB617B68BA69DA603B685B68022B03D024
:100F0C003B685B68122B23D1FB69DA087B680832DB
:100F1C0053F82230BB61FB6903F007039B000F22DF
:100F2C0002FA03F3DB43BA691340BB613B681A69ED
:100F3C00FB6903F007039B0002FA03F3BA6913433E
:100F4C00BB61FB69DA087B680832B96943F8221087
:100F5C007B681B68BB61FB695B00032202FA03F32D
:100F6C00DB43BA691340BB613B685B6803F0030267
:100F7C00FB695B0002FA03F3BA691343BB617B683C
:100F8C00BA691A603B685B6803F08053002B00F071
:100F9C00C0800023FB60654B5B6C644A43F4804368
:100FAC005364624B5B6C03F48043FB60FB68604AE8
:100FBC00FB699B08023352F82330BB61FB6903F0D9
:100FCC0003039B000F2202FA03F3DB43BA691340BD
:100FDC00BB617B68574A934237D07B68564A934231
:100FEC0031D07B68554A93422BD07B68544A93424C
:100FFC0025D07B68534A93421FD07B68524A934258
:10100C0019D07B68514A934213D07B68504A934263
:10101C000DD07B684F4A934207D07B684E4A93426F
:10102C0001D1092312E00A2310E008230EE0072364
:10103C000CE006230AE0052308E0042306E0032362
:10104C0004E0022302E0012300E00023FA6902F02D
:10105C00030292009340BA691343BB613449FB69A4
:10106C009B080233BA6941F823203C4B1B68BB61D7
:10107C003B69DB43BA691340BB613B685B6803F4B3
:10108C008033002B03D0BA693B691343BB61334AED
:10109C00BB691360314B5B68BB613B69DB43BA696D
:1010AC001340BB613B685B6803F40033002B03D037
:1010BC00BA693B691343BB61284ABB695360274B30
:1010CC009B68BB613B69DB43BA691340BB613B68FE
:1010DC005B6803F48013002B03D0BA693B6913439C
:1010EC00BB611E4ABB6993601C4BDB68BB613B69EF
:1010FC00DB43BA691340BB613B685B6803F40013C4
:10110C00002B03D0BA693B691343BB61134ABB691B
:10111C00D360FB690133FB61FB690F2B7FF684AE57
:10112C0000BF2437BD465DF8047B70470038024091
:10113C000038014000000240000402400008024058
:10114C00000C024000100240001402400018024043
:10115C00001C02400020024000240240003C0140E0
:10116C0080B483B000AF78600B467B8013467B70F5
:10117C007B78002B03D07A887B689A6103E07B88AC
:10118C001A047B689A6100BF0C37BD465DF8047B7E
:10119C007047000080B582B000AF00237B60002355
:1011AC003B60204B1B6C1F4A43F0805313641D4B58
:1011BC001B6C03F080533B603B681B4B01221A6095
:1011CC00FFF710FD786009E0FFF70CFD02467B6825
:1011DC00D31AB3F57A7F01D903231FE0134B5B6855
:1011EC0003F48033B3F5803FEED1114B01221A602A
:1011FC00FFF7F8FC786009E0FFF7F4FC02467B6827
:10120C00D31AB3F57A7F01D9032307E0074B5B6848
:10121C0003F40033B3F5003FEED100231846083732
:10122C00BD4680BD0038024040000E4200700040B8
:10123C0044000E4280B586B000AF78607B68002B0E
:10124C0001D101235BE27B681B6803F00103002BD7
:10125C0075D0A34B9B6803F00C03042B0CD0A04B54
:10126C009B6803F00C03082B12D19D4B5B6803F4B5
:10127C008003B3F5800F0BD1994B1B6803F400333B
:10128C00002B5BD07B685B68002B57D1012336E2C7
:10129C007B685B68B3F5803F06D1914B1B68904A25
:1012AC0043F4803313601DE07B685B68B3F5A02FBB
:1012BC000CD18B4B1B688A4A43F480231360884BF8
:1012CC001B68874A43F4803313600BE0844B1B6824
:1012DC00834A23F480331360814B1B68804A23F4C8
:1012EC00802313607B685B68002B13D0FFF77AFCBC
:1012FC00386108E0FFF776FC02463B69D31A642B91
:10130C0001D90323FBE1764B1B6803F40033002B5C
:10131C00F0D014E0FFF766FC386108E0FFF762FCE0
:10132C0002463B69D31A642B01D90323E7E16C4BCA
:10133C001B6803F40033002BF0D100E000BF7B6886
:10134C001B6803F00203002B63D0654B9B6803F012
:10135C000C03002B0BD0624B9B6803F00C03082B87
:10136C001CD15F4B5B6803F48003002B16D15C4BE4
:10137C001B6803F00203002B05D07B68DB68012B94
:10138C0001D00123BBE1564B1B6823F0F8027B68AC
:10139C001B69DB00524913430B603AE07B68DB6846
:1013AC00002B20D04F4B01221A60FFF71BFC386139
:1013BC0008E0FFF717FC02463B69D31A022B01D950
:1013CC0003239CE1464B1B6803F00203002BF0D077
:1013DC00434B1B6823F0F8027B681B69DB00404918
:1013EC0013430B6015E03F4B00221A60FFF7FAFB2A
:1013FC00386108E0FFF7F6FB02463B69D31A022B73
:10140C0001D903237BE1364B1B6803F00203002B4D
:10141C00F0D17B681B6803F00803002B30D07B688D
:10142C005B69002B16D0304B01221A60FFF7DAFBF8
:10143C00386108E0FFF7D6FB02463B69D31A022B52
:10144C0001D903235BE1264B5B6F03F00203002BF6
:10145C00F0D015E0244B00221A60FFF7C3FB386173
:10146C0008E0FFF7BFFB02463B69D31A022B01D9F8
:10147C00032344E11A4B5B6F03F00203002BF0D102
:10148C007B681B6803F00403002B00F0A080002392
:10149C00FB75134B1B6C03F08053002B0FD10023F7
:1014AC00BB600F4B1B6C0E4A43F0805313640C4B08
:1014BC001B6C03F08053BB60BB680123FB750B4BAB
:1014CC001B6803F48073002B21D1084B1B68074A5F
:1014DC0043F480731360FFF785FB386111E000BFA4
:1014EC000038024000004742800E47420070004026
:1014FC00FFF778FB02463B69D31A022B01D9032371
:10150C00FDE0814B1B6803F48073002BF0D07B68EB
:10151C009B68012B06D17D4B1B6F7C4A43F001036A
:10152C0013671CE07B689B68052B0CD1774B1B6FFA
:10153C00764A43F004031367744B1B6F734A43F0F2
:10154C00010313670BE0714B1B6F704A23F001030F
:10155C0013676E4B1B6F6D4A23F0040313677B6894
:10156C009B68002B15D0FFF73DFB38610AE0FFF7B5
:10157C0039FB02463B69D31A41F28832934201D9B6
:10158C000323BCE0614B1B6F03F00203002BEED076
:10159C0014E0FFF727FB38610AE0FFF723FB024654
:1015AC003B69D31A41F28832934201D90323A6E056
:1015BC00564B1B6F03F00203002BEED1FB7D012B6E
:1015CC0005D1524B1B6C514A23F0805313647B683A
:1015DC009B69002B00F092804C4B9B6803F00C0332
:1015EC00082B5CD07B689B69022B41D1484B0022B5
:1015FC001A60FFF7F7FA386108E0FFF7F3FA0246D2
:10160C003B69D31A022B01D9032378E03F4B1B68AB
:10161C0003F00073002BF0D17B68DA697B681B6ADE
:10162C001A437B685B6A9B011A437B689B6A5B0865
:10163C00013B1B041A437B68DB6A1B0633491343CB
:10164C004B60334B01221A60FFF7CCFA386108E08B
:10165C00FFF7C8FA02463B69D31A022B01D90323C0
:10166C004DE02A4B1B6803F00073002BF0D045E0D3
:10167C00274B00221A60FFF7B5FA386108E0FFF734
:10168C00B1FA02463B69D31A022B01D9032336E087
:10169C001E4B1B6803F00073002BF0D12EE07B680F
:1016AC009B69012B01D1012329E0184B9B68FB603E
:1016BC00FB6803F480027B68DB699A421CD1FB68EF
:1016CC0003F03F027B681B6A9A4215D1FA6847F611
:1016DC00C07313407A68526A93420DD1FB6803F4CD
:1016EC0040327B689B6A9A4206D1FB6803F07062B9
:1016FC007B68DB6A9A4201D0012300E00023184684
:10170C001837BD4680BD00BF007000400038024055
:10171C006000474280B584B000AF786039607B6868
:10172C00002B01D10123CCE0684B1B6803F00F03A5
:10173C003A689A420CD9654B3A68D2B21A70634B2C
:10174C001B6803F00F033A689A4201D00123B8E0FA
:10175C007B681B6803F00203002B20D07B681B689E
:10176C0003F00403002B05D0594B9B68584A43F4F3
:10177C00E05393607B681B6803F00803002B05D0D3
:10178C00534B9B68524A43F460439360504B9B68A5
:10179C0023F0F0027B689B684D4913438B607B6898
:1017AC001B6803F00103002B44D07B685B68012BA2
:1017BC0007D1474B1B6803F40033002B19D10123CD
:1017CC007FE07B685B68022B03D07B685B68032B34
:1017DC0007D13F4B1B6803F00073002B09D1012389
:1017EC006FE03B4B1B6803F00203002B01D101237C
:1017FC0067E0374B9B6823F003027B685B683449D6
:10180C0013438B60FFF7EEF9F8600AE0FFF7EAF993
:10181C000246FB68D31A41F28832934201D9032362
:10182C004FE02B4B9B6803F00C027B685B689B00C2
:10183C009A42EBD1254B1B6803F00F033A689A428E
:10184C000CD2224B3A68D2B21A70204B1B6803F0B0
:10185C000F033A689A4201D0012332E07B681B687F
:10186C0003F00403002B08D0194B9B6823F4E052BF
:10187C007B68DB68164913438B607B681B6803F03D
:10188C000803002B09D0124B9B6823F460427B6841
:10189C001B69DB000E4913438B6000F021F80146F5
:1018AC000B4B9B681B0903F00F030A4AD35C21FA0C
:1018BC0003F3094A1360094B1B681846FFF74EF9EE
:1018CC00002318461037BD4680BD00BF003C0240C7
:1018DC0000380240102D00080800002000000020F5
:1018EC00F0B585B000AF00237B600023FB600023C4
:1018FC003B600023BB60504B9B6803F00C03042B34
:10190C0007D0082B08D0002B40F08D804B4BBB60D0
:10191C008CE04B4BBB6089E0474B5B6803F03F03AB
:10192C007B60454B5B6803F48003002B23D0424B58
:10193C005B689B094FF0000440F2FF114FF000026E
:10194C0003EA010504EA02063D4A02FB06F1002205
:10195C0002FB05F20A443A49A5FB0101531819464A
:10196C007B684FF000041A462346FEF739FC034609
:10197C000C46FB6049E0304B5B689B094FF0000460
:10198C0040F2FF114FF0000203EA010504EA0206DF
:10199C00294632464FF000034FF00004540144EA4C
:1019AC00D1644B0119462246491B62EB06024FF0EB
:1019BC0000034FF00004940144EA91648B015B1A1C
:1019CC0064EB02044FF000014FF00002E20042EA27
:1019DC005372D9000B4614465B1944EB06044FF0C6
:1019EC0000014FF00002A20242EA935299020B4608
:1019FC001446184621467B684FF000041A462346CD
:101A0C00FEF7EEFB03460C46FB600B4B5B681B0CB6
:101A1C0003F0030301335B003B60FA683B68B2FBE5
:101A2C00F3F3BB6002E0054BBB6000BFBB6818461C
:101A3C001437BD46F0BD00BF003802400024F4004E
:101A4C0040787D0180B584B000AFF860B9607A60F1
:101A5C00FB68002B01D1012334E0FB6893F849307B
:101A6C00DBB2002B06D1FB68002283F84820F86813
:101A7C0000F0ECF9FB681A68FB680833194610464D
:101A8C0000F024F8FB681868FB689B681A46B96874
:101A9C0000F080F8FB685868FB689A68FB681B6B61
:101AAC00796800F0CBF8FB681B68FA68926853F809
:101ABC002210FB681B68FA68926841F0010143F838
:101ACC002210002318461037BD4680BD80B485B067
:101ADC0000AF786039600023FB603B681A687B6854
:101AEC0053F82230FB60FA68294B1340FB603B68CB
:101AFC005A683B689B681A433B68DB681A433B682F
:101B0C001B691A433B685B691A433B689B691A4320
:101B1C003B68DB691A433B681B6A1A433B685B6A88
:101B2C001A433B689B6A1A433B68DB6A1A433B685F
:101B3C00DB6B1A433B681B6B1A433B685B6B1343B1
:101B4C00FA681343FB603B689B68082B03D1FB6866
:101B5C0043F04003FB603B681A687B68F96843F804
:101B6C0022103B685B6BB3F5801F0AD13B681B6886
:101B7C00002B06D07B681A683B685B6B1A437B684A
:101B8C001A60002318461437BD465DF8047B704775
:101B9C008000E0FF80B487B000AFF860B9607A6075
:101BAC0000237B617B685A1CFB6853F822307B61F5
:101BBC007B6903F040437B61BB681A68BB685B6858
:101BCC001B011A43BB689B681B021A43BB68DB688A
:101BDC001B041A43BB681B69013B1B051A43BB68FA
:101BEC005B69023B1B061A43BB689B6913437A690A
:101BFC0013437B617B685A1CFB68796943F822109C
:101C0C00FB681B6803F48013B3F5801F0ED1FB68CF
:101C1C005B6823F470037B61BB681B69013B1B058C
:101C2C007A6913437B61FB687A695A600023184612
:101C3C001C37BD465DF8047B7047000080B487B04C
:101C4C0000AFF860B9607A603B6000237B613B6851
:101C5C00B3F5804F22D1FB687A6853F822307B6150
:101C6C007A69154B13407B61BB681A68BB685B686B
:101C7C001B011A43BB689B681B021A43BB68DB68D9
:101C8C001B041A43BB689B6913437A6913437B613A
:101C9C00FB687A68796943F8221005E0FB687A687A
:101CAC006FF0704143F82210002318461C37BD46D4
:101CBC005DF8047B704700BF0000F0CF80B58EB09C
:101CCC0000AF07F11C0300221A605A609A60DA60B8
:101CDC001A615A619A613B4600221A605A609A60F6
:101CEC00DA601A615A619A61304B4FF020421A60E7
:101CFC002E4B2F4A5A602D4B00229A602B4B002200
:101D0C00DA602A4B00221A61284B10225A61274BA9
:101D1C0000229A61254B0022DA61244B00221A62C0
:101D2C00224B00225A62214B4FF480529A621F4B75
:101D3C000022DA621D4B4FF480421A631B4B0022C7
:101D4C005A631A4B00229A63184B0022DA63174B22
:101D5C0000225A640F23FB610F233B6246237B62F4
:101D6C000023BB621023FB6211233B6300237B63C4
:101D7C000F233B600F237B600F23BB600F23FB60A3
:101D8C0010233B6111237B610023BB613A4607F1B1
:101D9C001C0319460548FFF755FE0346002B01D0DE
:101DAC0000F0BEF900BF3837BD4680BDB000002042
:101DBC00040100A080B586B000AF3B1D00221A6064
:101DCC005A609A60DA601A611C4B1B68002B31D187
:101DDC001A4B01221A6000233B60194B9B6B184A6B
:101DEC0043F001039363164B9B6B03F001033B60C1
:101DFC003B684FF680737B600223BB600123FB6062
:101E0C0003233B610C237B613B1D19460D48FEF7F8
:101E1C00FDFF4EF2B3737B600223BB600123FB60BA
:101E2C0003233B610C237B613B1D19460648FEF7DF
:101E3C00EDFF00E000BF1837BD4680BD8C000020D0
:101E4C000038024000100240000C024080B582B005
:101E5C0000AF7860FFF7AEFF00BF0837BD4680BD0E
:101E6C0080B58CB000AF07F11C0300221A605A60D9
:101E7C009A60DA601A610023BB61344B1B6B334AE6
:101E8C0043F004031363314B1B6B03F00403BB617E
:101E9C00BB6900237B612D4B1B6B2C4A43F08003E9
:101EAC0013632A4B1B6B03F080037B617B6900235C
:101EBC003B61264B1B6B254A43F010031363234BEA
:101ECC001B6B03F010033B613B690023FB601F4B52
:101EDC001B6B1E4A43F0080313631C4B1B6B03F074
:101EEC000803FB60FB680023BB60184B1B6B174A95
:101EFC0043F001031363154B1B6B03F00103BB6031
:101F0C00BB6800237B60114B1B6B104A43F0020330
:101F1C0013630E4B1B6B03F002037B607B68012287
:101F2C0020210B48FFF71CF92023FB6101233B62A6
:101F3C0001237B620223BB6207F11C031946044890
:101F4C00FEF764FF00BF3037BD4680BD003802404D
:101F5C000004024080B483B000AF78604FF060435F
:101F6C00D3F8803E03F00103002B13D04FF06043F5
:101F7C00D3F8003E03F00103002B0BD000E000BFB0
:101F8C004FF060431B68002BF9D04FF060437A6828
:101F9C00D2B21A707B6818460C37BD465DF8047BCC
:101FAC007047000080B500AFFEF7B6FD00F02CF8CE
:101FBC00FFF756FFFFF782FE124800F07BFAFEF7A0
:101FCC00C9FA4FF6FF70FEF73BFD4FF47A70FEF73F
:101FDC0015FE1F20FEF734FD4FF47A70FEF70EFE4F
:101FEC004FF6E070FEF72CFD4FF47A70FEF706FE0C
:101FFC004FF47840FEF724FD4FF47A70FEF7FEFDA7
:10200C00FEE700BF082D000880B594B000AF07F1C3
:10201C00200330220021184600F0E8F907F10C03E8
:10202C0000221A605A609A60DA601A610023BB6061
:10203C002B4B1B6C2A4A43F080531364284B1B6CAC
:10204C0003F08053BB60BB6800237B60254B1B688F
:10205C00244A43F440431360224B1B6803F440436F
:10206C007B607B6801233B624FF480337B620223ED
:10207C00BB634FF48003FB630F233B64D8237B6467
:10208C000223BB640423FB6407F120031846FFF70B
:10209C00D1F80346002B01D000F042F8FFF77AF894
:1020AC000346002B01D000F03BF80F23FB6002230A
:1020BC003B6100237B614FF4A053BB614FF4805311
:1020CC00FB6107F10C0305211846FFF723FB0346C0
:1020DC00002B01D000F024F800BF5037BD4680BD66
:1020EC00003802400070004080B586B000AFF86048
:1020FC00B9607A6000237B6109E0BB685A1CBA6046
:10210C001B781846FFF726FF7B6901337B617A69E0
:10211C007B689A42F1DB7B6818461837BD4680BD58
:10212C0080B400AF00BFBD465DF8047B7047000073
:10213C0080B483B000AF00237B60104B5B6C0F4A04
:10214C0043F4804353640D4B5B6C03F480437B601E
:10215C007B6800233B60094B1B6C084A43F080539F
:10216C001364064B1B6C03F080533B603B6800BF51
:10217C000C37BD465DF8047B704700BF0038024049
:10218C0080B400AF00BFBD465DF8047B704780B4DF
:10219C0000AFFEE780B400AFFEE780B400AFFEE70F
:1021AC0080B400AFFEE780B400AF00BFBD465DF861
:1021BC00047B704780B400AF00BFBD465DF8047B64
:1021CC00704780B400AF00BFBD465DF8047B70471C
:1021DC0080B500AFFEF7F2FC00BF80BD80B586B0C5
:1021EC0000AFF860B9607A6000237B610AE0AFF35E
:1021FC0000800146BB685A1CBA60CAB21A707B696F
:10220C0001337B617A697B689A42F0DB7B68184604
:10221C001837BD4680BD80B483B000AF78604FF0F6
:10222C00FF3318460C37BD465DF8047B704780B40D
:10223C0083B000AF786039603B684FF400525A604D
:10224C00002318460C37BD465DF8047B704780B4FC
:10225C0083B000AF7860012318460C37BD465DF89B
:10226C00047B704780B485B000AFF860B9607A60C9
:10227C00002318461437BD465DF8047B70470000F8
:10228C0080B584B000AF7860114B1B68002B02D175
:10229C000F4B104A1A600E4B1B68FB600C4B1A68F4
:1022AC007B6813446A46934207D900F075F80246DE
:1022BC000C2313604FF0FF3306E0054B1A687B6864
:1022CC001344034A1360FB6818461037BD4680BDA3
:1022DC00900000200801002080B400AF164BD3F80A
:1022EC008830154A43F47003C2F88830134B1B68CE
:1022FC00124A43F001031360104B00229A600F4BFB
:10230C001B680E4A23F0847323F4803313600B4B49
:10231C000B4A5A60094B1B68084A23F4802313604C
:10232C00064B0022DA60044B4FF000629A6000BF4B
:10233C00BD465DF8047B704700ED00E000380240BC
:10234C0010300024DFF834D0002103E00C4B5B5834
:10235C00435004310B480C4B42189A42F6D30B4AAB
:10236C0002E0002342F8043B094B9A42F9D3FFF7F1
:10237C00B3FF00F017F8FFF715FE704700000320BD
:10238C00942D000800000020700000207000002038
:10239C0004010020FEE70000014B1868704700BFE5
:1023AC000C00002070B50D4E0D4CA41BA410002584
:1023BC00A54209D10B4E0C4C00F088FCA41BA410B8
:1023CC000025A54205D170BD56F82530984701353A
:1023DC00EEE756F8253098470135F2E78C2D0008CA
:1023EC008C2D00088C2D0008902D0008024403460B
:1023FC00934200D1704703F8011BF9E770B50E4604
:10240C00054618B183690BB900F00CFAAB69AC68DE
:10241C0013B9284600F006FA234B9C4217D16C687E
:10242C00A3891B071DD52369DBB1013EA36816F8F0
:10243C00011F013BA360E9B9002B2EDA22460A21C9
:10244C00284600F03FF8013011D00A2011E0174B5C
:10245C009C4201D1AC68E3E7154B9C4208BFEC6889
:10246C00DEE72146284600F07FF80028DDD04FF04B
:10247C00FF3070BD002B04DAA2699A4206DC0A29EF
:10248C0004D023685A1C22601970CFE722462846D4
:10249C0000F018F80130C9D1E9E723680A205A1C6A
:1024AC0022601870E5E700BF442D0008642D000879
:1024BC00242D0008024B01461868FFF79FBF00BF90
:1024CC000C000020F8B50E461446054618B1836979
:1024DC000BB900F0A7F9214B9C422AD16C68A36977
:1024EC00A360A3891A072ED5236963B323692068D7
:1024FC00C01A6369F6B28342374604DC214628468B
:10250C0000F026F928BBA368013BA36023685A1C82
:10251C0022601E7063690130834204D0A389DB07FB
:10252C0019D50A2E17D12146284600F011F990B181
:10253C000FE00B4B9C4201D1AC68D0E7094B9C429D
:10254C0008BFEC68CBE72146284600F00DF80028C0
:10255C00CCD04FF0FF373846F8BD00BF442D0008F3
:10256C00642D0008242D0008324B70B51D680646FA
:10257C000C4625B1AB6913B9284600F053F92E4B24
:10258C009C420FD16C68B4F90C309AB215072CD45C
:10259C00D00611D40922326043F04003A3814FF0DE
:1025AC00FF303EE0254B9C4201D1AC68EBE7244B5D
:1025BC009C4208BFEC68E6E7510712D5616B41B14C
:1025CC0004F14403994202D0304600F019FA00237A
:1025DC006363A38923F02403A3810023636023692D
:1025EC002360A38943F00803A38123694BB9A38912
:1025FC0003F42073B3F5007F03D02146304600F07E
:10260C00BFF9A28912F001030CD00023A360636907
:10261C005B42A361236953B9B4F90C3013F0800009
:10262C00BAD170BD920758BF6369A360F2E700206E
:10263C00F7E700BF0C000020442D0008642D0008B3
:10264C00242D00088A892DE9F041054610070C4617
:10265C0058D44B68002B05DC0B6C002B02DC0020E3
:10266C00BDE8F081E66A002EF9D0002312F4805206
:10267C002F68216A2B6032D0606DA3895A0705D56B
:10268C006368C01A636B0BB1236CC01A002302463B
:10269C00E66A216A2846B047431CA38906D12968FB
:1026AC001D2948D8294ACA40D60744D50022626061
:1026BC00D9042269226004D5421C01D12B6803B9CC
:1026CC006065616B2F600029C9D004F14403994205
:1026DC0002D0284600F094F900206063C0E7012383
:1026EC002846B047411CC8D12B68002BC5D01D2BE8
:1026FC0001D0162B01D12F60B1E7A38943F0400321
:10270C00A381ADE70F69002FA9D093070E6808BF0E
:10271C004B690F6018BF0023A6EB07088B60B8F15C
:10272C00000F9CDD43463A46216AA66A2846B0470C
:10273C00002806DCA38943F04003A3814FF0FF304F
:10274C008EE70744A8EB0008E9E700BF0100402032
:10275C0038B50B6905460C46DBB118B183690BB96A
:10276C0000F060F80C4B9C4209D16C68B4F90C3049
:10277C007BB121462846BDE83840FFF763BF074BC5
:10278C009C4201D1AC68F1E7054B9C4208BFEC6858
:10279C00ECE7002038BD00BF442D0008642D000874
:1027AC00242D0008002310B50446C0E900338360D3
:1027BC0081814366C281C0E90433836119460822D2
:1027CC005C30FFF713FE054B6362054BA362054BB0
:1027DC00E362054B2462236310BD00BF7D2B000810
:1027EC009F2B0008D72B0008FB2B0008014900F099
:1027FC0085B800BF5D27000870B54A1E6825554393
:10280C000E4605F1740100F049F9044640B100216F
:10281C00C0E900160C30A06005F16802FFF7E6FD78
:10282C00204670BD836910B5044633BBC0E9123332
:10283C000365124B124A1B688262984204BF012343
:10284C00836100F01FF86060204600F01BF8A06068
:10285C00204600F017F80022E06004216068FFF7C2
:10286C00A1FF01220921A068FFF79CFF022212217F
:10287C00E068FFF797FF0123A36110BD202D00082E
:10288C00F9270008F8B51B4B1E68B369074613B946
:10289C003046FFF7C7FF4836D6E90134013B03D574
:1028AC00336833B13668F7E7B4F90C506DB168345E
:1028BC00F4E704213846FFF79FFF30600028F1D180
:1028CC000C233B6004462046F8BD0B4B6566C4E9FF
:1028DC000055A560C4E90335C4E90555082229460D
:1028EC0004F15C00FFF782FDC4E90D55C4E91255F3
:1028FC00E9E700BF202D00080100FFFF2DE9F84398
:10290C008046894600F14804002614B93046BDE8DB
:10291C00F883D4E90175013F01D52468F5E7AB894B
:10292C00012B07D9B5F90E30013303D029464046A7
:10293C00C84706436835EEE770B50E46B1F90E1080
:10294C00002996B014461D4607DA00232B60B38984
:10295C001A0610D44FF480630EE06A4600F06EF94C
:10296C000028F2DB019A02F47042A2F500535A429D
:10297C005A412A60EEE740230020236016B070BD58
:10298C008B8973B59D0706460C4607D504F14703A2
:10299C00236023610123636102B070BD01AB6A4601
:1029AC00FFF7CAFF00990546304600F077F848B9A2
:1029BC00B4F90C309A05EFD423F0030343F002036F
:1029CC00A381E3E70D4BB362A389206043F080033E
:1029DC00A381009B6361019B20615BB1B4F90E1074
:1029EC00304600F03DF928B1A38923F0030343F0EE
:1029FC000103A381A3891D43A581CDE7F927000815
:102A0C0038B50546002945D051F8043C0C1F002B65
:102A1C00B8BFE41800F046F91F4A1368104633B9E2
:102A2C00636014602846BDE8384000F03CB9A3420E
:102A3C000CD921686218934204BF1A685B68636002
:102A4C0004BF521822600460ECE713465A680AB1BE
:102A5C00A242FAD919685818A0420BD12068014437
:102A6C00581882421960DDD1106852685A600144CE
:102A7C001960D7E702D90C232B60D3E72068211803
:102A8C008A4204BF11685268626004BF0918216051
:102A9C005C60C7E738BD00BF9400002070B5CD1C4A
:102AAC0025F0030508350C2D38BF0C25002D0646E6
:102ABC0001DBA94203D90C233360002070BD00F068
:102ACC00F1F8214A1468214691B9204C23681BB9AE
:102ADC00304600F03DF820602946304600F038F8CA
:102AEC00431C24D10C233360304600F0DCF8E4E7BF
:102AFC000B685B1B18D40B2B0FD90B60CD50CC186B
:102B0C00304600F0D0F804F10B00231D20F0070034
:102B1C00C31AD3D05A42E250D0E78C424B6816BF4E
:102B2C00636013600C46EBE70C464968CCE7C41CA9
:102B3C0024F00304A04205D0211A304600F008F816
:102B4C000130CFD02560DBE79400002098000020F6
:102B5C0038B5064C0023054608462360FFF790FB6A
:102B6C00431C02D1236803B12B6038BD0001002047
:102B7C0010B50C46B1F90E1000F096F80028ABBF5A
:102B8C00636DA3891B1823F48053ACBF6365A381C9
:102B9C0010BD2DE9F0411F468B89DB0505460C461F
:102BAC00164605D502230022B1F90E1000F068F884
:102BBC00A389B4F90E1023F48053A38132463B460B
:102BCC002846BDE8F04100F017B810B50C46B1F935
:102BDC000E1000F055F8431CA38915BF606523F453
:102BEC00805343F48053A38118BFA38110BDB1F966
:102BFC000E1000F013B8000038B5074C0546084617
:102C0C001146002222601A46FFF76EFA431C02D1CD
:102C1C00236803B12B6038BD0001002038B5064C89
:102C2C000023054608462360FFF7F5FA431C02D142
:102C3C00236803B12B6038BD0001002038B5074C68
:102C4C0000230546084611462360FFF7F0FA431CA3
:102C5C0002D1236803B12B6038BD00BF00010020F6
:102C6C0038B5064C0023054608462360FFF7EFFAFB
:102C7C00431C02D1236803B12B6038BD0001002036
:102C8C0038B5074C054608461146002222601A4604
:102C9C00FFF7E8FA431C02D1236803B12B6038BD5F
:102CAC00000100207047704738B5074C05460846B0
:102CBC001146002222601A46FFF790FA431C02D1FB
:102CCC00236803B12B6038BD00010020F8B500BFAC
:102CDC00F8BC08BC9E467047F8B500BFF8BC08BCF1
:042CEC009E46704749
:102CF000537461727420696E69740D00496E697451
:102D000020646F6E650D000053746172740D0000D5
:102D1000000000000000000001020304060708098B
:102D20001000002000000000000000000000000073
:102D30000000000000000000000000000000000093
:102D40000000000000000000000000000000000083
:102D50000000000000000000000000000000000073
:102D60000000000000000000000000000000000063
:102D70000000000000000000000000000000000053
:042D8000000000004F
:082D840098D4FF7F010000005C
:042D8C00D101000869
:042D9000AD01000889
:102D940010000000010000000024F40010000020D6
:102DA40000000000442D0008642D0008242D0008B4
:102DB400000000000000000000000000000000000F
:102DC40000000000000000000000000000000000FF
:102DD40000000000000000000000000000000000EF
:102DE40000000000000000000000000000000000DF
:102DF40000000000000000000000000000000000CF
:04000005080023517B
:00000001FF
